:020000040808EA
:1000000000000808A8D90808000006000A00050139
:080010000402DB070000000000
:0400180068C30808A9
:1000200008B5024B1B685B6C019308BD2C000608E9
:1000300008B5024B1B689B6D019308BD2C00060898
:1000400008B5024B1B685B6E019308BD2C000608C7
:1000500009480A4908B5884205D0094A824202D0B7
:10006000121A0AF0D3FA0748074A0021121A0AF0B6
:10007000DBFA064808BD00BF0000002054D708087E
:100080002C02002030020020CC100020CC100020D8
:1000900070B507F085FE0025054E064CA41BA4088C
:1000A000A54200D170BD56F8043B98470135F7E7EB
:1000B00014D7080850D7080801F0F2BD08B501F0C0
:1000C000DBFABDE8084007F02DBE06F05BB906F08C
:1000D00059B906F05FB906F05DB9000000210C20A7
:1000E00008B5024A06F03CF8FEE700BF615D08086B
:1000F0000078B0FA80F04009704701230370704720
:1001000070470A2970B505460C4604D140680D2198
:1001100003689B68984768682146BDE8704003689B
:100120009B681847002070470020704701207047E7
:100130000020704703681847012A03D0022A03D021
:10014000002070470160FBE70B680360F8E7704729
:100150007047012310B503748368044643B1C06837
:100160009847012300206374BDE8104005F058BE95
:1001700000680028F5D083680BB909F08FF8C368D0
:10018000EEE710B50446102108F0CFFF204610BD61
:1001900010B504462C2108F0C8FF204610BD06F01B
:1001A00045BB083002F072BDF8B50E46054607F0B3
:1001B00081F9044607F076F9074607F067F97F01F1
:1001C000C3B2A4B207F4FF57A4F2BC743B4343EAA2
:1001D00044232B8007F036F9044607F03FF9054623
:1001E00007F048F9E4026D0104F4FF2405F4FF551B
:1001F0002C43C0F3460004433480F8BD70B50C4670
:1002000059B1456808460AF076FA2B68024621463D
:100210002846BDE87040DB68184770BD10B504463D
:10022000806808B105F0E4FD204610BD10B5044615
:10023000006808B106F0AEF8204610BD07B50122EF
:100240008DF8071008300DF1070102F01FFD03B013
:100250005DF804FB0EB403B503AB53F8042B002187
:10026000019306F02FFF02B05DF804EB03B0704776
:1002700073B5044622790846A36832B1A3B90B4985
:1002800002B0BDE8704006F0DFBE094A267B094D8A
:100290000949647B012E18BF2946CDE9001407499E
:1002A000FFF7D8FF02B070BD054AEFE7F2C30808B8
:1002B000ABCF0808EEC30808EAC3080808C408085A
:1002C000E1C308080EB403B503AB53F8042B0121B6
:1002D000019306F0F7FE02B05DF804EB03B070473F
:1002E00000224068114605F0D5BF10B5836804466A
:1002F00013B1032201469847204610BD08B505F00A
:100300003FFD014B186008BD9010002070B51D46E0
:10031000002386B00446049322B1264B0292059333
:10032000254B04930023E360049B21603BB1022230
:1003300002A9201D9847059B2361049BE3601420BC
:100340001E4908F0F4FE30B10022C0E90022C0E9E5
:10035000022202744274606190B1194B0922C0E913
:1003600002341849CDE90005174B043005F028FD8B
:1003700030B963691B7CA3B9012005F0E9FCF8E7FB
:1003800000236569636165B12E6836B13046FFF7B9
:10039000ACFF1021304608F0C8FE1421284608F0B2
:1003A000C4FEFFF7ABFF02A8FFF79FFF204606B091
:1003B00070BD00BF350108083901080854D308088A
:1003C000F98F080825C40808530108080EB410B5B1
:1003D0000023016820208DB00FAA52F8044BCDE90C
:1003E0000403CDE9004203921E2004AA05F0C8FED2
:1003F0000DB0BDE8104003B07047002300B58BB0CE
:100400000A46014601A8ADF8043002F0F2FB0BB039
:100410005DF804FB13460A460149096802F0E9BB8E
:10042000F4080020642270B580F86024164A002386
:10043000C0F870240122154EC371A0F83C3480F836
:100440006A3480F87424C0F87834A0F87C343178A9
:10045000044611EA0205BFF35B8F0FD13046FFF768
:1004600047FE58B129460A4806F0D4F83046FFF74F
:1004700044FE084A0849064808F052FE044B20464C
:10048000C4F86C3470BD00BF6CCA08083402002088
:1004900038020020300200201D02080830B51C4B35
:1004A00085B00093137900F58C658DF8043093685E
:1004B0000446029393890A46ADF80C3000F26C4171
:1004C0006B46284602F016FF10B9002005B030BD7B
:1004D000256004F23C45284602F084FB01212046B9
:1004E00002F0B7FD014668B12146284602F0ADF999
:1004F0000028EAD094F83C3413F0700FE5D0054B97
:100500001D60E3E7204602F0A4FD0028ECD1DCE703
:100510006CCA0808F408002070B5044600250B4E8C
:10052000A54211D00121308808F0F9FC0A2007F01B
:1005300012F80021308808F0F2FC012C02D03C2097
:1005400007F009F80135EBE770BD00BF140000208B
:1005500010B5114C0121208808F0E1FC4FF4FA603D
:1005600006F0F9FF0021208808F0D9FC4FF4FA606A
:1005700006F0F1FF0121208808F0D1FC4FF4FA6069
:1005800006F0E9FF2088002108F0C9FCBDE8104012
:100590004FF4FA6006F0DFBF1400002038B50A25DA
:1005A0000F4C0121208808F0BAFC962006F0D3FFFA
:1005B0000021208808F0B3FC962006F0CCFF013D16
:1005C000EFD10121208808F0AAFC40F2262006F095
:1005D000C2FF29462088BDE8384008F0A0BC00BF13
:1005E0001400002038B5114C0121208808F097FC38
:1005F0004FF4FA7006F0AFFF0021208808F08FFC5E
:100600004FF47A7006F0A7FF04250121208808F036
:1006100086FC322006F09FFF0021208808F07FFC36
:10062000322006F098FF013DEFD138BD14000020C4
:1006300037B52649054609F0C1FE58B1FFF788FFD6
:100640000021684605F0F5FE684605F0CAFF6846D9
:1006500005F0FEFE28461E4909F0CEFE40B31D49B6
:10066000284609F0C9FE1C490028284614BF4FF44B
:1006700096744FF4D27409F0BFFE1849002828463A
:1006800018BF732409F0B8FE15490028284618BF82
:100690005A2409F0B1FE13490028284618BF3C240B
:1006A00009F0AAFE002818BF1E24204603B030BD62
:1006B00041F2B034FFF74CFF0B4B01211A680B4B92
:1006C000684662431B6806F0B5F8EEE70000A041FB
:1006D0000000C84100000C420000204200007042AF
:1006E00000008C420000A042280000205C02002094
:1006F000F8B58A00073222F0070200AFADEB020D19
:100700006C4600224B1ED5B28D4202F1010211DB74
:1007100018461A1A934214DD2246002585420EDA45
:100720001668D2F804C00135664501DDC2E900C68D
:100730000432F3E750F8256044F82560E3E7013818
:10074000E7E7CA0706D503EBD3735B1054F8230021
:10075000BD46F8BD01EBD171491004EB810354F89B
:10076000210053F8043C184400EBD0704010EFE730
:10077000F0B5D1B06C4600252646434F388808F0C6
:10078000E7FB013546F8040B322006F0E4FE282D85
:10079000F4D128AB0021184654F8042B0131282944
:1007A00043F8042BF8D1FFF7A3FF09F015FC3749F4
:1007B00009F066FC364909F017FD08F0F1FF2AA39D
:1007C000D3E9002304460D4609F042F822462B46A1
:1007D00009F03EF822462B4609F03AF824A3D3E963
:1007E000002306460F462046294609F031F82246E6
:1007F0002B4609F02DF802460B463046394608F0E4
:1008000071FE1DA3D3E9002306460F462046294664
:1008100009F01EF802460B463046394608F062FEE3
:100820001C4B044618680D4608F0BAFF00221A4B0C
:1008300008F056FE12A3D3E9002309F009F80022BC
:10084000164B08F04FFE09F0BDFA08F0A9FF02466A
:100850000B462046294609F025F909F0B3FA51B0B4
:10086000F0BD00BFAFF30080F6285C8FC2D53240E8
:10087000A69BC420B0D23840643BDF4F8D818340BB
:10088000DBF97E6ABC74933F04000020333353408D
:1008900000F07F4530000020000039400000F03FAC
:1008A000F0B5D1B06C4600252646114F388808F0C7
:1008B0004FFB013546F8040B322006F04CFE282D84
:1008C000F4D128AB0021184654F8042B0131282913
:1008D00043F8042BF8D1FFF70BFF09F07DFB054926
:1008E00009F0CEFB044909F07FFC51B0F0BD00BF18
:1008F000040000203333534000F07F4538B50446F0
:1009000005F03EFA054624B9FFF7F8FC05F002FDB4
:10091000F9E705F035FA431BA342F5D338BD70B5AE
:10092000064605F02DFA4FF47A73B0FBF3F51C463A
:1009300005F026FAB0FBF4F35B1BB34204D2FFF7D9
:10094000DDFC05F0E7FCF3E770BD000010B5054CD9
:100950000549204606F07FFB2046BDE8104006F022
:100960007EBB00BF740300202CC408082DE9F043AF
:100970006A4B93B00E9300238DF83C30684B0C21EA
:100980001093012367480EAAADF84430FFF786FDA7
:10099000002840F084806449644809F088FE644877
:1009A00006F01EFC06F020FD624D0446002878D1BA
:1009B00061490EA806F064FA0EA9284606F0AAFAC4
:1009C0000EA806F013FAA9460A27DFF87C81092150
:1009D000484606F015FB6423B4FBF3F33033037091
:1009E0000A21484606F00CFBB4FBF7F606F130038B
:1009F0000B210370484606F003FB07FB1646303612
:100A0000067029684046FFF7F8FC18B10134B4F5C8
:100A10007A7FDCD1494E3368002B32D007F082FD5B
:100A2000474904460EA806F02BFA42490EA806F0E4
:100A3000B4FA0168204606F01EFB0EA806F0D6F9AF
:100A40006420FFF75BFF3368DBB107F06BFD3D49C6
:100A500004460EA806F014FA34490AA806F010FA63
:100A60000AA90EA806F099FA0168204606F003FBD1
:100A70000AA806F0BBF90EA806F0B8F96420FFF743
:100A80003DFF29683048FFF7B8FC00283CD0092218
:100A900029682E48FFF7BEFC13B0BDE8F0832C494F
:100AA0007AE72C4902A806F0EBF902A906A806F09D
:100AB00026FA294906A806F07CFA044606F0B1FC9D
:100AC000264B024600932649C3170AA806F04AFCA3
:100AD0000AA9204606F061FA224906F06AFA0146A0
:100AE0000EA806F00CFA0EA9284606F013FA0EA876
:100AF00006F07CF90AA806F079F906A806F076F95E
:100B000002A806F073F985E740F6012229680F482C
:100B1000FFF780FCFFF71AFFBEE700BF6CCA0808AA
:100B2000002D31014C0400208FC40808E808002083
:100B30000000C0C0A003002098C40808DC08002002
:100B4000C0C40808CFC40808880800207C0300201F
:100B500093C40808A9C40808B5C40808B7C408089D
:100B6000EC0A0020A4C4080830B587B0054606F09A
:100B700058FC04460020FFF7D2FE104B22461B68AB
:100B800002A80093E3170E4C0E4906F0EBFB029906
:100B9000204606F059FA02A806F028F90020FFF7CF
:100BA000BEFE2946204606F04FFA204606F057FAC8
:100BB0000020FFF7B4FE07B030BD00BF5400002096
:100BC00074030020EC0A00202DE9F047B0B007F0D4
:100BD0008FFE014613A801F098F90020FFF79FFE51
:100BE0004FF4164113A801F054FAB34C23680028BF
:100BF00000F0CE803BB107F095FCB04906F03BFA1F
:100C00006420FFF77BFE0020FFF789FE13A801F0A8
:100C1000E4F9054648B123688BB107F083FC294607
:100C200006F012FA6420FFF769FE23683BB107F073
:100C300079FCA34906F01FFA6420FFF75FFE4FF42A
:100C4000FA7006F088FC13A801F043FA48B923684B
:100C50003BB107F067FC9B4906F00DFA6420FFF7F3
:100C60004DFE06F0C1FB984E0546002840F09780E7
:100C700096490FA806F004F90FA9304606F04AF984
:100C80000FA806F0B3F8B2464FF00A08DFF86492F6
:100C90000921504606F0B4F96423B5FBF3F3303371
:100CA00003700A21504606F0ABF9B5FBF8F707F1DF
:100CB00030030B210370504606F0A2F908FB1757CA
:100CC0003037077031684846FFF797FB18B1013598
:100CD000B5F57A7FDCD144F2022231687C48FFF717
:100CE00099FB13A801F0FAF9236887B24BB307F018
:100CF00019FC0A22394606F0C8F96420FFF7FEFD08
:100D00002368F3B107F00EFC724906F0B4F96420D1
:100D1000FFF7F4FD2368A3B107F004FC6E49054614
:100D20000FA806F0ADF868490FA806F036F901687B
:100D3000284606F0A0F90FA806F058F86420FFF73F
:100D4000DDFD05F01DF801218046082008F0D6F8E9
:100D50000025DFF8B4A1002F54D0202FB946A8BF3A
:100D60004FF0200913A85FFA89F101F0D0F901359D
:100D700001464A465046EDB2FFF713FA3F2D03D91C
:100D80000120FFF7C9FB0025A7EB0907BFB2E2E787
:100D9000002B3FF438AF07F0C5FB50492EE7504910
:100DA00003A806F06DF803A907A806F0A8F84D49B6
:100DB00007A806F0FEF8054606F033FB4A4B02464C
:100DC00000934A49C3170BA806F0CCFA0BA9284692
:100DD00006F0E3F8464906F0ECF801460FA806F0E5
:100DE0008EF80FA9304606F095F80FA805F0FEFF23
:100DF0000BA805F0FBFF07A805F0F8FF03A805F016
:100E0000F5FF68E73846FFF78AFD314801F0B4FE88
:100E10002F4801F0E7FE344D002841D031683548B5
:100E2000FFF7EBFA00283BD006F0FBFA2F49024609
:100E3000C31700950FA806F095FA0F9A2E492F4870
:100E400005F0B8FA0FA805F0D1FF23683BB107F011
:100E500069FB2A4906F00FF96420FFF74FFD04F003
:100E60008FFF2368CBB1A0EB080807F05BFBB8F15C
:100E7000000F054604DA2D2106F0EAF8C8F1000853
:100E80000A224146284606F000F907F04BFB1C49B0
:100E900006F0F1F86420FFF731FD30B0BDE8F087CF
:100EA00006F0BFFA11490246C31700950FA806F0D5
:100EB00059FA0F9A1349C2E7DC080020DBC408087E
:100EC000FAC408080EC50808A00300201EC50808BB
:100ED0007C0300203EC508084CC50808E9C4080882
:100EE000A9C40808B5C408082FC50808EC0A0020E2
:100EF0002AC50808880800205CC50808B00300203F
:100F00008CC5080874C508087403002030B589B082
:100F10001C22002101A809F087FB20238DF8053051
:100F200041F2E823ADF80630124B02934FF48D5393
:100F3000ADF80C304FF40073009307F0F3FA002182
:100F40000546684605F07AF9041E10DA2D21284678
:100F500006F07EF861420A22284606F096F82846F6
:100F600006F07DF80020FFF7DAFC09B030BD21461D
:100F7000F1E700BFB004E80310B58AB06846104935
:100F800007F00AFC039809F027F80E4C02460E49B8
:100F9000204603F08DFC029809F01EF80B4902462A
:100FA000204603F085FC0A4A2046114603F089FCDE
:100FB0000520FFF7B4FCFFF715FB0AB010BD00BF1A
:100FC000380F0020D008002098C50808A1C50808DF
:100FD000A9C40808002230B585B00D4669460092C4
:100FE00005F0D6F8B0B9009C0CB1236923B90021F3
:100FF0000A20094A05F0B4F80023ADF806300C23A6
:10100000ADF804300423012103932046236902959F
:1010100001AA984705B030BD615D08082DE9F0418F
:101020008EB00121684605F004FA3F493F48FFF7BA
:10103000CDF9684605F07DFA3D4902463B48FFF789
:10104000C5F9684605F048FA3A4902463748FFF7BD
:10105000BDF9684605F04CFA374902463348FFF7B8
:10106000B5F9684605F051FA344902462F48FFF7B2
:10107000ADF907A91820FFF7ADFF07A9071E4FF02C
:101080000700A8BF079FFFF7A5FF07A9061E4FF09F
:101090000300A8BF079EFFF79DFF002840D1BDF8C1
:1010A0001C0008F095FF4FF06E5108F0E9FF8046F4
:1010B000234C07AD0FCC0FC594E807000C3485E82E
:1010C00007000FCC01AD0FC594E8030085E80300CD
:1010D0000EAB27EAE77703EB870757F8342C19495B
:1010E0001248FFF773F926EAE6760EAB03EB8606A5
:1010F00056F81C2C14490D48FFF768F9404608F0D3
:101100004FFB02460B4609481049FFF75FF90020E4
:10111000FFF705FC684605F09BF90EB0BDE8F081CD
:10112000DFF82C80C4E700BFABC50808E80A002040
:10113000C2C50808DEC5080800C608081AC608089F
:10114000E0CA080839C608084AC608085CC6080884
:10115000000080BF38B5046805467CB16368013B78
:1011600063605BB9236820469B689847A368013B8E
:10117000A3601BB923682046DB689847284638BD22
:1011800030B5264887B001F0F7FC60B9244B02A8BF
:101190001B78244A8DF8003023493C2306F080FF59
:1011A00003A8FFF7D7FF1D4801F0E6FCC820FFF7B2
:1011B000A5FB1A4801F016FD1C4D1D4C10B31D4B2C
:1011C0001D481968FFF719F9E0B106F02AF91B4923
:1011D0000246C317009502A806F0C4F8029A1849FF
:1011E000184805F0E7F802A805F000FE23683BB1B7
:1011F00007F098F9134905F03EFF6420FFF77EFBE6
:1012000007B030BD06F00DF90C490246C317009532
:1012100002A806F0A7F8029A0B49E1E77C03002038
:10122000600200206FC608087BC608082FC50808A2
:10123000DC080020A003002088080020EC0A002021
:101240007FC60808B003002095C608081FB50E49E0
:1012500005F0C3FE0D4B90B1B4221A600C4B0D4A41
:101260001B780D498DF8003002A83C2306F018FFCA
:1012700003A8FFF76FFF012005B05DF804FB05220E
:101280004FF0FF301A60F7E7ABC6080824000020D3
:1012900060020020B0C60808BDC6080800232DE97A
:1012A000F04F624C87B01A4619466068DFF8B4B157
:1012B00004F0D8FFC82006F04EF9DBF8000008F073
:1012C0005DFA00225A4B08F0C3FA08F05BFD029069
:1012D000002004F065FD029B0022194605464FF0F0
:1012E000000ACDE90212002004F05AFDDDE90223D4
:1012F000B0EB050861EB0A09994508BF904506D295
:101300002046FEF7EDFF10B905F004F8EBE747487B
:10131000FEF7E6FFB0B9FFF741F94FF4FA7006F0B7
:101320001AF9FFF73BF9434B1B683BB107F0FAF89A
:10133000414905F0A0FE6420FFF7E0FA4FF4FA708F
:1013400006F009F9DBF8000008F018FA00223B4B20
:1013500008F07EFA08F016FD0446002004F020FD97
:101360004FF0000980460025DFF8C0A0002004F0FF
:1013700017FDB0EB080661EB0907AF4208BFA642B4
:1013800006D25046FEF7ACFF10B904F0C3FFEDE7FC
:101390002648FEF7A5FF274D48BB294CFFF7FEF86E
:1013A0004FF4FA7006F0D7F8FFF7F8F822682549ED
:1013B000254804F0FFFF2B6863B107F0B3F8234919
:1013C00005F042FE07F0AEF81F4905F054FE642018
:1013D000FFF794FAC82006F0BEF81D4B21681A6882
:1013E0001C4B4A431B68012104A805F023FA04F0B2
:1013F00099FFFEF783FF184B184A1B7818498DF8A0
:10140000003004A83C2306F04BFE05A8FFF7A2FE1F
:101410002B683BB107F086F8104905F02CFE6420DC
:10142000FFF76CFA07B0BDE8F08F00BF380F00205F
:101430000000F83FDC080020C6C608080000E03FB6
:1014400018000020F5C60808B003002028C70808C7
:10145000280000205C02002060020020AEC30808C3
:1014600048C70808080000202DE9F043DFF8FC9188
:101470009DB0D9F8000008F093F9DFF8F481CDE9C8
:101480000E01D8F8000008F08BF9614FCDE90C018E
:10149000386808F085F95F4ECDE90A01306808F038
:1014A0007FF95D4DCDE90801286808F079F900223F
:1014B0005A4B5B4CCDE90601CDE9042350A3D3E997
:1014C00000235849CDE902234FA3D3E9002356480E
:1014D000CDE90023554A04F06DFF2378524A544960
:1014E0008DF8003012A83C2306F0DAFD13A8FFF7B0
:1014F00031FE4FF4FA7006F02EF84E4B186808F0E3
:101500004FF9CDE90E014C4B186808F049F9CDE9C7
:101510000C01D9F8000008F043F9CDE90A01D8F828
:10152000000008F03DF9CDE90801444B186808F0C7
:1015300037F9CDE90601386808F032F9CDE9040140
:10154000306808F02DF9CDE90201286808F028F983
:101550003B4ACDE9000196213A4804F03BFF23784D
:10156000384A39498DF8003012A83C2306F098FD1E
:1015700013A8FFF7EFFD4FF4FA7005F0ECFF334BC3
:101580001B683BB106F0CEFF314905F074FD6420C5
:10159000FFF7B4F92F4B30491A68234804F00AFFCB
:1015A0002378214A22498DF8003012A83C2306F006
:1015B00077FD13A8FFF7CEFD4FF47A70FFF79EF981
:1015C000264B27491A68184804F0F4FE254B184AA0
:1015D000254912A804F0EEFE2378134A12A98DF8CB
:1015E000003010A83C2306F05BFD11A8FFF7B2FD08
:1015F0000120FFF794F91DB0BDE8F083AFF3008040
:101600009A9999999999A93F666666666666E6BF52
:101610004C020020300000202C0000200000F43F8D
:101620006002002051C70808B0030020E80800202D
:10163000A9C40808E0080020480200204402002055
:10164000DCC708086102002066C80808DC08002022
:101650006BC80808240000207EC808081800002075
:10166000A2C80808B7C80808C8C808080C000020A5
:1016700048040020000000002DE9F04FBA4CA3B050
:1016800022683AB106F04EFFB84905F0F4FC00209C
:10169000FFF745F9002118A806F024FA0020FFF70B
:1016A0003EF918A806F0F2FA0120FFF738F918A859
:1016B00006F06EFAAE4EAF4D306018A806F086FA0E
:1016C000236828603446002B75D006F02BFF824635
:1016D000306808F065F8064628680F4608F060F89C
:1016E00099A3D3E90023804689463046394608F05D
:1016F000D9F942464B46CDE90201CDE900679E4942
:101700005046FEF7DFFD06F00DFF9C49804620683D
:1017100008F0B6FC08F044F88DA3D3E9002308F0E4
:10172000C1F9064628680F4608F03AF802460B460B
:101730003046394608F0B6F902460B46002090497B
:1017400007F0CEFE07460E460022002338463146FB
:1017500008F00EFB08B906F1004600223146894B1D
:10176000384608F075F802460B4640468649FEF7B3
:10177000A9FD06F0D7FE0646206808F011F8002201
:10178000804BCDE9042300220023CDE9022370A37E
:10179000D3E90023CDE9002300227C4B05F0A0FE15
:1017A00002460B4630467A49FEF78CFD0020FFF7D3
:1017B000B6F8FFF733FC21682868FEF739FF754B50
:1017C0004FF002081860FFF7D1F8734B734C18887C
:1017D00007F0BEFB08F000FC714B002118601820D8
:1017E00007F09DFBC82005F0B6FE6E4FDFF88C9128
:1017F000204603F093FF3860204604F08AF86A4DD3
:101800006A4E2860204603F0B3FF494608F0ECFC1E
:101810003060C82005F09FFEB8F1010F40F0F28162
:1018200034682146204608F0F1FD28B94FF07E517A
:10183000204608F0C3FD18B15D4B2B603B60336060
:101840005C4803F06BFF5C4C5C4D2060594803F032
:101850008FFF4A4908F0C8FC2860C82005F07BFECD
:10186000544803F05BFF2060524803F081FF434976
:1018700008F0BAFC2860C82005F06DFE3168084603
:1018800008F0C4FD28B94FF07E51286808F096FD95
:1018900010B1474B23602B60386807F081FF2EA3FF
:1018A000D3E9002307F01CFE08F08CFA05463860E7
:1018B000206807F075FF2AA3D3E9002307F012FE82
:1018C00008F080FA3E492060284608F077FD20B9EC
:1018D00028463C4908F090FD48B100211EA804F0BC
:1018E000A8FD1EA804F068FE1EA804F0B1FDFEF7D6
:1018F0003FFF354908F0C4FB344D354E2860FEF7F4
:10190000CFFF00213060032007F009FB00211920E0
:1019100007F005FB2F4B304A18681B795168169069
:1019200010688DF85C301AAB03C31189927A198064
:101930009A702A4A1EAB10685168DFF8809003C382
:101940004EE000BFAFF300809A99999999991140A0
:101950009EEFA7C64B371140666666666666E63F31
:101960009A9999999999A93FDC080020D2C808084A
:10197000E008002048020020DAC808080000C84239
:101980000000F03F0000594004C9080800000C4066
:1019900018C908081800002000000020F8020020E4
:1019A000480400202C000020100000201C00002013
:1019B0003333C6C22803002030000020200000205E
:1019C000000020C1000020420000A03F4C02002087
:1019D00044020020F5C90808FAC9080805CA080821
:1019E000DFF8B0821189927A19809A70D8F80010C5
:1019F000D9F8000008F03AFA07F0D2FE8AA3D3E93A
:101A0000002307F025FF08F0DDF9894FDFF888A2F1
:101A1000DFF888B2DAF80020386016A9854802F0AD
:101A200047FFDBF8002083481EA902F041FF824BEC
:101A300080481A681AA902F03BFFD8F800207F49B5
:101A40007C4802F035FF7E4A7E491268794802F0F0
:101A50002FFFD9F800207C49764802F029FF3A6828
:101A60007A49744802F024FF794B7A4C1A687A4913
:101A7000704802F01DFF226878496E4802F018FF96
:101A80002A6877496B4802F013FF32687549694844
:101A900002F00EFF6E4B186807F082FECDE91401CC
:101AA000206807F07DFECDE91201D9F8000007F0AB
:101AB00077FECDE91001D8F8000007F071FECDE9FE
:101AC0000E01DBF8000007F06BFECDE90C01386871
:101AD00007F066FECDE90A01DAF8000007F060FEC3
:101AE000CDE90801306807F05BFECDE90601286802
:101AF00007F056FECDE90401514A5B4D106807F02E
:101B00004FFECDE902014C4B186807F049FE574AD9
:101B1000CDE900019621564804F05CFC5448FFF7DB
:101B200023F82A688AB106F0FDFC524905F0A3FAB1
:101B30006420FEF7E3FE2B683BB106F0F3FC4C4952
:101B400005F099FA6420FEF7D9FE0020FEF7E7FEC3
:101B5000FFF716FB4849206808F04EFC98B105F0E5
:101B600071FC0A2851D101211A2007F0D8F902206E
:101B7000FEF7D5FEFFF728F80120FEF7D0FE002182
:101B80001A2007F0CCF93D49206808F035FC28B14F
:101B9000FFF784FBFFF7F0F9FFF766FC2B68384D81
:101BA000E3B106F0BFFC374904461EA805F068F90A
:101BB0000A2229681AA805F0C6F91AA91EA805F074
:101BC000ECF90168204605F056FA1AA805F00EF95E
:101BD0001EA805F00BF96420FEF790FE2A4B18684A
:101BE000FEF79DFE294B29681A68294B4A431B685A
:101BF00001211EA804F01EFE18A805F082FF23B0E4
:101C0000BDE8F08F4FF00108F2E505F01BFC0B2852
:101C1000A9D005F017FC0E28A5D005F013FC0F285D
:101C2000B1D1A0E7AFF30080C4CE143AAFB1D93F31
:101C30000C000020D00800202C0000202EC908082D
:101C4000300000203BC9080846C908084EC90808EA
:101C5000E00800204802002057C908085DC90808AC
:101C600061C9080869C90808DC08002071C90808AA
:101C700061020020CAC90808000020420000B442E6
:101C800018000020EBC908082400002028000020CC
:101C90005C0200201C0000204804002010000020EE
:101CA0001FB506F03FFC4FF4165106F01DFC06F080
:101CB00039FC05F0D4F90120FEF731FE1820FEF7BB
:101CC00004FA044628B14FF4C0633A4A3A49FEF791
:101CD0001DFB3A4B3A4A1C603A4B01211A603A4BC1
:101CE000188807F00BF90121032007F007F90121FB
:101CF000032007F014F90121052007F0FFF8012166
:101D0000052007F00CF90121182007F0F7F8012150
:101D1000182007F004F90121192007F0EFF801213C
:101D2000192007F0FCF801211A2007F0E7F800213C
:101D30001A2007F0F4F80020FEF7F1FDFFF7E6F8AF
:101D40007721224803F0CCFC60B9214B02A81B7814
:101D5000204A8DF8003020493C2306F0A1F903A861
:101D6000FFF7F8F976211D4803F0BAFC60B9184B6B
:101D700002A81B78174A8DF8003017493C2306F05B
:101D80008FF903A8FFF7E6F9154A1649164806F039
:101D900094F806F0C7FB06F0ABFB144B186038B1A3
:101DA00006F0C0FB124905F066F96420FEF7A6FDB7
:101DB00004B010BD9F010808C0270900E4080020F6
:101DC000A9010808F008002014000020F8020020F3
:101DD0006002002010CA080824CA0808280300204E
:101DE0002CCA08084D1208088F7E0808DC0800205D
:101DF00032CA08082DE9F04100240127294B2A4E58
:101E00001C602A4B2A4D1F7030462A4905F038F8CD
:101E10003046294E2A46294907F082F93046FEF716
:101E200001FB2A463046264907F07AF92548264B19
:101E300026492A4603600481446007F071F906F0E0
:101E400071FB2022224B4FF002081A7241F20A0263
:101E5000DA60204A83F81080C3E900205C611C76B8
:101E60001D4803F05BFB1D4803F058FB1C4E1D4B47
:101E70004046B3603460B480B4711B4C04F09AF9EE
:101E80002A463046194907F04BF93A462046184988
:101E900002F0DEFC2A462046BDE8F041154907F075
:101EA0003FB900BF5C020020A003002060020020B8
:101EB00030020020ABCF08084C040020ED6D08086C
:101EC0005101080874030020D0CA08084F0108080F
:101ED00058030020B0CA0808F80200202803002098
:101EE000500200200000FFFFD00800202D0208084B
:101EF0003FCA08086D4808080023C0E91B33A0F852
:101F0000683080F866300370704708B5FFF7F4FF5B
:101F1000016708BDF8B50546C06E0F461446D618D1
:101F2000A8B1036856219B689847E86E2978036832
:101F30009B6898473946E86E03689B689847B442A7
:101F40001CD0E86E14F8011B03689B68F6E7286F45
:101F5000562103689B689847286F297803689B6817
:101F600098473946286F03689B689847B44205D064
:101F7000286F14F8011B03689B68F6E7F8BDF8B5F5
:101F8000002504460E46174680F86650BD4294F878
:101F9000660021D086421FD0E06E50B103681B69F5
:101FA0009847002807DC0120013505F0D4FAEDB28E
:101FB000ECE7206FF2E7E06E60B1036800255B6933
:101FC000984794F86630C0B25A1C234484F86620BF
:101FD0005870DBE7206FF0E7F8BD13B50123044626
:101FE000112101AA8DF80430FFF794FFC822642163
:101FF0002046FFF7C4FF28B1002294F86630601C29
:1020000023445A7002B010BD4378762B0BD18278EE
:1020100003789A4207D1C3788B4204D10079B0FA91
:1020200080F040097047002070472DE9F0411F46BD
:102030009DF81C3004460D4616469DF818801BB1CD
:102040000A226421FFF79BFF3B4632462946204681
:10205000FFF760FFC82241462046FFF790FF40454A
:1020600005D129462046BDE8F041FFF7CDBF00204D
:10207000BDE8F0811FB5002305228DF80C30012347
:102080002621CDE9002303AAFFF7CFFF05B05DF8B5
:1020900004FB10B50446C06E30B101F005FF2046C8
:1020A000BDE81040FFF7E6BF206F06F01DFCF6E725
:1020B0001FB501238DF80C30019305238DF80D1009
:1020C00000933621022303AAFFF7AFFF05B05DF8A6
:1020D00004FB0021A0F86810FFF7EABF1FB5012339
:1020E000ADF80C30019309233421009303AA022395
:1020F0000446FFF79AFF40B1E088237A40BA80B2E5
:1021000043EA0023607A40EA032004B010BD0023B4
:102110000C2270B586B0CDE9023304938DF8082007
:10212000B0F86820019305230D460A2611128DF898
:102130000D108DF80E20009332210D2302AA0446C3
:102140008DF80A608DF814608DF81250FFF76DFF5E
:1021500010B9002006B070BD691D32462046C9B2D4
:10216000FFF70DFF0028F4D0B4F86810601C0D4490
:10217000A4F86850EEE710B50446243000F05CFE89
:1021800028B104F50C70BDE8104000F055BE10BD3C
:10219000411E00F10A030020420842EAC01011F873
:1021A000012F10448B4200F0FF00F5D17047000072
:1021B0002DE9F047064610F8013B202BFAD0002409
:1021C0006A4D8E60335DC3B12F2B16D05C2B02D1CC
:1021D0000020BDE8F087A3F12200C0B21D2803D87B
:1021E00025FA00F0C007F3D403F0BF003C28EFD07D
:1021F000203B5E2BECD80134E4E733191846074640
:1022000010F8015B202DFAD02F2DF8D017604CB1BB
:1022100013F8012D2E2A01D0202A01D1013CF6E726
:10222000FF2CD5DC20204C6001F10D0301F11802D8
:1022300003F8010B9342FBD14FF0000816F8083069
:102240002E2B01D0202B02D108F10108F6E7B8FAB5
:1022500088F0651E40096B1C02D0735D2E2B14D1D3
:102260004FF0000907274A46CA464FF0080EA0451E
:1022700069DA16F80830202B03D02E2B07D1A84599
:1022800012D0002008F10108F1E7013DE3E7222B1D
:1022900008D07C2B06D0A3F12A0CBCF1050F0BD87B
:1022A0002D2B13D0A8455CD10A2F4BD0A8460A2766
:1022B00008224FF0100EE5E7A3F13A0CBCF1050F30
:1022C000F0D9A3F15B0CBCF1020FEBD9A3F1210C07
:1022D000BCF15D0FE6D8A845E6D0BA4230D8A3F1EC
:1022E000610CBCF1190F1AD8203B4EEA0909DBB288
:1022F0005FFA89F902F1010C5FFA8CFC0A44BCF127
:10230000060F537301D881F80CC06246BAE7A8459E
:1023100018DCA8460A2708224FF0100EB1E7A3F1F7
:10232000410CBCF1190F98BF4EEA0A0AE2E70120FE
:102330000B7B087019447E234B7331238B7348E762
:102340000A2FE4D100204B7B202B3FF441AF002823
:10235000EDD01AEA090F18BF4FF0020981F800907A
:1023600037E7BA42ECD85F230020C3E70101003110
:102370002DE9F84306460C4602257E2791F80C907D
:1023800001F10D086168A2686B189BB2114491427B
:1023900006D012F8010B03EB431343409BB2F6E760
:1023A000B9F1030F28BF4FF0030909F10402D2B2BB
:1023B00003F00F01A018013A0929D2B294BF3031BD
:1023C0003731914541734FEA1313F1D104EB0903FF
:1023D000002130465F7300F01EFB0121304600F003
:1023E000FBFA014628B97078B0FA80F04009BDE8E0
:1023F000F88303786BB1C37A1B07EED40B224046F7
:1024000008F0F6F80028E8D10135ADB2642DB9D155
:10241000EDE70120EBE700002DE9F04F89B00493D0
:102420000B780D4613F0700F9046059003D10020F5
:1024300009B0BDE8F08F059B1B78002BF7D15368DE
:10244000284603931378990718BF039B4FF00001A8
:102450001FBF03F10C070D23B7FBF3F701370CBFC8
:102460000127FFB200F0D7FA00239B461C461E4608
:102470009A4608F10D02029307926A6901212846E3
:102480000693C2F34F1900F0A7FA069B00286FD1FC
:102490006B78002BCBD1049B9A05C8D503F00303BE
:1024A000013B012BC3D8029B002C08BF4B46029373
:1024B000BC42C0F00381BAF1000F40F01B81029BC7
:1024C0002846590100F0A7FA0028B0D0013F5FFA72
:1024D00087FA56464FF000090F27002E00F02181A1
:1024E0000021284600F078FA044600289FD056457F
:1024F00018BFB346AA6808BF46F0400B92F82430D4
:1025000043F0010382F8243080F800B0C77280F8ED
:102510000C9008F10D00FFF73BFE0D2200230BF09D
:102520001F0B0BF1FF3B02FB0BF2607384F81A9058
:1025300084F81B90D8F808C00399914240F2E280D9
:102540001CF80210042B5FFA83FE03F1010000F275
:10255000DF8004EB4303A3F801100D28034602F1CA
:102560000102E9D1013EF6B2B7E74FF0010A84E774
:102570000278E52A00D07AB90299002C08BF4946B2
:10258000BC4238BF0134029138BFE4B2002A82D085
:10259000E52A04D1002670E7BC4238BF00242E2A69
:1025A000F8D0C17A0F295DD13EBB12F040063FF44E
:1025B00064AF02F01F06B346437B4FF00D0E0BF1E4
:1025C000FF320EFB02FE039A7245E3D94FF0000C76
:1025D000A2EB0E020692BCF1040F0CEB0E095FFA9F
:1025E0008CF214D800EB4C02B2F8012006998C450D
:1025F0001BD1002A18BF00263FE70BF1FF3B5FFA13
:102600008BFB5A45C6D1427B9A42D6D0C2E70A2AF2
:1026100095BF0CF1FF320CF1010200EB420200EB1E
:10262000420294BFD2889288E0E7FF2AB2D8D2B2A1
:10263000A2F141011929D8F8081098BF203211F8E9
:10264000091098BFD2B2A1F14109B9F1190F9CBF8D
:102650002031C9B291429DD10CF1010CBCF10D0F9A
:10266000B9D10AE70A0795D466B1BBF1010F02930D
:102670007FF4DDAEFFF78CFD029B98427FF4D7AE6E
:10268000B2460EE00B220799069307F0B1FF069BB6
:1026900000287FF4F2AE98F800A01AF0010A7FF447
:1026A00064AF049B19053FF5C2AE4A462946049B18
:1026B0000598CDF800A000F0F1F9B9E60021284610
:1026C00000F08AF998B96B78002B7FF4B0AE2846F9
:1026D00000F06EF800283FF4AAAEAB681B79012B1E
:1026E0003FF6E9AE1034E4B2A742F0D8E3E6013495
:1026F000E4B2DDE641462846FFF73AFE00287FF4C3
:10270000DEAE94E614BF4FF0FF31002189B219E725
:10271000BEF10A0F94BF04EB430304EB400399801E
:102720001BE7314628466F6900F056F90446002839
:102730003FF47DAE2022314607F076FF434653F842
:102740000D2F22605A6862601A8922819B7AA372D7
:1027500098F8003003F0180323730F4B1B689BB1EC
:1027600004F10E0104F110009847238AC7F34F19B2
:1027700063822383E389E382AA6892F8243043F0DA
:10278000010382F8243090E7212323742823637403
:102790000823A673E373E8E7F00800208378016953
:1027A00043F00403837000F11002806800F0F9BB6D
:1027B0002DE9F0410178044611F0200503D00026F0
:1027C0003046BDE8F0814269174B9A42F7D2FFF7D5
:1027D000E5FF06460028F2D02169A06800F076FBEC
:1027E0000746A06805223946243000F04CFB80469D
:1027F0000028E4D029464FF4007207F015FF0125A8
:10280000A3681A79AA4209D942461868E91900F062
:10281000A4FE0028D3D00135EDB2F1E7636903EBE4
:1028200042236361CCE700BF00FE1F0010B50446E1
:1028300080680A462430A16900F025FB20B1A388F6
:1028400003F00F0300EB431010BD70B5047805468C
:102850000E464CB92422214607F0E6FEAE60F3791D
:10286000102B03D0202B07D0002004E020230124CC
:1028700020462B70AC7070BD4023F8E72DE9F74F70
:102880000378044688461546002B5DD08278D10730
:102890005AD51A072DD5C36942699B1A9D4228BF94
:1028A0001D462E464FF0000904F1100B002E00F0DB
:1028B0008F80227863699706A068C3F3080A4FEAFD
:1028C00053211FD5006A0144A068BAF1000F42D11C
:1028D000B6F5007F3FD3C36A99423CD0B6F5806F0E
:1028E00052D24246006800F0AFFD68B34FF4007763
:1028F00044E09B06D5D583681A894369C3EB42132C
:102900009BB2CBE790F8059009EA0109BAF1000FF4
:1029100008D1B9F1000F05D15BB951064CBF036A6C
:10292000236A23612169A06800F0D0FA09EB000155
:10293000CAE75A46216900F0CFFA002804DBF1D13A
:10294000237813F0700F43D163784FF0FF3043F0DA
:10295000020363703DE0CAF50077B7424FF0000212
:1029600000F1240028BF374600F08DFA0028EBD094
:1029700000EB0A013A46404607F048FE6369B84456
:102980003B446361F61B91E722784FEA562A920690
:1029900006D40279A2EB0902D2B2924528BF924630
:1029A00099424FEA4A2708D2A06853464246006837
:1029B00000F092FD0028E1D1C6E753448B42F3D9E1
:1029C0002430019100F038FA01990028ECD1BBE7DE
:1029D000A81B03B0BDE8F08F37B54369044613F474
:1029E000F07FC3F3431500D099B9012220460DF1C1
:1029F0000701FFF743FF40B2012802D0002003B0D7
:102A000030BD63691F33A0686361303000EB45104F
:102A1000F5E72033F7E72DE9F041027804460D464B
:102A2000076962B14069884202D019B921616561C4
:102A3000012006E0160706D5E3698B420BD2002081
:102A40002761BDE8F081910605D5A3681B89B5EB28
:102A5000431FECD9F3E7D4F808C0431E9CF8066086
:102A600006F109016E1ECB40CE40B34200D898B9A2
:102A700053064CBFDCF82030236A236104F11008B0
:102A8000002ED4D042462169A06800F025FA002823
:102A900006F1FF36F4DCD2E7F61AEFE7F8B50F4699
:102AA00004461646002124221D4607F0BDFDB868E5
:102AB000A680A0603B6A06F00F0600F13002E360DA
:102AC000710102EB4616F37A1F0746D4431893F8B8
:102AD0003B3003F017032370F27A12F0180F04BF93
:102AE00043F0080323709DF81830E37005F00303EA
:102AF000012B2CD0022B28D07BBB6A052DD40123BF
:102B0000A370A278930704D52378DF0625D4DE07C7
:102B100023D4AB1123F07F0305F00806334313439E
:102B2000A370C36AA3614318B3F84420B3F84A10F2
:102B300041EA02416A0513D559B9A37843F0040369
:102B4000A3706B0410D40120F8BD0323D8E702233F
:102B5000D6E700F061FA0028EFD100202070F3E7FB
:102B60002162DB6CE361ECE72046E169FFF753FF8C
:102B70000028E8D1F1E7000038B5037804460BB926
:102B8000012038BD83785A0723D50121FFF74EFE77
:102B9000054628B96378002043F001036370F0E72D
:102BA0000378E52BF6D023781B0744BFE369C361A4
:102BB000238C4383638C8382094B1B682BB100F108
:102BC0001601183098472B8B6B82A37823F00403EF
:102BD000A370A068FFF7CFFA0028DBD0D0E700BFD2
:102BE000F008002010B50446FFF7C6FF002323704D
:102BF00010BDF0B51F46002393B0ADF82430037824
:102C000006460C46019213B1002013B0F0BD0B78BC
:102C100013F0700FF8D013782F2B12D1019A13787C
:102C20002F2B02D101320192F8E7A1681BB930467F
:102C3000FFF70BFEE9E709A8FFF707FE0028E3D03E
:102C400009AC019801AA03A9FFF7B2FA0028DBD06A
:102C5000019B1B789BB100232146304603AAFFF756
:102C6000DBFB0028D0D0354609AC0FCD0FC40FCD0B
:102C70000FC42B6830462360FFF7B4FFE0E73B4604
:102C80002146304603AAFFF7C7FBBEE72DE9F04710
:102C9000037889461907044617465BD583789A0757
:102CA00058D51B0751D46369DB43BB4252D3B846A6
:102CB00004F1100A6669B8F1000F00F09180A06875
:102CC000C6F30805437913EA56260ED16DB921697A
:102CD000002946D0524600F0FFF800283ADB04D124
:102CE0002046FFF75BFD002834D02169A06800F082
:102CF000EDF83118A06815B9B8F5007F3FD2C5F5D9
:102D00000076464528BF4646002D36D16269E36904
:102D10009A4234BF01220522243000F0B4F8C8B131
:102D2000284432464946354407F070FCB5F5007F2B
:102D300004D1A068243000F07FF858B16369B14431
:102D400033446361A8EB0608B4E7C169FFF763FE8B
:102D50000028A8D163784FF0FF3043F0010363707F
:102D600050E0236A3BB92046FFF718FD0028F1D058
:102D700023692362B9E72361B7E70122CCE7B8F5FD
:102D8000806FC26A1BD390F804C04FEA582EACEB98
:102D90000606F3B2734528BF734691424FEA4326B5
:102DA00007D31A448A4282BF4FF0FF3280F8245082
:102DB000C262A5684A46286800F044FCBDE791421B
:102DC00002BF4FF0FF3380F82450C362A3684A4625
:102DD000186800F0C2FB0028BCD04FF40076ADE7C5
:102DE000E269A378B24204D2E66143F00403A3701F
:102DF00003E0084A1268002AF7D194F90230002B48
:102E000002DB3846BDE8F0872046FFF7B5FE002814
:102E1000F7D19FE7F008002070B505460C4608463C
:102E200049B107F068FC2B68024621462846BDE8F8
:102E30007040DB68184770BD70B503780446DA0748
:102E40001FD5436800F10C0681683246186800F00F
:102E500084FB054610B90025284670BD23789B07E2
:102E600004D4237823F001032370F5E7D4E901307B
:102E7000196932460144186800F06FFB0028F0D150
:102E8000E9E70125E8E770B5836804468B420E4602
:102E9000154609D0FFF7D0FF08B9002070BD6B07B9
:102EA0000AD50023A66023702046227805F003058A
:102EB000154300F80C5BF1E763683146186804F1CC
:102EC0000C0200F0C1FA0028EBD1E6E78379023961
:102ED0004069994008447047012970B505460C4681
:102EE000164602D84FF0FF3070BDC3698B42F9D34C
:102EF000C379202B16D18169022201EBD41100F590
:102F00000C70FFF7C0FF0028ECD004F07F0450F8ED
:102F1000243023F07043EA699A422ABF012000203E
:102F20003360E1E7102BDDD18369C1F30721022271
:102F3000194400F50C70FFF7A6FF0028D2D0E4B2C8
:102F400030F81430E7E7012938B50C46154601D8AA
:102F5000002038BDC3698B42FAD3C379202B0FD12F
:102F60008169032201EBD41100F50C70FFF78BFF90
:102F70000028EDD004F07F0440F824500120E8E759
:102F8000102BE5D18369C1F307210322194400F511
:102F90000C70FFF778FF0028DAD0E4B220F8145064
:102FA000ECE72DE9F341C46805468C420E46904695
:102FB00001D3012701E00C460027EB690134A3424D
:102FC00002D2C7B9EC68F4E7A64214D021462846DD
:102FD00001AAFFF781FF00280DDBEED0019B002B3B
:102FE000EBD107B1EC606FF0704221462846FFF745
:102FF000AAFF074620B90027384602B0BDE8F08195
:1030000016B9C8F80040F7E7224631462846FFF7D0
:103010009AFF0028F5D1EEE773B505460C46214628
:10302000284601AAFFF758FF061E10DB00222146A2
:103030002846FFF788FF50B1EB68A34224BF04F194
:10304000FF34EC60019C002EE9D102B070BD00207D
:10305000FBE7012370B50022C3604FF0FF33044645
:103060000D46C27100F12406806280F82420C362FC
:10307000C0F8340280F83022C0F83832B9B10429DF
:1030800001D9002070BD11463046FFF7FCFE002834
:10309000F7D000EB051393F8AE315B06F1D105F1E3
:1030A0001B0100EB0111D1F80650002DE9D00022E0
:1030B00029463046FFF7E7FE0028E2D0B0F80B3093
:1030C000B3F5007FDDD1037C022BDAD1C389002B5D
:1030D000D7D0417B09264B1E63710023A3710123C6
:1030E0002171994207D0013ECBD0A2795B00013219
:1030F000DBB2A271F5E7C18A01B9416A2161C389D6
:103100002B44A361B0F8112003EB41032362228119
:10311000B0F81110490101F2FF1103EB5123636173
:10312000B0F8132002B9026AE91AA3791144D94010
:103130004B1CE36140F6F473994202D80C23E3710F
:103140009FE74FF6F473994289BFC36A1023236245
:1031500020230120E37195E770B50D46144602F077
:1031600007FE0C4E3368C01A0B4B984208D902F088
:1031700007FE0A4B186003F0CDF802F0F9FD30604D
:1031800002F0FEFD80B2401BA042D4BF002001200F
:1031900070BD00BFF8080020A0860100901000203C
:1031A00038B5057A04464DB9406800F06DFA636899
:1031B0002946187D05F0B3FE0123237238BD10B5F2
:1031C000037A04466BB143680121187D05F0A7FE20
:1031D000FF21606800F08AFA606800F069FA002355
:1031E000237210BDF8B504460D46164602F0C8FD20
:1031F00087B2606800F05FFAFF2860720ED14FF46A
:103200007A7239462046FFF7A7FF0028F1D05523F0
:1032100020462370FFF7D3FF0020F8BDFE2801D021
:103220005023F5E732462946606800F049FA60729B
:1032300008B16023ECE7606800F03DFA606800F0D8
:103240003AFA0120E9E770B504460E4602F098FD0F
:1032500085B2324629462046FFF77EFF30B96068C6
:1032600000F029FAFF28F4D1012070BD0020FCE70E
:10327000F7B5037A04460D4601920BB9FFF790FFAC
:1032800025B14FF496712046FFF7DDFF606845F0E9
:10329000400100F02BFA032601AFB95D606800F031
:1032A00025FA013EF9D2002D0CBF952187216068D7
:1032B00000F01CFA606800F0FEF90B25606800F071
:1032C000FAF90306607203D5013D15F0FF05F5D14B
:1032D00003B0F0BD70B504460D46164637210022F6
:1032E000FFF7C6FF324629462046BDE87040FFF78B
:1032F000BFBF00002DE9F041002541600572057057
:103300008572044690461E4602F03AFD4146074645
:10331000606800F0BDF963684A4A1D720125DA60F1
:103320001D822046FFF73CFF63682946187D05F0A3
:10333000F6FD0A25FF216068013D00F0D7F915F080
:10334000FF05F7D163682946187D05F0E8FD0A25D9
:10335000002220461146FFF78BFF0128804618D037
:10336000013D15F0FF0507D1202320462370FFF70C
:1033700026FF0020BDE8F081FD21606800F0B6F96D
:103380004FF40278606800F096F9B8F10108F9D1BD
:10339000DEE74FF4D57208212046FFF769FF0528C4
:1033A00014D1002584F80A80BFB22A46292120467C
:1033B000FFF790FF0246D8B14FF4FA623946204633
:1033C000FFF7CAFE0028F0D04323CEE7042560684B
:1033D00000F071F9013D15F0FF056072F7D1AA28E0
:1033E00004D102234FF08045A372DDE72523BCE71B
:1033F000A37A022B19D13A212046FFF739FF08B1F1
:103400003723B2E7606800F056F900F0C000C0282A
:1034100008BF0323606808BFA37200F04CF960681E
:1034200000F049F9606800F046F92046FFF7C7FE52
:1034300030796368B168B2891872D96001201A8244
:1034400098E700BF90D0030038B5837A1546032B68
:1034500018BF49020A4611210446FFF709FF30B19F
:10346000302323702046FFF7AAFE00250BE02946F3
:103470004FF400722046FFF7B5FE05460028F1D054
:103480002046FFF79CFE284638BD10B5837A0A46D1
:10349000032B18BF4A0212210446FFF7E9FE30B1A0
:1034A000312320462370FFF78AFE002010BD012043
:1034B000FCE710B500220C210446FFF7D9FE30B11D
:1034C000282320462370FFF77AFE002010BD2046F7
:1034D000FFF775FE0120F9E7F8B5044616461F46CA
:1034E000FFF7D3FF68B10025ABB2BB4206EB452125
:1034F00009D24FF400722046FFF774FE0135002810
:10350000F2D10020F8BD2046BDE8F840FFF7D1BF5A
:1035100038B504461546406800F0E8F84FF40072EC
:103520002946606800F0E6F8FF21606800F0DEF8E8
:10353000FF21606800F0DAF8606800F0BCF86072A3
:1035400000F01F00052806D0572320462370FFF700
:1035500036FE002038BD0120FCE770B5837A1546A1
:10356000032B18BF49020A4618210446FFF780FEC4
:10357000064630B1322323702046FFF720FE002597
:103580001FE02A46FE212046FFF7C2FF0028F3D0A5
:103590004FF4FA612046FFF756FE054608B95A2354
:1035A000E9E732460D212046FFF762FE08B12923E4
:1035B000E1E7606800F07FF80028F8D12046FFF7C7
:1035C000FEFD284670BD38B50D464FF4FA6104463D
:1035D000FFF739FE30B95B2323702046FFF7EFFD7C
:1035E000002006E02A46FC212046FFF791FF002834
:1035F000F3D038BD10B5837A0A46032B18BF4A02B0
:1036000019210446FFF734FE30B1332320462370DE
:10361000FFF7D5FD002010BD0120FCE738B54FF4C1
:10362000FA610446FFF70FFE054630B956232370B2
:103630002046FFF7C4FD284638BDFD21606800F034
:1036400055F8F5E7F8B5044616461F46FFF7D2FFD2
:1036500070B10025BD42204606EB452104D0FFF79E
:10366000B2FF28B10135F5E7BDE8F840FFF7D6BF56
:103670002046FFF7A4FD0020F8BD00000122014B09
:103680001A707047FC080020011D006802F0FABFA4
:1036900010B504460175006802F0CBFF207D0121C2
:1036A00005F02CFC207D0121BDE8104005F037BC61
:1036B000006802F0CCBFFF21006803F04FB80000A3
:1036C00037B50D4600211346064A074C00920068A4
:1036D0002A46217003F048F82378002BFCD0002004
:1036E00003B030BD7D360808FC080020006803F0F8
:1036F00035B8000037B513460022064D064C00953C
:103700000068227003F030F82378002BFCD003B05F
:1037100030BD00BF7D360808FC08002010B5044607
:1037200002F0A6FA204610BD10B5094C23781B06FE
:103730000DD5084B08481968002202F0A2FA0023B0
:103740002370064BBDE81040188804F085BF10BDFB
:103750004B000020380000202409002040000020F9
:103760002DE9F347544C2378BFF35B8FDD070CD46E
:103770002046FCF7BDFC40B1504B514A1B78204617
:1037800003F001031370FCF7B8FC4E4C23781806C5
:1037900000F189802378494F5DB273B94A4B2A46BC
:1037A00019684A4802F06DFA3B78454A03F0010374
:1037B0001370474B474A1B78D554474E474DD6F8B0
:1037C00000802B78DFF8249113F0010FBFF35B8F9B
:1037D0000AD12846FCF78CFC30B102F069FAC9F82E
:1037E00000002846FCF789FC1C231FFA88F803FB1D
:1037F00008F8D9F8003053F80830D3F810A02B7827
:10380000BFF35B8FD9070AD43448FCF771FC30B1A1
:1038100002F04EFAC9F800003048FCF76EFCD9F807
:1038200000302F499844B8F80430087813EA0A0F9A
:10383000237818BF01225BB208BF002283420CDC50
:1038400023492378DFF88CC00D785BB21CF8051093
:1038500002FA03F30B430CF805303B78DB0607D57F
:1038600023785BB29842A1BF154B19784A401A7071
:1038700023781C4A013312785BB29342237012DB27
:103880000F4B134A1B788BB1FF211378114AD15487
:10389000FE23237000230222009313494FF0FF33CD
:1038A000308804F0AFFE02B0BDE8F0871378013332
:1038B00003F03F031370EBE7080900202009002004
:1038C0000C0900204B0000203C00002024090020AF
:1038D00019090020440900204000002010090020A0
:1038E0004A0000203400002029370808140900206D
:1038F0007FB53B234380244B244A4360002313704D
:1039000053709370D3701371037201230446204ED9
:10391000204D0370204B69461320009303960295B7
:1039200004F0C4FE6846FCF7E0FC1C4B69461A2014
:103930000093CDE9025604F0B9FE6846FCF7D5FCC9
:10394000174B694621200093CDE9025604F0AEFEE4
:103950006846FCF7CAFC134B694624200093CDE966
:10396000025604F0A3FE6846FCF7BFFC0E4B694606
:1039700026200093CDE9025604F098FE6846FCF735
:10398000B4FC204604B070BD2F75FFFFCC0A0020A8
:10399000350108083901080895590808BD59080873
:1039A000E55908080D5A0808355A080813B5114C8E
:1039B0000221208805F0A2FAFE220F4B1A700F4B4D
:1039C0001A68092A0AD90E48C3889A4206D80D4BAC
:1039D0000D491B780093002302F014F90023022202
:1039E00000930A494FF0FF33208804F00BFE02B029
:1039F00010BD00BF400000204B0000203C00002014
:103A000024090020480000206137080829370808E9
:103A10002DE9F8439A4C2378BFF35B8FDE070CD473
:103A20002046FCF765FB40B1964B974A1B78204631
:103A300003F001031370FCF760FB944C23785BB236
:103A40000133C0F277812378914FFF2B54D1914BF2
:103A500000221968904802F014F9904D904BDFF85D
:103A600058821E682B78BFF35B8F13F0010F0AD1C9
:103A70002846FCF73DFB30B102F01AF9C8F8000007
:103A80002846FCF73AFB1C23B6B25E43D8F8003058
:103A900003EB06092B78BFF35B8FDD070AD47F4861
:103AA000FCF726FB30B102F003F9C8F800007B48B0
:103AB000FCF723FBD8F80030B9F804209B595A834F
:103AC000704B714A1B7803F001031370754B3A7801
:103AD0001B789A4240F02A81FE232370724B1B7898
:103AE000002B00F02781714B1868002800F022811C
:103AF000BDE8F843FFF75ABF22786D4B10061B78DC
:103B00003DD4227852B29A4239DA39782378634E1A
:103B10005AB2684B684D5B5C134113F0010F604B68
:103B2000B3F8009042D13378BFF35B8FD90709D443
:103B30003046FCF7DDFA28B102F0BAF828603046CA
:103B4000FCF7DBFA4FF01C0808FB09F82B6803EBC5
:103B500008093378BFF35B8FDA0709D44F48FCF7C5
:103B6000C7FA28B102F0A4F828604C48FCF7C5FA5F
:103B70002B68B9F8042053F808305A83A6E7414A65
:103B80001278002A42D122784C4952B29A420978DE
:103B900080F2968023785BB28B4297DB3B780133CF
:103BA00003F03F033B70FE2323708FE73378BFF3AE
:103BB0005B8FD90709D43046FCF79AFA28B102F096
:103BC00077F828603046FCF798FA4FF01C0808FB9D
:103BD00009F82B6803EB08093378BFF35B8FDA072A
:103BE00009D42E48FCF784FA28B102F061F8286065
:103BF0002A48FCF782FA2B68B9F8042053F80830F9
:103C00001A83214A137883F001035EE7227852B2C7
:103C10009A42B8D11C4B224A1B78204E264DB2F84E
:103C20000090002B3FF47FAF3378BFF35B8FDB074F
:103C300009D43046FCF75CFA28B102F039F8286064
:103C40003046FCF75AFA4FF01C0808FB09F82B68BD
:103C500003EB08093378BFF35B8FD80709D40F480B
:103C6000FCF746FA28B102F023F828600B48FCF76D
:103C700044FA2B6853F80830B9F804201A8325E772
:103C80000009002020090020040900204C00002029
:103C90001B0900203C0000203409002010090020EE
:103CA000440000201A090020180900201C090020E7
:103CB0004A0000208409002014090020340000205C
:103CC00023785BB28B42BFF665AF1B4B1B4D1E6862
:103CD0002B78DFF86C8013F0010FBFF35B8F0AD1F4
:103CE0002846FCF705FA30B101F0E2FFC8F8000001
:103CF0002846FCF702FAB3B21C265E43D8F800301F
:103D000003EB06092B78BFF35B8FDB070AD40B4864
:103D1000FCF7EEF930B101F0CBFFC8F8000007481E
:103D2000FCF7EBF9D8F800309B59A5E7237801336D
:103D30005BB22370BDE8F883440000201009002026
:103D400014090020F7B5224C0121208805F0D6F88F
:103D50002568204C204E2378BFF35B8F13F0010FB2
:103D600009D12046FCF7C4F928B101F0A1FF306069
:103D70002046FCF7C2F91C23ADB25D4337682378B7
:103D80002F44DB07BFF35B8F09D41248FCF7B0F96F
:103D900028B101F08DFF30600E48FCF7AEF93368B2
:103DA000BA885B591A83FE220C4B1A700C4B1A68A6
:103DB000092A0AD90B48C3889A4206D80A4B0B49EC
:103DC0001B780093002301F01DFF03B0F0BD00BF7E
:103DD0004400002010090020140900204C0000209D
:103DE0003C0000203409002049000020113A080856
:103DF00012F0100F70B5234B044639D0092018700B
:103E00001B78D0074CBF023301331F4DDBB212F0D9
:103E10000C061E482B7030D012F0080F14BF112270
:103E20001022013302702B70194A00250C2016460F
:103E300000FB05F39B5883B18B4220D804D00A467F
:103E400014481549FCF7C2FA0C2303FB0565134B14
:103E50006A681A60AA68124B1A60124B1B7813B971
:103E60002046FFF76FFF2046BDE87040FFF79EBD7C
:103E700095064CBF07200820C1E70670D4E701353E
:103E8000D6E700BF4A0000203400002020090020AF
:103E90003CCB0808E80A002014CB080838000020B2
:103EA0003C000020180900200022FFF7A1BF0000FD
:103EB00070B50B4C0B4E0C4D2046FFF719FD2046FC
:103EC0000A4C3246294605F02BF92046FFF710FD33
:103ED000324629462046BDE8704005F021B900BFB2
:103EE00024090020300200201D3708083409002072
:103EF0000175704738B50B4B8469054603607CB18A
:103F00006368013B63605BB9236820469B68984700
:103F1000A368013BA3601BB923682046DB68984770
:103F2000284638BD1CD1080810B50446FFF7E2FF4B
:103F300020461C2105F0F9F8204610BD30B5064D8D
:103F4000C0E9011305600025057541F28835039B22
:103F50008561C0E9033230BDE4CC08082DE9F84F93
:103F60000D461746804604F0DDFA1E4903F083F83B
:103F700000241D4EDFF874A0DFF874B0304602F064
:103F800055FE60BB052C2AD098F81430C3B104F05C
:103F9000C9FA514603F058F804F0C4FA294603F070
:103FA00053F804F0BFFA594603F04EF804F0BAFA99
:103FB00081460A22214603F068F8484603F04FF88C
:103FC000304602F01BFE00232946BAB2304602F00A
:103FD000DBFE4FF47A7003F0BEFA0134CEE7BDE8A1
:103FE000F88F00BFD8CB0808C4090020F0CB080820
:103FF00006CC0808F8B5044600260D4F384602F0F6
:10400000C3FD054690B9A369B3420FDD012003F05B
:10401000A2FAA3690136B342F0DC207D28B104F096
:1040200081FA044903F027F82846F8BD0120FCE78F
:10403000C40900201ACC08082DE9F047037D064684
:10404000884614464BB104F06DFA214903F013F889
:1040500004F068FA1F4903F00EF8002540F2BB2A6D
:10406000DFF88490484602F08FFD78B1484602F0B0
:10407000D5FC337DC7B22BB104F054FA036839463E
:104080009B689847675501355545EBD1337D23B182
:1040900004F048FA104902F0EEFF002363550F4B7D
:1040A000984508D120460E4906F052FB70B14FF0FA
:1040B0007E50BDE8F0877C21204606F0E1FA28B169
:1040C000013006F083FA05F07DFEF2E70548F0E7DF
:1040D00061CC08084DCC080860CC08086CCC0808F6
:1040E00071CC08085F42A2CDC409002070B5044617
:1040F000416842F234321D461E48002302F044FE5D
:10410000204642F234326168FFF728FF194802F076
:10411000CAFD28B32946174802F096FF2046FFF74C
:1041200069FF054628B9134802F068FD00252846B6
:1041300070BD642002F026F90F490246064620466B
:10414000FFF77AFF0446304602F024F920460B4977
:1041500006F02AF90028E6D1064802F04FFDE6E70E
:10416000237D002BDFD004F0DDF9054902F083FF49
:10417000D9E700BFC40900206CCC08085F42A2CD7B
:1041800074CC080870B5044600230E4615464168F5
:1041900042F23432454802F0F7FD204642F2343212
:1041A0006168FFF7DBFE414802F07DFD002874D016
:1041B000A1683E4802F048FF3D493C4802F044FFF8
:1041C000E1683A4802F040FF3A49384802F03CFFC3
:1041D0003146364802F038FF3749344802F034FFA0
:1041E0002946324802F030FF3449304802F02CFFB3
:1041F000237DB3B304F096F9314902F03CFF04F09B
:1042000091F9304902F037FF04F08CF9A16802F00F
:104210001BFF04F087F9264902F016FF04F082F92B
:10422000E16802F011FF04F07DF9224902F00CFF71
:1042300004F078F9314602F007FF04F073F91E49E3
:1042400002F002FF04F06EF9294602F0FDFE04F0D0
:1042500069F91A4902F0F8FE04F064F91A4902F00B
:104260000AFF2046FFF7C6FE28B9104802F0C6FC38
:10427000164C204670BD4FF42F7002F083F814499D
:10428000024605462046FFF7D7FE0446074802F0DF
:10429000B5FC284602F07EF8EBE7237D002BE4D046
:1042A00004F040F90B4902F0E6FEDEE7C409002005
:1042B00092CC080895CC08088CCD0808CACD08080F
:1042C000ADCC080897CC0808ACCC08085F42A2CD5A
:1042D000B2CC0808B5CC080810B5054C204602F051
:1042E0003BFD2046BDE81040024A034904F018BFD8
:1042F000C409002030020020F53E080810B504462D
:10430000006808B1FBF7E7FEE06802F043F8606878
:1043100010B1042104F009FF204610BD70B5044619
:1043200001206074142094F91050E66845437151DF
:1043300094F91010E56800FB01518A6094F910208F
:10434000E16800FB0212536094F91030E26800FB50
:104350000323049ADA6094F91030E26800FB03202A
:10436000059B0361237C01335BB20F2B237408DDB3
:10437000A37C23B104F0D6F8024902F07CFE0F239F
:10438000237470BDF0CC080810B5104686B00C46FA
:1043900005F006FA02460B4601A80B4902F00AF89E
:1043A0001422002301A810F8011B202906D0E15493
:1043B0000133DBB211B9E15406B010BD013A12F07D
:1043C000FF02F0D1F8E700BF2FCD08082DE9F04F2C
:1043D0000C4605464A49204689B006F068F9002691
:1043E000DFF84081DFF84091DFF840A195F9103007
:1043F0009E4267DA14277743EB680DF10C0B3B44C0
:104400009A6859462846FFF7BFFFEB68CDF800B021
:10441000DB5922464146204601F0CCFFEB683B4485
:10442000DB6843B322464946204601F0C3FFEB68F0
:104430003B441B69002B38D00A20642293FBF0F127
:1044400093FBF2F291FBF0FC92FBF0FE00FB1C1CD4
:1044500000FB113100FB1E22C9B200915FFA8CF300
:104460002849D2B202A801F0A5FF224620462649DB
:1044700002AB01F09FFFEB681F447B6823B122462B
:104480002046224901F096FF22462046204901F0AD
:1044900091FF013695F91030F6B29E4222460ADAB3
:1044A00020461C4901F086FFA0E7224651462046DF
:1044B00001F080FFDFE72046154901F07BFF002374
:1044C0002B7493E7AB7CC3B104F02CF8124902F0D3
:1044D000D2FD04F027F8114902F0CDFD04F022F8D6
:1044E000214602F0C8FD04F01DF80B4902F0C3FD9F
:1044F00004F018F80A4902F0BEFD09B0BDE8F08FDB
:1045000034CD08085CCD080863CD08086ECD0808D6
:104510007DCD080881CD080861CC080885CD080844
:10452000ABCF080836CD080849CD080868CD080883
:104530002DE9F04F0C46054616461F4689B05149F5
:10454000204606F0B4F8AB684F4A5049204601F0C7
:1045500031FF334622464E490097204601F02AFF9C
:10456000224620464B4901F025FF0026484FDFF840
:104570004481DFF8449195F910309E4264DA4FF09F
:10458000140A0AFB06FAEB680DF10C0B53449A6807
:1045900059462846FFF7F8FEEB68CDF800B053F80F
:1045A0000A3022463946204601F004FFEB685344A6
:1045B0005B6823B122464146204601F0FBFEEB68D2
:1045C0005344DB683BB322464946204601F0F2FEE5
:1045D000EB6853441B6953B30A20642293FBF0F148
:1045E00093FBF2F291FBF0FC92FBF0FE00FB1C1C33
:1045F00000FB113100FB1E22C9B200915FFA8CF35F
:104600002549D2B202A801F0D5FE22462046234910
:1046100002AB01F0CFFE95F910300136F6B29E42A2
:1046200022460ADA20461E4901F0C4FEA3E72246CC
:1046300020461C4901F0BEFEEDE720461A4901F074
:10464000B9FE00232B7496E7AB7CC3B103F06AFF7D
:10465000164902F010FD03F065FF154902F00BFD4D
:1046600003F060FF214602F006FD03F05BFF0F49F7
:1046700002F001FD03F056FF024902F0FCFC09B014
:10468000BDE8F08FABCF08088ECD0808A2CD080892
:10469000AECD0808B6CD08085CCD080863CD080883
:1046A00081CD080868CD0808C8CD080861CC080885
:1046B00085CD0808BBCD0808C1CD08082DE9F74312
:1046C00004464FF42F701E460F46904601F05AFEE6
:1046D000E37C0546013B012B26D8014643463A467A
:1046E0002046FFF725FFA37C23B103F01BFF1149F0
:1046F00002F0C1FC6068394603680096D3F8009068
:1047000042462B46C8470746284601F043FE1EB1E5
:104710000121304604F009FD002307B163743846D7
:10472000237403B0BDE8F08301462046FFF74EFE38
:10473000D9E700BFCFCD080870B5044601200D466B
:104740001646FBF7C2FC034610B1054A1278027008
:10475000324629462046BDE87040FFF7AFBF00BF94
:10476000E009002070B505460C4684B12846E16892
:10477000FFF7F8FFE369A66823B104F114010322EF
:10478000084698472046FBF7A4FC3446EDE770BD89
:10479000F0B58DB0044601A80D4617461E4601F03F
:1047A000D1FD03980130FBF792FC0199206005F0E0
:1047B0007EFF2A4633463946E67405A800F038FDE8
:1047C0004FF4967001F0DEFDE06005A800F058FCA3
:1047D0000023C4E901050899237406A8FFF7C2FF66
:1047E00001A802F003FB0DB0F0BD38B5002504466A
:1047F0000582FFF7CDFF204638BD00000022014BA7
:104800001A707047E00900202DE9F0410446037258
:10481000782098460E46174601F0B4FD237A606072
:10482000042B4FF014000BD0FBF74FFC054620B1D2
:1048300043463A463146FFF7D8FF2560BDE8F08190
:10484000FBF743FC05460028F7D00123F1E7000001
:1048500038B500250446134645728572024AFFF7B3
:10486000D3FF204638BD00BFDFCD080838B5044669
:10487000406801F08FFD256835B12846FFF73EFD01
:104880001421284604F051FC204638BD10B5047AA6
:10489000042C04D0BDE810400068FFF73FBD03F0D2
:1048A00041FEBDE81040014902F0E5BBFACD080821
:1048B000002307B5CDE90033FFF7E8FF03B05DF84B
:1048C00004FB0068FFF738BF0175704770B50646F6
:1048D000142001F057FD0546142001F053FD044655
:1048E000304605F008FF324600230238984214DDB6
:1048F00012F8011B0D2934D111780A2931D15178D0
:104900000D292ED191780A292BD10433F1181422C4
:10491000284605F00AFF00232B750A21284605F0DA
:10492000AFFE0646F8B10A21013005F0A9FED0B16C
:104930003146204605F0BBFE204605F0DCFE002394
:10494000204400F8013C204605F040FE05F03AFA0C
:104950000646204601F01EFD284601F01BFD3046AC
:1049600070BD0133C2E7014EF9E700BF5F42A2CD3F
:1049700030B5074DC0E9011305600025057541F20A
:10498000883585610525039B0577C0E9033230BD75
:10499000DCCF08082DE9F74F04460D4617460026E0
:1049A000DFF88480DFF884A0DFF884B040465FFA47
:1049B00086F902F078F988BB237F4B452ED9237DF9
:1049C000CBB103F0AFFD514602F03EFB03F0AAFD70
:1049D000294602F039FB03F0A5FD594602F034FBED
:1049E00003F0A0FD0A224946019002F04EFB019B14
:1049F000184602F034FB002329464046BAB202F0C2
:104A0000C3F9237D23B103F08DFD064902F033FB8A
:104A10004FF47A7002F09FFD0136C7E703B0BDE89E
:104A2000F08F00BF50CE0808E4090020F0CB080842
:104A300006CC08082DE9F0414B1E0C4601F52F72FB
:104A40000546002103F8011F9342FBD12B7D4BB19A
:104A500003F068FD144902F00EFB03F063FD1349F7
:104A600002F009FB002640F2BB28114F384602F045
:104A70008BF870B1384601F0D1FFA0552B7D2BB1DA
:104A800003F050FD0368A15D9B68984701364645D9
:104A9000ECD12B7D33B103F045FDBDE8F041054974
:104AA00002F0E9BABDE8F08161CC08084DCC0808F5
:104AB000E409002060CC0808F8B5044600260D4F34
:104AC000384602F061F8054690B9A369B3420FDD9C
:104AD000012002F040FDA3690136B342F0DC207DE5
:104AE00028B103F01FFD044902F0C5FA2846F8BDBD
:104AF0000120FCE7E40900201ACC0808F8B50F46AD
:104B00000269416804461D46FFF744FF784802F0F9
:104B1000CAF80646002800F0E1807649744802F0A1
:104B200093FA3946724802F08FFA7349704802F0DE
:104B30008BFA72496E4802F087FA61686C4802F09D
:104B400083FA6F496A4802F07FFA6E49684802F0BA
:104B50007BFAA168664802F077FA6949644802F076
:104B600073FA6949624802F06FFAE168604802F03E
:104B70006BFA63495E4802F067FA64495C4802F0E8
:104B800063FA63495A4802F05FFA284605F0B3FD1C
:104B900006466049564802F057FA0A223146544800
:104BA00002F073FA5C49524802F04EFA2946504826
:104BB00002F04AFA52494E4802F046FA4C4801F0D7
:104BC000EEFE237D002B69D003F0ACFC534902F0CC
:104BD00052FA03F0A7FC474902F036FA03F0A2FCB0
:104BE000394602F031FA03F09DFC434902F02CFAF9
:104BF00003F098FC414902F027FA03F093FC616846
:104C000002F022FA03F08EFC3D4902F01DFA03F097
:104C100089FC3C4902F018FA03F084FCA16802F018
:104C200013FA03F07FFC364902F00EFA03F07AFC27
:104C3000354902F009FA03F075FCE16802F004FA64
:104C400003F070FC2E4902F0FFF903F06BFC2F49D2
:104C500002F0FAF903F066FC2D4902F0F5F903F0D1
:104C600061FC2C4902F0F0F903F05CFC0A223146A9
:104C700002F00BFA03F056FC274902F0E5F903F0C5
:104C800051FC294602F0E0F903F04CFC1C4902F00B
:104C9000DBF903F047FC224902F0EDF92046FFF76B
:104CA0000BFF237D2BB90124114801F0A7FF2046FB
:104CB000F8BD03F037FC1B4902F0DDF90C4D284626
:104CC00001F062FF0028EED0284601F0A7FE04465E
:104CD00003F028FCE1B202F0BBF9F0E7247D002CE0
:104CE000E2D003F01FFC104902F0C5F93446DBE7BF
:104CF000E409002061CE080879CE080885CE0808AE
:104D0000A9CF08088CCE080899CE0808A8CE0808B4
:104D1000BCCE0808DDCE0808A7CF0808EECE0808EC
:104D20000ACF080828CF080844CF080870B5044601
:104D300000230E46154641685022654802F024F8CB
:104D4000204650226168FFF725FE614801F0ABFF65
:104D5000002800F0B3805F495D4802F075F93146E4
:104D60005B4802F071F95C49594802F06DF9294637
:104D7000574802F069F95949554802F065F9584910
:104D8000534802F061F95749514802F05DF90A228F
:104D900050214F4802F079F953494D4802F054F937
:104DA00052494B4802F050F9A168494802F04CF9C9
:104DB0004D49474802F048F94D49454802F044F949
:104DC000E168434802F040F94749414802F03CF9A4
:104DD00048493F4802F038F9237D002B50D003F0BA
:104DE000A1FB3C4902F030F903F09CFB314602F094
:104DF0002BF903F097FB384902F026F903F092FBF8
:104E0000294602F021F903F08DFB344902F01CF928
:104E100003F088FB324902F017F903F083FB3149B4
:104E200002F012F903F07EFB0A22502102F02DF964
:104E300003F078FB2C4902F007F903F073FB2B49D0
:104E400002F002F903F06EFBA16802F0FDF803F036
:104E500069FB254902F0F8F803F064FB244902F0ED
:104E6000F3F803F05FFBE16802F0EEF803F05AFBA1
:104E70001D4902F0E9F803F055FB1E4902F0E4F881
:104E80002046FFF719FE28B9114801F0B7FE1A4C69
:104E9000204670BD4FF42F7001F074FA05460146AC
:104EA0002046FFF7C7FD2846FFF710FD04460848D7
:104EB00001F0A4FE284601F06DFAE9E7237D002BFE
:104EC000E2D003F02FFB0D4902F0D5F8DCE700BF7C
:104ED000E40900206ECF080883CF080885CF0808B2
:104EE00079CE080885CE0808A9CF08088CCE080816
:104EF00099CE080889CF08085F42A2CDACCF080838
:104F000010B5054C204601F027FF2046BDE81040B3
:104F1000024A034904F004B9E409002030020020E9
:104F2000F53E080803681847012A03D0022A03D077
:104F3000002070470160FBE70B680360F8E70000A2
:104F400013B51C20FBF7C1F8044648B1064B0749CE
:104F50001B6842F2343200930968054BFEF7EEFFFE
:104F6000204602B010BD00BF780A0020740A00205D
:104F70008ECD080813B52020FBF7A7F8044640B1F2
:104F8000054B06491B68502200930968044BFFF744
:104F9000EFFC204602B010BD780A0020740A002001
:104FA0008ECD080813B51C20FBF78FF8044648B1D6
:104FB000064B07491B6842F2343200930968054BDF
:104FC00000F0BAF9204602B010BD00BF780A0020F8
:104FD000740A00208ECD080813B51420FBF775F86D
:104FE000044640B1054B06491B680093002309683D
:104FF0001A4600F087FA204602B010BD780A002059
:10500000740A002010B50446054B03606433036145
:1050100002F04DFB204602F035FC204610BD00BFDB
:1050200098D1080810B586B06A46044602AB0291D2
:1050300093E8030082E8030094E8030083E8030098
:1050400092E80300A26884E803000492054A184627
:10505000A260E2680592044AE260FBF746F9204646
:1050600006B010BD294F0808254F080810B50446A2
:10507000FFF7C8FF20463C2104F057F8204610BD3A
:1050800000F108010B4670B5C2683AB1157C04788E
:10509000A5422ABF1346D2689268F6E7994204D027
:1050A00000781A7C904238BF0B46DA690AB904F0DE
:1050B000F5F81A6A03F11400BDE87040104770B5A6
:1050C0001646044601228B680D1D53B130781A7CB8
:1050D0001D46904235BF9868D868012200220346D9
:1050E000F3E792B1CA68AA4203D1C4E90035204669
:1050F00070BD284604F074F83378027C9A424FF071
:105100000003F2D3C4E90003F1E72846F4E72DE9F0
:10511000F34700F10408064689464446856855B1C0
:1051200099F800302A7C9A423ABFEB682546AB6872
:105130002C461D46F3E7A04504D099F80020237CB7
:105140009A422ED22420FAF7C0FF002399F800904B
:10515000A045074600F1100A80F81090C36125D1E0
:1051600073691BB13269137C4B450AD352463146F1
:105170006846FFF7A4FFDDE90042002A4FD0002C6B
:105180004BD1904549D0387C137C98422CBF0020ED
:1051900001204346394604F025F8736901337361F1
:1051A0003C4604F1140002B0BDE8F087237C4B4577
:1051B00018D9F3689C4208D0204604F011F8037C0B
:1051C0004B4505D2C3685BB9044622461C46D4E76A
:1051D000524631466846FFF772FFDDE90034F4E7D6
:1051E0002346F2E71BD2326994420AD0204603F0EC
:1051F000E4FF037C05464B4505D9E3685BB92246CD
:105200001D462C46B9E7524631466846FFF757FF20
:10521000DDE90052F5E70246F3E70120B9E707F1BF
:105220001400FBF762F83846FAF753FF2746B7E752
:105230002DE9F341002603700123051D174600F1F7
:105240000802C0E90362C0E90526044688460672E2
:105250000DF1070128468DF80730FFF758FF164972
:10526000FFF7E0FE0DF1070128468DF80760FFF714
:105270004EFF1249FFF7D6FE02230DF10701284623
:105280008DF80730FFF743FF0D49FFF7CBFE0323EF
:105290000DF1070128468DF80730FFF738FF09495F
:1052A000FFF7C0FE2046084BC3F80080074B1F6085
:1052B00002B0BDE8F08100BF414F0808754F0808F3
:1052C000A54F0808D94F0808740A0020780A002062
:1052D00070B50F4D0F4C104E284601F03DFD28468D
:1052E0000E4D2246314603F01BFF284601F034FDE7
:1052F00028460B4D2246314603F012FF284602F0A5
:105300009FFA22462846BDE87040064903F008BFD0
:10531000580A002030020020F53E0808000A00204C
:105320001C0A00200550080800F02ABD00487047FC
:105330005F42A2CD0175704730B5064DC0E901133B
:1053400005600025057541F28835039B8561C0E93C
:10535000033230BD9CD008087FB500254E68044656
:105360003046039505F0C7F90A4B009581B25B689A
:10537000304603AA00F0A4FE30B12946204603F0CF
:1053800037F8204604B070BD204603A903F028F882
:10539000F7E700BF380F002030B587B0014604465C
:1053A00002A81D46FFF7D8FF02A803F027F880B92E
:1053B000237D23B103F0B6F8234901F05CFEF3230B
:1053C00037220093A9213D2304A803F027F8059B69
:1053D0000393002240F2BD211C4802F065FA00222E
:1053E00042F23431194802F036F9194B42F23432A4
:1053F0000493039B154804A9059302F071FA58B968
:10540000237D23B103F08EF8124901F034FE0F48DA
:1054100002F04DF9002014E0002DF1D0284605F0EF
:105420006AF929460246094802F072F90028E7D0D5
:10543000064802F0BDF80028E2D0044802F037F92F
:10544000012007B030BD00BFE8CF08087C0A00206B
:1054500058D2080874D0080810B5054C204602F050
:10546000EFF92046BDE81040024A034903F058BE58
:105470007C0A0020300200200550080800487047D0
:105480005F42A2CD0174704730B585B01A46089BC3
:1054900002A81B788DF800303C2302F001FE0020AA
:1054A000029C00F09FFE20B1637813B900F032FF38
:1054B000FAE76378651CBFF35B8FABB90025039CEB
:1054C0007CB16368013B63605BB9236820469B68DD
:1054D0009847A368013BA3601BB923682046DB689B
:1054E0009847284605B030BD002000F07BFE20B173
:1054F0002B7813B900F00EFFFAE72378012BDDD1EA
:10550000257BDCE710B5044CC0E9011304600024DE
:10551000029B0474C36010BDB0D00808704770B51A
:10552000064614460D4603F0ABFD317803F08CFAC5
:1055300003F0A6FD036829469B68984703F0A0FD89
:10554000036821469B68984703F09AFDBDE87040C8
:1055500003F09ABA38B504460D4603F091FD217860
:1055600003F072FA03F08CFD036829469B689847A4
:1055700003F086FD03F088FA03F082FD2178012212
:1055800003F05FFA03F07CFD03685B69984704460B
:1055900003F076FD03F078FAE0B238BD38B5044682
:1055A0000D4603F06DFD217803F04EFA03F068FD1F
:1055B000036829469B68984703F062FD03F064FA8C
:1055C00003F05EFD2178022203F03BFA03F058FD60
:1055D00003685B699847054603F052FD03685B6901
:1055E0009847044603F04CFD03F04EFA44EA0520C8
:1055F00080B238BD08B5FFF7D1FF40BA80B208BD10
:1056000038B588210446FFF7F5FF8A21A08120469E
:10561000FFF7F0FF8C21E0812046FFF7EBFF8E21A2
:1056200020822046FFF7E6FF902160822046FFF7A8
:10563000E1FF9221A0822046FFF7DCFF9421E08267
:105640002046FFF7D7FF962120832046FFF7D2FFA1
:10565000982160832046FFF7CDFF9A21A083204642
:10566000FFF7C8FF9C21E0832046FFF7C3FF9E2180
:1056700020842046FFF7BEFFA12160842046FFF76B
:1056800069FFE12184F824002046FFF7B3FFE321FE
:10569000E0842046FFF75EFFE42184F828002046DE
:1056A000FFF758FFE52105462046FFF753FF00F0BE
:1056B0000F0343EA0510E62160852046FFF74AFF05
:1056C000E52105462046FFF745FF031143EA051093
:1056D000A085E7212046FFF73DFF84F82E0038BD66
:1056E00010B50446017003F0CBFC03F07BF9D02128
:1056F0002046FFF72FFF60280ED12046FFF780FFDE
:105700000322F2212046FFF70AFF20463F22F42120
:10571000FFF705FF012010BD0020FCE738B5FA2196
:105720000446FFF73BFFFC2105022046FFF712FF6E
:10573000A3892843C3EB202252435B00C3EBE01351
:10574000B4F90E0012135843B4F9103053439B13AD
:1057500003EBE023A36003EB830303F1800000125B
:1057600004F03AFC014904F03FFD38BD0000C84296
:105770002DE9F84FF7210446FFF710FFF921054600
:105780002046FFF7E7FE8446A068B4F91460B0F540
:10579000FA334FEAE07141F1FF32A3FB03AB03FBA5
:1057A00002F10BEB410B06FB02F1F71703FB0711AC
:1057B000A6FB03670F44390341EA16513003B4F9DD
:1057C000166006FB0BFEF7170AFB07EEA6FB0A673F
:1057D00077444FEA162E4EEA076E668A1EEB0000EB
:1057E0004FEA272848EB01080030A0FB060148F5E6
:1057F000004806FB08114FEA61084FEAE17958EAD0
:10580000090100F08480B4F91C604CEA052506FB10
:105810000BF1F7170AFB0711A6FB0A67B4F91AA0E8
:105820002D110AFB02F24FEAEA7B03FB0B22AAFBD3
:1058300003AB4FEA4A4393449A194FF00003C5F56E
:105840008015B4F918604FEA4B4E0F444EEADA3E29
:105850004FEAE5714EEB070E4FEAC17C9B184FEA09
:10586000C6014FEAC57041EB0E0EC01A40F6354333
:10587000A0FB03014CEA550C6CEB0E0C03FB0C1166
:1058800042464B4604F0D8FDB4F922204D1302FBEA
:1058900005F7460B46EAC146D31706FB0377A2FB82
:1058A000062355433B4406FB0355A2FB06232B442A
:1058B000550E45EAC315B4F920202D184FEA63664A
:1058C00041EB06065143D31700FB0311A2FB002353
:1058D0000B44D10CB4F91E4041EA43316D184FEA34
:1058E000E34046EB00032A0AE51742EA0362191275
:1058F00020012B0143EA1473801843EB010104F0EB
:1059000081FB4FF06E5104F0BBFBBDE8F88F002027
:10591000FBE710B50446FD21FFF740FEB4F92A303D
:10592000A2681B05C3EB8030B4F92C30A2F5963287
:1059300002FB130303F58043D81394F82830534334
:10594000DB1203F5004194F92E3053439B124B4375
:105950009B1203F50012B4F92630534303F50053AC
:105960009B134343D813404394F82420C011504361
:10597000A3EB201020EAE070B0F1C85FA8BF4FF0A1
:10598000C850001304F028FB4FF06A5104F078FB74
:1059900010BD000010B50121064803F05AFA40B1CD
:1059A0000121044803F060FABDE81040024B1B6877
:1059B000184710BD00040040B80A002010B50121AE
:1059C000064803F046FA40B10121044803F04CFABE
:1059D000BDE81040024B5B68184710BD000800404E
:1059E000B80A002010B50121064803F032FA40B190
:1059F0000121044803F038FABDE81040024B9B68CF
:105A0000184710BD000C0040B80A002010B5012155
:105A1000064803F01EFA40B10121044803F024FABD
:105A2000BDE81040024BDB68184710BD0010004075
:105A3000B80A002010B50121064803F00AFA40B167
:105A40000121044803F010FABDE81040024B1B6925
:105A5000184710BD00140040B80A0020F0B5437A82
:105A600005460E46174685B0042B0CD8DFE803F038
:105A700003363F4851000121022003F0BDF81D23E9
:105A8000294C8DF80030002F4CD16F886A7AE96874
:105A9000264B684643F822100A238DF8013040F265
:105AA0000113ADF8023003F073F80023204601A97A
:105AB000ADF80630ADF80C308DF80E30ADF804704E
:105AC000029603F073F901222046114603F0B8F95B
:105AD0000121204603F0A8F905B0F0BD0121042002
