:020000040808EA
:100000000000080894E40808000006000A00050142
:080010000402E80500000000F5
:04001800FCCB08080D
:1000200009480A4908B5884205D0094A824202D0E7
:10003000121A09F01EFF0748074A0021121A09F098
:1000400023FF064808BD00BF000000202CE308087D
:100050004001002040010020B8100020B81000200E
:1000600070B506F0E5FF074B074C1E46E41AA408DE
:100070000025A54204D056F8253098470135F8E709
:1000800070BD00BF74E2080818E3080801F0FAB870
:1000900008B500F081FCBDE8084006F08BBF05F014
:1000A00003BC05F001BC05F007BC05F005BC0078F9
:1000B000B0FA80F04009704701230370704703686D
:1000C0001847012A02D0022A02D004E0016002E0AF
:1000D0000B6800B1036000207047704710B5012322
:1000E0000374836804460BB1C06806E0006828B159
:1000F00083680BB908F056FAC36898470123637404
:100100000020BDE8104005F083B910B504462C214D
:1001100008F07CF9204610BD083001F0A1BF0000B6
:100120007FB5024613790846956833B13DB90C494D
:1001300004B0BDE8704006F023BA0A4B00E00A4B59
:10014000167B0A4C0A49527B012E08BF21460292B7
:1001500001910095074A002106F052FA04B070BDE3
:1001600045CC0808DFD6080834CC08083DCC080880
:1001700041CC08085BCC080805F059BE10B5044610
:10018000806808B105F02CF9204610BD10B5044672
:10019000006808B105F090FB204610BD07B502AB22
:1001A00003F8011D01221946083001F059FF03B080
:1001B0005DF804FB00221146406805F0FDBA10B559
:1001C0008368044613B1032201469847204610BDB8
:1001D00008B505F0C5F8014B186008BDB00E002049
:1001E00070B51D4686B000230446049322B1274B08
:1001F00002920593264B04930023E360049B216045
:100200003BB1022202A9201D9847059B2361049B54
:10021000E3602049142008F0FDF830B10023037496
:10022000036043608360C36043746061A0B11A4B94
:100230000922836063691949DC606069184B8DE8A5
:100240002100043005F0B4F830B963691B7CA3B910
:10025000012005F075F8F8E765690023636165B171
:100260002E6836B13046FFF7AAFF1021304608F05D
:10027000CDF81421284608F0C9F8FFF7A9FF02A815
:10028000FFF79DFF204606B070BD00BFBF00080805
:10029000C300080838DC0808CD82080879CC0808B3
:1002A000DD00080813460A460149096801F089BEC5
:1002B0004007002030B51D4B85B00093137900F541
:1002C0008C658DF80430936804460293137B8DF897
:1002D0000C30537B0A468DF80D3000F26C416B46B2
:1002E000284602F003FAF0B1256004F23C452846A6
:1002F00001F060FE0121204602F0A1F8014668B13C
:100300002146284601F081FC68B194F83C3413F092
:10031000700316BF064B18461D6005E0204602F02C
:100320008EF80028ECD1002005B030BD18CC0808AC
:100330004007002010B5084C0121208807F059FF24
:10034000142006F0B9FA2088002107F052FFBDE81A
:100350001040052006F0B0BA2800002038B50A4D3C
:1003600002240121288807F044FF4FF4FA6006F0C8
:10037000A3FA0021288807F03CFF4FF4FA6006F04A
:100380009BFA013CEDD138BD2800002070B5104E1D
:100390000A240121308807F02CFF962006F08CFA01
:1003A0000021308807F025FF962006F085FA013CF1
:1003B000074DEED10121288807F01BFF40F22620CF
:1003C00006F07AFA21462888BDE8704007F011BF90
:1003D0002800002038B5114C0121208807F009FFC2
:1003E0004FF4FA7006F068FA0021208807F001FF48
:1003F0004FF47A7006F060FA04250121208807F096
:10040000F8FE322006F058FA0021208807F0F1FEAD
:10041000322006F051FA013DEFD138BD280000200E
:1004200037B51D49054609F0BDF930B31B492846CB
:1004300009F0B8F91A490028284614BF4FF49674F9
:100440004FF4167409F0AEF916490028284618BF73
:10045000782409F0A7F914490028284618BF5A241F
:1004600009F0A0F911490028284618BF3C2409F0DA
:1004700099F9002818BF1E240BE0FFF76FFF0C4B03
:100480000C4C1A680C4B62431B680121684605F04E
:10049000D1FC204603B030BD000048410000C841F7
:1004A0000000484200008242000096420000A04244
:1004B0002C00002080970600EC060020F8B58B0089
:1004C0000A3323F0070300AFADEB030D6B464A1E62
:1004D0000024E5B2A94204F1010401DC002410E08B
:1004E00050F8256043F82560F3E7066850F804EFFC
:1004F0000135764502DD40F804EC06606545F4DB25
:100500000134944204DA18460025C4EB020CF5E7E6
:1005100011F0010F4FF0020401BF91FBF4F103EB66
:10052000810253F8210052F8043C13BF92FBF4F20D
:10053000C01890FBF4F053F82200BD46F8BD00004F
:10054000F0B5434DD1B00024288807F06BFE4DF87C
:1005500024000134322006F0AFF9282CF4D1002118
:100560005DF8213028A840F8213001312829F7D141
:10057000FFF7A4FF08F006FF364908F057FF364999
:1005800009F008F808F0BEFA29A3D3E900230446CD
:100590000D4608F00BFB22462B4608F007FB2246CF
:1005A0002B4608F003FB24A3D3E9002306460F469D
:1005B0002046294608F0FAFA22462B4608F0F6FAB9
:1005C00002460B463046394608F03EF91CA3D3E9F3
:1005D000002306460F462046294608F0E7FA024661
:1005E0000B463046394608F02FF91C4B0446186874
:1005F0000D4608F087FA0022194B08F023F912A3E0
:10060000D3E9002308F0D2FA0022164B08F01CF9B7
:1006100008F0AEFD08F076FA02460B462046294661
:1006200008F0EEFB08F0A4FD51B0F0BDAFF3008080
:10063000F6285C8FC2D53240A69BC420B0D2384089
:10064000643BDF4F8D818340DBF97E6ABC74933F4E
:10065000100000203333534000F07F452400002079
:10066000000039400000F03F30B5114DD1B00024FA
:10067000288807F0D7FD4DF824000134322006F019
:100680001BF9282CF4D100215DF8213028A840F86E
:10069000213001312829F7D1FFF710FF08F072FE51
:1006A000044908F0C3FE044908F074FF51B030BD9E
:1006B000100000203333534000F07F4570B50646EC
:1006C00004F04EFE4FF47A73B0FBF3F51C4604F0D1
:1006D00047FEB0FBF4F0401BB04204D2FFF778FDB8
:1006E00005F0AAF8F3E770BD10B5054C05492046A2
:1006F00005F04DFF2046BDE8104005F04CBF00BF9F
:10070000F006002080CC0808F0B5594A93B0594B48
:100710000B92012209938DF83020002309AA0C21A5
:1007200055488DF828308DF83130FFF7C3FD08B9F2
:10073000524900E05249534809F0EEFB524805F097
:10074000B7FF06F087F8514E0446A8BB504909A8E8
:1007500005F059FE09A9304605F09FFE09A805F0ED
:100760000BFE0A270921494805F0E6FE642394FBA5
:10077000F3F3303303700A21444805F0DDFE94FBA7
:10078000F7F505F1300303700B21404805F0D4FE66
:1007900007FB154530350570002332683D4909A82F
:1007A0008DF824308DF8253001F00BFC68B301344E
:1007B000B4F57A7FD6D128E0374901A805F062FE6A
:1007C000364901A805F094FE044606F064F8344B5F
:1007D0000246344905A806F00BF805A9204605F0A5
:1007E0007BFE314905F084FE014609A805F04AFE6A
:1007F00009A9304605F051FE09A805F0BDFD05A880
:1008000005F0BAFD01A805F0B7FD06F0FDFF1F4C8D
:100810000546214609A805F035FE244909A805F03A
:1008200067FE0168284605F0C2FE09A805F0A4FD90
:1008300006F0EAFF134905F0BAFE002332681549B5
:1008400009A88DF824308DF8253001F0BAFB28B1C5
:10085000092221681648FFF725FD07E040F601222E
:1008600021681348FFF71EFDFFF73EFF13B0F0BDF0
:1008700080C3C90118CC080860010020B8CC080862
:10088000BCCC08083A0700200000C0C0E4050020E6
:10089000C1CC08089C050020CC060020D2CC08085A
:1008A000D4CC080844090020CDCC0808DACC0808CC
:1008B000F806002030B585B0054605F0ECFF0E4B7C
:1008C0000E4C02461B6868460D4905F091FF0099E1
:1008D000204605F055FE684605F04EFD4FF4FA70CF
:1008E00005F0EAFF2946204605F04AFE204605F0BD
:1008F00052FE05B030BD00BF4C000020F0060020C5
:100900004409002038B5046805467CB16368013BA2
:1009100063605BB9236820469B689847A368013BE6
:10092000A3601BB923682046DB689847284638BD7A
:100930001FB5124801F008FB60B9114B02A81B78E3
:10094000104A8DF8003010493C2306F00BFD03A837
:10095000FFF7D8FF094801F0F7FA084801F02AFB31
:100960000A4A0B490B4804F0B7FF06F04DFF09494E
:1009700005F01DFE05B05DF804FB00BFF806002081
:10098000DC060020E4CC0808F0CC08083A07002078
:10099000F4CC08081C0700202DE9F04FF1B000212D
:1009A00018A806F04FFA18A806F08CFA044618A802
:1009B00006F09EFA21461090FFF732FDB44BDFF8A7
:1009C000E4A21860B34B4FF00209188807F02AFC24
:1009D00008F0D8FC00210646182007F00AFCC820C1
:1009E00005F06AFFAC4803F0FDFCCAF80000AA4815
:1009F00003F0F2FDDFF8C482A84FC8F80000A64853
:100A000003F01AFDA64908F0C5FD3860C82005F0BE
:100A100053FFB9F10109A34DE4D1D7F8009049463D
:100A2000484608F0C9FE002840F036824FF07E515B
:100A3000484608F099FE002840F02E82DFF8C4A254
:100A40004FF00209984803F0CDFCCAF80000964820
:100A500003F0F2FC924908F09DFDDFF85482C8F8DB
:100A60000000C82005F028FFB9F10109EAD1396872
:100A7000084608F0A1FE002840F014824FF07E5195
:100A8000D8F8000008F070FE002840F00B822868BB
:100A900008F038F878A3D3E9002307F0D3FE08F074
:100AA00067FBDFF860822860D8F8000008F02AF8B9
:100AB00073A3D3E9002307F0C5FE08F059FBC8F87B
:100AC0000000FFF73DFD794908F0B0FC8146FFF7D3
:100AD000CBFD00218246032007F08BFB002119206B
:100AE00007F087FBDFF8B4B1714BDBF80010186832
:100AF00008F092FB08F006F863A3D3E9002308F09E
:100B000055F808F035FB074632466A496A4802F054
:100B1000E7FC6A4B6A491A68674802F0E1FC2A68F8
:100B20006849654802F0DCFCDBF800206649624851
:100B300002F0D6FCD8F8002064495F4802F0D0FCEF
:100B40005B4B63491A685C4802F0CAFC3A4661494B
:100B5000594802F0C5FC22465F49574802F0C0FCE4
:100B6000109A5E49544802F0BBFC4A465C49524820
:100B700002F0B6FC52465B494F4802F0B1FC4846D1
:100B800007F0C0FFCDE91201504607F0BBFF8246D7
:100B900030468B4607F0B6FFCDE91401384607F022
:100BA000B1FF064610980F4607F0ACFFCDE91001E3
:100BB000204607F0A7FF03460C46CDE90A67CDE9BA
:100BC0000E34DDE91034CDE906ABCDE90C34DDE9B6
:100BD0001434CDE90834DDE91234CDE90434CDE92B
:100BE0001601D8F8000007F08DFFCDE90201286852
:100BF00007F088FF3C4ACDE900014FF4807130A82E
:100C000004F082FE30A8FFF755FEC82005F054FE20
:100C1000FFF78EFEC82005F04FFE4FF41641334813
:100C200003F0EEFD18B106F0EFFD314902E006F0E9
:100C3000EBFD304905F0BBFC2C4803F085FD044674
:100C400018B906F0E1FD2C4902E006F0DDFD214671
:100C500005F096FC06F0D8FD284905F0A8FC40F602
:100C6000B83005F029FE214803F0EAFD00284BD1F9
:100C700006F0CAFD22494AE09A9999999999E93F63
:100C8000333333333333E33FC4CE143AAFB1D93FB8
:100C90001C00002014000020F805002000000020A7
:100CA0000000C84220000020280600200000A03FCD
:100CB0000400002008CD0808E00600200C000020F9
:100CC0000DCD080818CD080823CD080830CD080838
:100CD0003BCD080843CD08084CCD080852CD080884
:100CE00056CD08085ECD080866CD080858060020D5
:100CF000A7CD0808B5CD0808C6CD0808DCCD080882
:100D0000EECD08082400002006F07EFD854905F0A0
:100D10004EFC05F09FFD58B9834926A805F073FBEA
:100D200026A9824805F0B9FB26A805F025FB28E096
:100D30007F491AA805F0A6FB7E491AA805F0D8FB42
:100D4000044605F0A8FD7C4B02467C491EA805F030
:100D50004FFD1EA9204605F0BFFB794905F0C8FBF1
:100D6000014626A805F08EFB26A9704805F095FBE4
:100D700026A805F001FB1EA805F0FEFA1AA805F04A
:100D8000FBFA6A4C44F2022221686E48FFF78AFAA5
:100D90006D4803F05AFD85B206F036FD0A22294659
:100DA00005F00FFC06F030FD684905F0E9FB06F0A0
:100DB0002BFD216805F0FBFB04F0D2FA012104466B
:100DC000082007F005FA4FF00009EDB1A846402DC4
:100DD000A8BF4FF040085FFA88F15B4803F051FD6F
:100DE00009F101090146424659485FFA89F9FFF7BE
:100DF00093F9B9F13F0F03D9FFF79CFA4FF00009BF
:100E0000C8EB0505ADB2E0E74E4801F0D3F804F0B9
:100E1000A7FA041B06F0F8FC002C054603DA2D2186
:100E200005F0B2FB64420A222146284605F0C9FBC0
:100E300006F0EAFC474905F0BAFB474800231A468A
:100E40001946406804F0A0FC4FF4FA7005F034FD38
:100E5000424B4FF00009186807F042FE0022404B59
:100E600007F0A4FE08F064F90446002004F090FAAC
:100E700080460025002004F08BFAB0EB080261EBFD
:100E80000903AB4208BFA24212D23348FFF792F9DE
:100E900070B904F0D1FCEDE7324BC8F800302B609C
:100EA0003B60CBE52F4B304AC8F800301360EEE5CD
:100EB0002948FFF77FF980B9FFF768FA4FF4FA7015
:100EC00005F0FAFCFFF762FA06F09EFC274905F0F0
:100ED0006EFB4FF4FA7005F0EFFC204B4FF0000969
:100EE000186807F0FDFD0022214B07F05FFE08F0B7
:100EF0001FF90446002004F04BFA8046002500202C
:100F000004F046FAB0EB080261EB0903AB4208BFFC
:100F1000A2422FD21048FFF74DF958BB04F08CFCC9
:100F2000EDE700BFFECD08080DCE0808E40500205F
:100F3000CC060020D2CC08081ECE080844090020A8
:100F400019CE0808F8060020580600202DCE080803
:100F5000F00600203BCE0808580D002008000020B5
:100F60000000F83F3333C6C22400002047CE0808F3
:100F70000000E03F9248FFF71DF928BB914CFFF7B6
:100F800005FA4FF4FA7005F097FCFFF7FFF92268B5
:100F90008D498E4804F0A0FC06F036FC8C4905F023
:100FA000EFFA06F031FC894905F001FB4FF4FA70C5
:100FB00005F082FC874B21681A68874B4A431B68FF
:100FC000012126A804F036FF844C06F01DFC84495C
:100FD00005F0EDFA04F038FCFFF7FAF82378814ABF
:100FE00081498DF8003026A83C2306F0BBF927A8DC
:100FF000FFF788FC06F008FC7A4905F0D8FA70493A
:1010000026A806F039FD299808F0BCF97749024670
:10101000774802F065FA289808F0B4F97549024655
:10102000734802F05DFA744A7148114602F061FAA1
:101030000520FFF743FBFFF7CDF9CDE90A67DFF89D
:10104000F0816E4DD8F8000007F05CFD6C4B00227B
:10105000CDE90801CDE9042355A3D3E9002369496B
:10106000CDE9022354A3D3E90023CDE906ABCDE9B2
:1010700000235648644A04F02FFC2378534A8DF825
:10108000003029683C231EA806F06CF91FA8FFF762
:1010900039FC4FF4FA7005F00FFCDDE91623CDE9B9
:1010A0000A67CDE90E23DDE91023CDE906ABCDE9D2
:1010B0000C23DDE91423CDE90823DDE91223CDE972
:1010C0000423D8F8000007F01DFDCDE902014F4BC5
:1010D0004F4E186807F016FD4E4ACDE900014FF457
:1010E000807130A804F010FC237830AA4A498DF8AA
:1010F00000301EA83C2306F035F91FA8FFF702FCBC
:101100004FF4FA7005F0D8FB06F07EFB434905F07A
:101110004EFA326842492D4804F0DEFB23782B4A10
:101120008DF8003029683C231EA806F01BF91FA883
:10113000FFF7E8FB3068FFF7C1FA04F011F9064643
:1011400004F00EF9801BB0F57A7F04D2FFF740F867
:1011500004F072FBF4E71B4E324932681B4804F07E
:10116000BBFB2A68304B31491EA804F0B5FB23783D
:101170001EA9164A8DF800301AA83C2306F0F2F892
:101180001BA8FFF7BFFB0220FFF798FA114B31684D
:101190001A68114B4A431B6801211AA804F04AFE41
:1011A00018A805F05EFE71B0BDE8F08FAFF30080C7
:1011B000333333333333E3BF9A9999999999E9BF1C
:1011C000580D00201C00002076CE08081C070020C7
:1011D000A9CE08082C000020EC060020DC06002028
:1011E000C8CE0808E7CE0808F1CE0808FACE0808ED
:1011F000E006002003CF08080DCF0808CC06002029
:101200000000F43F19CF08083A0700202000002012
:10121000180000208ACF0808B4D4080814D00808A1
:1012200027D008084BD0080860D0080871D00808FB
:10123000240000201FB50E4905F06CF90D4B80B15C
:1012400078221A600C4B0D4A1B780D498DF800303E
:1012500002A83C2306F086F803A8FFF753FB012001
:1012600003E005221A604FF0FF3005B05DF804FB83
:101270007BD0080818000020DC06002080D0080879
:101280008DD0080810B588B006F0BEFA4FF416519C
:1012900006F0A0FA1820FEF702FF044628B14FF42A
:1012A000C063394A3949FEF79BFF394B01211C6065
:1012B000384B188806F08CFF0121032006F088FFC8
:1012C0000121032006F095FF0121182006F080FF80
:1012D0000121182006F08DFF0121192006F078FF6A
:1012E0000121192006F085FF4FF4FA7005F0E4FAA9
:1012F000002105A804F037FB00221146029201925A
:101300000092012305A804F023FC41F2E82105A87E
:1013100004F094FB41F2700105A804F04CFC772125
:101320001D4803F040F860B91C4B06A81B781C4A06
:101330008DF800301B493C2306F014F807A8FFF78E
:10134000E1FA7621184803F02EF860B9134B06A88D
:101350001B78134A8DF8003012493C2306F002F83E
:1013600007A8FFF7CFFAFFF7CFF9104A1049114845
:1013700005F0E8FE06F048FA0F4905F018F905A84F
:1013800004F000FB08B010BD79010808C02709006F
:10139000F405002028000020F8050020DC060020CD
:1013A00096D00808AAD0080828060020B2D008085D
:1013B0003512080819710808B8D008083F4B70B5F5
:1013C00000241C603E4B01251D7003F029FF3D49A0
:1013D0003D4805F018F83D4E3D4A3E493A4807F071
:1013E00007F83D4B6422316883F860243B4A83F858
:1013F00074540D40DC7183F83C4483F83D4483F819
:101400006A44C3F8784483F87C4483F87D44C3F885
:1014100070241C460FD13046FEF749FE58B12946CC
:101420002F4804F0FBFB3046FEF746FE284A2D49C4
:101430002B4806F0DDFF2A4B2B48C4F86C340024FF
:101440002A4B234A2A49047244724460036006F01E
:10145000CFFF06F0C5FB0146264803F008F92648F1
:1014600002F0BFFE254802F0BCFE4FF6FF73244D8C
:1014700002206B812C60AC80AC712C8104F038F9B7
:10148000134A2049284606F0B3FF2146012004F004
:1014900047F91D491D4804F0B6FF0D4A0D491B4888
:1014A00006F0A6FF01221A491A4801F0E9FFBDE83B
:1014B0007040074A1849174806F09ABFEC0600200A
:1014C000DC060020DFD60808E405002044010020E7
:1014D00040010020796308086001002018CC08084A
:1014E000480100207D010808F006002024CC0808EF
:1014F000DB00080858060020F80500202806002018
:10150000540100208D0108080DCF0808CC060020EA
:10151000C5D00808E00600209D34080803F080BE0E
:1015200003F07EBE10B50446243000F079FE28B1E9
:1015300004F50C70BDE8104000F072BE10BD411EF5
:1015400000F10A020020430843EAC01011F8013FED
:1015500018448A4200F0FF00F5D170472DE9F047AA
:101560000378441C202B01D12046F9E70546704F33
:1015700088602C1A2E4615F8013B0BB32F2B01D196
:10158000031917E05C2B02D10020BDE8F087A3F11E
:101590002204E4B21D2C03D827FA04F4E407F3D4A0
:1015A00003F0BF043C2CEFD0203B5E2BE1D9EBE7EE
:1015B0002F2D05D11E4613F8015B202DF8D1F9E738
:1015C000166003199842C0EB030809D013F8012DE7
:1015D0002E2AF7D0202AF5D0B8F1FF0FD4DC01E095
:1015E0004FF00008C1F8048001F10C0301F117026B
:1015F000202403F8014F9342FBD103461A1A13F833
:10160000014B2E2CFAD0202CF8D0B2FA82F408F13B
:10161000FF366409731C07D100274FF0070E3D46C3
:10162000BA464FF0080909E0835D2E2BF4D0013E45
:10163000F0E7835C202B04D1002401324245F8DB23
:101640004BE02E2B02D1B242F6D103E0222B17D071
:101650007C2B15D0A3F12A0CBCF1050F01D82D2B42
:101660000ED1A3F13A0CBCF1050F09D9A3F15B0C23
:10167000BCF1020F04D9A3F1210CBCF15D0F02D91A
:10168000B2420ED149E0B24247D0754521D8A3F10C
:10169000610CBCF1190F08D8203BDBB249EA0707FF
:1016A0000AE0754515D800245F23A3F1410CBCF175
:1016B000190F98BF49EA0A0A05F1010C5FFA8CFC80
:1016C0000D44BCF1060F6B7301D881F80CC0654660
:1016D000B3E7BEF10A0F17D100244B7B202B3FF458
:1016E00053AF3CB11AEA070F18BF02270F70012051
:1016F000BDE8F0870B7B0120087019447E234B73F3
:1017000031238B73BDE8F087B242E5DC32464FF0FF
:101710000A0E08254FF010098EE7BEF10A0FDBD044
:1017200032464FF00A0E08254FF0100985E700BF3A
:10173000010100312DE9F84306460D4691F80C9061
:1017400002247E2701F10D086968AA6863189BB21C
:101750001144914206D012F8010B03EB43134340AE
:101760009BB2F6E7B9F1030F28BF4FF0030909F167
:101770000402D2B203F00F01A818013A0929D2B22B
:1017800094BF30313731914541734FEA1313F1D390
:1017900005EB09035F730021304600F01EFB0121B9
:1017A000304600F0FDFA014628B97078B0FA80F0B2
:1017B0004009BDE8F88303784BB1C37A1B07EED428
:1017C0000B22404608F046FB0028E8D102E0012049
:1017D000BDE8F8830134A4B2642CB5D1BDE8F88328
:1017E0002DE9F04F9B460B7889B013F0700F0590F0
:1017F0000E46914601D10020A0E1059B1B78002BED
:10180000F9D15368029313789B0700F08D81029BF6
:101810000D270C33B3FBF7F70137FFB24FF0000889
:101820000021304600F0D9FA44464346454609F1C6
:101830000D02CDF80C80CDF810800692726901215E
:1018400030460793C2F34F1A00F0AAFA079B20B95B
:101850007378002B00F09080CDE70278E52A00D065
:1018600042B9002C08BFD046BC423CBF0134E4B2B0
:1018700022B981E0BC4238BF002403E0E52A01D14F
:101880000025DBE72E2AFBD0C17A0F2952D13DB9C2
:101890005106D3D5437B02F01F0503932B4607E087
:1018A000013BDBB29A42EBD1427B03999142E7D1F3
:1018B0005A1E4FF00D0C0CFB02FC029A6245DFD958
:1018C0004FF0000EBEF1040F5FFA8EF204D800EB69
:1018D0004E02B2F801200CE00A2A95BF0EF1FF3249
:1018E0000EF1010200EB420200EB420294BFD288EB
:1018F00092880299614503D1002A18BF00259DE70F
:10190000FF2ABDD8D2B2A2F141011929D9F8081095
:1019100098BF203211F80C100CF1010AA1F1410C12
:1019200098BFD2B2BCF1190F9CBF2031C9B291420D
:10193000A6D1FBE00907A3D44DB1012B7FF45BAF27
:10194000FFF7FDFD039B83427FF455AF0FE00B22B1
:101950000699079308F07EFA079B00287FF46EAF84
:1019600099F80020D20702D50122049266E71BF401
:10197000006F00F0D1803EE71BF4007F3FF43BAFE7
:101980000BF00303013B012B3FF635AF002C08BFE2
:10199000D046BC4202D3049BCBB91FE000213046A5
:1019A00000F0FEF910B973785BB124E70134E4B2BA
:1019B000EFE7B3681B79012BEDD81034E4B2A742EE
:1019C000E9D9304600F0D2F80028F2D113E74946B1
:1019D0003046FFF7AFFE00283FF40DAF4FEA481145
:1019E000304600F0FAF900283FF405AF7D1EEDB255
:1019F0002C464FF0000A4FF00F0841E0002130461E
:101A000000F0CEF9074600283FF4F5AEB268AC42CC
:101A100092F8243043F0010382F8243014BF2246A8
:101A200044F04002027080F80B8080F80CA009F1AD
:101A30000D000392FFF783FD039A787387F81AA0CD
:101A400087F81BA002F01F020D23013AD9F808E025
:101A50005A4300230299914215D91EF80210042B13
:101A60005FFA83FC03F1010013D807EB4303A3F8EB
:101A700001100D2802F101020346EBD1013CE4B252
:101A8000002CBBD10EE014BF4FF0FF31002189B212
:101A9000E5E7BCF10A0F94BF07EB430307EB4003F4
:101AA0009980E6E7736921463046C3F34F1A00F088
:101AB00077F9074600283FF49EAE2022214608F021
:101AC000E3F94B4653F80D2F3A605A687A601A8949
:101AD0003A819B7ABB7299F8003003F018033B738C
:101AE000184B1B682BB107F10E0107F11000984746
:101AF00006E021233B7428237B740823BC73FB730B
:101B00003B8A7B823B83FB89FB82B26892F824305C
:101B100043F0010382F8243000955B46524631467B
:101B2000059800F0A3F909E0012777E60EF1010E10
:101B3000BEF10D0F3FF482AED446C3E609B0BDE856
:101B4000F08F00BF4407002003F06ABB03F068BBBE
:101B500003F066BB03F064BB837800F1100243F02E
:101B6000040383700169806800F010BC2DE9F04126
:101B70000378044603F0200303F0FF050BB10026B1
:101B80002EE04269184B9A42F9D8FFF7E5FF064666
:101B90000028F4D02169A06800F08DFB0746A068FA
:101BA00005223946243000F062FB80460028E6D04A
:101BB00029464FF4007208F067F90125A3681A79E5
:101BC000AA4209D94246E919186800F0CDFE00285A
:101BD000D5D00135EDB2F1E7636903EB42236361D0
:101BE0003046BDE8F08100BFFFFD1F0010B5044680
:101BF00080680A462430A16900F039FB20B1A3882F
:101C000003F00F0300EB431010BD70B504780546D8
:101C10000E4684B92422214608F036F9AE60F379E5
:101C2000102B03D0202B06D1402300E020230120DD
:101C30002B70A87070BD002070BD2DE9F74F0378A0
:101C40000446894615464BB18278D10706D50CE08B
:101C50005A46216900F035FB00283DDA63784FF0E1
:101C6000FF3043F00203637097E01A0703D5E3697E
:101C700062699B1A07E09A0608D5A3681A89636906
:101C8000C3EB42139BB29D4228BF1D462E464FF028
:101C9000000804F1100B002E35D02278636912F091
:101CA000200FC3F3080AA0684FEA532102D0036A49
:101CB00019441DE090F8058001EA0808BAF1000F08
:101CC00010D1B8F1000F0DD1002BC1D153064CBF7C
:101CD000036A236A236105E004D1237813F0700FAF
:101CE00011D1BBE72169A06800F0E5FA08EB00011B
:101CF000A068BAF1000F35D1B6F5007F32D3C36AC0
:101D0000994202D12EE0A81B47E0B6F5806F1BD3A5
:101D100022784FEA562A970606D40279C8EB0202C7
:101D2000D2B2924528BF924699424FEA4A2707D23B
:101D3000A06853464A46006800F0D4FD60B98DE7BC
:101D40005344994221D3F3E74A46006800F082FDEC
:101D5000002883D04FF400776369B9443B44636142
:101D6000F61B98E70022243000F081FA00283FF4A7
:101D700075AFCAF50077B74228BF374600EB0A01B6
:101D80003A46484608F075F8E6E72430019100F03D
:101D900047FA01990028CBD160E703B0BDE8F08F86
:101DA00037B543690446C3F3431505B169B9012248
:101DB0000DF107012046FFF740FF40B2012801D096
:101DC000002008E063691F3300E02033A0686361EE
:101DD000303000EB451003B030BD2DE9F0410E4628
:101DE000017804460769002939D04569B5423AD0DF
:101DF0000EB9066131E00B0703D5C3699E422ED8A8
:101E000007E0880605D5A3681B89B6EB431F26D8D3
:101E100023E0D4F808E06A1E9EF8063003F10900BA
:101E2000731EC240C3409A4200D84DB94A064CBF07
:101E3000DEF82020226A22611D4604F110080AE023
:101E40009B1AF9E742462169A06800F03AFA002897
:101E500005F1FF3503DD002DF4D1666103E0276154
:101E60000020BDE8F0810120BDE8F081F8B50F4603
:101E700004461546002124221E4608F005F8B868DD
:101E8000A580A0603B6A05F00F0200F1300152010D
:101E9000E3601144CB7A1D074CD4831893F83B3090
:101EA00003F017032370C97A11F0180F04BF43F031
:101EB000080323709DF81830E37006F00303012B2C
:101EC00009D0022B05D0002B34D1710532D4012367
:101ED00002E0032300E00223A370A1788B0703D55F
:101EE000237813F0110F25D14BB216F4005F06F0E2
:101EF000080114BF6FF07F07002719433943A17011
:101F0000C36A0244A361B2F84410B2F84A307505BE
:101F100043EA014104D581B100F073FA68B909E0E0
:101F20002162D36CE36173040CD5E1692046FFF7AD
:101F300054FF38B900202070F8BDA37843F00403A3
:101F4000A370F0E70120F8BD38B5037804460BB95B
:101F5000012038BD83785A0723D50121FFF746FEBB
:101F6000054628B96378002043F00103637038BD4B
:101F70000378E52BF6D023781B0744BFE369C361E0
:101F8000238C4383638C8382094B1B682BB100F144
:101F90001601183098472B8B6B82A37823F004032B
:101FA000A370A068FFF7BEFA0028DBD0D0E700BF1F
:101FB0004407002010B50446FFF7C6FF0023237036
:101FC00010BDF0B51F4693B000238DF824308DF876
:101FD0002530037806460C4601920BB100203DE007
:101FE0000B7813F0700FF9D013782F2B12D1019BBF
:101FF0001A782F2A02D101330193F8E7A1681AB9A0
:102000003046FFF702FE29E009A8FFF7FEFD002891
:10201000E4D009AC01AA03A90198FFF79FFA0028B0
:10202000DCD0019B1B789BB1002303AA21463046DC
:10203000FFF7D6FB0028D1D0354609AC0FCD0FC431
:102040000FCD0FC42B6830462360FFF7B3FFE0E7E6
:102050003B4603AA21463046FFF7C2FB13B0F0BD52
:102060002DE9F0470378894619070446904608D5BC
:1020700083789A0705D51B070BD5E169FFF7ADFEFD
:1020800038B963784FF0FF3043F001036370BDE867
:10209000F0876369DB439845F3D846464FF0000A62
:1020A0006369002E7FD0A068C3F30807427912EA63
:1020B00053251CD1DFB9216971B104F1100200F080
:1020C00000F90028DDDB40F08D802046FFF744FD5D
:1020D000002840F08780D4E7236A3BB92046FFF709
:1020E0003BFD0028CDD02369236200E023612169F4
:1020F000A06800F0E0F8291817B9B6F5007F21D2E2
:10210000C7F50075B54228BF354637B96369E2693E
:10211000934234BF0122052200E00122A06824304E
:1021200000F0A5F80028ACD038442A4649462F4490
:1021300007F09FFEB7F5007F2FD1A068243000F094
:102140006FF816E0B6F5806FA06814D30279730AB1
:10215000521BD2B2934228BF1346C26A5D0291421B
:1021600002D31A44914237D3A7684A46386800F030
:102170006DFC90B985E7C36A4A46994202BF4FF0A9
:10218000FF3380F824A0C362A368186800F0ECFB5A
:1021900000283FF476AF4FF400756369A9442B44DF
:1021A0006361761B7CE7E269934201D9E36102E057
:1021B0000F4B1B681BB1A37843F00403A37094F981
:1021C0000230002B02DB4046BDE8F0872046FFF7D7
:1021D000BBFE0028F7D154E74FF0FF3280F824A06F
:1021E000C262C1E72169A06800F065F8014684E792
:1021F0004407002003F014B870B505460C460846A5
:1022000049B108F0C1FB2B68024621462846BDE8CB
:102210007040DB68184770BD03F002B803F000B8E7
:1022200070B503780446DA071ED5436800F10C0642
:1022300081683246186800F097FB054608B900250A
:1022400013E023789B0704D4237823F00103237041
:102250000BE06368A068196932460144186800F011
:1022600083FB0028F0D1EAE70125284670BD70B550
:10227000836804468B420E46154614D0FFF7D0FF04
:1022800008B9002070BD6B0703D500232370A6603A
:1022900009E0636804F10C023146186800F0DAFACC
:1022A0000028F2D1EDE72046237805F003051D4311
:1022B00000F80C5B70BD837902394069994008448D
:1022C0007047012970B505460C46164602D84FF0F6
:1022D000FF3070BDC3699942F9D8C379202B10D162
:1022E0008169022201EBD41100F50C70FFF7BFFFEA
:1022F0000028ECD004F07F0450F8243023F0704321
:102300000FE0102BE3D18369C1F3072102221944A6
:1023100000F50C70FFF7ABFF0028D8D0E4B230F81E
:102320001430EA6993429ABF33600120002070BDE7
:10233000012938B50C46154601D8002038BDC369BF
:102340009942FAD8C379202B0ED18169032201EB7F
:10235000D41100F50C70FFF78AFF0028EDD004F0CF
:102360007F0440F824500FE0102BE6D18369C1F3BD
:1023700007210322194400F50C70FFF778FF0028AD
:10238000DBD0E4B220F81450012038BD2DE9F34130
:10239000C46805468C420E46904607D20C4600277C
:1023A000EB6901349C4203D9CFB9EC680127F7E708
:1023B000A64214D001AA21462846FFF782FF002832
:1023C0000DDBEDD0019B002BEAD107B1EC606FF083
:1023D000704221462846FFF7ABFF074608B90027A1
:1023E0000BE016B9C8F8004007E0224631462846FF
:1023F000FFF79EFF0028F5D1F1E7384602B0BDE8AF
:10240000F08173B505460C4601AA21462846FFF720
:1024100058FF061E01DA00200FE000222146284660
:10242000FFF786FF0028F6D0EB689C429CBF04F1C2
:10243000FF34EC60019C002EE6D102B070BD70B597
:10244000044601230022C3604FF0FF33C2710D46E2
:10245000A06280F82420C362C4F8340280F83022DD
:10246000C0F83832A1B104295DD811462430FFF7F5
:10247000FEFE002857D000EB051393F8AE315B0643
:1024800051D11B3500EB0515D5F80650002D4AD06B
:102490000022294604F12400FFF7E9FE002842D07B
:1024A000B0F80B30B3F5007F3DD1037C022B3AD15D
:1024B000C389002B37D0417B09264B1E6371002353
:1024C000A371217101238B4207D0013E2BD0A27949
:1024D0005B000132DBB2A271F5E7C28A02B9426A3F
:1024E0002261C6892E44A661B0F8113006EB420184
:1024F00023812162B0F81120520102F2FF1201EB98
:1025000062226261B0F8133003B9036AAD1A2B443A
:10251000A57923FA05F56B1CE36140F6F4739D423F
:1025200003D80C23E371002070BD4FF6F4739D4275
:1025300089BFC36A102323622023E371012070BD89
:1025400002F06EBE02F06CBE02F06ABE70B50E46BE
:10255000154602F0FDFE0C4C2368C01A0B4B984246
:1025600008D902F0FDFE0A4B186003F065F902F08D
:10257000EFFE206002F0F4FE80B2801BA842D4BFC0
:102580000020012070BD00BF48070020A086010088
:10259000B00E002038B5057A04464DB9406800F009
:1025A0007DFA63682946187D05F023FE0123237216
:1025B00038BD10B5037A04466BB143680121187D1C
:1025C00005F017FEFF21606800F09AFA606800F0DD
:1025D00079FA0023237210BDF8B504460D4616465D
:1025E00002F0BEFE87B2606800F06FFAFF286072EA
:1025F00009D14FF47A7239462046FFF7A7FF002829
:10260000F1D055230BE0FE2801D0502307E03246DD
:102610002946606800F05EFA607230B1602320469F
:102620002370FFF7C6FF0020F8BD606800F04DFA88
:10263000606800F04AFA0120F8BD70B504460E4605
:1026400002F08EFE85B2324629462046FFF77EFF15
:1026500030B9606800F039FAFF28F4D1012070BD6C
:10266000002070BDF7B5037A04460D4601920BB900
:10267000FFF790FF25B14FF496712046FFF7DDFF7D
:1026800045F04001606800F03BFA0DF107060DF1DE
:10269000030716F80119606800F032FABE42F8D15B
:1026A000002D0CBF95218721606800F029FA606831
:1026B00000F00BFA0B25606800F007FA0306607261
:1026C00003D5013D15F0FF05F5D103B0F0BD70B5A0
:1026D00004460D46164637210022FFF7C3FF324657
:1026E00029462046BDE87040FFF7BCBF2DE9F04108
:1026F00000250572057085724160044690461E46AD
:1027000002F02EFE41460746606800F0CBF9636890
:102710004F4A4FF001081D72DA605D7483F8108033
:102720002046FFF737FF63684146187D05F061FDDD
:102730000A25FF216068013D00F0E2F915F0FF0570
:10274000F7D163682946187D05F053FD0A2500225C
:1027500011462046FFF786FF0128804612D0013D32
:1027600015F0FF0501D1202357E0FD21606800F03E
:10277000C7F94FF40278606800F0A7F9B8F10108D2
:10278000F9D1E4E74FF4D57208212046FFF76AFF3C
:10279000052802D184F80A800FE00425606800F063
:1027A00094F9013D15F0FF056072F7D1AA2802D116
:1027B0000223A37201E025232FE0A37ABFB2022BEC
:1027C0000CBF4FF0804500252A4629212046FFF7FF
:1027D0007EFF024648B14FF4FA6239462046FFF7C1
:1027E000B5FE0028F0D0432317E0A37A022B0ED0C9
:1027F0002046FFF7DEFE6368B0683479317B727B78
:10280000D8601C7219745A740120BDE8F0813A2115
:102810002046FFF727FF38B1372320462370FFF704
:10282000C8FE0020BDE8F081606800F04EF900F0BD
:10283000C000C02804BF0323A372606800F045F9FC
:10284000606800F042F9606800F03FF9D0E700BF2F
:1028500090D0030038B5837A1546032B18BF490280
:102860000A4611210446FFF7FDFE10B13023237004
:102870000BE029464FF400722046FFF7ADFE0546F7
:1028800018B12046FFF795FE03E02046FFF791FEC2
:102890000025284638BD10B5837A0A46032B18BF99
:1028A0004A0212210446FFF7DDFE30B131232046F3
:1028B0002370FFF77EFE002010BD012010BD10B573
:1028C00000220C210446FFF7CDFE30B1282320461C
:1028D0002370FFF76EFE002010BD2046FFF769FE53
:1028E000012010BDF8B5054616461F46FFF7D3FF79
:1028F00098B10024A3B29F4206EB442108D94FF4BB
:1029000000722846FFF768FE01340028F2D104E087
:102910002846BDE8F840FFF7D2BF0020F8BD38B523
:1029200004461546406800F0EBF84FF40072294663
:10293000606800F0E9F8FF21606800F0E1F8FF212D
:10294000606800F0DDF8606800F0BFF8607200F0C9
:102950001F00052806D0572320462370FFF729FEC5
:10296000002038BD012038BD70B5837A1546032B91
:1029700018BF49020A4618210446FFF773FE0646AF
:1029800008B132231DE02A46FE212046FFF7C7FF8B
:10299000C0B14FF4FA612046FFF74FFE054608B973
:1029A0005A230EE032460D212046FFF75BFE38B970
:1029B000606800F08AF818B92046FFF7FAFD05E0D4
:1029C000292323702046FFF7F4FD0025284670BD1B
:1029D00038B50D464FF4FA610446FFF72EFE10B9E4
:1029E0005B23237005E02A46FC212046FFF797FF72
:1029F00018B92046FFF7DDFD002038BD10B5837AF9
:102A00000A46032B18BF4A0219210446FFF72AFE83
:102A100030B1332320462370FFF7CBFD002010BDDB
:102A2000012010BD38B54FF4FA610446FFF705FEEA
:102A3000054620B1FD21606800F062F801E05623F0
:102A400023702046FFF7B5FD284638BDF8B505468A
:102A500016461F46FFF7D2FF70B10024BC4206EBBA
:102A60004421284604D0FFF7B3FF28B10134F5E72D
:102A7000BDE8F840FFF7D6BF2846FFF79AFD0020D3
:102A8000F8BD02F0CDBB02F0CBBB02F0C9BB000029
:102A9000014B01221A7070474C070020011D00688D
:102AA00003F0F6B810B504460175006803F0C5F8E8
:102AB000207D012105F08CFB207D0121BDE8104027
:102AC00005F097BB006803F0C8B8FF21006803F069
:102AD0004EB9000037B5084B00250093074C13464C
:102AE00000680A462946257003F047F92378002B31
:102AF000FCD0002003B030BD912A08084C0700200C
:102B0000006803F034B9000037B5074B0025009387
:102B1000064C134600682A46257003F02EF92378E8
:102B2000002BFCD003B030BD912A08084C070020D0
:102B300002F076BB02F074BB0175704738B50B4BE1
:102B40008469054603607CB16368013B63605BB9DF
:102B5000236820469B689847A368013BA3601BB984
:102B600023682046DB689847284638BD18D90808EE
:102B700010B50446FFF7E2FF20461C2105F046FC95
:102B8000204610BD30B5064D8360056000250575F3
:102B900041F28835039B85614160C360026130BDAD
:102BA000F4D108082DE9F0410D461746064604F019
:102BB0002BFE1C4903F0FBFC00241B4803F0E2FA47
:102BC00068BB052C01D1BDE8F081337DC3B104F0B1
:102BD0001BFE164903F0D4FC04F016FE294603F050
:102BE000CFFC04F011FE124903F0CAFC04F00CFE05
:102BF00080460A22214603F0E4FC404603F0CBFC69
:102C0000094803F03DFA0023BAB22946064803F00A
:102C100081FB4FF47A7003F04FFE0134CDE7BDE83D
:102C2000F08100BFE9D008085007002001D1080852
:102C300017D1080870B5054600240D4803F0E4F9E3
:102C4000064610B9AB699C4201DB012070BD012032
:102C500003F032FEAB6901349C42EEDB287D30B1DB
:102C600004F0D2FD034903F0A2FC304670BD70BDF4
:102C7000500700202BD108082DE9F843037D0646B4
:102C8000884615464BB104F0BFFD214903F08FFC87
:102C900004F0BAFD1F4903F08AFC40F2BB2900246E
:102CA0001D4803F0B1F978B11B4803F062F9337D98
:102CB000C7B22BB104F0A8FD036839469B6898475A
:102CC0002F5501344C45EBD1337D23B104F09CFDED
:102CD000124903F06CFC00232B55114B984508D189
:102CE0001049284607F080FE78B14FF07E50BDE8CD
:102CF000F8837C21284607F0F7F830B1013006F060
:102D00009BFF06F035FABDE8F8830748BDE8F88375
:102D100072D108085ED108085007002071D1080858
:102D20007DD1080882D108085F42A2CD70B5044663
:102D300000230E461546416842F23432454803F0FE
:102D4000E9FA204642F234326168FFF72BFF41482E
:102D500003F04FFA002874D0A1683E4803F010FC3D
:102D60003D493C4803F00CFCE1683A4803F008FC9C
:102D70003A49384803F004FC3146364803F000FC79
:102D80003749344803F0FCFB2946324803F0F8FB8E
:102D90003449304803F0F4FB237DB3B304F034FD31
:102DA000314903F004FC04F02FFD304903F0FFFB30
:102DB00004F02AFDA16803F0E3FB04F025FD264999
:102DC00003F0DEFB04F020FDE16803F0D9FB04F022
:102DD0001BFD224903F0D4FB04F016FD314603F03D
:102DE000CFFB04F011FD1E4903F0CAFB04F00CFDFB
:102DF000294603F0C5FB04F007FD1A4903F0C0FBA8
:102E000004F002FD1A4903F0D2FB2046FFF712FF3F
:102E100020B9104803F034F9164870BD4FF42F70F4
:102E200002F042FD1449024605462046FFF724FF02
:102E30000446084803F024F9284602F03DFD2046E8
:102E400070BD237D002BE4D004F0DEFC0B4903F0C1
:102E5000AEFBDEE75007002085D1080888D10808BE
:102E6000E0D208081ED30808A0D108088AD10808B3
:102E70009FD108085F42A2CDA5D10808A8D10808B3
:102E800070B50446416842F234321D461E480023A4
:102E900003F040FA204642F234326168FFF782FEC6
:102EA000194803F0A6F920B32946174803F068FB38
:102EB0002046FFF7BFFE054620B9134803F0E0F8AF
:102EC00000251FE0642002F0EFFC10490246064690
:102ED0002046FFF7D1FE0446304602F0EDFC0C49D7
:102EE000204606F037FC0028E7D1074803F0C8F871
:102EF00008E0237D002BE0D004F086FC054903F0B8
:102F000056FBDAE7284670BD500700207DD108083F
:102F10005F42A2CDCED1080810B5064C02F080F970
:102F2000204603F0D5F92046BDE81040024A034987
:102F300005F05EBA50070020400100203D2B080834
:102F400010B50446006808B1FDF7AFF8E06802F07C
:102F5000B3FC6068042105F059FA204610BD00005A
:102F600070B50446012094F9105060741420454354
:102F7000E668715194F91010E56800FB01518A6010
:102F800094F91020E16800FB0212536094F91030AC
:102F9000E26800FB0323049ADA6094F91030E268D7
:102FA00000FB0320059B0361237C01335BB20F2BE5
:102FB000237408DDA37C23B104F026FC024903F04E
:102FC000F6FA0F23237470BD00D2080830B51046FE
:102FD00087B00C4605F096FD01AD02460B4628462B
:102FE000094902F079FC00221346A95C202905D08A
:102FF000E1540133DBB209B9E15402E00132142A91
:10300000F3D107B030BD00BF83D208082DE9F041ED
:103010000C4688B005464749204606F07DFF00274C
:1030200095F910309F4266DA14267E43EB680DF165
:103030000C0833449A6841462846FFF7C7FFEB68FF
:10304000CDF800809B5922463B49204602F044FCC3
:10305000EB683344DB686BB322463849204602F004
:103060003BFCEB6833441B69FBB10A2093FBF0F196
:10307000642293FBF2F291FBF0FC92FBF0FE00FB6A
:103080001C1C00FB113100FB1E22C9B200915FFA2B
:103090008CF3D2B22A4902A802F01EFC02AB2246EF
:1030A0002849204602F018FC04E022462649204622
:1030B00002F012FCEB681E44736823B122462349D8
:1030C000204602F009FC22462149204602F004FC79
:1030D000013795F91030FFB29F42224604DA1D49AC
:1030E000204602F0F9FB9BE71949204602F0F4FB69
:1030F00000232B7494E7AB7CC3B104F085FB164925
:1031000003F055FA04F080FB144903F050FA04F080
:103110007BFB214603F04BFA04F076FB0E4903F0EB
:1031200046FA04F071FB0E4903F041FA08B0BDE81D
:10313000F08100BF88D208088AD208089DD208080A
:10314000B0D20808B7D20808BCD20808C2D2080812
:10315000D1D20808D5D2080872D10808D9D20808F7
:10316000DFD608082DE9F0410C4605461F461646F5
:1031700088B04D49204606F0CFFEAB684B4A4C491B
:10318000204602F0A9FB00973346224649492046D3
:1031900002F0A2FB22464849204602F09DFB002790
:1031A00095F910309F4260DA14267E43EB680DF1EA
:1031B0000C0833449A6841462846FFF707FFEB683E
:1031C000CDF800809B5922463A49204602F084FB04
:1031D000EB6833445B6823B122463849204602F04D
:1031E0007BFBEB683344DB6863B3224634492046FB
:1031F00002F072FBEB681E443669F6B10A2096FBBA
:10320000F0F1642296FBF2F291FBF0F392FBF0FEF8
:1032100000FB131300FB116100FB1E22C9B20091D9
:10322000DBB2D2B2274902A802F056FB02AB22461B
:103230002549204602F050FB04E02246234920465F
:1032400002F04AFB013795F91030FFB29F42224647
:1032500004DA1F49204602F03FFBA1E71D49204642
:1032600002F03AFB00232B749AE7AB7CC3B104F065
:10327000CBFA194903F09BF904F0C6FA174903F099
:1032800096F904F0C1FA214603F091F904F0BCFA72
:10329000114903F08CF904F0B7FA034903F087F9F8
:1032A00008B0BDE8F08100BFDFD60808E2D2080808
:1032B000F6D2080802D308080AD308080FD3080872
:1032C00015D30808B0D20808B7D20808BCD208083D
:1032D000D5D208081CD3080872D10808D9D208082A
:1032E0002DE9F74304464FF42F701F460E469046D3
:1032F00002F0DAFAE37C0546013B012B06D80146D1
:10330000434632462046FFF72DFF03E001462046A4
:10331000FFF77CFEA37C23B104F076FA0D4903F09D
:1033200046F960683146036800974246D3F800903A
:103330002B46C8470646284602F0BEFA0121384609
:1033400005F064F8002306B163743046237403B0BB
:10335000BDE8F08323D3080870B5044601200D466C
:103360001646FCF79CFE034610B1054A127802701F
:10337000324629462046BDE87040FFF7B1BF00BF86
:103380006C07002070B506460C4684B1E1683046F3
:10339000FFF7F8FFE369A56823B104F114010322E4
:1033A000084698472046FCF77EFE2C46EDE770BDA8
:1033B000F0B58DB0044601A80D4617461E4602F032
:1033C00053FA03980130FCF76CFE0199206006F077
:1033D000A3FD2A4633463946E67405A800F06AFD87
:1033E0004FF4967002F060FAE06005A800F072FCFD
:1033F000002360602374089906A8A560FFF7C2FF48
:1034000001A802F0B9FF0DB0F0BD38B504460025A3
:1034100005744574FFF7CCFF204638BD024B0022EF
:103420001A7001F0FDBE00BF6C0700202DE9F041CD
:103430000446782023721F460D46164602F034FAE1
:10344000237A6060042B4FF014000CD0FCF727FEA9
:10345000804620B13B4632462946FFF7D6FFC4F8E6
:103460000080BDE8F081FCF71AFE074620B1012379
:1034700032462946FFF7C9FF2760BDE8F08100000A
:1034800010B504460023437283721346024AFFF7C5
:10349000CDFF204610BD00BF33D3080838B5044621
:1034A000406802F009FA256835B12846FFF748FD63
:1034B0001421284604F0AAFF204638BD70B5067ACC
:1034C000042E04D0BDE870400068FFF749BD04F049
:1034D0009BF9BDE87040014903F069B84ED3080874
:1034E00007B5002301930093FFF7E8FF03B05DF8F1
:1034F00004FB0068FFF730BF01F092BE0175704712
:1035000070B50446142002F0CFF90646142002F0EC
:10351000CBF90546204607F037FA22460023023849
:10352000984217DD12F8011B0D2911D111780A29D3
:103530000ED151780D290BD191780A2908D1191D86
:1035400014222144304607F03CFA0023337501E091
:103550000133E5E70A21304606F0C6FC0446E8B12F
:103560000A21013006F0C0FCC0B12146284606F011
:10357000D3FC284607F008FA0023284400F8013C51
:10358000284606F059FB05F0F3FD0446284602F0F4
:1035900093F9304602F090F9204670BD004870BDA6
:1035A0005F42A2CD30B5074D8360056000250575EB
:1035B00041F28835039B8561052505774160C3602D
:1035C000026130BD78D508082DE9F84305460F465D
:1035D000904600241D48E6B202F00BFE98BB2B7FFC
:1035E000B34201D8BDE8F8832B7DC3B104F00CF9D8
:1035F000174902F0C5FF04F007F9394602F0C0FF91
:1036000004F002F9134902F0BBFF04F0FDF8814613
:103610000A22314602F0D5FF484602F0BCFF0023E3
:103620001FFA88F23946094802F074FE2B7D23B157
:1036300004F0EAF8084902F0BAFF4FF47A7003F098
:103640003BF90134C6E7BDE8F88300BF70070020EE
:1036500001D1080817D1080884D5080870B54D1E97
:1036600006462B460C4601F52F72002103F8011F78
:103670009342FBD1337D4BB104F0C6F8134902F0FD
:1036800096FF04F0C1F8124902F091FF04F2BA2447
:10369000104802F0B9FC40B9337DB3B104F0B4F87E
:1036A000BDE870400C4902F082BF0A4802F061FC9C
:1036B00005F8010F337D2BB104F0A6F803682978D3
:1036C0009B689847A542E3D1E6E770BD72D1080830
:1036D0005ED108087007002071D1080870B5054652
:1036E00000240D4802F090FC064610B9AB699C42DC
:1036F00001DB012070BD012003F0DEF8AB6901346D
:103700009C42EEDB287D30B104F07EF8034902F0E4
:103710004EFF304670BD70BD700700202BD10808E9
:10372000F8B50F460269416804461E46FFF74CFF94
:10373000804802F05EFD0546002800F0EC807E49DE
:103740007C4802F01DFF39467A4802F019FF7B4998
:10375000784802F015FF7A49764802F011FF616857
:10376000744802F00DFF7749724802F009FF76496C
:10377000704802F005FFA1686E4802F001FF714930
:103780006C4802F0FDFE71496A4802F0F9FEE168FA
:10379000684802F0F5FE6B49664802F0F1FE6C499C
:1037A000644802F0EDFE6B49624802F0E9FE3046E3
:1037B00007F0EAF8054668495E4802F0E1FE002D90
:1037C00005DA2D215B4802F0DFFE694200E0294660
:1037D0000A22584802F0F5FE6049564802F0D0FE31
:1037E0003146544802F0CCFE5649524802F0C8FE19
:1037F000504802F080FB237D002B71D004F004F8C8
:10380000574902F0D4FE03F0FFFF4B4902F0B8FE27
:1038100003F0FAFF394602F0B3FE03F0F5FF474923
:1038200002F0AEFE03F0F0FF454902F0A9FE03F0FE
:10383000EBFF616802F0A4FE03F0E6FF414902F0ED
:103840009FFE03F0E1FF404902F09AFE03F0DCFF27
:10385000A16802F095FE03F0D7FF3A4902F090FE0E
:1038600003F0D2FF394902F08BFE03F0CDFFE1688F
:1038700002F086FE03F0C8FF324902F081FE03F039
:10388000C3FF334902F07CFE03F0BEFF314902F072
:1038900077FE03F0B9FF304902F072FE03F0B4FF87
:1038A000002D074603DA2D2102F06EFE6D420A223A
:1038B0002946384602F085FE03F0A6FF274902F0AC
:1038C0005FFE03F0A1FF314602F05AFE03F09CFFB9
:1038D0001C4902F055FE03F097FF224902F067FEF3
:1038E0002046FFF7FBFE237D0BB901241DE003F00A
:1038F0008BFF1D4902F05BFE0E4802F085FB00289D
:10390000F3D00C4802F035FB044603F07DFFE1B232
:1039100002F03AFEF0E7237D33B103F075FF13495F
:1039200002F045FE2C4600E01C46024802F0A8FBCF
:103930002046F8BD7007002095D50808ADD50808C9
:10394000B9D50808DDD60808C0D50808CDD50808BF
:10395000DCD50808F0D5080811D60808DBD6080819
:1039600022D608083ED608085CD6080878D608088B
:1039700070B5044600230E4615464168502265483E
:1039800002F0C8FC204650226168FFF71DFE614826
:1039900002F02FFC002800F0B2805F495D4802F081
:1039A000EFFD31465B4802F0EBFD5C49594802F0FF
:1039B000E7FD2946574802F0E3FD5949554802F012
:1039C000DFFD5849534802F0DBFD5749514802F0EA
:1039D000D7FD0A2250214F4802F0F3FD53494D48CC
:1039E00002F0CEFD52494B4802F0CAFDA168494899
:1039F00002F0C6FD4D49474802F0C2FD4D49454819
:103A000002F0BEFDE168434802F0BAFD4749414873
:103A100002F0B6FD48493F4802F0B2FD237D002B7D
:103A200050D003F0F1FE3C4902F0AAFD03F0ECFE99
:103A3000314602F0A5FD03F0E7FE384902F0A0FD93
:103A400003F0E2FE294602F09BFD03F0DDFE34495F
:103A500002F096FD03F0D8FE324902F091FD03F02A
:103A6000D3FE314902F08CFD03F0CEFE0A22502134
:103A700002F0A7FD03F0C8FE2C4902F081FD03F01F
:103A8000C3FE2B4902F07CFD03F0BEFEA16802F0EC
:103A900077FD03F0B9FE254902F072FD03F0B4FE94
:103AA000244902F06DFD03F0AFFEE16802F068FD0D
:103AB00003F0AAFE1D4902F063FD03F0A5FE1E49B6
:103AC00002F05EFD2046FFF709FE20B9114802F022
:103AD000D7FA1A4C1CE04FF42F7001F0E5FE0546B2
:103AE00001462046FFF7BAFD2846FFF709FD0446C8
:103AF000084802F0C5FA284601F0DEFE08E0237D02
:103B0000002BE3D003F080FE0D4902F050FDDDE70D
:103B1000204670BD70070020A2D60808B7D6080856
:103B2000B9D60808ADD50808B9D50808DDD6080803
:103B3000C0D50808CDD50808BDD608085F42A2CD7B
:103B4000E0D6080810B5064C01F06AFB204602F0EA
:103B5000BFFB2046BDE81040024A034904F048BCC0
:103B600070070020400100203D2B0808036818471B
:103B7000012A02D0022A02D004E0016002E00B68B0
:103B800000B103600020704713B51C20FCF787FAD2
:103B9000044648B1064B07491B6842F23432009391
:103BA0000968054BFEF7EEFF204602B010BD00BFCE
:103BB000C4070020C8070020E2D2080813B520205F
:103BC000FCF76DFA044640B1054B06491B685022CC
:103BD00000930968044BFFF7E5FC204602B010BDD6
:103BE000C4070020C8070020E2D2080813B51C2033
:103BF000FCF755FA044648B1064B07491B6842F2E8
:103C0000343200930968054B00F0E2F9204602B017
:103C100010BD00BFC4070020C8070020E2D208087A
:103C200013B51420FCF73BFA044640B1054B064996
:103C30001B68009300231A46096800F071FA2046B9
:103C400002B010BDC4070020C807002010B504460C
:103C5000054B03606433036102F0D6FE204602F098
:103C6000B7FF204610BD00BF7CDA080810B5044637
:103C7000FFF7ECFF20463C2104F0C8FB204610BDB6
:103C800010B5002386B00446049321B10F4B029176
:103C900005930F4B049302AB93E803008DE80300F8
:103CA00094E8030083E803009DE80300049A84E895
:103CB0000300A168A260059A0491E1681846E260D9
:103CC0000591FCF77CFA204606B010BD6D3B080854
:103CD000713B080800F108010B4670B5C2684AB193
:103CE0000478157CA5423ABFD4681A4694681346F6
:103CF0002246F4E7994204D000781A7C904238BFFB
:103D00000B46DA690AB904F04DFC1A6A03F1140093
:103D1000BDE87040104770B504468B6816460D1D0F
:103D2000012253B130781A7C1D46904235BF986805
:103D3000D868012200220346F3E732B1CA689542EF
:103D40000AD0284604F0C9FB00E028463378027CFC
:103D50009A424FF0000302D284E8280001E084E890
:103D60000900204670BD2DE9F7431F460646242072
:103D70000C46FCF794F93B6810F1100818BF1B784B
:103D800006F104071EBF03740023C361A742054662
:103D900008D17369002B5CD03169037C0A7C9A429C
:103DA0003AD356E090F81090237C994517D2F368E7
:103DB0002046A34211D004F090FB037C4B4505D272
:103DC000C368002B14BF2046002406E06846424624
:103DD0003146FFF7A0FF009C019801461AE02FD959
:103DE0003369A34213D0204604F064FB037C4B45A7
:103DF00005D9E368002B14BF0446002008E068469C
:103E000042463146FFF787FF9DE8110000E00020A1
:103E100021460446A1B144B98F4206D0087C2B7CD0
:103E200083422CBF0020012000E001203B460A46CF
:103E3000294604F054FB736928460133736110E08E
:103E400005F11400FCF7BBF92846FCF72CF92046D5
:103E500007E0314642466846FFF75DFF009C019946
:103E6000D8E703B0BDE8F0837FB5041D0A462146BC
:103E700083684BB115781E7CAE423ABFDD680B46B5
:103E80009D6819462B46F4E78C4203D014780B7CCE
:103E90009C4208D204AB43F8042D02AA0092044AC3
:103EA000FFF761FF014601F1140004B070BD00BFCF
:103EB00006D708082DE9F74304461D468946904673
:103EC00000211022083005F0DFFF0123257002AD2C
:103ED00004F1080205F8013D261D002722616261F8
:103EE0002946A7613046FFF7BFFF1549FFF7C8FE17
:103EF000294630468DF80770FFF7B6FF1149FFF7E6
:103F0000BFFE0223294630468DF80730FFF7ACFF8D
:103F10000D49FFF7B5FE0323294630468DF80730DB
:103F2000FFF7A2FF0949FFF7ABFE2046084BC3F895
:103F30000090084BC3F8008003B0BDE8F08300BFD9
:103F4000893B0808BD3B0808ED3B0808213C0808F0
:103F5000C8070020C407002070B5104D01F060F9BB
:103F60000F4C104E284602F0B3F928460E4D22465B
:103F7000314604F03DFA284602F0AAF928460B4DD6
:103F80002246314604F034FA284602F003FE224667
:103F90002846BDE87040064904F02ABAA807002068
:103FA000400100203D2B08088C070020CC07002092
:103FB0004D3C080808B501F033F9BDE8084001F0B0
:103FC000CFB90000004870475F42A2CD017570472D
:103FD00030B5064D836005600025057541F28835D2
:103FE000039B85614160C360026130BDBCD7080896
:103FF000F0B54F6885B0002604AC0546384644F855
:10400000046D06F0C1FC0A4B009681B25B68224643
:10401000384601F00DFB20B13146284603F056FB2F
:1040200003E02146284603F049FB284605B0F0BDD1
:10403000580D002030B587B00146044602A81D4641
:10404000FFF7D6FF02A803F047FB80B9237D23B119
:1040500003F0DAFB214902F0AAFAF3230093372296
:104060003D23A92104A803F047FB059B03930022ED
:1040700040F2BD211A4802F0BDFD002242F2343167
:10408000174802F099FC174B42F234320493039B19
:1040900004A91348059302F0C7FD68B165B128462D
:1040A00006F072FC294602460D4802F0E0FC18B109
:1040B0000B4802F02FFC58B9237D23B103F0A4FB79
:1040C000094902F074FA064802F09EFC002003E061
:1040D000034802F099FC012007B030BD07D708085B
:1040E000080800203CDB080893D7080810B5064CE8
:1040F00001F096F8204602F04DFD2046BDE8104044
:10410000024A034904F074B9080800204001002065
:104110004D3C0808004870475F42A2CD01747047CB
:1041200010B5044C8360029B046000240474416059
:10413000C36010BDD0D7080870B5064600200C46F5
:1041400001F0F6FA08B9002070BD002C03DD01F083
:1041500007F9054600E0002573783BB9002C07DD20
:1041600001F0FEF8401BA04202D3ECE7012070BD35
:1041700001F062FBF0E730B585B01A46089B02A853
:104180001B788DF800303C2303F0ECF8029C0021F2
:104190002046FFF7D1FF6378BFF35F8F33B1002173
:1041A0002046FFF7C9FF2378012B13D00025039C7D
:1041B00094B16368013B636073B9236820469B68D0
:1041C0009847A368013BA36033B923682046DB68A6
:1041D000984701E0257BEAE7284605B030BD01F0AD
:1041E0001FB8704770B5064614460D4604F0B4F883
:1041F000317803F0A4FD04F0AFF8036829469B680A
:10420000984704F0A9F8036821469B68984704F092
:10421000A3F8BDE8704003F09DBD38B504460D46D7
:1042200004F09AF8217803F08AFD04F095F8036809
:1042300029469B68984704F08FF803F08BFD04F043
:104240008BF82178012203F077FD04F085F80368EC
:104250005B699847044604F07FF803F07BFDE0B209
:1042600038BD38B504460D4604F076F8217803F0E1
:1042700066FD04F071F8036829469B68984704F0CE
:104280006BF803F067FD04F067F82178022203F071
:1042900053FD04F061F803685B699847054604F034
:1042A0005BF803685B699847044604F055F803F02F
:1042B00051FD44EA052080B238BD08B5FFF7D1FFB3
:1042C00040BA80B208BD38B588210446FFF7F5FF33
:1042D0008A21A0812046FFF7F0FF8C21E081204653
:1042E000FFF7EBFF8E2120822046FFF7E6FF9021AB
:1042F00060822046FFF7E1FF9221A0822046FFF76F
:10430000DCFF9421E0822046FFF7D7FF962120832F
:104310002046FFF7D2FF982160832046FFF7CDFFAC
:104320009A21A0832046FFF7C8FF9C21E083204606
:10433000FFF7C3FF9E2120842046FFF7BEFFA12187
:1043400060842046FFF769FFE12184F824002046BD
:10435000FFF7B3FFE321E0842046FFF75EFFE4218F
:1043600084F828002046FFF758FFE521054620463F
:10437000FFF753FF00F00F0040EA05106085E621CB
:104380002046FFF74AFFE52105462046FFF745FF97
:10439000001140EA0510A085E7212046FFF73DFF08
:1043A00084F82E0038BD10B50446017003F0D4FF28
:1043B00003F08EFCD0212046FFF72FFF60280ED19E
:1043C0002046FFF780FF20460322F221FFF70AFF75
:1043D00020463F22F421FFF705FF012010BD0020F9
:1043E00010BD000038B5FA210446FFF73AFFFC2162
:1043F00005022046FFF711FFA2892843C2EB2023C4
:104400005B435200C2EBE012B4F90E001B135043A1
:10441000B4F9102053439B1303EBE020A06000EBA2
:1044200080008030001204F0ADFF024905F0B2F8C0
:1044300038BD00BF0000C8422DE9F84FF7210646FD
:10444000FFF70FFFF92107463046FFF7E6FEB46895
:10445000B6F91420E517B4F5FA3445F1FF35A4FB9D
:10446000048904FB05F302FB05F109EB4309D317AB
:1044700004FB0311A2FB04230B44190341EA12516C
:1044800086461003B6F9162002FB09FCD31708FB79
:1044900003CCA2FB082363444FEA122A4AEA036AC8
:1044A0001AEB000A728A4FEA232B4BEB010B1AF12D
:1044B00000004BF50041A0FB02AB02FB01BB4FEA41
:1044C0006B024FEAEB7352EA030100F08280B6F907
:1044D0001CA04EEA07270AFB09F14FEAEA7B08FB1A
:1044E0000B11AAFB0889B6F91AA089440AFB05F149
:1044F0004FEAEA7B04FB0B11AAFB04450D444FEA8B
:10450000454B4FEA444A3F111AEB080AC7F580179A
:104510004BEAD43B4BEB090B4FEAE7794FEAC975FD
:1045200045EA5705FC0740F63547B6F918004FF045
:10453000000818EB0A084FEAC00949EB0B09B4EB75
:104540000804A4FB070165EB090507FB051105F04D
:104550006FF9B6F922204C1302FB04F7450B45EA2C
:10456000C145D31705FB0377A2FB052354433B4406
:1045700005FB0344A2FB05232344540E44EAC31461
:10458000B6F9202024184FEA63654D415143D317F3
:1045900000FB0313A2FB00011944C20C42EA4132A2
:1045A0001219B6F91E404FEAE1436B41100AE517B4
:1045B000220140EA036019122B0143EA14738018A8
:1045C000594104F0F5FE4FF06E5104F02FFFBDE8A5
:1045D000F88F0020BDE8F88F10B50446FD21FFF7E5
:1045E00040FEB4F92A30A268B4F92C101B05A2F5DC
:1045F0009632C3EB803002FB110000F58043D813E4
:1046000094F8283094F92E1053434A43DB12921247
:1046100003F500435343B4F926209B1203F500131E
:10462000534303F500539B134343D813404394F87B
:104630002420C0115043A3EB201020EAE070B0F119
:10464000C85FA8BF4FF0C850001304F09BFE4FF0A6
:104650006A5104F0EBFE10BD00F0E2BD0023C3661A
:104660000367A0F8683080F866300370704708B5BB
:10467000FFF7F4FF016708BD2DE9F0410646C06E63
:1046800088461746541E5D1EB8B1036856219B68C4
:104690009847F06E317803683D449B689847F06E08
:1046A000414603689B689847A5421FD0F06E14F8F6
:1046B000011F03689B689847F6E7306F562103682F
:1046C0003D449B689847306F317803689B689847F2
:1046D000306F414603689B689847AC4206D0306F04
:1046E00014F8011F03689B689847F6E7BDE8F0815E
:1046F000F8B505460E461746002480F86640BC42D1
:1047000095F866001FD0B0421DD0E86E00B9286F42
:1047100003681B699847002805DC0120013402F07A
:10472000CBF8E4B2EBE795F86640E86E631C85F8D9
:10473000663000B9286F03685B6998472B19C0B2CF
:1047400058700024DBE7F8BD13B5044602AA012324
:1047500002F8043D1121FFF78FFFC8226421204693
:10476000FFF7C6FF28B194F86630002223445A7040
:10477000601C02B010BD4378762B0BD18278037891
:104780009A4207D1C3788B4204D10079B0FA80F005
:1047900040097047002070472DE9F04198469DF888
:1047A0001C3004460D4617469DF818601BB10A22BE
:1047B0006421FFF79DFF43463A4629462046FFF70E
:1047C0005BFFC82231462046FFF792FF864205D1A3
:1047D00029462046BDE8F041FFF7CDBF0020BDE8E7
:1047E000F0811FB5002304AA02F8043D052101232E
:1047F0008DE80A002621FFF7CFFF05B05DF804FB26
:1048000010B50446C06E10B100F034FB02E0206F1A
:1048100003F0E0F92046BDE81040FFF7E2BF1FB506
:1048200001238DF80C30019305238DF80D100093B2
:1048300003AA02233621FFF7AFFF05B05DF804FBA2
:104840000021A0F86810FFF7EABF1FB5012300227E
:104850008DF80C30019309238DF80D20009303AAE5
:10486000022334210446FFF797FF40B1E388207A02
:104870005BBA9BB240EA0320637A43EA002004B0AB
:1048800010BD70B504460D4686B00D22002102A869
:1048900005F0FAFA0C238DF80830B4F868300A26CF
:1048A0001A128DF80D208DF80E30052200238DE8A8
:1048B0000C0032210D2302AA20468DF80A608DF8E3
:1048C00014608DF81250FFF767FF08B900200DE063
:1048D000691D3246C9B22046FFF70AFF0028F5D00D
:1048E000B4F86810601C2944A4F8681006B070BDC4
:1048F00000F096BCF7B53C4C2368D9070CD4204691
:10490000FBF7D5FB40B1394B394A1B78204603F001
:1049100001031370FBF7D0FB364C23781A0661D4E1
:104920002578324E6DB275B9334B2A461968334833
:1049300000F048FC33782E4A03F001031370304B2B
:10494000304A1B78D554304B304A18881C234343D7
:104950001268D118D3588A881B692D491A422378C6
:104960000D785BB214BF01220022AB420DDC214B5B
:1049700023491B780978234FC9B217F801E05BB2CD
:1049800002FA03F34EEA03037B543378DB0603D5C4
:1049900023785BB29D4220DA23781E4A01331278D5
:1049A0005BB2934223701DDB114B154A1B7823B178
:1049B0001378144AFF21D15404E01378013303F033
:1049C0003F031370FE2323700023009302224FF055
:1049D000FF33114902F084FF04E0054B19784A4087
:1049E0001A70D9E703B0F0BD4C080020A5080020DC
:1049F000500800204000002034000020F40800206F
:104A0000B00800205108002048000020AC08002019
:104A10003F00002030000020294A080810B5044655
:104A200000F0C6FB204610BD10B5094C23781B06CC
:104A30000DD5084B08481968002200F0C3FB00237D
:104A40002370064BBDE81040188802F071BF10BDFE
:104A50004000002038000020F4080020480000201A
:104A60000EB400B58CB00DAA52F8041B20238DE8BB
:104A70000600039204930168002304AA1E200593F4
:104A800000F026FE0CB05DF804EB03B070470000A8
:104A90007FB53B22428047F22F5282804FF6FF7251
:104AA000C280254A00230370037213705370937001
:104AB000D370137103780446002B3AD101231F4EA3
:104AC0001F4D03701F4B69461320009303960295F8
:104AD00002F058FF6846FBF772FB1B4B69461A2031
:104AE00000930396029502F04DFF6846FBF767FBC3
:104AF000164B6946212000930396029502F042FF6F
:104B00006846FBF75CFB124B694624200093039632
:104B1000029502F037FF6846FBF751FB0D4B6946E3
:104B2000262000930396029502F02CFF6846FBF7BF
:104B300046FB204604B070BD1C090020BF000808D9
:104B4000C3000808C94E0808F14E0808194F0808A4
:104B5000414F0808694F080813B5114C02212088FD
:104B600003F036FB0F4BFE221A700F4B1A68092A0E
:104B70000AD90E48C3889A4206D80D4B0D491B78B6
:104B80000093002300F0DEFA0023009320884FF00A
:104B9000FF330222084902F0A3FE02B010BD00BF9D
:104BA000480000204000002034000020F4080020CD
:104BB0003D000020F5480808294A080838B5564C39
:104BC0002368DB070CD42046FBF771FA40B1534B46
:104BD000534A1B78204603F001031370FBF76CFA6D
:104BE000504C23785BB20133C0F2948023784E4D51
:104BF000FF2B15D14D4B002219684D4800F0E2FA09
:104C00004C4B1A881C2353434B4A1268D118D35873
:104C10008A885A83414B424A1B7803F0010320E003
:104C20002378464A13F0800F3DD1237811785BB288
:104C30008B4238DA297823785AB2414B5B5C1341B6
:104C400013F0010F3C4A3B4B0DD019881C234B43FA
:104C50001268D118D3588A881A83314A137883F09E
:104C60000103137007E019881C234B431268D11805
:104C7000D3588A885A83334B2A781B789A420DD1AD
:104C8000FE232370304B1B78002B43D02F4B18682A
:104C900000283FD0BDE83840FFF75EBF23780133DE
:104CA0005BB2237038BD1D4B1B7823B1237811787C
:104CB0005BB28B4211D0237812785BB29A42244ABD
:104CC0001ADC184B11781B785BB28B4214DA194B43
:104CD0001A881C235343184A08E0114B164A1978C6
:104CE000144B0029BFD019881C234B431268D118DC
:104CF000D3588A881A83BEE7237812785BB293422E
:104D0000B9DB2B78FE22013303F03F032B70054BF8
:104D10001A70B0E738BD00BF44080020A508002085
:104D2000480800203C000020A40800203400002097
:104D30009408002044000020AC0800203F00002020
:104D4000B10800200409002091080020A8080020D4
:104D50003000002013B5114C0121208803F038FAEF
:104D600022881C2353430E4A1268D118D3588A88CC
:104D70001A830C4BFE221A700B4B1A68092A0AD9A7
:104D80000A48C3889A4206D8094B0A491B780093FF
:104D9000002300F0D7F902B010BD00BF440000208E
:104DA000AC0800203C0000203400002094080020C3
:104DB0003E000020BD4B080812F0100F38B5054624
:104DC000234B01D0092003E090064CBF07200820A8
:104DD00018701B7812F0010F1E4814BF0233013304
:104DE00012F00C0403701C4B09D012F0080F14BF12
:104DF000112210221A7003780133037000E01C7036
:104E0000164A00240C2000FB04F39B58A3B18B42EC
:104E100010D804D00A4612481249FFF721FE0F4A63
:104E20000C2303FB0424104B62681A60A2680F4B2A
:104E30001A6001E00134E6E70D4B1B7813B92846F0
:104E4000FFF788FF2846BDE83840FFF785BE00BF62
:104E50003F00002030000020A508002050D808089E
:104E6000340900202BD80808380000203400002026
:104E7000910800200022FFF79FBF000070B500F0EE
:104E8000CFF90C4C0C4B0D4E18600D4D2046FFF722
:104E9000FFFD20460B4C3246294603F0A9FA204676
:104EA000FFF7F6FD324629462046BDE8704003F084
:104EB0009FBA00BFF4080020AC0800204001002089
:104EC0001D4A08089408002010B50121064803F087
:104ED00027F940B10121044803F02DF9BDE8104045
:104EE000024B1B68184710BD000400400809002051
:104EF00010B50121064803F013F940B1012104481F
:104F000003F019F9BDE81040024B5B68184710BD6B
:104F1000000800400809002010B50121064803F0F0
:104F2000FFF840B10121044803F005F9BDE8104045
:104F3000024B9B68184710BD000C00400809002078
:104F400010B50121064803F0EBF840B101210448F7
:104F500003F0F1F8BDE81040024BDB68184710BDC4
:104F6000001000400809002010B50121064803F098
:104F7000D7F840B10121044803F0DDF8BDE8104046
:104F8000024B1B69184710BD00140040080900209F
:104F9000F0B5437A85B005460F461646042B30D847
:104FA000DFE803F0030C151E27000121022002F0A8
:104FB00093FF1D238DF80030294C22E001210420AD
:104FC00002F08AFF1E238DF80030264C19E00121E3
:104FD000082002F081FF32238DF80030224C10E0CF
:104FE0000121102002F078FF36238DF800301F4C8D
:104FF00007E00121202002F06FFF1D4C37238DF8C0
:1050000000301EB1012E01D1AE8800E06E886A7AB0
:10501000E968184B012543F8221068460A238DF8E9
:1050200001308DF802508DF8035002F01DFF00236F
:1050300001A92046ADF80630ADF80C308DF80E30E1
:10504000ADF80460029703F021F82A46294620466D
:1050500003F07EF82946204603F056F805B0F0BD6F
:105060000004004000080040000C00400010004018
:105070000014004008090020042BF8B506460F462E
:1050800096461C460E4D11D900242A5DE3B24AB95A
:105090007372304672463946FFF77AFF084B01209B
:1050A0001855F8BD0134052CEFD107E0EB5C2BB9A6
:1050B0004472FFF76DFF01202855F8BD0020F8BDB0
:1050C0001C09002073B5437A0646042B1CD8DFE880
:1050D00003F003080D1217001D238DF80430134C44
:1050E00012E01E238DF80430114C0DE032238DF8B0
:1050F0000430104C08E036238DF804300E4C03E0E9
:1051000037230E4C8DF804300021204602F0FCFFBE
:10511000002501A88DF8075002F0A6FE204602F0F7
:10512000FFFE737A064AD55402B070BD00040040F9
:1051300000080040000C0040001000400014004037
:105140001C0900202DE9F0411F46037A04468846D9
:1051500016469DF818501BB1FFF7B4FF00232372C9
:10516000042DC4F80C8010D82B463A463146204610
:10517000FFF782FF20B1012303E00135052D06D1A1
:1051800000232372207ABDE8F081084B0025E95CFA
:10519000EAB20029F1D1627231463A462046FFF761
:1051A000F7FE024A01235355EBE700BF1C0900201C
:1051B000037A10B504460BB1FFF784FF0023237276
:1051C00010BD000010B5447A042C0DD8DFE804F0BF
:1051D000030507090B000C4B06E00C4B04E00C4BDD
:1051E00002E00C4B00E00C4B1AB1012A01D182887D
:1051F00000E04288D96292B201211A85998218464C
:10520000BDE8104002F097BF0004004000080040D5
:10521000000C0040001000400014004000F000B8F6
:1052200008B5024B1B681B68019308BDB001040858
:1052300008B5024B1B685B68019308BDB001040808
:1052400008B5024B1B689B68019308BDB0010408B8
:1052500008B5024B1B68DB68019308BDB001040868
:1052600008B5024B1B681B69019308BDB001040817
:1052700008B5024B1B689B69019308BDB001040887
:1052800008B5024B1B68DB69019308BDB001040837
:1052900008B5024B1B681B6B019308BDB0010408E5
:1052A00008B5024B1B681B6C019308BDB0010408D4
:1052B00008B5024B1B681B68019308BDB4010408C4
:1052C00008B5024B1B685B69019308BDB401040873
:1052D00008B5024B1B68DB69019308BDB4010408E3
:1052E00008B5024B1B681B6A019308BDB401040892
:1052F00008B5024B1B685B6A019308BDB401040842
:1053000008B5024B1B689B6A019308BDB4010408F1
:1053100008B5024B1B689B6B019308BDB4010408E0
:1053200008B5024B1B68DB6B019308BDB401040890
:1053300008B5024B1B685B68019308BD9C0104081B
:1053400008B5024B1B689B68019308BD9C010408CB
:1053500008B5024B1B681B69019308BD9C0104083A
:1053600008B5024B1B685B69019308BD9C010408EA
:1053700008B5024B1B68DB69019308BD9C0104085A
:1053800008B5024B1B689B6D019308BD9C01040886
:1053900008B5024B1B68DB6D019308BD9C01040836
:1053A00008B5024B1B689B6E019308BDB801040849
:1053B00008B5024B1B685B68019308BDD001040867
:1053C00008B5024B1B685B69019308BDD001040856
:1053D00008B5024B1B685B6C019308BDD001040843
:1053E00008B5024B1B689B6C019308BDD0010408F3
:1053F00008B5024B1B68DB6C019308BDD0010408A3
:1054000008B5024B1B685B6D019308BDD001040811
:1054100008B5024B1B68DB6E019308BDD001040880
:1054200008B5024B1B689B69019308BDC4010408C1
:1054300008B5024B1B685B6A019308BDC4010408F0
:1054400008B5024B1B689B6A019308BDC4010408A0
:1054500008B5024B1B68DB6A019308BDC401040850
:1054600008B5024B1B681B6B019308BDC4010408FF
:1054700008B5024B1B685B6B019308BDC4010408AF
:1054800008B5024B1B689B6B019308BDC40104085F
:1054900008B5024B1B681B6C019308BDC4010408CE
:1054A00008B5024B1B68DB6C019308BDC4010408FE
:1054B00008B5024B1B68DB68019308BDAC0104080A
:1054C00008B5024B1B689B69019308BDAC01040839
:1054D00008B5024B1B68DB69019308BDAC010408E9
:1054E00008B5024B1B681B6A019308BDAC01040898
:1054F00008B5024B1B685B6A019308BDAC01040848
:1055000008B5024B1B689B6A019308BDAC010408F7
:1055100008B5024B1B68DB6A019308BDAC010408A7
:1055200008B5024B1B681B6B019308BDAC01040856
:1055300008B5024B1B685B6B019308BDAC01040806
:1055400008B5024B1B681B6C019308BDAC01040835
:1055500008B5024B1B689B6C019308BDAC010408A5
:1055600008B5024B1B68DB6C019308BDAC01040855
:1055700008B5024B1B681B6D019308BDAC01040804
:1055800008B5024B1B681B68019308BD2400060880
:1055900008B5024B1B685B68019308BD2400060830
:1055A00008B5024B1B689B68019308BD24000608E0
:1055B00008B5024B1B68DB68019308BD2400060890
:1055C00008B5024B1B681B69019308BD240006083F
:1055D00008B5024B1B685B69019308BD24000608EF
:1055E00008B5024B1B68DB69019308BD240006085F
:1055F00008B5024B1B681B6A019308BD240006080E
:1056000008B5024B1B681B6B019308BD24000608FC
:1056100008B5024B1B685B6C019308BD24000608AB
:1056200008B5024B1B689B6B019308BD2000060860
:1056300008B5024B1B68DB6B019308BD2000060810
:1056400008B5024B1B685B6C019308BD200006087F
:1056500008B5024B1B681B68019308BD1C000608B7
:1056600008B5024B1B685B68019308BD1C00060867
:1056700008B5024B1B681B69019308BD1C00060896
:1056800008B5024B1B685B69019308BD1C00060846
:1056900008B5024B1B689B69019308BD1C000608F6
:1056A00008B5024B1B68DB69019308BD1C000608A6
:1056B00008B5024B1B681B6A019308BD1C00060855
:1056C00008B5024B1B681B6D019308BDA0010208C1
:1056D00008B5024B1B685B6D019308BDA001020871
:1056E00008B5024B1B681B68019308BDA4010408A0
:1056F00008B5024B1B685B68019308BDA401040850
:1057000008B5024B1B685B69019308BDA40104083E
:1057100008B5024B1B689B69019308BDA4010408EE
:1057200008B5024B1B68DB6A019308BDA40104089D
:1057300008B5024B1B68DB6C019308BDA40104088B
:1057400008B5024B1B685B6D019308BDA4010408FA
:1057500008B5024B1B689B6D019308BDA4010408AA
:1057600008B5034B1B68D3F89030019308BD0000C7
:10577000A401040808B5034B1B68D3F89C300193BF
:1057800008BD0000A401040808B5024B1B685B6853
:10579000019308BDC801040808B5024B1B689B684B
:1057A000019308BDC801040808B5024B1B68DB68FB
:1057B000019308BDC801040808B5024B1B681B69AA
:1057C000019308BDC801040808B5024B1B685B695A
:1057D000019308BDC801040808B5024B1B689B690A
:1057E000019308BDC801040808B5024B1B68DB69BA
:1057F000019308BDC801040808B5024B1B681B6A69
:10580000019308BDC801040808B5024B1B681B6B57
:10581000019308BDC801040808B5024B1B685B6B07
:10582000019308BDC801040808B5024B1B685B68FA
:10583000019308BDCC01040808B5024B1B689B68A6
:10584000019308BDCC01040808B5024B1B68DB6856
:10585000019308BDCC01040808B5024B1B685B69C5
:10586000019308BDCC01040808B5024B1B68DB6935
:10587000019308BDCC01040808B5024B1B681B6AE4
:10588000019308BDCC01040808B5024B1B681B6BD3
:10589000019308BDCC01040808B5024B1B68DB6B03
:1058A000019308BDCC01040808B5024B1B681B68B6
:1058B000019308BDA001040808B5024B1B685B6892
:1058C000019308BDA001040808B5024B1B689B6842
:1058D000019308BDA001040808B5024B1B68DB68F2
:1058E000019308BDA001040808B5024B1B681B69A1
:1058F000019308BDA001040808B5024B1B689B6911
:10590000019308BDA001040808B5024B1B68DB69C0
:10591000019308BDA001040808B5024B1B681B6A6F
:10592000019308BDA001040808B5024B1B685B6A1F
:10593000019308BDA001040808B5024B1B68DB6A8F
:10594000019308BDA001040808B5024B1B681B6B3E
:10595000019308BDA001040808B502F023FDBDE8CD
:10596000084002F0FEB910B50446017009B1FFF716
:10597000F3FF204610BD08B502F014FDBDE8084055
:1059800002F0F8B910B5037804460BB1FFF7F3FF46
:10599000204610BD10B504460068FFF7ECFF204616
:1059A00010BD37B502AC0D4644F8040DFFF7D4FF27
:1059B00002F0F8FC6B2102F0C6F902F0F3FC036878
:1059C00029469B68984702F0EDFC012102F0BEF9E0
:1059D00002F0E8FC01231A466B2102F09BF902F069
:1059E000E1FC03685B69984705462046FFF7D2FF54
:1059F000E8B203B030BD73B502AC15460E4644F8AC
:105A0000040DFFF7A9FF02F0CDFC6B2102F09BF91A
:105A100002F0C8FC036831469B68984702F0C2FC5C
:105A2000036829469B68984702F0BCFC012102F0FC
:105A30008DF92046FFF7AEFF02B070BD37B50446C2
:105A40000D460190FFF788FF00212046FFF7A9FFD0
:105A500041F258139D4200F087025BD020D841F2FA
:105A600018039D424DD00CD840F678739D4242D029
:105A700040F6C8739D4241D040F628739D4260D1E4
:105A800059E041F2B8039D423ED041F208139D42D5
:105A90003DD041F268039D4253D142F020024AE0DA
:105AA00041F298239D423ED00ED841F2F8139D4218
:105AB00033D041F248239D4232D041F2A8139D4297
:105AC0003FD142F0400236E041F238339D422DD0C2
:105AD00006D841F2E8239D4233D142F060022AE029
