:020000040808EA
:1000000000000808C4EB0808000006000A0005010B
:080010000402E80500000000F5
:04001800C4D208083E
:1000200009480A4908B5884205D0094A824202D0E7
:10003000121A0AF082FA0748074A0021121A0AF037
:1000400087FA064808BD00BF000000205CEA0808E7
:100050004001002040010020D4100020D4100020D6
:1000600070B507F049FB074B074C1E46E41AA4087D
:100070000025A54204D056F8253098470135F8E709
:1000800070BD00BFA4E9080848EA080801F07EB97D
:1000900008B500F0B9FCBDE8084007F0EFBA05F07C
:1000A00067BF05F065BF05F06BBF05F069BF0000D5
:1000B00008B5034A00210C2005F05EFEFEE700BFF4
:1000C000F95908080078B0FA80F040097047012318
:1000D000037070470A2970B505460C4604D1406884
:1000E0000D2103689B68984768682146BDE8704009
:1000F00003689B6818470020704700207047012064
:1001000070470020704703681847012A02D0022A6E
:1001100002D004E0016002E00B6800B1036000203F
:100120007047704710B501230374836804460BB110
:10013000C06806E0006828B183680BB908F096FD36
:10014000C3689847012363740020BDE8104005F0A0
:10015000BBBC10B504462C2108F0BCFC204610BDE9
:10016000083002F00BBB00007FB502461379084649
:10017000956833B13DB90C4904B0BDE8704006F054
:1001800063BD0A4B00E00A4B167B0A4C0A49527BBE
:10019000012E08BF2146029201910095074A0021D5
:1001A00006F092FD04B070BD5DD3080827DF080893
:1001B0004CD3080855D3080859D3080873D3080846
:1001C00006F099B910B50446806808B105F064FCE2
:1001D000204610BD70B50C4659B1456808460AF076
:1001E00037FF2B68024621462846BDE87040DB6891
:1001F000184770BD10B50446006808B105F0C0FE90
:10020000204610BD07B502AB03F8011D01221946B7
:10021000083002F0B3FA03B05DF804FB0022114687
:10022000406805F02DBE10B58368044613B1032263
:1002300001469847204610BD08B505F0EDFB014B7F
:10024000186008BDCC0E002070B51D4686B0002396
:100250000446049322B1274B02920593264B049344
:100260000023E360049B21603BB1022202A9201D10
:100270009847059B2361049BE3602049142008F004
:100280002DFC30B100230374036043608360C360BE
:1002900043746061A0B11A4B0922836063691949F4
:1002A000DC606069184B8DE82100043005F0DCFB50
:1002B00030B963691B7CA3B9012005F095FBF8E711
:1002C00065690023636165B12E6836B13046FFF77A
:1002D000AAFF1021304608F0FDFB1421284608F043
:1002E000F9FBFFF7A9FF02A8FFF79DFF204606B024
:1002F00070BD00BF070108080B01080870E308087B
:100300009589080891D308082501080800B58BB025
:1003100000230A46014601A88DF804308DF8053007
:1003200002F0C3F90BB05DF804FB000013460A4667
:100330000149096802F0B9B95C07002030B51D4BCE
:1003400085B00093137900F58C658DF804309368BF
:1003500004460293137B8DF80C30537B0A468DF8CC
:100360000D3000F26C416B46284602F05FFEF0B1A2
:10037000256004F23C45284602F090F90121204610
:1003800002F0FDFC014668B12146284601F071FFEC
:1003900068B194F83C3413F0700316BF064B18464E
:1003A0001D6005E0204602F0EAFC0028ECD10020A8
:1003B00005B030BDE0D208085C07002010B5084C3D
:1003C0000121208808F079FA142006F0D9FD208850
:1003D000002108F072FABDE81040052006F0D0BDFB
:1003E0000800002038B50A4D02240121288808F0B1
:1003F00064FA4FF4FA6006F0C3FD0021288808F083
:100400005CFA4FF4FA6006F0BBFD013CEDD138BD5B
:100410000800002070B5104E0A240121308808F031
:100420004CFA962006F0ACFD0021308808F045FA21
:10043000962006F0A5FD013C074DEED1012128884C
:1004400008F03BFA40F2262006F09AFD2146288863
:10045000BDE8704008F031BA0800002038B5114CF2
:100460000121208808F029FA4FF4FA7006F088FD7F
:100470000021208808F021FA4FF47A7006F080FD00
:1004800004250121208808F018FA322006F078FDB2
:100490000021208808F011FA322006F071FD013D9C
:1004A000EFD138BD0800002037B51D49054609F0D9
:1004B000DDFC30B31B49284609F0D8FC1A49002856
:1004C000284614BF4FF496744FF4167409F0CEFC0E
:1004D00016490028284618BF782409F0C7FC14499B
:1004E0000028284618BF5A2409F0C0FC11490028EA
:1004F000284618BF3C2409F0B9FC002818BF1E2468
:100500000BE0FFF76FFF0C4B0C4C1A680C4B62436F
:100510001B680121684605F0F1FF204603B030BD9D
:10052000000048410000C8410000484200008242EB
:10053000000096420000A0422C0000208097060098
:10054000EC060020F8B58B000A3323F0070300AF58
:10055000ADEB030D6B464A1E0024E5B2A94204F13F
:10056000010401DC002410E050F8256043F8256008
:10057000F3E7066850F804EF0135764502DD40F8F0
:1005800004EC06606545F4DB0134944204DA184655
:100590000025C4EB020CF5E711F0010F4FF0020447
:1005A00001BF91FBF4F103EB810253F8210052F8F3
:1005B000043C13BF92FBF4F2C01890FBF4F053F824
:1005C0002200BD46F8BD0000F0B5434DD1B0002477
:1005D000288808F08BF94DF824000134322006F009
:1005E000CFFC282CF4D100215DF8213028A840F858
:1005F000213001312829F7D1FFF7A4FF09F026FAAD
:10060000364909F077FA364909F028FB08F0DEFD93
:1006100029A3D3E9002304460D4608F02BFE224609
:100620002B4608F027FE22462B4608F023FE24A383
:10063000D3E9002306460F462046294608F01AFE55
:1006400022462B4608F016FE02460B463046394637
:1006500008F05EFC1CA3D3E9002306460F462046A3
:10066000294608F007FE02460B463046394608F098
:100670004FFC1C4B044618680D4608F0A7FD0022ED
:10068000194B08F043FC12A3D3E9002308F0F2FD54
:100690000022164B08F03CFC09F0CEF808F096FD5D
:1006A00002460B462046294608F00EFF09F0C4F822
:1006B00051B0F0BDAFF30080F6285C8FC2D5324058
:1006C000A69BC420B0D23840643BDF4F8D8183406D
:1006D000DBF97E6ABC74933F100000203333534033
:1006E00000F07F4524000020000039400000F03F6A
:1006F00030B5114DD1B00024288808F0F7F84DF836
:1007000024000134322006F03BFC282CF4D10021D7
:100710005DF8213028A840F8213001312829F7D18F
:10072000FFF710FF09F092F9044909F0E3F90449D1
:1007300009F094FA51B030BD10000020333353401B
:1007400000F07F4570B5064605F066F94FF47A7300
:10075000B0FBF3F51C4605F05FF9B0FBF4F0401B6D
:10076000B04204D2FFF768FD05F0CAFBF3E770BDA5
:1007700010B5054C0549204606F06DFA2046BDE847
:10078000104006F06CBA00BFF006002098D30808AD
:10079000F0B5534A8DB0534B0A92012208938DF85D
:1007A0002C20002308AA0C214F488DF824308DF806
:1007B0002D30FFF7C3FD08B94C4900E04C494D48C6
:1007C00009F00EFF4C4806F0D7FA06F0A7FB4B4E97
:1007D000044678BB4A4908A806F079F908A93046CA
:1007E00006F0BFF908A806F02BF90A2709214348AB
:1007F00006F006FA642394FBF3F3303303700A2106
:100800003E4806F0FDF994FBF7F505F1300303705F
:100810000B213A4806F0F4F907FB15453035057011
:1008200031683848FFF772FD68B30134B4F57A7F58
:10083000DCD128E03449684606F088F93349684637
:1008400006F0BAF9044606F08AFB314B02463149FC
:1008500004A806F031FB04A9204606F0A1F92E49B0
:1008600006F0AAF9014608A806F070F908A9304672
:1008700006F077F908A806F0E3F804A806F0E0F817
:10088000684606F0DDF807F023FB1C4C05462146C0
:1008900008A806F05BF9214908A806F08DF901685F
:1008A000284606F0E8F908A806F0CAF807F010FB99
:1008B000104906F0E0F931681248FFF727FD28B12A
:1008C000092221681648FFF731FD07E040F60122B2
:1008D00021681348FFF72AFDFFF74AFF0DB0F0BD6E
:1008E00080C3C901E0D2080860010020D0D3080805
:1008F000D4D30808560700200000C0C0E40500203B
:10090000D9D308089C050020CC060020EAD30808AB
:10091000ECD3080860090020E5D30808F5D30808DF
:10092000F806002030B585B0054606F018FB0E4BE2
:100930000E4C02461B6868460D4906F0BDFA009948
:10094000204606F081F9684606F07AF84FF4FA700E
:1009500006F016FB2946204606F076F9204606F0FA
:100960007EF905B030BD00BF4C000020F00600202D
:100970006009002038B5046805467CB16368013B16
:1009800063605BB9236820469B689847A368013B76
:10099000A3601BB923682046DB689847284638BD0A
:1009A0001FB5124801F044FE60B9114B02A81B7834
:1009B000104A8DF8003010493C2307F037F803A89F
:1009C000FFF7D8FF094801F033FE084801F066FE42
:1009D0000A4A0B490B4805F0E3FA07F079FA09498E
:1009E00006F049F905B05DF804FB00BFF8060020E9
:1009F000DC060020FFD308080BD4080856070020A7
:100A00000FD40808380700202DE9F04FF1B000217D
:100A100018A806F07BFD18A806F0B8FD044618A833
:100A200006F0CAFD21461090FFF73EFDB44BDFF8FB
:100A3000E4A21860B34B4FF00209188807F056FF84
:100A400009F004F800210646182007F036FFC820F8
:100A500006F096FAAC4804F04FFCCAF80000AA4829
:100A600004F044FDDFF8C482A84FC8F80000A6488F
:100A700004F06CFCA64909F0F1F83860C82006F0D3
:100A80007FFAB9F10109A34DE4D1D7F800904946A6
:100A9000484609F0F5F9002840F077824FF07E5182
:100AA000484609F0C5F9002840F06F82DFF8C4A27B
:100AB0004FF00209984804F01FFCCAF8000096485D
:100AC00004F044FC924909F0C9F8DFF85482C8F8F0
:100AD0000000C82006F054FAB9F10109EAD13968DA
:100AE000084609F0CDF9002840F055824FF07E51BC
:100AF000D8F8000009F09CF9002840F04C822868E2
:100B000008F064FB78A3D3E9002308F0FFF908F0AC
:100B100093FEDFF860822860D8F8000008F056FBEA
:100B200073A3D3E9002308F0F1F908F085FEC8F8B3
:100B30000000FFF749FD794908F0DCFF8146FFF727
:100B4000D7FD00218246032007F0B7FE00211920BF
:100B500007F0B3FEDFF8B4B1714BDBF80010186892
:100B600008F0BEFE08F032FB63A3D3E9002308F0CF
:100B700081FB08F061FE074632466A496A4803F085
:100B800039FC6A4B6A491A68674803F033FC2A68E3
:100B90006849654803F02EFCDBF80020664962488E
:100BA00003F028FCD8F8002064495F4803F022FCD9
:100BB0005B4B63491A685C4803F01CFC3A46614988
:100BC000594803F017FC22465F49574803F012FCCE
:100BD000109A5E49544803F00DFC4A465C4952485D
:100BE00003F008FC52465B494F4803F003FC4846BB
:100BF00008F0ECFACDE91201504608F0E7FA824617
:100C000030468B4608F0E2FACDE91401384608F088
:100C1000DDFA064610980F4608F0D8FACDE9100123
:100C2000204608F0D3FA03460C46CDE90A67CDE921
:100C30000E34DDE91034CDE906ABCDE90C34DDE945
:100C40001434CDE90834DDE91234CDE90434CDE9BA
:100C50001601D8F8000008F0B9FACDE902012868B9
:100C600008F0B4FA3C4ACDE900014FF4807130A895
:100C700005F0AEF930A8FFF755FEC82006F080F960
:100C8000FFF78EFEC82006F07BF94FF4164133487B
:100C900000F0AEFD18B107F01BF9314902E007F092
:100CA00017F9304905F0E7FF2C4800F045FD0446F0
:100CB00018B907F00DF92C4902E007F009F92146AF
:100CC00005F0C2FF07F004F9284905F0D4FF4FF4FE
:100CD0007A7006F055F9214800F0AAFD00284BD1A2
:100CE00007F0F6F822494AE09A9999999999E93FCB
:100CF000333333333333E33FC4CE143AAFB1D93F48
:100D00001C00002014000020F80500200000002036
:100D10000000C84220000020280600200000A03F5C
:100D20000400002023D40808E00600200C00002066
:100D300028D4080833D408083ED408084BD408083F
:100D400056D408085ED4080867D408086DD408088B
:100D500071D4080879D4080881D4080858060020FE
:100D6000C2D40808D0D40808E1D40808F7D4080889
:100D700009D508082400002007F0AAF8A74905F0C3
:100D80007AFF06F0CBF80446A0BBA54926A805F0DB
:100D90009EFE26A9A34805F0E4FE26A805F050FE15
:100DA000DFF880820A2509219E4805F029FF642387
:100DB00094FBF3F3303303700A219A4805F020FFC7
:100DC00094FBF5F909F1300303700B21954805F008
:100DD00017FF05FB194909F1300980F80090D8F890
:100DE00000109148FFF792FA68B30134B4F57A7FA6
:100DF000D9D128E08D491AA805F0A8FE8C491AA877
:100E000005F0DAFE044606F0AAF88A4B02468A4943
:100E10001EA806F051F81EA9204605F0C1FE87491C
:100E200005F0CAFE014626A805F090FE26A97D48D9
:100E300005F097FE26A805F003FE1EA805F000FEAB
:100E40001AA805F0FDFD774C44F2022221687C4887
:100E5000FFF76CFA7B4800F0F0FC85B207F038F839
:100E60000A22294605F011FF07F032F8764905F00D
:100E7000EBFE07F02DF8216805F0FDFE04F0CCFD37
:100E800001210446082007F007FD4FF00009EDB1ED
:100E9000A846402DA8BF4FF040085FFA88F1694886
:100EA00000F0E7FC09F101090146424667485FFA94
:100EB00089F9FFF755F9B9F13F0F03D9FFF77EFA2A
:100EC0004FF00009C8EB0505ADB2E0E75C4801F062
:100ED000E5FB04F0A1FD041B06F0FAFF002C05461B
:100EE00003DA2D2105F0B4FE64420A222146284689
:100EF00005F0CBFE06F0ECFF554905F0BCFE554968
:100F0000554801F0A2F806F0E3FF00240546234609
:100F1000524A454926A88DF898408DF8994001F02D
:100F2000C4FB28B123460822294626A801F095FDD6
:100F30004B4800231A461946406804F089FF4FF4D5
:100F4000FA7006F01DF8474B4FF00009186808F0DA
:100F50002BF90022444B08F08DF908F04DFC0446B3
:100F6000002004F071FD80460025002004F06CFD97
:100F7000B0EB080261EB0903AB4208BFA24210D2FA
:100F80003748FFF74BF960B944E0384BC8F80030F8
:100F90002B603B608AE5354B354AC8F8003013605A
:100FA000ADE52F48FFF73AF980B9FFF733FA4FF470
:100FB000FA7005F0E5FFFFF72DFA06F089FF2D49DD
:100FC00005F059FE4FF4FA7005F0DAFF254B4FF0AB
:100FD0000009186808F0E8F80022274B08F04AF9E1
:100FE00008F00AFC0446002004F02EFD804600258F
:100FF000002004F029FDB0EB080261EB0903AB42CD
:1010000008BFA2423AD21648FFF708F9B0BB04F075
:1010100077FFEDE704F074FFA7E700BF19D50808D4
:1010200028D50808E40500209C050020CC060020F7
:10103000EAD3080839D508086009002034D5080823
:10104000F80600205806002048D50808F0060020C1
:1010500056D5080862D508081C070020FFDE0808DE
:10106000740D0020280000200000F83F3333C6C272
:10107000240000207DD508080000E03F9248FFF7DB
:10108000CDF828BB914CFFF7C5F94FF4FA7005F085
:1010900077FFFFF7BFF922688D498E4804F080FF83
:1010A00006F016FF8C4905F0CFFD06F011FF8949C7
:1010B00005F0E1FD4FF4FA7005F062FF874B2168FF
:1010C0001A68874B4A431B68012126A805F016FAC7
:1010D000844C06F0FDFE844905F0CDFD04F018FFB8
:1010E000FFF7AAF82378814A81498DF8003026A8B5
:1010F0003C2306F09BFC27A8FFF73CFC06F0E8FE2B
:101100007A4905F0B8FD704926A807F019F8299822
:1011100008F09CFC77490246774803F06BF9289861
:1011200008F094FC75490246734803F063F9744A69
:101130007148114603F067F90520FFF703FBFFF73D
:101140008DF9CDE90A67DFF8F0816E4DD8F800001F
:1011500008F03CF86C4B0022CDE90801CDE90423EE
:1011600055A3D3E900236949CDE9022354A3D3E968
:101170000023CDE906ABCDE900235648644A04F0CC
:101180000FFF2378534A8DF8003029683C231EA8AE
:1011900006F04CFC1FA8FFF7EDFB4FF4FA7005F0CA
:1011A000EFFEDDE91623CDE90A67CDE90E23DDE97F
:1011B0001023CDE906ABCDE90C23DDE91423CDE9FD
:1011C0000823DDE91223CDE90423D8F8000007F055
:1011D000FDFFCDE902014F4B4F4E186807F0F6FFB7
:1011E0004E4ACDE900014FF4807130A804F0F0FEC2
:1011F000237830AA4A498DF800301EA83C2306F017
:1012000015FC1FA8FFF7B6FB4FF4FA7005F0B8FE07
:1012100006F05EFE434905F02EFD326842492D4836
:1012200004F0BEFE23782B4A8DF8003029683C2359
:101230001EA806F0FBFB1FA8FFF79CFB3068FFF71A
:1012400081FA04F0E9FB064604F0E6FB801BB0F5EA
:101250007A7F04D2FEF7F0FF04F052FEF4E71B4E53
:10126000324932681B4804F09BFE2A68304B3149F2
:101270001EA804F095FE23781EA9164A8DF80030AA
:101280001AA83C2306F0D2FB1BA8FFF773FB022031
:10129000FFF758FA114B31681A68114B4A431B6823
:1012A00001211AA805F02AF918A806F03EF971B034
:1012B000BDE8F08FAFF30080333333333333E3BF14
:1012C0009A9999999999E9BF740D00201C00002002
:1012D000ACD5080838070020DFD508082C0000200E
:1012E000EC060020DC060020FED508081DD6080804
:1012F00027D6080830D60808E006002039D60808A6
:1013000043D60808CC0600200000F43F4FD608085A
:10131000560700202000002018000020C0D6080832
:10132000FCDC08084AD708085DD7080881D70808F8
:1013300096D70808A7D70808240000201FB50E4933
:1013400005F04CFC0D4B80B178221A600C4B0D4A15
:101350001B780D498DF8003002A83C2306F066FB8F
:1013600003A8FFF707FB012003E005221A604FF0F6
:10137000FF3005B05DF804FBB1D708081800002065
:10138000DC060020B6D70808C3D7080810B588B017
:1013900006F09EFD4FF4165106F080FD1820FEF772
:1013A0007EFE044628B14FF4C063394A3949FEF73E
:1013B0004BFF394B01211C60384B188807F06CFA41
:1013C0000121032007F068FA0121032007F075FAD4
:1013D0000121182007F060FA0121182007F06DFAAA
:1013E0000121192007F058FA0121192007F065FAA8
:1013F0004FF4FA7005F0C4FD002105A804F017FEB3
:1014000000221146029201920092012305A804F0E5
:1014100003FF41F2E82105A804F074FE41F27001D7
:1014200005A804F02CFF77211D4803F046FF60B9A2
:101430001C4B06A81B781C4A8DF800301B493C2326
:1014400006F0F4FA07A8FFF795FA7621184803F09A
:1014500034FF60B9134B06A81B78134A8DF800308F
:1014600012493C2306F0E2FA07A8FFF783FAFFF7D8
:101470008FF9104A1049114806F0C8F906F028FD06
:101480000F4905F0F8FB05A804F0E0FD08B010BD19
:10149000C1010808C0270900F40500200800002049
:1014A000F8050020DC060020CCD70808E0D70808A3
:1014B00028060020E8D708083D130808E177080847
:1014C000EED70808474B70B500241C60464B012539
:1014D0001D7004F0F9F94549454805F0F8FA454E04
:1014E000454A4649424807F0E7FA454B64223168CD
:1014F00083F86024434A83F874540D40DC7183F808
:101500003C4483F83D4483F86A44C3F8784483F844
:101510007C4483F87D44C3F870241C460FD13046C8
:10152000FEF7D0FD58B12946374804F0DBFE3046BF
:10153000FEF7CDFD304A3549334807F0BDFA324B4E
:101540003348C4F86C340024324B33492A4A0472BD
:1015500044724460036007F0AFFA06F0B9FC2F4B09
:1015600020221A7241F20A020226DA602C4A1E7404
:101570005C611C761A60586006F096FE01462948A8
:1015800000F06DF8284803F0B6FD284803F0B3FDDD
:101590004FF6FF73264D30466B812C60AC80AC71EA
:1015A0002C8104F009FC144A2249284607F084FAE9
:1015B0002146012004F018FC1F49204805F087FA55
:1015C0000D4A0E491D4807F077FA01221C491D48B3
:1015D00002F0E0FEBDE87040074A1B49194807F0D9
:1015E0006BBA00BFEC060020DC06002027DF0808ED
:1015F000E40500204401002040010020416A080861
:1016000060010020E0D2080848010020C501080858
:10161000F00600203CD30808230108081C0700201E
:101620001CD3080858060020F805002028060020D2
:1016300054010020F501080843D60808CC06002014
:10164000FBD70808E0060020B14308080023C36662
:101650000367A0F8683080F866300370704708B5FB
:10166000FFF7F4FF016708BD2DE9F0410646C06EA3
:1016700088461746541E5D1EB8B1036856219B6804
:101680009847F06E317803683D449B689847F06E48
:10169000414603689B689847A5421FD0F06E14F836
:1016A000011F03689B689847F6E7306F562103686F
:1016B0003D449B689847306F317803689B68984732
:1016C000306F414603689B689847AC4206D0306F44
:1016D00014F8011F03689B689847F6E7BDE8F0819E
:1016E000F8B505460E461746002480F86640BC4211
:1016F00095F866001FD0B0421DD0E86E00B9286F83
:1017000003681B699847002805DC0120013405F0B7
:1017100037FCE4B2EBE795F86640E86E631C85F8A9
:10172000663000B9286F03685B6998472B19C0B20F
:1017300058700024DBE7F8BD13B5044602AA012364
:1017400002F8043D1121FFF78FFFC82264212046D3
:10175000FFF7C6FF28B194F86630002223445A7080
:10176000601C02B010BD4378762B0BD182780378D1
:101770009A4207D1C3788B4204D10079B0FA80F045
:1017800040097047002070472DE9F04198469DF8C8
:101790001C3004460D4617469DF818601BB10A22FE
:1017A0006421FFF79DFF43463A4629462046FFF74E
:1017B0005BFFC82231462046FFF792FF864205D1E3
:1017C00029462046BDE8F041FFF7CDBF0020BDE827
:1017D000F0811FB5002304AA02F8043D052101236E
:1017E0008DE80A002621FFF7CFFF05B05DF804FB66
:1017F00010B50446C06E10B102F0FCF802E0206F94
:1018000006F04CFD2046BDE81040FFF7E2BF1FB5D3
:1018100001238DF80C30019305238DF80D100093F2
:1018200003AA02233621FFF7AFFF05B05DF804FBE2
:101830000021A0F86810FFF7EABF1FB501230022BE
:101840008DF80C30019309238DF80D20009303AA25
:10185000022334210446FFF797FF40B1E388207A42
:101860005BBA9BB240EA0320637A43EA002004B0EB
:1018700010BD70B504460D4686B00D22002102A8A9
:1018800008F066FE0C238DF80830B4F868300A269C
:101890001A128DF80D208DF80E30052200238DE8E8
:1018A0000C0032210D2302AA20468DF80A608DF823
:1018B00014608DF81250FFF767FF08B900200DE0A3
:1018C000691D3246C9B22046FFF70AFF0028F5D04D
:1018D000B4F86810601C2944A4F8681006B070BD04
:1018E00003F0F2BF03F0F0BF03F0EEBF10B5044603
:1018F000243001F035F928B104F50C70BDE8104032
:1019000001F02EB910BD411E00F10A02002043086B
:1019100043EAC01011F8013F18448A4200F0FF006A
:10192000F5D1704738B5CB6804460D4623B9BDE8FC
:101930003840896800F09DBC2422002108F008FE90
:10194000102301202370A070AB68A360EB682362B2
:1019500038BD00002DE9F0470378441C202B01D14D
:101960002046F9E70546704F88602C1A2E4615F878
:10197000013B0BB32F2B01D1031917E05C2B02D1D4
:101980000020BDE8F087A3F12204E4B21D2C03D8A7
:1019900027FA04F4E407F3D403F0BF043C2CEFD09F
:1019A000203B5E2BE1D9EBE72F2D05D11E4613F826
:1019B000015B202DF8D1F9E7166003199842C0EBBE
:1019C000030809D013F8012D2E2AF7D0202AF5D0CC
:1019D000B8F1FF0FD4DC01E04FF00008C1F804803B
:1019E00001F10C0301F11702202403F8014F934287
:1019F000FBD103461A1A13F8014B2E2CFAD0202CD7
:101A0000F8D0B2FA82F408F1FF366409731C07D1EA
:101A100000274FF0070E3D46BA464FF0080909E08F
:101A2000835D2E2BF4D0013EF0E7835C202B04D1A4
:101A3000002401324245F8DB4BE02E2B02D1B242AA
:101A4000F6D103E0222B17D07C2B15D0A3F12A0C62
:101A5000BCF1050F01D82D2B0ED1A3F13A0CBCF12E
:101A6000050F09D9A3F15B0CBCF1020F04D9A3F156
:101A7000210CBCF15D0F02D9B2420ED149E0B24255
:101A800047D0754521D8A3F1610CBCF1190F08D8D6
:101A9000203BDBB249EA07070AE0754515D8002468
:101AA0005F23A3F1410CBCF1190F98BF49EA0A0A60
:101AB00005F1010C5FFA8CFC0D44BCF1060F6B7351
:101AC00001D881F80CC06546B3E7BEF10A0F17D103
:101AD00000244B7B202B3FF453AF3CB11AEA070F95
:101AE00018BF02270F700120BDE8F0870B7B012093
:101AF000087019447E234B7331238B73BDE8F08744
:101B0000B242E5DC32464FF00A0E08254FF01009CC
:101B10008EE7BEF10A0FDBD032464FF00A0E0825E1
:101B20004FF0100985E700BF010100312DE9F043B6
:101B3000C3788BB00024804689468DF804408DF828
:101B4000054013B900F0B6FA4FE0014601A8FFF7CF
:101B5000E9FE002846D0012698F80330B34241D36D
:101B6000B8F8041001A8891B490100F06AFC00289C
:101B700038D0002101A800F047FC0746002831D0EA
:101B8000C37A0F2B2ED1037803F01F039E4229D175
:101B90000025042DEBB204D807EB4503B3F8011080
:101BA0000BE00A2B95BF05F1FF336B1C07EB4303DA
:101BB00007EB430394BFD988998869B17F29D9F885
:101BC000003028BF3F219B68C9B24846013598477D
:101BD0000D2D04F10104DCD13B785B0604D4013601
:101BE000F6B2B9E7002000E020460BB0BDE8F08374
:101BF0002DE9F84306460D4691F80C9002247E2705
:101C000001F10D086968AA6863189BB211449142FA
:101C100006D012F8010B03EB431343409BB2F6E7E7
:101C2000B9F1030F28BF4FF0030909F10402D2B242
:101C300003F00F01A818013A0929D2B294BF30313C
:101C40003731914541734FEA1313F1D305EB090383
:101C50005F730021304600F0F4FB0121304600F0B4
:101C6000D3FB014628B97078B0FA80F04009BDE88E
:101C7000F88303784BB1C37A1B07EED40B2240469E
:101C800008F04CFC0028E8D102E00120BDE8F88310
:101C90000134A4B2642CB5D1BDE8F8832DE9F04F2E
:101CA0009B460B7889B013F0700F05900E46914655
:101CB00001D10020A0E1059B1B78002BF9D15368CE
:101CC000029313789B0700F08D81029B0D270C3344
:101CD000B3FBF7F70137FFB24FF0000800213046A1
:101CE00000F0AFFB44464346454609F10D02CDF8EE
:101CF0000C80CDF81080069272690121304607935E
:101D0000C2F34F1A00F080FB079B20B97378002BB9
:101D100000F09080CDE70278E52A00D042B9002C8F
:101D200008BFD046BC423CBF0134E4B222B981E0D6
:101D3000BC4238BF002403E0E52A01D10025DBE7DF
:101D40002E2AFBD0C17A0F2952D13DB95106D3D5E5
:101D5000437B02F01F0503932B4607E0013BDBB2F8
:101D60009A42EBD1427B03999142E7D15A1E4FF040
:101D70000D0C0CFB02FC029A6245DFD94FF0000EFD
:101D8000BEF1040F5FFA8EF204D800EB4E02B2F8F7
:101D900001200CE00A2A95BF0EF1FF320EF101027C
:101DA00000EB420200EB420294BFD2889288029973
:101DB000614503D1002A18BF00259DE7FF2ABDD841
:101DC000D2B2A2F141011929D9F8081098BF2032E6
:101DD00011F80C100CF1010AA1F1410C98BFD2B21C
:101DE000BCF1190F9CBF2031C9B29142A6D1FBE0D2
:101DF0000907A3D44DB1012B7FF45BAFFFF783FD3F
:101E0000039B83427FF455AF0FE00B2206990793A3
:101E100008F084FB079B00287FF46EAF99F8002040
:101E2000D20702D50122049266E71BF4006F00F08E
:101E3000D1803EE71BF4007F3FF43BAF0BF0030380
:101E4000013B012B3FF635AF002C08BFD046BC420A
:101E500002D3049BCBB91FE00021304600F0D4FA36
:101E600010B973785BB124E70134E4B2EFE7B368EB
:101E70001B79012BEDD81034E4B2A742E9D93046E2
:101E800000F07EF90028F2D113E749463046FFF70B
:101E9000AFFE00283FF40DAF4FEA4811304600F086
:101EA000D0FA00283FF405AF7D1EEDB22C464FF06E
:101EB000000A4FF00F0841E00021304600F0A4FA7C
:101EC000074600283FF4F5AEB268AC4292F82430E1
:101ED00043F0010382F8243014BF224644F040024C
:101EE000027080F80B8080F80CA009F10D000392BD
:101EF000FFF709FD039A787387F81AA087F81BA0EB
:101F000002F01F020D23013AD9F808E05A430023DA
:101F10000299914215D91EF80210042B5FFA83FC36
:101F200003F1010013D807EB4303A3F801100D28B8
:101F300002F101020346EBD1013CE4B2002CBBD11B
:101F40000EE014BF4FF0FF31002189B2E5E7BCF18C
:101F50000A0F94BF07EB430307EB40039980E6E7C2
:101F6000736921463046C3F34F1A00F04DFA074615
:101F700000283FF49EAE2022214608F0E9FA4B46A5
:101F800053F80D2F3A605A687A601A893A819B7A21
:101F9000BB7299F8003003F018033B73184B1B68B1
:101FA0002BB107F10E0107F11000984706E021233D
:101FB0003B7428237B740823BC73FB733B8A7B82AE
:101FC0003B83FB89FB82B26892F8243043F0010323
:101FD00082F8243000955B4652463146059800F061
:101FE00079FA09E0012777E60EF1010EBEF10D0F37
:101FF0003FF482AED446C3E609B0BDE8F08F00BF1F
:102000006007002003F060BC03F05EBC38B50446F6
:102010000D46216851F80C2CA318D868854205D2CA
:102020000B682046A15C98470135F2E70022DA6090
:1020300038BD036853F80C3C03445B6803F00703A6
:10204000012B01D0FFF7E2BF704770B50B46054684
:102050000C461E1B13F8012B002AFAD131462846E4
:10206000FFF7E7FF013C14F8011F21B12B68284658
:102070001B689847F7E731462846BDE87040FFF7F0
:10208000C5BF03F021BC10B50C46017809B900208A
:1020900010BD11F0600104D02F2323700023637062
:1020A00006E000F0ADF80028F1D0214600F0B7F8C6
:1020B000012010BD1FB50C466946FFF7E4FF40B193
:1020C000684608F0C5FF23680246DB68694620467B
:1020D000984704B010BD03F0F7BB10B5092801F113
:1020E000FF321BD9831003EB60039BB203EB131386
:1020F0009BB203EB1323C3F3CC039CB2DBB203EB21
:102100008303A0EB4303DBB2092B82BF0A3BDBB2A4
:1021100001343033114613702046DFE700F13003FD
:1021200001F8013C104610BD030C1BD0830803EBE3
:10213000500303EB131303EB132303EB1343DB08ED
:10214000DAB202EB8202A0EB4200C0B2092884BFDF
:102150000A38C0B200F1300088BF013301F8010D28
:102160001846E1E780B2FFF7B8BF837800F11002AC
:1021700043F0040383700169806800F0A7BD00008C
:102180002DE9F0410378044603F0200303F0FF0536
:102190000BB100262EE04269184B9A42F9D8FFF79E
:1021A000E4FF06460028F4D02169A06800F023FD72
:1021B0000746A06805223946243000F0F8FC804626
:1021C0000028E6D029464FF4007208F0C1F9012535
:1021D000A3681A79AA4209D94246E919186801F098
:1021E00063F80028D5D00135EDB2F1E7636903EB60
:1021F000422363613046BDE8F08100BFFFFD1F0050
:1022000010B5044680680A462430A16900F0CFFC6E
:1022100020B1A38803F00F0300EB431010BDF0B50D
:1022200000242346451E08262E2715F8012F202AB4
:1022300018D0082C02BF5A1CCF54D3B22A7808BF3A
:102240001026A2F1410EBEF1190F06D890F80CE04D
:1022500016EA0E0F1CBF2032D2B203F1010ECA548F
:102260005FFA8EF301340B2CDFD10022CA541846DA
:10227000F0BD70B5047805460E4684B92422214687
:1022800008F066F9AE60F379102B03D0202B06D14D
:10229000402300E0202301202B70A87070BD002097
:1022A00070BD2DE9F74F03780446894615464BB1BA
:1022B0008278D10706D50CE05A46216900F0A1FCCE
:1022C00000283DDA63784FF0FF3043F0020363707B
:1022D00097E01A0703D5E36962699B1A07E09A063B
:1022E00008D5A3681A896369C3EB42139BB29D4268
:1022F00028BF1D462E464FF0000804F1100B002E9B
:1023000035D02278636912F0200FC3F3080AA06861
:102310004FEA532102D0036A19441DE090F805806A
:1023200001EA0808BAF1000F10D1B8F1000F0DD181
:10233000002BC1D153064CBF036A236A236105E019
:1023400004D1237813F0700F11D1BBE72169A06885
:1023500000F051FC08EB0001A068BAF1000F35D184
:10236000B6F5007F32D3C36A994202D12EE0A81B92
:1023700047E0B6F5806F1BD322784FEA562A9706BE
:1023800006D40279C8EB0202D2B2924528BF924627
:1023900099424FEA4A2707D2A06853464A46006846
:1023A00000F040FF60B98DE75344994221D3F3E731
:1023B0004A46006800F0EEFE002883D04FF4007714
:1023C0006369B9443B446361F61B98E700222430FB
:1023D00000F0EDFB00283FF475AFCAF50077B74277
:1023E00028BF374600EB0A013A46484608F0A5F8F0
:1023F000E6E72430019100F0B3FB01990028CBD12E
:1024000060E703B0BDE8F08F37B543690446C3F316
:10241000431505B169B901220DF107012046FFF707
:1024200040FF40B2012801D0002008E063691F335B
:1024300000E02033A0686361303000EB451003B04A
:1024400030BD2DE9F0410E460178044607690029A8
:1024500039D04569B5423AD00EB9066131E00B0773
:1024600003D5C3699E422ED807E0880605D5A36828
:102470001B89B6EB431F26D823E0D4F808E06A1E78
:102480009EF8063003F10900731EC240C3409A4211
:1024900000D84DB94A064CBFDEF82020226A2261DE
:1024A0001D4604F110080AE09B1AF9E7424621692B
:1024B000A06800F0A6FB002805F1FF3503DD002D24
:1024C000F4D1666103E027610020BDE8F0810120BE
:1024D000BDE8F081F8B50F460446154600212422D8
:1024E0001E4608F035F8B868A580A0603B6A05F084
:1024F0000F0200F130015201E3601144CB7A1D0755
:102500004CD4831893F83B3003F017032370C97A37
:1025100011F0180F04BF43F0080323709DF8183022
:10252000E37006F00303012B09D0022B05D0002B2A
:1025300034D1710532D4012302E0032300E00223E9
:10254000A370A1788B0703D5237813F0110F25D141
:102550004BB216F4005F06F0080114BF6FF07F075E
:10256000002719433943A170C36A0244A361B2F83A
:102570004410B2F84A30750543EA014104D581B1EF
:1025800000F0DFFB68B909E02162D36CE3617304FA
:102590000CD5E1692046FFF754FF38B900202070C0
:1025A000F8BDA37843F00403A370F0E70120F8BD61
:1025B0002DE9F743037806460D46174653BB0B78C3
:1025C00013F0700F26D04C6914F01F0422D1A046DE
:1025D00000212846D5F81490FFF716FFD0B10378F4
:1025E000C3B12E2B01D10024F2E7E52BFBD0C17A39
:1025F00011F0080F05D17CB1FFF785F9804509D1AD
:102600000AE00F29EFD15906E2D503F01F0490F834
:102610000D80DDE7002007E000943B46C9F34F1230
:1026200029463046FFF756FF03B0BDE8F0830000AF
:1026300038B5037804460BB9012038BD83785A07B2
:1026400023D50121FFF7DCFD054628B9637800207A
:1026500043F00103637038BD0378E52BF6D023788F
:102660001B0744BFE369C361238C4383638C83826C
:10267000094B1B682BB100F11601183098472B8BC2
:102680006B82A37823F00403A370A068FFF72EF9F0
:102690000028DBD0D0E700BF6007002010B504465B
:1026A000FFF7C6FF0023237010BDF0B51F4693B09F
:1026B00000238DF824308DF82530037806460C462B
:1026C00001920BB100203DE00B7813F0700FF9D0B0
:1026D00013782F2B12D1019B1A782F2A02D10133A4
:1026E0000193F8E7A1681AB93046FFF7C2FD29E067
:1026F00009A8FFF7BEFD0028E4D009AC01AA03A990
:102700000198FFF727F90028DCD0019B1B789BB1CB
:10271000002303AA21463046FFF7C0FA0028D1D093
:10272000354609AC0FCD0FC40FCD0FC42B68304612
:102730002360FFF7B3FFE0E73B4603AA214630469C
:10274000FFF7ACFA13B0F0BD70B506460C46FFF7C4
:102750006FFF054608B900250EE000213046FFF75F
:102760004FFD0028F7D0214600F1200350F8042B3C
:10277000984241F8042BF9D1284670BD2DE9F04765
:102780000378894619070446904608D583789A0746
:1027900005D51B070BD5E169FFF753FE38B9637800
:1027A0004FF0FF3043F001036370BDE8F0876369C9
:1027B000DB439845F3D846464FF0000A6369002E84
:1027C0007FD0A068C3F30807427912EA53251CD1D1
:1027D000DFB9216971B104F1100200F012FA00288A
:1027E000DDDB40F08D802046FFF7BFFC002840F085
:1027F0008780D4E7236A3BB92046FFF7B6FC002860
:10280000CDD02369236200E023612169A06800F034
:10281000F2F9291817B9B6F5007F21D2C7F500756E
:10282000B54228BF354637B96369E269934234BF80
:102830000122052200E00122A068243000F0B7F94F
:102840000028ACD038442A4649462F4407F075FE8C
:10285000B7F5007F2FD1A068243000F081F916E091
:10286000B6F5806FA06814D30279730A521BD2B2F6
:10287000934228BF1346C26A5D02914202D31A44B2
:10288000914237D3A7684A46386800F07FFD90B977
:1028900085E7C36A4A46994202BF4FF0FF3380F88A
:1028A00024A0C362A368186800F0FEFC00283FF46F
:1028B00076AF4FF400756369A9442B446361761BBE
:1028C0007CE7E269934201D9E36102E00F4B1B68A8
:1028D0001BB1A37843F00403A37094F90230002BDA
:1028E00002DB4046BDE8F0872046FFF7A1FE002846
:1028F000F7D154E74FF0FF3280F824A0C262C1E75D
:102900002169A06800F077F9014684E7600700209C
:1029100002F0DABF632970B505460ED80A23B1FB71
:10292000F3F3C3EB43143031C3EB840401EB4404F1
:1029300003F13001E4B2C9B201E03F210C462B683B
:1029400028469B6898472B6821462846BDE870407A
:102950009B68184770B505460C46084649B108F013
:1029600077FB2B68024621462846BDE87040DB68AD
:10297000184770BD30B50D4685B0044604A9002344
:10298000681201F8023D00F2BC70FFF7CDFB014672
:102990002046FFF7DFFF23682D219B6820469847DC
:1029A000C5F343112046FFF7B5FF23682D219B682F
:1029B0002046984705F01F012046FFF7ABFF05B002
:1029C00030BD38B504460D46C90AFFF7A3FF23689A
:1029D0003A219B6820469847C5F345112046FFF7EA
:1029E00099FF23683A219B682046984705F01F010C
:1029F0002046BDE838404900FFF78CBF30B589B0AC
:102A00000C466946FFF7A0FE054670B1BDF81810E8
:102A10002046FFF7AFFF236820219B682046984798
:102A2000BDF816102046FFF7CCFF284609B030BD90
:102A30001FB500230C4604A901F8023DC069FFF749
:102A400073FB01A92023884202D900F8013DFAE76F
:102A50002046FFF77FFF04B010BD2DE9F0439946F3
:102A60008BB000238DF804308DF8053003780646CE
:102A700013F0700F0C46154601D1002069E0417833
:102A80000029FAD1FFF7DDFC05F00207FFB20022B2
:102A9000314601A8FFF78CFD00284AD09DF804308C
:102AA000980705D5E90703D401A8FFF7F7FDEEE77E
:102AB0004FF00008C14507D0236820219B682046BD
:102AC000984708F10108F5E747B1214601A8FFF74B
:102AD00095FF236820219B68204698476A0708D500
:102AE000214601A8FFF7A4FF236820219B68204608
:102AF0009847214601A8FFF719F89DF8043013F014
:102B0000700F04D023682F219B68204698472368C4
:102B10000D219B682046984723680A219B68204620
:102B200098472B07C0D59DF8043013F0700F05D1DE
:102B3000BAE77078B0FA80F040090AE009F10203C0
:102B4000DBB22A46214601A8FFF787FF0028ABD158
:102B500093E70BB0BDE8F08302F0B6BE02F0B4BE5E
:102B600070B503780446DA071ED5436800F10C06F9
:102B700081683246186800F097FB054608B90025C1
:102B800013E023789B0704D4237823F001032370F8
:102B90000BE06368A068196932460144186800F0C8
:102BA00083FB0028F0D1EAE70125284670BD70B507
:102BB000836804468B420E46154614D0FFF7D0FFBB
:102BC00008B9002070BD6B0703D500232370A660F1
:102BD00009E0636804F10C023146186800F0DAFA83
:102BE0000028F2D1EDE72046237805F003051D43C8
:102BF00000F80C5B70BD8379023940699940084444
:102C00007047012970B505460C46164602D84FF0AC
:102C1000FF3070BDC3699942F9D8C379202B10D118
:102C20008169022201EBD41100F50C70FFF7BFFFA0
:102C30000028ECD004F07F0450F8243023F07043D7
:102C40000FE0102BE3D18369C1F30721022219445D
:102C500000F50C70FFF7ABFF0028D8D0E4B230F8D5
:102C60001430EA6993429ABF33600120002070BD9E
:102C7000012938B50C46154601D8002038BDC36976
:102C80009942FAD8C379202B0ED18169032201EB36
:102C9000D41100F50C70FFF78AFF0028EDD004F086
:102CA0007F0440F824500FE0102BE6D18369C1F374
:102CB00007210322194400F50C70FFF778FF002864
:102CC000DBD0E4B220F81450012038BD2DE9F341E7
:102CD000C46805468C420E46904607D20C46002733
:102CE000EB6901349C4203D9CFB9EC680127F7E7BF
:102CF000A64214D001AA21462846FFF782FF0028E9
:102D00000DDBEDD0019B002BEAD107B1EC606FF039
:102D1000704221462846FFF7ABFF074608B9002757
:102D20000BE016B9C8F8004007E0224631462846B5
:102D3000FFF79EFF0028F5D1F1E7384602B0BDE865
:102D4000F08173B505460C4601AA21462846FFF7D7
:102D500058FF061E01DA00200FE000222146284617
:102D6000FFF786FF0028F6D0EB689C429CBF04F179
:102D7000FF34EC60019C002EE6D102B070BD70B54E
:102D8000044601230022C3604FF0FF33C2710D4699
:102D9000A06280F82420C362C4F8340280F8302294
:102DA000C0F83832A1B104295DD811462430FFF7AC
:102DB000FEFE002857D000EB051393F8AE315B06FA
:102DC00051D11B3500EB0515D5F80650002D4AD022
:102DD0000022294604F12400FFF7E9FE002842D032
:102DE000B0F80B30B3F5007F3DD1037C022B3AD114
:102DF000C389002B37D0417B09264B1E637100230A
:102E0000A371217101238B4207D0013E2BD0A279FF
:102E10005B000132DBB2A271F5E7C28A02B9426AF5
:102E20002261C6892E44A661B0F8113006EB42013A
:102E300023812162B0F81120520102F2FF1201EB4E
:102E400062226261B0F8133003B9036AAD1A2B44F1
:102E5000A57923FA05F56B1CE36140F6F4739D42F6
:102E600003D80C23E371002070BD4FF6F4739D422C
:102E700089BFC36A102323622023E371012070BD40
:102E800002F022BD02F020BD02F01EBD70B50E465C
:102E9000154602F0B9FD0C4C2368C01A0B4B984242
:102EA00008D902F0B9FD0A4B186003F029F802F0C6
:102EB000ABFD206002F0B0FD80B2801BA842D4BF01
:102EC0000020012070BD00BF64070020A086010023
:102ED000CC0E002038B5057A04464DB9406800F0A4
:102EE0007DFA63682946187D05F0E7FC012323720B
:102EF00038BD10B5037A04466BB143680121187DD3
:102F000005F0DBFCFF21606800F09AFA606800F0D1
:102F100079FA0023237210BDF8B504460D46164613
:102F200002F07AFD87B2606800F06FFAFF286072E5
:102F300009D14FF47A7239462046FFF7A7FF0028DF
:102F4000F1D055230BE0FE2801D0502307E0324694
:102F50002946606800F05EFA607230B16023204656
:102F60002370FFF7C6FF0020F8BD606800F04DFA3F
:102F7000606800F04AFA0120F8BD70B504460E46BC
:102F800002F04AFD85B2324629462046FFF77EFF11
:102F900030B9606800F039FAFF28F4D1012070BD23
:102FA000002070BDF7B5037A04460D4601920BB9B7
:102FB000FFF790FF25B14FF496712046FFF7DDFF34
:102FC00045F04001606800F03BFA0DF107060DF195
:102FD000030716F80119606800F032FABE42F8D112
:102FE000002D0CBF95218721606800F029FA6068E8
:102FF00000F00BFA0B25606800F007FA0306607218
:1030000003D5013D15F0FF05F5D103B0F0BD70B556
:1030100004460D46164637210022FFF7C3FF32460D
:1030200029462046BDE87040FFF7BCBF2DE9F041BE
:1030300000250572057085724160044690461E4663
:1030400002F0EAFC41460746606800F0CBF963688D
:103050004F4A4FF001081D72DA605D7483F81080EA
:103060002046FFF737FF63684146187D05F025FCD1
:103070000A25FF216068013D00F0E2F915F0FF0527
:10308000F7D163682946187D05F017FC0A25002250
:1030900011462046FFF786FF0128804612D0013DE9
:1030A00015F0FF0501D1202357E0FD21606800F0F5
:1030B000C7F94FF40278606800F0A7F9B8F1010889
:1030C000F9D1E4E74FF4D57208212046FFF76AFFF3
:1030D000052802D184F80A800FE00425606800F01A
:1030E00094F9013D15F0FF056072F7D1AA2802D1CD
:1030F0000223A37201E025232FE0A37ABFB2022BA3
:103100000CBF4FF0804500252A4629212046FFF7B5
:103110007EFF024648B14FF4FA6239462046FFF777
:10312000B5FE0028F0D0432317E0A37A022B0ED07F
:103130002046FFF7DEFE6368B0683479317B727B2E
:10314000D8601C7219745A740120BDE8F0813A21CC
:103150002046FFF727FF38B1372320462370FFF7BB
:10316000C8FE0020BDE8F081606800F04EF900F074
:10317000C000C02804BF0323A372606800F045F9B3
:10318000606800F042F9606800F03FF9D0E700BFE6
:1031900090D0030038B5837A1546032B18BF490237
:1031A0000A4611210446FFF7FDFE10B130232370BB
:1031B0000BE029464FF400722046FFF7ADFE0546AE
:1031C00018B12046FFF795FE03E02046FFF791FE79
:1031D0000025284638BD10B5837A0A46032B18BF50
:1031E0004A0212210446FFF7DDFE30B131232046AA
:1031F0002370FFF77EFE002010BD012010BD10B52A
:1032000000220C210446FFF7CDFE30B128232046D2
:103210002370FFF76EFE002010BD2046FFF769FE09
:10322000012010BDF8B5054616461F46FFF7D3FF2F
:1032300098B10024A3B29F4206EB442108D94FF471
:1032400000722846FFF768FE01340028F2D104E03E
:103250002846BDE8F840FFF7D2BF0020F8BD38B5DA
:1032600004461546406800F0EBF84FF4007229461A
:10327000606800F0E9F8FF21606800F0E1F8FF21E4
:10328000606800F0DDF8606800F0BFF8607200F080
:103290001F00052806D0572320462370FFF729FE7C
:1032A000002038BD012038BD70B5837A1546032B48
:1032B00018BF49020A4618210446FFF773FE064666
:1032C00008B132231DE02A46FE212046FFF7C7FF42
:1032D000C0B14FF4FA612046FFF74FFE054608B92A
:1032E0005A230EE032460D212046FFF75BFE38B927
:1032F000606800F08AF818B92046FFF7FAFD05E08B
:10330000292323702046FFF7F4FD0025284670BDD1
:1033100038B50D464FF4FA610446FFF72EFE10B99A
:103320005B23237005E02A46FC212046FFF797FF28
:1033300018B92046FFF7DDFD002038BD10B5837AAF
:103340000A46032B18BF4A0219210446FFF72AFE3A
:1033500030B1332320462370FFF7CBFD002010BD92
:10336000012010BD38B54FF4FA610446FFF705FEA1
:10337000054620B1FD21606800F062F801E05623A7
:1033800023702046FFF7B5FD284638BDF8B5054641
:1033900016461F46FFF7D2FF70B10024BC4206EB71
:1033A0004421284604D0FFF7B3FF28B10134F5E7E4
:1033B000BDE8F840FFF7D6BF2846FFF79AFD00208A
:1033C000F8BD02F081BA02F07FBA02F07DBA0000C7
:1033D000014B01221A70704768070020011D006828
:1033E00002F0BABF10B504460175006802F089FF0B
:1033F000207D012105F050FA207D0121BDE810401B
:1034000005F05BBA006802F08CBFFF21006803F092
:1034100012B8000037B5084B00250093074C13463F
:1034200000680A462946257003F00BF82378002B24
:10343000FCD0002003B030BDD1330808680700205D
:10344000006802F0F8BF000037B5074B0025009375
:10345000064C134600682A46257002F0F2FF2378D6
:10346000002BFCD003B030BDD13308086807002022
:1034700002F02ABAF7B53C4C2368D9070CD4204691
:10348000FCF720FE40B1394B394A1B78204603F047
:1034900001031370FCF71BFE364C23781A0661D427
:1034A0002578324E6DB275B9334B2A4619683348C8
:1034B00002F0DCF933782E4A03F001031370304B2D
:1034C000304A1B78D554304B304A18881C2343436C
:1034D0001268D118D3588A881B692D491A4223785B
:1034E0000D785BB214BF01220022AB420DDC214BF0
:1034F00023491B780978234FC9B217F801E05BB262
:1035000002FA03F34EEA03037B543378DB0603D558
:1035100023785BB29D4220DA23781E4A0133127869
:103520005BB2934223701DDB114B154A1B7823B10C
:103530001378144AFF21D15404E01378013303F0C7
:103540003F031370FE2323700023009302224FF0E9
:10355000FF33114904F028FD04E0054B19784A4077
:103560001A70D9E703B0F0BD74070020CD07002022
:103570007807002040000020340000201C080020B4
:10358000D80700207907002048000020D407002039
:103590003F00002030000020A935080810B504467F
:1035A00002F05AF9204610BD10B5094C23781B06CD
:1035B0000DD5084B08481968002202F057F900237E
:1035C0002370064BBDE81040188804F015BD10BDEF
:1035D00040000020380000201C0800204800002087
:1035E0000EB400B58CB00DAA52F8041B20238DE850
:1035F0000600039204930168002304AA1E20059389
:1036000002F0CAFB0CB05DF804EB03B07047000099
:103610007FB53B22428047F22F5282804FF6FF72E5
:10362000C280254A00230370037213705370937095
:10363000D370137103780446002B3AD101231F4E37
:103640001F4D03701F4B694613200093039602958C
:1036500004F0FCFC6846FCF7E6FD1B4B69461A20AB
:1036600000930396029504F0F1FC6846FCF7DBFD3D
:10367000164B6946212000930396029504F0E6FC60
:103680006846FCF7D0FD124B694624200093039650
:10369000029504F0DBFC6846FCF7C5FD0D4B69465E
:1036A000262000930396029504F0D0FC6846FCF7B0
:1036B000BAFD204604B070BD380900200701080893
:1036C0000B0108087155080899550808C1550808E4
:1036D000E95508081156080813B5114C0221208835
:1036E00005F0DAF80F4BFE221A700F4B1A68092A00
:1036F0000AD90E48C3889A4206D80D4B0D491B784B
:103700000093002302F072F80023009320884FF00A
:10371000FF330222084904F047FC02B010BD00BF8D
:103720004800002040000020340000201C08002039
:103730003D00002075340808A935080838B5564CF6
:103740002368DB070CD42046FCF7BCFC40B1534B8C
:10375000534A1B78204603F001031370FCF7B7FCB3
:10376000504C23785BB20133C0F2948023784E4DE5
:10377000FF2B15D14D4B002219684D4802F076F809
:103780004C4B1A881C2353434B4A1268D118D35808
:103790008A885A83414B424A1B7803F0010320E098
:1037A0002378464A13F0800F3DD1237811785BB21D
:1037B0008B4238DA297823785AB2414B5B5C13414B
:1037C00013F0010F3C4A3B4B0DD019881C234B438F
:1037D0001268D118D3588A881A83314A137883F033
:1037E0000103137007E019881C234B431268D1189A
:1037F000D3588A885A83334B2A781B789A420DD142
:10380000FE232370304B1B78002B43D02F4B1868BE
:1038100000283FD0BDE83840FFF75EBF2378013372
:103820005BB2237038BD1D4B1B7823B12378117810
:103830005BB28B4211D0237812785BB29A42244A51
:103840001ADC184B11781B785BB28B4214DA194BD7
:103850001A881C235343184A08E0114B164A19785A
:10386000144B0029BFD019881C234B431268D11870
:10387000D3588A881A83BEE7237812785BB29342C2
:10388000B9DB2B78FE22013303F03F032B70054B8D
:103890001A70B0E738BD00BF6C070020CD070020CC
:1038A000700700203C000020CC07002034000020DE
:1038B000BC07002044000020D40700203F00002067
:1038C000D90700202C080020B9070020D0070020CD
:1038D0003000002013B5114C0121208804F0DCFFDA
:1038E00022881C2353430E4A1268D118D3588A8861
:1038F0001A830C4BFE221A700B4B1A68092A0AD93C
:103900000A48C3889A4206D8094B0A491B78009393
:10391000002301F06BFF02B010BD00BF4400002087
:10392000D40700203C00002034000020BC07002009
:103930003E0000203D37080812F0100F38B505464C
:10394000234B01D0092003E090064CBF072008203C
:1039500018701B7812F0010F1E4814BF0233013398
:1039600012F00C0403701C4B09D012F0080F14BFA6
:10397000112210221A7003780133037000E01C70CA
:10398000164A00240C2000FB04F39B58A3B18B4281
:1039900010D804D00A4612481249FFF721FE0F4AF8
:1039A0000C2303FB0424104B62681A60A2680F4BBF
:1039B0001A6001E00134E6E70D4B1B7813B9284685
:1039C000FFF788FF2846BDE83840FFF785BE00BFF7
:1039D0003F00002030000020CD07002094D80808C8
:1039E000500900206ED8080838000020340000205C
:1039F000B90700200022FFF79FBF000070B501F05B
:103A000063FF0C4C0C4B0D4E18600D4D2046FFF71C
:103A1000FFFD20460B4C3246294605F04DF8204666
:103A2000FFF7F6FD324629462046BDE8704005F016
:103A300043B800BF1C080020D4070020400100202C
:103A40009D350808BC07002001F03EBF0175704796
:103A500038B50B4B8469054603607CB16368013B54
:103A600063605BB9236820469B689847A368013B65
:103A7000A3601BB923682046DB689847284638BDF9
:103A800050E0080810B50446FFF7E2FF20461C216D
:103A900005F020F8204610BD30B5064D8360056066
:103AA0000025057541F28835039B85614160C3603F
:103AB000026130BD3CDA08082DE9F0410D46174699
:103AC000064604F005FA1C4903F0D5F800241B480B
:103AD00002F0BCFE68BB052C01D1BDE8F081337D4E
:103AE000C3B104F0F5F9164903F0AEF804F0F0F9AB
:103AF000294603F0A9F804F0EBF9124903F0A4F801
:103B000004F0E6F980460A22214603F0BEF840465A
:103B100003F0A5F8094802F017FE0023BAB22946BF
:103B2000064802F05BFF4FF47A7003F029FA013483
:103B3000CDE7BDE8F08100BF30D90808300800208B
:103B400048D908085ED9080870B5054600240D4814
:103B500002F0BEFD064610B9AB699C4201DB0120B4
:103B600070BD012003F00CFAAB6901349C42EEDB1E
:103B7000287D30B104F0ACF9034903F07CF83046FD
:103B800070BD70BD3008002072D908082DE9F843D7
:103B9000037D0646884615464BB104F099F9214944
:103BA00003F069F804F094F91F4903F064F840F257
:103BB000BB2900241D4802F08BFD78B11B4802F0A0
:103BC0003CFD337DC7B22BB104F082F9036839465E
:103BD0009B6898472F5501344C45EBD1337D23B179
:103BE00004F076F9124903F046F800232B55114BE7
:103BF000984508D11049284607F05AFA78B14FF095
:103C00007E50BDE8F8837C21284606F0D1FC30B117
:103C1000013006F075FB05F00FFEBDE8F88307489C
:103C2000BDE8F883B9D90808A5D9080830080020EC
:103C3000B8D90808C4D90808C9D908085F42A2CD74
:103C400070B5044600230E461546416842F23432F0
:103C5000454802F0C3FE204642F234326168FFF765
:103C60002BFF414802F029FE002874D0A1683E488D
:103C700002F0EAFF3D493C4802F0E6FFE1683A48BD
:103C800002F0E2FF3A49384802F0DEFF314636489A
:103C900002F0DAFF3749344802F0D6FF29463248AD
:103CA00002F0D2FF3449304802F0CEFF237DB3B397
:103CB00004F00EF9314902F0DEFF04F009F9304951
:103CC00002F0D9FF04F004F9A16802F0BDFF04F08E
:103CD000FFF8264902F0B8FF04F0FAF8E16802F0B4
:103CE000B3FF04F0F5F8224902F0AEFF04F0F0F85B
:103CF000314602F0A9FF04F0EBF81E4902F0A4FFE0
:103D000004F0E6F8294602F09FFF04F0E1F81A49B2
:103D100002F09AFF04F0DCF81A4902F0ACFF2046EA
:103D2000FFF712FF20B9104802F00EFD164870BDD3
:103D30004FF42F7002F01CF9144902460546204644
:103D4000FFF724FF0446084802F0FEFC284602F074
:103D500017F9204670BD237D002BE4D004F0B8F89D
:103D60000B4902F088FFDEE730080020CCD90808B4
:103D7000CFD9080828DB080866DB0808E7D9080857
:103D8000D1D90808E6D908085F42A2CDECD90808C5
:103D9000EFD9080870B50446416842F234321D4636
:103DA0001E48002302F01AFE204642F234326168B7
:103DB000FFF782FE194802F080FD20B3294617481C
:103DC00002F042FF2046FFF7BFFE054620B9134828
:103DD00002F0BAFC00251FE0642002F0C9F8104987
:103DE000024606462046FFF7D1FE0446304602F062
:103DF000C7F80C49204606F011F80028E7D107481B
:103E000002F0A2FC08E0237D002BE0D004F060F873
:103E1000054902F030FFDAE7284670BD300800207F
:103E2000C4D908085F42A2CD15DA080810B5064CBF
:103E300001F04AFD204602F0AFFD2046BDE81040EB
:103E4000024A034904F038BE300800204001002037
:103E5000513A080810B50446006808B1FCF725F986
:103E6000E06802F08DF86068042104F033FE20461B
:103E700010BD000070B50446012094F91050607424
:103E800014204543E668715194F91010E56800FB71
:103E900001518A6094F91020E16800FB021253601E
:103EA00094F91030E26800FB0323049ADA6094F975
:103EB0001030E26800FB0320059B0361237C013383
:103EC0005BB20F2B237408DDA37C23B104F000F850
:103ED000024902F0D0FE0F23237470BD48DA0808AF
:103EE00030B5104687B00C4605F070F901AD0246BA
:103EF0000B462846094902F053F800221346A95CF4
:103F0000202905D0E1540133DBB209B9E15402E0C4
:103F10000132142AF3D107B030BD00BFCBDA080854
:103F20002DE9F0410C4688B005464749204606F089
:103F300057FB002795F910309F4266DA14267E431E
:103F4000EB680DF10C0833449A6841462846FFF7A8
:103F5000C7FFEB68CDF800809B5922463B492046BD
:103F600002F01EF8EB683344DB686BB32246384935
:103F7000204602F015F8EB6833441B69FBB10A20B8
:103F800093FBF0F1642293FBF2F291FBF0FC92FBC5
:103F9000F0FE00FB1C1C00FB113100FB1E22C9B20D
:103FA00000915FFA8CF3D2B22A4902A801F0F8FF1F
:103FB00002AB22462849204601F0F2FF04E02246E7
:103FC0002649204601F0ECFFEB681E44736823B1DC
:103FD00022462349204601F0E3FF2246214920469C
:103FE00001F0DEFF013795F91030FFB29F42224603
:103FF00004DA1D49204601F0D3FF9BE7194920460A
:1040000001F0CEFF00232B7494E7AB7CC3B103F027
:104010005FFF164902F02FFE03F05AFF144902F029
:104020002AFE03F055FF214602F025FE03F050FF63
:104030000E4902F020FE03F04BFF0E4902F01BFE7A
:1040400008B0BDE8F08100BFD0DA0808D2DA08086D
:10405000E5DA0808F8DA0808FFDA080804DB0808D7
:104060000ADB080819DB08081DDB0808B9D90808AD
:1040700021DB080827DF08082DE9F0410C4605463A
:104080001F46164688B04D49204606F0A9FAAB688F
:104090004B4A4C49204601F083FF009733462246A5
:1040A0004949204601F07CFF22464849204601F05C
:1040B00077FF002795F910309F4260DA14267E437F
:1040C000EB680DF10C0833449A6841462846FFF727
:1040D00007FFEB68CDF800809B5922463A492046FD
:1040E00001F05EFFEB6833445B6823B12246384938
:1040F000204601F055FFEB683344DB6863B322468A
:104100003449204601F04CFFEB681E443669F6B195
:104110000A2096FBF0F1642296FBF2F291FBF0F399
:1041200092FBF0FE00FB131300FB116100FB1E224B
:10413000C9B20091DBB2D2B2274902A801F030FF28
:1041400002AB22462549204601F02AFF04E0224620
:104150002349204601F024FF013795F91030FFB2C2
:104160009F42224604DA1F49204601F019FFA1E7C9
:104170001D49204601F014FF00232B749AE7AB7C05
:10418000C3B103F0A5FE194902F075FD03F0A0FECE
:10419000174902F070FD03F09BFE214602F06BFD13
:1041A00003F096FE114902F066FD03F091FE03490B
:1041B00002F061FD08B0BDE8F08100BF27DF08080C
:1041C0002ADB08083EDB08084ADB080852DB08083F
:1041D00057DB08085DDB0808F8DA0808FFDA08088A
:1041E00004DB08081DDB080864DB0808B9D90808E7
:1041F00021DB08082DE9F74304464FF42F701F46D2
:104200000E46904601F0B4FEE37C0546013B012BCF
:1042100006D80146434632462046FFF72DFF03E00D
:1042200001462046FFF77CFEA37C23B103F050FE3D
:104230000D4902F020FD6068314603680097424650
:10424000D3F800902B46C8470646284601F098FE52
:104250000121384604F03EFC002306B16374304669
:10426000237403B0BDE8F0836BDB080870B5044627
:1042700001200D461646FBF712FF034610B1054A12
:1042800012780270324629462046BDE87040FFF79A
:10429000B1BF00BF4C08002070B506460C4684B183
:1042A000E1683046FFF7F8FFE369A56823B104F140
:1042B00014010322084698472046FBF7F4FE2C46DB
:1042C000EDE770BDF0B58DB0044601A80D46174668
:1042D0001E4601F02DFE03980130FBF7E2FE019926
:1042E000206006F07DF92A4633463946E67405A873
:1042F00000F06AFD4FF4967001F03AFEE06005A808
:1043000000F072FC002360602374089906A8A56081
:10431000FFF7C2FF01A802F093FB0DB0F0BD38B566
:104320000446002505744574FFF7CCFF204638BDD0
:10433000024B00221A7001F0C7BA00BF4C080020DF
:104340002DE9F0410446782023721F460D4616469B
:1043500001F00EFE237A6060042B4FF014000CD0A5
:10436000FBF79DFE804620B13B4632462946FFF7CB
:10437000D6FFC4F80080BDE8F081FBF790FE074649
:1043800020B1012332462946FFF7C9FF2760BDE867
:10439000F081000010B50446002343728372134677
:1043A000024AFFF7CDFF204610BD00BF7BDB0808A7
:1043B00038B50446406801F0E3FD256835B128466C
:1043C000FFF748FD1421284604F084FB204638BD41
:1043D00070B5067A042E04D0BDE870400068FFF77F
:1043E00049BD03F075FDBDE87040014902F043BCD2
:1043F00096DB080807B5002301930093FFF7E8FF59
:1044000003B05DF804FB0068FFF730BF01F05CBA51
:104410000175704770B50446142001F0A9FD0646E9
:10442000142001F0A5FD0546204606F011FE2246A7
:1044300000230238984217DD12F8011B0D2911D113
:1044400011780A290ED151780D290BD191780A29BA
:1044500008D1191D14222144304606F016FE00230F
:10446000337501E00133E5E70A21304606F0A0F894
:104470000446E8B10A21013006F09AF8C0B121469D
:10448000284606F0ADF8284606F0E2FD0023284451
:1044900000F8013C284605F033FF05F0CDF904464D
:1044A000284601F06DFD304601F06AFD204670BDE2
:1044B000004870BD5F42A2CD30B5074D83600560F6
:1044C0000025057541F28835039B85610525057733
:1044D0004160C360026130BDC0DD08082DE9F843CA
:1044E00005460F46904600241D48E6B202F0E5F965
:1044F00098BB2B7FB34201D8BDE8F8832B7DC3B1B5
:1045000003F0E6FC174902F09FFB03F0E1FC39469B
:1045100002F09AFB03F0DCFC134902F095FB03F078
:10452000D7FC81460A22314602F0AFFB484602F032
:1045300096FB00231FFA88F23946094802F04EFA2A
:104540002B7D23B103F0C4FC084902F094FB4FF427
:104550007A7002F015FD0134C6E7BDE8F88300BFAC
:104560005008002048D908085ED90808CCDD0808A2
:1045700070B54D1E06462B460C4601F52F720021E4
:1045800003F8011F9342FBD1337D4BB103F0A0FC34
:10459000134902F070FB03F09BFC124902F06BFB25
:1045A00004F2BA24104802F093F840B9337DB3B155
:1045B00003F08EFCBDE870400C4902F05CBB0A4879
:1045C00002F03BF805F8010F337D2BB103F080FCBE
:1045D000036829789B689847A542E3D1E6E770BD58
:1045E000B9D90808A5D9080850080020B8D9080882
:1045F00070B5054600240D4802F06AF8064610B969
:10460000AB699C4201DB012070BD012002F0B8FCC7
:10461000AB6901349C42EEDB287D30B103F058FCDD
:10462000034902F028FB304670BD70BD50080020E1
:1046300072D90808F8B50F460269416804461E465B
:10464000FFF74CFF804802F038F90546002800F0DB
:10465000EC807E497C4802F0F7FA39467A4802F04D
:10466000F3FA7B49784802F0EFFA7A49764802F08B
:10467000EBFA6168744802F0E7FA7749724802F091
:10468000E3FA7649704802F0DFFAA1686E4802F05A
:10469000DBFA71496C4802F0D7FA71496A4802F0B6
:1046A000D3FAE168684802F0CFFA6B49664802F035
:1046B000CBFA6C49644802F0C7FA6B49624802F0D1
:1046C000C3FA304606F0C4FC054668495E4802F06D
:1046D000BBFA002D05DA2D215B4802F0B9FA6942D8
:1046E00000E029460A22584802F0CFFA60495648AD
:1046F00002F0AAFA3146544802F0A6FA5649524846
:1047000002F0A2FA504801F05AFF237D002B71D02D
:1047100003F0DEFB574902F0AEFA03F0D9FB4B4938
:1047200002F092FA03F0D4FB394602F08DFA03F05E
:10473000CFFB474902F088FA03F0CAFB454902F073
:1047400083FA03F0C5FB616802F07EFA03F0C0FB58
:10475000414902F079FA03F0BBFB404902F074FAD8
:1047600003F0B6FBA16802F06FFA03F0B1FB3A491F
:1047700002F06AFA03F0ACFB394902F065FA03F083
:10478000A7FBE16802F060FA03F0A2FB324902F0F5
:104790005BFA03F09DFB334902F056FA03F098FBF5
:1047A000314902F051FA03F093FB304902F04CFA20
:1047B00003F08EFB002D074603DA2D2102F048FAA4
:1047C0006D420A222946384602F05FFA03F080FB68
:1047D000274902F039FA03F07BFB314602F034FA44
:1047E00003F076FB1C4902F02FFA03F071FB22491B
:1047F00002F041FA2046FFF7FBFE237D0BB90124AE
:104800001DE003F065FB1D4902F035FA0E4801F08A
:104810005FFF0028F3D00C4801F00FFF044603F0BF
:1048200057FBE1B202F014FAF0E7237D33B103F055
:104830004FFB134902F01FFA2C4600E01C460248C9
:1048400001F082FF2046F8BD50080020DDDD080899
:10485000F5DD080801DE080825DF080808DE08087D
:1048600015DE080824DE080838DE080859DE0808C6
:1048700023DF08086ADE080886DE0808A4DE0808C8
:10488000C0DE080870B5044600230E461546416890
:104890005022654802F0A2F8204650226168FFF7D6
:1048A0001DFE614802F009F8002800F0B2805F495F
:1048B0005D4802F0C9F931465B4802F0C5F95C4930
:1048C000594802F0C1F92946574802F0BDF9594943
:1048D000554802F0B9F95849534802F0B5F957491B
:1048E000514802F0B1F90A2250214F4802F0CDF9A7
:1048F00053494D4802F0A8F952494B4802F0A4F937
:10490000A168494802F0A0F94D49474802F09CF9D6
:104910004D49454802F098F9E168434802F094F99E
:104920004749414802F090F948493F4802F08CF964
:10493000237D002B50D003F0CBFA3C4902F084F9E0
:1049400003F0C6FA314602F07FF903F0C1FA3849A4
:1049500002F07AF903F0BCFA294602F075F903F087
:10496000B7FA344902F070F903F0B2FA324902F0B2
:104970006BF903F0ADFA314902F066F903F0A8FAD9
:104980000A22502102F081F903F0A2FA2C4902F028
:104990005BF903F09DFA2B4902F056F903F098FAFF
:1049A000A16802F051F903F093FA254902F04CF99D
:1049B00003F08EFA244902F047F903F089FAE1681E
:1049C00002F042F903F084FA1D4902F03DF903F0C8
:1049D0007FFA1E4902F038F92046FFF709FE20B998
:1049E000114801F0B1FE1A4C1CE04FF42F7001F099
:1049F000BFFA054601462046FFF7BAFD2846FFF7F5
:104A000009FD0446084801F09FFE284601F0B8FA67
:104A100008E0237D002BE3D003F05AFA0D4902F0A1
:104A20002AF9DDE7204670BD50080020EADE0808BC
:104A3000FFDE080801DF0808F5DD080801DE0808C8
:104A400025DF080808DE080815DE080805DF080865
:104A50005F42A2CD28DF080810B5064C00F034FFF5
:104A6000204601F099FF2046BDE81040024A034964
:104A700004F022B85008002040010020513A0808F4
:104A800003681847012A02D0022A02D004E001601C
:104A900002E00B6800B103600020704713B51C20D2
:104AA000FBF7FDFA044648B1064B07491B6842F282
:104AB000343200930968054BFEF7EEFF204602B042
:104AC00010BD00BFA4080020A80800202ADB0808A9
:104AD00013B52020FBF7E3FA044640B1054B064925
:104AE0001B68502200930968044BFFF7E5FC204641
:104AF00002B010BDA4080020A80800202ADB080886
:104B000013B51C20FBF7CBFA044648B1064B074906
:104B10001B6842F2343200930968054B00F0E2F959
:104B2000204602B010BD00BFA4080020A808002045
:104B30002ADB080813B51420FBF7B1FA044640B18C
:104B4000054B06491B68009300231A46096800F0CC
:104B500071FA204602B010BDA4080020A808002069
:104B600010B50446054B03606433036102F0B0FAEC
:104B7000204602F091FB204610BD00BFB4E10808BA
:104B800010B50446FFF7ECFF20463C2103F0A2FFDE
:104B9000204610BD10B5002386B00446049321B111
:104BA0000F4B029105930F4B049302AB93E8030064
:104BB0008DE8030094E8030083E803009DE8030008
:104BC000049A84E80300A168A260059A0491E16850
:104BD0001846E2600591FBF726FB204606B010BDA3
:104BE000814A0808854A080800F108010B4670B59B
:104BF000C2684AB10478157CA5423ABFD4681A4607
:104C0000946813462246F4E7994204D000781A7C4F
:104C1000904238BF0B46DA690AB904F027F81A6ADD
:104C200003F11400BDE87040104770B504468B686E
:104C300016460D1D012253B130781A7C1D46904254
:104C400035BF9868D868012200220346F3E732B1E5
:104C5000CA6895420AD0284603F0A3FF00E0284620
:104C60003378027C9A424FF0000302D284E8280095
:104C700001E084E80900204670BD2DE9F7431F4696
:104C8000064624200C46FBF70AFA3B6810F1100890
:104C900018BF1B7806F104071EBF03740023C3610D
:104CA000A742054608D17369002B5CD03169037CAB
:104CB0000A7C9A423AD356E090F81090237C9945AA
:104CC00017D2F3682046A34211D003F06AFF037C99
:104CD0004B4505D2C368002B14BF2046002406E0D4
:104CE000684642463146FFF7A0FF009C0198014606
:104CF0001AE02FD93369A34213D0204603F03EFFB8
:104D0000037C4B4505D9E368002B14BF0446002003
:104D100008E0684642463146FFF787FF9DE81100EC
:104D200000E0002021460446A1B144B98F4206D0DC
:104D3000087C2B7C83422CBF0020012000E0012056
:104D40003B460A46294603F02EFF73692846013385
:104D5000736110E005F11400FBF765FA2846FBF7D4
:104D6000A2F9204607E0314642466846FFF75DFF5C
:104D7000009C0199D8E703B0BDE8F0837FB5041D1E
:104D80000A46214683684BB115781E7CAE423ABF75
:104D9000DD680B469D6819462B46F4E78C4203D02C
:104DA00014780B7C9C4208D204AB43F8042D02AA71
:104DB0000092044AFFF761FF014601F1140004B0BC
:104DC00070BD00BF4EDF08082DE9F74304461D46BD
:104DD0008946904600211022083005F0B9FB0123D6
:104DE000257002AD04F1080205F8013D261D0027DB
:104DF000226162612946A7613046FFF7BFFF15496E
:104E0000FFF7C8FE294630468DF80770FFF7B6FF5A
:104E10001149FFF7BFFE0223294630468DF80730BF
:104E2000FFF7ACFF0D49FFF7B5FE032329463046D7
:104E30008DF80730FFF7A2FF0949FFF7ABFE2046C8
:104E4000084BC3F80090084BC3F8008003B0BDE8DE
:104E5000F08300BF9D4A0808D14A0808014B0808A2
:104E6000354B0808A8080020A408002070B5104D94
:104E700000F02AFD0F4C104E284601F08DFD28460B
:104E80000E4D2246314603F017FE284601F084FD00
:104E900028460B4D2246314603F00EFE284602F00E
:104EA000DDF922462846BDE87040064903F004BEFD
:104EB0008808002040010020513A08086C080020B2
:104EC000AC080020614B080808B500F0FDFCBDE807
:104ED000084000F0A1BD0000004870475F42A2CD2D
:104EE0000175704730B5064D836005600025057576
:104EF00041F28835039B85614160C360026130BD2A
:104F000004E00808F0B54F6885B0002604AC0546FB
:104F1000384644F8046D06F09BF80A4B009681B2BF
:104F20005B682246384600F0DFFE20B13146284655
:104F300002F030FF03E02146284602F023FF284616
:104F400005B0F0BD740D002030B587B001460446B1
:104F500002A81D46FFF7D6FF02A802F021FF80B984
:104F6000237D23B102F0B4FF214901F084FEF32335
:104F7000009337223D23A92104A802F021FF059BBD
:104F80000393002240F2BD211A4802F097F9002253
:104F900042F23431174802F073F8174B42F23432C0
:104FA0000493039B04A91348059302F0A1F968B187
:104FB00065B1284606F04CF8294602460D4802F035
:104FC000BAF818B10B4802F009F858B9237D23B19B
:104FD00002F07EFF094901F04EFE064802F078F823
:104FE000002003E0034802F073F8012007B030BD51
:104FF0004FDF0808E808002074E20808DBDF080833
:1050000010B5064C00F060FC204602F027F920465F
:10501000BDE81040024A034903F04EBDE8080020F5
:1050200040010020614B0808004870475F42A2CD54
:105030000174704710B5044C8360029B0460002427
:1050400004744160C36010BD18E0080870B50646DE
:1050500000200C4600F0D0FE08B9002070BD002CE6
:1050600003DD00F0D9FC054600E0002573783BB96C
:10507000002C07DD00F0D0FC401BA04202D3ECE77F
:10508000012070BD00F03CFFF0E730B585B01A4656
:10509000089B02A81B788DF800303C2302F0C6FC68
:1050A000029C00212046FFF7D1FF6378BFF35F8F9A
:1050B00033B100212046FFF7C9FF2378012B13D01D
:1050C0000025039C94B16368013B636073B9236856
:1050D00020469B689847A368013BA36033B92368C7
:1050E0002046DB68984701E0257BEAE7284605B0C3
:1050F00030BD00F0E9BB704770B5064614460D465A
:1051000003F08EFC317803F07EF903F089FC03682C
:1051100029469B68984703F083FC036821469B68F7
:10512000984703F07DFCBDE8704003F077B938B5CF
:1051300004460D4603F074FC217803F064F903F093
:105140006FFC036829469B68984703F069FC03F0ED
:1051500065F903F065FC2178012203F051F903F0B1
:105160005FFC03685B699847044603F059FC03F051
:1051700055F9E0B238BD38B504460D4603F050FC91
:10518000217803F040F903F04BFC036829469B6843
:10519000984703F045FC03F041F903F041FC217806
:1051A000022203F02DF903F03BFC03685B6998478A
:1051B000054603F035FC03685B699847044603F035
:1051C0002FFC03F02BF944EA052080B238BD08B566
:1051D000FFF7D1FF40BA80B208BD38B58821044638
:1051E000FFF7F5FF8A21A0812046FFF7F0FF8C2111
:1051F000E0812046FFF7EBFF8E2120822046FFF75B
:10520000E6FF902160822046FFF7E1FF9221A08215
:105210002046FFF7DCFF9421E0822046FFF7D7FF0E
:10522000962120832046FFF7D2FF982160832046F5
:10523000FFF7CDFF9A21A0832046FFF7C8FF9C21EE
:10524000E0832046FFF7C3FF9E2120842046FFF71E
:10525000BEFFA12160842046FFF769FFE12184F8A9
:1052600024002046FFF7B3FFE321E0842046FFF748
:105270005EFFE42184F828002046FFF758FFE5216F
:1052800005462046FFF753FF00F00F0040EA0510E7
:105290006085E6212046FFF74AFFE52105462046C6
:1052A000FFF745FF001140EA0510A085E7212046E1
:1052B000FFF73DFF84F82E0038BD10B5044601709D
:1052C00003F0AEFB03F068F8D0212046FFF72FFF74
:1052D00060280ED12046FFF780FF20460322F221EE
:1052E000FFF70AFF20463F22F421FFF705FF0120C8
:1052F00010BD002010BD000038B5FA210446FFF7AC
:105300003AFFFC2105022046FFF711FFA28928433E
:10531000C2EB20235B435200C2EBE012B4F90E0053
:105320001B135043B4F9102053439B1303EBE020AD
:10533000A06000EB80008030001204F087FB02497F
:1053400004F08CFC38BD00BF0000C8422DE9F84FC6
:10535000F7210646FFF70FFFF92107463046FFF712
:10536000E6FEB468B6F91420E517B4F5FA3445F151
:10537000FF35A4FB048904FB05F302FB05F109EBEF
:105380004309D31704FB0311A2FB04230B441903A5
:1053900041EA125186461003B6F9162002FB09FCB9
:1053A000D31708FB03CCA2FB082363444FEA122A5D
:1053B0004AEA036A1AEB000A728A4FEA232B4BEB84
:1053C000010B1AF100004BF50041A0FB02AB02FB00
:1053D00001BB4FEA6B024FEAEB7352EA030100F0A4
:1053E0008280B6F91CA04EEA07270AFB09F14FEAB2
:1053F000EA7B08FB0B11AAFB0889B6F91AA08944BD
:105400000AFB05F14FEAEA7B04FB0B11AAFB0445FA
:105410000D444FEA454B4FEA444A3F111AEB080A44
:10542000C7F580174BEAD43B4BEB090B4FEAE77902
:105430004FEAC97545EA5705FC0740F63547B6F906
:1054400018004FF0000818EB0A084FEAC00949EBB2
:105450000B09B4EB0804A4FB070165EB090507FB86
:10546000051104F049FDB6F922204C1302FB04F7A4
:10547000450B45EAC145D31705FB0377A2FB05237E
:1054800054433B4405FB0344A2FB05232344540E31
:1054900044EAC314B6F9202024184FEA63654D414D
:1054A0005143D31700FB0313A2FB00011944C20CA4
:1054B00042EA41321219B6F91E404FEAE1436B410C
:1054C000100AE517220140EA036019122B0143EA92
:1054D00014738018594104F0CFFA4FF06E5104F064
:1054E00009FBBDE8F88F0020BDE8F88F10B5044631
:1054F000FD21FFF740FEB4F92A30A268B4F92C1060
:105500001B05A2F59632C3EB803002FB110000F5BB
:105510008043D81394F8283094F92E1053434A430B
:10552000DB12921203F500435343B4F926209B1279
:1055300003F50013534303F500539B134343D81360
:10554000404394F82420C0115043A3EB201020EADC
:10555000E070B0F1C85FA8BF4FF0C850001304F06E
:1055600075FA4FF06A5104F0C5FA10BD00F0ACB9FD
:1055700010B50121064803F037F940B10121044874
:1055800003F03DF9BDE81040024B1B68184710BD01
:10559000000400402409002010B50121064803F052
:1055A00023F940B10121044803F029F9BDE8104076
:1055B000024B5B68184710BD00080040240900201A
:1055C00010B50121064803F00FF940B1012104484C
:1055D00003F015F9BDE81040024B9B68184710BD59
:1055E000000C00402409002010B50121064803F0FA
:1055F000FBF840B10121044803F001F9BDE8104077
:10560000024BDB68184710BD001000402409002041
:1056100010B50121064803F0E7F840B10121044824
:1056200003F0EDF8BDE81040024B1B69184710BDB0
:105630000014004024090020F0B5437A85B00546E7
:105640000F461646042B30D8DFE803F0030C151E76
:1056500027000121022002F0A3FF1D238DF8003056
:10566000294C22E00121042002F09AFF1E238DF82C
:105670000030264C19E00121082002F091FF32236E
:105680008DF80030224C10E00121102002F088FF3C
:1056900036238DF800301F4C07E00121202002F056
:1056A0007FFF1D4C37238DF800301EB1012E01D134
:1056B000AE8800E06E886A7AE968184B012543F8E5
:1056C000221068460A238DF801308DF802508DF8BB
:1056D000035002F02DFF002301A92046ADF806304B
:1056E000ADF80C308DF80E30ADF80460029703F081
:1056F00031F82A462946204603F08EF829462046EE
:1057000003F066F805B0F0BD00040040000800405A
:10571000000C00400010004000140040240900204C
:10572000042BF8B506460F4696461C460E4D11D979
:1057300000242A5DE3B24AB9737230467246394694
:10574000FFF77AFF084B01201855F8BD0134052CEE
:10575000EFD107E0EB5C2BB94472FFF76DFF01203E
:105760002855F8BD0020F8BD3809002073B5437AEC
:105770000646042B1CD8DFE803F003080D121700BF
:105780001D238DF80430134C12E01E238DF80430D5
:10579000114C0DE032238DF80430104C08E0362314
:1057A0008DF804300E4C03E037230E4C8DF8043096
:1057B0000021204603F00CF8002501A88DF80750C1
:1057C00002F0B6FE204602F00FFF737A064AD55467
:1057D00002B070BD0004004000080040000C004012
:1057E0000010004000140040380900202DE9F0416D
:1057F0001F46037A0446884616469DF818501BB18A
:10580000FFF7B4FF00232372042DC4F80C8010D8D6
:105810002B463A4631462046FFF782FF20B101234E
:1058200003E00135052D06D100232372207ABDE85F
:10583000F081084B0025E95CEAB20029F1D16272DF
:1058400031463A462046FFF7F7FE024A01235355F8
:10585000EBE700BF38090020037A10B504460BB10E
:10586000FFF784FF0023237210BD000010B5447AB7
:10587000042C0DD8DFE804F0030507090B000C4BDE
:1058800006E00C4B04E00C4B02E00C4B00E00C4B30
:105890001AB1012A01D1828800E04288D96292B20D
:1058A00001211A8599821846BDE8104002F0A7BF71
:1058B0000004004000080040000C004000100040C0
:1058C0000014004000F000B808B5024B1B681B68CC
:1058D000019308BDB001040808B5024B1B685B6862
:1058E000019308BDB001040808B5024B1B689B6812
:1058F000019308BDB001040808B5024B1B68DB68C2
:10590000019308BDB001040808B5024B1B681B6970
:10591000019308BDB001040808B5024B1B689B69E0
:10592000019308BDB001040808B5024B1B68DB6990
:10593000019308BDB001040808B5024B1B681B6B3E
:10594000019308BDB001040808B5024B1B681B6C2D
:10595000019308BDB001040808B5024B1B681B6821
:10596000019308BDB401040808B5024B1B685B69CC
:10597000019308BDB401040808B5024B1B68DB693C
:10598000019308BDB401040808B5024B1B681B6AEB
:10599000019308BDB401040808B5024B1B685B6A9B
:1059A000019308BDB401040808B5024B1B689B6A4B
:1059B000019308BDB401040808B5024B1B689B6B3A
:1059C000019308BDB401040808B5024B1B68DB6BEA
:1059D000019308BDB401040808B5024B1B685B685D
:1059E000019308BD9C01040808B5024B1B689B6825
:1059F000019308BD9C01040808B5024B1B68DB68D5
:105A0000019308BD9C01040808B5024B1B681B6983
:105A1000019308BD9C01040808B5024B1B685B6933
:105A2000019308BD9C01040808B5024B1B68DB69A3
:105A3000019308BD9C01040808B5024B1B689B6DCF
:105A4000019308BD9C01040808B5024B1B68DB6D7F
:105A5000019308BD9C01040808B5024B1B689B6EAE
:105A6000019308BDB801040808B5024B1B685B68C8
:105A7000019308BDD001040808B5024B1B685B699F
:105A8000019308BDD001040808B5024B1B685B6C8C
:105A9000019308BDD001040808B5024B1B689B6C3C
:105AA000019308BDD001040808B5024B1B68DB6CEC
:105AB000019308BDD001040808B5024B1B685B6D5B
:105AC000019308BDD001040808B5024B1B68DB6ECA
:105AD000019308BDD001040808B5024B1B689B69FF
