:020000040808EA
:1000000000000808A8F90808000006000A00050119
:080010000402E80500000000F5
:04001800ACE1080847
:1000200009480A4908B5884205D0094A824202D0E7
:10003000121A0BF02EF90748074A0021121A0BF08A
:100040004EF9064808BD00BF000000203CF8080833
:100050004401002044010020E4100020E4100020AE
:1000600070B508F037F8074B074C1E46E41AA40891
:100070000025A54204D056F8253098470135F8E709
:1000800070BD00BF84F7080828F8080800F0F0BF2A
:1000900008B500F0B9FDBDE8084007F0DDBF05F088
:1000A000E1BC05F0DFBC05F0E5BC05F0E3BC0000F9
:1000B00008B5034A00210C2005F0CEFBFEE700BF87
:1000C000D95408080078B0FA80F04009704701233D
:1000D000037070477047006A0368DB6818470A2995
:1000E00070B505460C4604D140680D2103689B6835
:1000F000984768682146BDE8704003689B681847C8
:100100000020704700207047012070470020704792
:1001100003681847012A02D0022A02D004E00160D5
:1001200002E00B6800B1036000207047704710B513
:1001300001230374836804460BB1C06806E00068BD
:1001400028B183680BB909F03DFCC36898470123C7
:1001500063740020BDE8104005F01EBA10B50446D7
:100160002C2109F063FB204610BD00007FB502463C
:1001700013790846956833B13DB90C4904B0BDE820
:10018000704006F0EBBA0A4B00E00A4B167B0A4CB3
:100190000A49527B012E08BF214602920191009527
:1001A000074A002106F01AFB04B070BD75E208088A
:1001B00097EC080864E208086DE2080871E2080894
:1001C0008BE2080805F011BF083002F025BA10B51F
:1001D0000446806808B105F0C7F9204610BD70B527
:1001E0000C4659B1456808460BF004FE2B680246E0
:1001F00021462846BDE87040DB68184770BD10B541
:100200000446006808B105F035FC204610BD07B56E
:1002100002AB03F8011D01221946083002F0FCF977
:1002200003B05DF804FB000010B50446094B036001
:1002300006F054FC214606F058FE08F03BFB08F09F
:100240001FFB2046044B40F8043B06F055FD2046BA
:1002500010BD00BFECE10808D4E1080810B5044661
:10026000FFF7E2FF2046242109F0E0FA204610BD06
:1002700010B58368044613B103220146984720460F
:1002800010BD000008B505F037F9014B186008BD36
:10029000DC0E002070B51D4686B000230446049392
:1002A00022B1274B02920593264B04930023E3606F
:1002B000049B21603BB1022202A9201D9847059BA7
:1002C0002361049BE3602049142009F0B3FA30B1A4
:1002D00000230374036043608360C3604374606100
:1002E000A0B11A4B0922836063691949DC60606917
:1002F000184B8DE82100043005F01EF930B9636910
:100300001B7CA3B9012005F0DFF8F8E7656900233D
:10031000636165B12E6836B13046FFF7A9FF102141
:10032000304609F083FA1421284609F07FFAFFF7D6
:10033000A9FF02A8FFF79CFF204606B070BD00BFD2
:1003400011010808150108084EF10808ED96080883
:10035000A9E208082F01080800B58BB000230A465F
:10036000014601A88DF804308DF8053002F0EBF855
:100370000BB05DF804FB000013460A46014909680A
:1003800002F0E1B81007002030B51D4B85B0009396
:10039000137900F58C658DF8043093680446029358
:1003A000137B8DF80C30537B0A468DF80D3000F22C
:1003B0006C416B46284602F087FDF0B1256004F2DF
:1003C0003C45284602F0B8F80121204602F025FC01
:1003D000014668B12146284601F099FE68B194F8BB
:1003E0003C3413F0700316BF064B18461D6005E041
:1003F000204602F012FC0028ECD1002005B030BDF0
:10040000C8E108081007002010B5084C0121208819
:1004100009F0FFF8142007F045FB2088002109F0BF
:10042000F8F8BDE81040052007F03CBB08000020AC
:1004300038B50A4D02240121288809F0EAF84FF462
:10044000FA6007F02FFB0021288809F0E2F84FF44A
:10045000FA6007F027FB013CEDD138BD0800002011
:1004600037B51D4905460AF0ADFB28B31B492846A0
:100470000AF0A8FB1A490028284614BF04244FF4A8
:1004800016740AF09FFB17490028284618BF02245B
:100490000AF098FB14490028284618BF02240AF0E5
:1004A00091FB12490028284618BF01240AF08AFB54
:1004B000002818BF01240BE0FFF7BAFF0C4B0D4CCE
:1004C0001A680D4B62431B680121684605F090FDD8
:1004D000204603B030BD00BF000048410000C841C5
:1004E0000000484200008242000096420000A04204
:1004F00028000020809706007C060020F8B58B00BD
:100500000A3323F0070300AFADEB030D6B464A1E21
:100510000024E5B2A94204F1010401DC002410E04A
:1005200050F8256043F82560F3E7066850F804EFBB
:100530000135764502DD40F804EC06606545F4DBE4
:100540000134944204DA18460025C4EB020CF5E7A6
:1005500011F0010F4FF0020401BF91FBF4F103EB26
:10056000810253F8210052F8043C13BF92FBF4F2CD
:10057000C01890FBF4F053F82200BD46F8BD00000F
:10058000F0B5434DD1B00024288809F05BF84DF850
:1005900024000134322007F085FA282CF4D1002100
:1005A0005DF8213028A840F8213001312829F7D101
:1005B000FFF7A4FF0AF0F6F836490AF047F9364982
:1005C0000AF0F8F909F0AEFC29A3D3E900230446A8
:1005D0000D4609F0FBFC22462B4609F0F7FC2246AB
:1005E0002B4609F0F3FC24A3D3E9002306460F466B
:1005F0002046294609F0EAFC22462B4609F0E6FC93
:1006000002460B463046394609F02EFB1CA3D3E9BF
:10061000002306460F462046294609F0D7FC02462D
:100620000B463046394609F01FFB1C4B0446186840
:100630000D4609F077FC0022194B09F013FB12A3B9
:10064000D3E9002309F0C2FC0022164B09F00CFB91
:1006500009F09EFF09F066FC02460B46204629463B
:1006600009F0DEFD09F094FF51B0F0BDAFF300805A
:10067000F6285C8FC2D53240A69BC420B0D2384049
:10068000643BDF4F8D818340DBF97E6ABC74933F0E
:10069000100000203333534000F07F452400002039
:1006A000000039400000F03F30B5114DD1B00024BA
:1006B000288808F0C7FF4DF824000134322007F0E5
:1006C000F1F9282CF4D100215DF8213028A840F858
:1006D000213001312829F7D1FFF710FF0AF062F825
:1006E00004490AF0B3F804490AF064F951B030BD86
:1006F000100000203333534000F07F4510B5054C07
:100700000549204606F031F82046BDE8104006F0C5
:1007100030B800BF80060020B0E20808F0B5534AA8
:100720008DB0534B0A92012208938DF82C200023A0
:1007300008AA0C214F488DF824308DF82D30FFF792
:1007400023FE08B94C4900E04C494D480AF01AFE16
:100750004C4807F099F807F069F94B4E044678BB0E
:100760004A4908A805F03DFF08A9304605F083FF77
:1007700008A805F0EFFE0A270921434805F0CAFF43
:10078000642394FBF3F3303303700A213E4805F0F1
:10079000C1FF94FBF7F505F1300303700B213A48D4
:1007A00005F0B8FF07FB154530350570316838484E
:1007B000FFF7D2FD68B30134B4F57A7FDCD128E0CD
:1007C0003449684605F04CFF3349684605F07EFF22
:1007D000044607F04CF9314B0246314904A807F0B2
:1007E000F3F804A9204605F065FF2E4905F06EFFD9
:1007F000014608A805F034FF08A9304605F03BFF84
:1008000008A805F0A7FE04A805F0A4FE684605F0B8
:10081000A1FE08F04FF81C4C0546214608A805F03B
:100820001FFF214908A805F051FF0168284605F07F
:10083000ACFF08A805F08EFE08F03CF8104905F062
:10084000A4FF31681248FFF787FD28B1092221680B
:100850001648FFF791FD07E040F601222168134892
:10086000FFF78AFDFFF74AFF0DB0F0BD002D310103
:10087000C8E108086401002013E3080817E308082A
:100880000A0700200000C0C0E80500201CE308089B
:10089000A00500205C0600202DE308082FE30808CF
:1008A0007009002028E3080838E3080888060020BB
:1008B00030B585B0054607F0DAF8104B104C02460B
:1008C0001B6868460F4907F07FF80099204605F03D
:1008D00045FF684605F03EFE4FF4FA7007F0E2F877
:1008E0002946204605F03AFF204605F042FF07F072
:1008F000E1FF294605F049FF05B030BD500000205A
:100900008006002070090020F0B5ABB008F08CF92B
:1009100001460DA800F0F1FD4FF416410DA800F0BE
:10092000B5FE18B107F0C6FF6C4902E007F0C2FF40
:100930006B4905F02AFF0DA800F04CFE044620B1DB
:1009400007F0B8FF214605F009FF07F0B3FF65493E
:1009500005F01BFF4FF4FA7007F0A4F80DA800F0A3
:10096000B5FE18B907F0A6FF5F4902E007F0A2FF45
:100970005E4905F00AFF07F059F85D4E044678BB62
:100980005C4909A805F02DFE09A9304605F073FE63
:1009900009A805F0DFFD0A270921554805F0BAFE30
:1009A000642394FBF3F3303303700A21504805F0BD
:1009B000B1FE94FBF7F505F1300303700B214C48B1
:1009C00005F0A8FE07FB15453035057031684A482B
:1009D000FFF7C2FC68B30134B4F57A7FDCD128E0BC
:1009E000464901A805F03CFE454901A805F06EFE08
:1009F000044607F03CF8434B0246434905A806F07D
:100A0000E3FF05A9204605F055FE404905F05EFECE
:100A1000014609A805F024FE09A9304605F02BFE81
:100A200009A805F097FD05A805F094FD01A805F0BB
:100A300091FD316844F202223548FFF79DFC0DA874
:100A400000F049FE84B207F035FF0A22214605F086
:100A5000A6FE07F02FFF2F4905F080FE07F02AFFC2
:100A6000316805F092FE04F047FD0121054608209B
:100A700008F0BEFD0026B4B12746402CA8BF402791
:100A8000F9B20DA800F043FE013601463A4622486D
:100A9000F6B2FFF799FB3F2E02D9FFF7B5FC00260F
:100AA000E41BA4B2E7E71A4801F046FD04F024FD78
:100AB000441B07F0FFFE002C054603DA2D2105F04C
:100AC00051FE64420A222146284605F068FE07F0DE
:100AD000F1FE124905F059FE2BB0F0BD42E30808C3
:100AE00050E3080861E3080875E3080885E308088F
:100AF000E805002094E30808A00500205C0600201B
:100B00002DE30808A5E3080870090020A0E3080801
:100B100088060020B4E3080880060020C2E3080825
:100B200038B5046805467CB16368013B63605BB916
:100B3000236820469B689847A368013BA3601BB9C4
:100B400023682046DB689847284638BD10B52448FE
:100B500086B001F0BBFC60B9224B02A81B78224A88
:100B60008DF8003021493C2307F04EFC03A8FFF725
:100B7000D7FF1B4801F0AAFC04F0BEFC044604F0B9
:100B8000BBFC001BC72804D8FFF77CFB04F03AFF2E
:100B9000F5E7134801F0D0FC50B106F068FF1449A6
:100BA0000246144B02A806F00FFF029A124909E010
:100BB00006F05DFF0E4902460E4B02A806F004FF48
:100BC000029A0E490E4804F065FF02A805F0C2FC27
:100BD00007F070FE0A4905F0D8FD06B010BD00BF51
:100BE000880600206C060020CEE30808DAE3080837
:100BF00070090020A5E30808DEE30808F4E308080C
:100C0000EC060020000000002DE9F04FEFB00021BD
:100C10001DA807F069F91DA807F0A6F907461DA849
:100C200007F0B8F90546FFF779FD39462846FFF782
:100C300017FCBF4BDFF80CA31860BE4B4FF0020946
:100C4000188808F0FFFC09F0ADFD0021179018206E
:100C500008F0DFFCC82006F025FFB74804F0BCF818
:100C6000CAF80000B44804F0B1F9DFF8F882B34ED6
:100C7000C8F80000B04804F0D9F8B14909F09AFE6C
:100C80003060C82006F00EFFB9F10109AD4CE4D187
:100C9000D6F800904946484609F09EFF002840F0EB
:100CA000A2814FF07E51484609F06EFF002840F0C7
:100CB0009A81DFF898A24FF00209A34804F08CF85B
:100CC000CAF80000A04804F0B1F89D4909F072FE8E
:100CD000DFF8CC82C8F80000C82006F0E3FEB9F1C6
:100CE0000109EAD13168084609F076FF002840F092
:100CF00080814FF07E51D8F8000009F045FF0028B0
:100D000040F07781206809F00DF983A3D3E900232F
:100D100008F0A8FF09F03CFC8C4E2060306809F018
:100D200001F97FA3D3E9002308F09CFF09F030FC10
:100D30003060FFF725FC864909F088FD1890FFF721
:100D4000B3FC00218246032008F063FC0021192037
:100D500008F05FFC7F4B804A18681B7951681B9034
:100D600010688DF870301FAB03C31189927A198017
:100D70009A707A4A22AB10685168DFF8249203C354
:100D8000DFF8B8811189927A19809A70D8F800102A
:100D9000D9F8000009F050FC09F0C4F862A3D3E9C7
:100DA000002309F013F909F0F3FB8346179A1BA9F6
:100DB0006B4803F091F86B4B22A91A6868481993A5
:100DC00003F08AF822681FA9654803F085F8D8F86F
:100DD00000206549624803F07FF832686349604843
:100DE00003F07AF8D9F8002061495D4803F074F8FF
:100DF0005A4660495A4803F06FF83A465E495848E7
:100E000003F06AF82A465D49554803F065F8189AD8
:100E10005B49534803F060F852465A49504803F082
:100E20005BF8384609F07EF8CDE91401284609F050
:100E300079F8CDE91201D9F8000009F073F8CDE98D
:100E40001001D8F8000009F06DF8CDE90E01199BEA
:100E5000186809F067F8CDE90C01584609F062F806
:100E6000CDE90A01179809F05DF8CDE9080150466F
:100E700009F058F8CDE90601189809F053F8CDE9C2
:100E80000401306809F04EF8CDE90201206809F04C
:100E900049F83D4ACDE900014FF480712EA804F0D5
:100EA00011FE2EA8FFF704FD4FF4967006F0FAFD30
:100EB000FFF74CFE4FF4967006F0F4FD33492846D8
:100EC00009F080FE70B106F0D9FD0D2800F0978082
:100ED00006F0D4FD0F2800F0928006F0CFFD112817
:100EE00000F08D8004F008FB04F006FB2849294837
:100EF00000F0F9FF07F0DEFC002405462346264AF1
:100F0000264925A88DF894408DF8954001F01BFBEB
:100F100048E000BFAFF300809A9999999999E93F09
:100F2000333333333333E33FC4CE143AAFB1D93F15
:100F30001C00002014000020FC0500200000002000
:100F40000000C842200000202C06002024000020C1
:100F50000000A03FF8E40808FDE4080808E50808D8
:100F6000700600200C0000200AE4080817E40808B6
:100F700022E408082AE4080833E4080839E40808E9
:100F80003DE4080845E408084DE408080000704204
:100F9000A6E40808AC0600206FEC0808A0050020B5
:100FA0000400002028B123460822294625A801F084
:100FB000A2FC144C00211A2008F02BFB22681249D5
:100FC000124804F067FD124B21681A68114B4A431E
:100FD0001B68012125A805F00BF81DA806F093FF5A
:100FE0006FB0BDE8F08F0C4BC8F800302360336061
:100FF0005FE6094B094AC8F80030136082E6FFF744
:1010000083FC6FE71C000020C1E40808EC06002008
:10101000280000207C0600203333C6C224000020B4
:101020001FB50E4905F064FB0D4B80B1B4221A6068
:101030000C4B0D4A1B780D498DF8003002A83C235B
:1010400007F0E2F903A8FFF76BFD012003E005229A
:101050001A604FF0FF3005B05DF804FB13E5080897
:10106000180000206C06002018E5080825E508088F
:1010700030B591B007F01EFC4FF4165107F0FCFBA1
:101080001820FFF70CF8044628B14FF4C063504A0B
:101090005049FFF7FFF8504B01211C604F4B0024D3
:1010A000188808F0A5FA0121032008F0A1FA01210F
:1010B000032008F0AEFA0121052008F099FA012179
:1010C000052008F0A6FA0121182008F091FA012164
:1010D000182008F09EFA0121192008F089FA012150
:1010E000192008F096FA01211A2008F081FA01214E
:1010F0001A2008F08EFA4FF4FA7006F0D3FC0021A3
:1011000005A804F00EFD0123224621460294019415
:10111000009405A804F0FAFD41F2E82105A804F0C6
:101120006BFD202541F2700105A804F022FE2A463D
:1011300021460DEB05000AF0D2F841F2E8224FF407
:101140008063ADF82830ADF82A304FF44D63ADF828
:101150002C3021464FF400730DEB05008DF825501F
:10116000ADF82620089304F0EBFB77211C4803F030
:1011700014FE60B91B4B06A81B781B4A8DF8003083
:101180001A493C2307F040F907A8FFF7C9FC76216C
:10119000174803F002FE60B9124B06A81B78124AEA
:1011A0008DF8003011493C2307F02EF907A8FFF70E
:1011B000B7FC104A1049114807F016F807F07AFBFF
:1011C0000F4905F0E2FA05A804F0BAFC11B030BDF1
:1011D000C5010808C0270900F80500200800002004
:1011E000FC0500206C0600202EE5080842E50808F2
:1011F0002C0600204AE5080821100808BD810808CF
:1012000050E5080870B5054604684368142606FBD7
:101210000346A64204D0204605F09CF91434F8E7B2
:10122000286804F027FC284670BD8842F8B50646B9
:101230000C46154616D9904215D2A2F114056C1A27
:10124000A1F114070444AF421CD02CB1294620461A
:1012500005F070F92B7C2374284605F07BF9143DCA
:10126000143CF0E70ED0AC420CD02EB121463046F3
:1012700005F060F9237C3374204605F06BF91434D3
:101280001436F0E7F8BD2DE9F04100230360436018
:1012900083604E6804469E420F4624DD4FF01408DA
:1012A00008FB06F004F0DEFB0546E0B194E806001A
:1012B00008FB0212FFF7B9FF206804F0DBFB256092
:1012C000A6603E687B6808FB0368464509D02DB1DF
:1012D0003146284605F0C4F9337C2B741436143596
:1012E000F3E77B6863602046BDE8F08170B5604B32
:1012F00000241C605F4B8CB001251D7004F054F875
:101300005D495E4805F06DF95D4E5E4A5E495B4899
:1013100008F07EFA5D4B6422316883F860245C4AF1
:1013200083F874540D40DC7183F83C4483F83D44E9
:1013300083F86A44C3F8784483F87C4483F87D4496
:10134000C3F870241C460FD13046FEF7BBFE58B1DF
:101350002946504804F040FD3046FEF7B8FE494AA1
:101360004D494C4808F054FA4A4B4C48C4F86C3488
:1013700000244B4B4B49434A04724472446003605F
:1013800008F046FA07F096FA474B20221A7241F20B
:101390000A020226DA60454A1E745C611C765860B7
:1013A00043481A6003F017FC424803F014FC4FF660
:1013B000FF73414D30466B812C60AC80AC712C8149
:1013C00004F07AFA2F4A3D49284608F021FA3C49B0
:1013D0003C4805F006F92B4A2B493A4808F018FA20
:1013E00000940194029407F065FA0546694603A843
:1013F000FFF749FF03A906A8334CFFF744FF334B1F
:1014000006A9236009A8FFF73EFF09AA1E21201D97
:1014100005F0D1FE09A8FFF7F5FE06A8FFF7F2FEDA
:101420002B4B2562236003A8FFF7ECFE294B2360BA
:1014300007F040FA4FF4165107F01EFA05F04EFB84
:10144000214605F04CFE6846FFF7DCFE0D4A2249B6
:10145000204608F0DDF901222049214802F00CFD68
:10146000084A20491E4808F0D3F90CB070BD00BFEF
:101470007C0600206C06002097EC0808E805002098
:10148000480100204401002055650808640100203F
:10149000C8E108084C010020CF01080880060020A0
:1014A00054E208082D010808AC06002034E20808C0
:1014B000FC0500202C06002058010020FF01080830
:1014C0005DE508085C060020C8060020D4E1080895
:1014D00030EF0808ECE108082902080869E5080867
:1014E00070060020953E08080023C3660367A0F835
:1014F000683080F866300370704708B5FFF7F4FF76
:10150000016708BD2DE9F0410646C06E88461746C2
:10151000541E5D1EB8B1036856219B689847F06E53
:10152000317803683D449B689847F06E41460368F4
:101530009B689847A5421FD0F06E14F8011F0368FE
:101540009B689847F6E7306F562103683D449B68D7
:101550009847306F317803689B689847306F4146F1
:1015600003689B689847AC4206D0306F14F8011F9F
:1015700003689B689847F6E7BDE8F081F8B5054633
:101580000E461746002480F86640BC4295F8660077
:101590001FD0B0421DD0E86E00B9286F03681B69E8
:1015A0009847002805DC0120013406F07BFAE4B2FC
:1015B000EBE795F86640E86E631C85F8663000B985
:1015C000286F03685B6998472B19C0B258700024D4
:1015D000DBE7F8BD13B5044602AA012302F8043D77
:1015E0001121FFF78FFFC82264212046FFF7C6FFB5
:1015F00028B194F86630002223445A70601C02B06F
:1016000010BD4378762B0BD1827803789A4207D1AC
:10161000C3788B4204D10079B0FA80F0400970475A
:10162000002070472DE9F04198469DF81C30044693
:101630000D4617469DF818601BB10A226421FFF77A
:101640009DFF43463A4629462046FFF75BFFC822E6
:1016500031462046FFF792FF864205D129462046B3
:10166000BDE8F041FFF7CDBF0020BDE8F0811FB518
:10167000002304AA02F8043D052101238DE80A0095
:101680002621FFF7CFFF05B05DF804FB10B5044637
:10169000C06E10B102F0FCF802E0206F07F0BAFA59
:1016A0002046BDE81040FFF7E2BF1FB501238DF8CB
:1016B0000C30019305238DF80D10009303AA02232B
:1016C0003621FFF7AFFF05B05DF804FB0021A0F85D
:1016D0006810FFF7EABF1FB5012300228DF80C3018
:1016E000019309238DF80D20009303AA02233421CE
:1016F0000446FFF797FF40B1E388207A5BBA9BB2BC
:1017000040EA0320637A43EA002004B010BD70B5BC
:1017100004460D4686B00D22002102A809F0DFFD27
:101720000C238DF80830B4F868300A261A128DF8A8
:101730000D208DF80E30052200238DE80C0032219B
:101740000D2302AA20468DF80A608DF814608DF8EA
:101750001250FFF767FF08B900200DE0691D3246FF
:10176000C9B22046FFF70AFF0028F5D0B4F8681088
:10177000601C2944A4F8681006B070BD03F014BEC4
:1017800003F012BE03F010BE10B50446243001F081
:1017900035F928B104F50C70BDE8104001F02EB900
:1017A00010BD411E00F10A020020430843EAC010A8
:1017B00011F8013F18448A4200F0FF00F5D170474C
:1017C00038B5CB6804460D4623B9BDE83840896872
:1017D00000F09DBC2422002109F081FD102301208E
:1017E0002370A070AB68A360EB68236238BD000073
:1017F0002DE9F0470378441C202B01D12046F9E75E
:101800000546704F88602C1A2E4615F8013B0BB325
:101810002F2B01D1031917E05C2B02D10020BDE86A
:10182000F087A3F12204E4B21D2C03D827FA04F4B4
:10183000E407F3D403F0BF043C2CEFD0203B5E2B35
:10184000E1D9EBE72F2D05D11E4613F8015B202DC2
:10185000F8D1F9E7166003199842C0EB030809D0E4
:1018600013F8012D2E2AF7D0202AF5D0B8F1FF0F5A
:10187000D4DC01E04FF00008C1F8048001F10C0352
:1018800001F11702202403F8014F9342FBD10346D4
:101890001A1A13F8014B2E2CFAD0202CF8D0B2FAD9
:1018A00082F408F1FF366409731C07D100274FF05A
:1018B000070E3D46BA464FF0080909E0835D2E2B1E
:1018C000F4D0013EF0E7835C202B04D100240132E8
:1018D0004245F8DB4BE02E2B02D1B242F6D103E0B9
:1018E000222B17D07C2B15D0A3F12A0CBCF1050FAD
:1018F00001D82D2B0ED1A3F13A0CBCF1050F09D95B
:10190000A3F15B0CBCF1020F04D9A3F1210CBCF1D3
:101910005D0F02D9B2420ED149E0B24247D07545BF
:1019200021D8A3F1610CBCF1190F08D8203BDBB220
:1019300049EA07070AE0754515D800245F23A3F19B
:10194000410CBCF1190F98BF49EA0A0A05F1010CD4
:101950005FFA8CFC0D44BCF1060F6B7301D881F863
:101960000CC06546B3E7BEF10A0F17D100244B7BCC
:10197000202B3FF453AF3CB11AEA070F18BF0227E0
:101980000F700120BDE8F0870B7B0120087019441F
:101990007E234B7331238B73BDE8F087B242E5DCC5
:1019A00032464FF00A0E08254FF010098EE7BEF1BF
:1019B0000A0FDBD032464FF00A0E08254FF010090F
:1019C00085E700BF010100312DE9F043C3788BB0FA
:1019D0000024804689468DF804408DF8054013B9EF
:1019E00000F0B6FA4FE0014601A8FFF7E9FE002833
:1019F00046D0012698F80330B34241D3B8F804101A
:101A000001A8891B490100F06AFC002838D0002198
:101A100001A800F047FC0746002831D0C37A0F2BFD
:101A20002ED1037803F01F039E4229D10025042DF7
:101A3000EBB204D807EB4503B3F801100BE00A2B17
:101A400095BF05F1FF336B1C07EB430307EB430323
:101A500094BFD988998869B17F29D9F8003028BF07
:101A60003F219B68C9B24846013598470D2D04F1C6
:101A70000104DCD13B785B0604D40136F6B2B9E749
:101A8000002000E020460BB0BDE8F0832DE9F843CC
:101A900006460D4691F80C9002247E2701F10D08B0
:101AA0006968AA6863189BB21144914206D012F883
:101AB000010B03EB431343409BB2F6E7B9F1030F6D
:101AC00028BF4FF0030909F10402D2B203F00F015D
:101AD000A818013A0929D2B294BF30313731914563
:101AE00041734FEA1313F1D305EB09035F73002130
:101AF000304600F0F4FB0121304600F0D3FB0146F4
:101B000028B97078B0FA80F04009BDE8F88303780E
:101B10004BB1C37A1B07EED40B22404609F0AAFB57
:101B20000028E8D102E00120BDE8F8830134A4B226
:101B3000642CB5D1BDE8F8832DE9F04F9B460B78B6
:101B400089B013F0700F05900E46914601D1002028
:101B5000A0E1059B1B78002BF9D153680293137801
:101B60009B0700F08D81029B0D270C33B3FBF7F729
:101B70000137FFB24FF000080021304600F0AFFB04
:101B800044464346454609F10D02CDF80C80CDF898
:101B9000108006927269012130460793C2F34F1AF2
:101BA00000F080FB079B20B97378002B00F0908039
:101BB000CDE70278E52A00D042B9002C08BFD04614
:101BC000BC423CBF0134E4B222B981E0BC4238BF20
:101BD000002403E0E52A01D10025DBE72E2AFBD013
:101BE000C17A0F2952D13DB95106D3D5437B02F0BA
:101BF0001F0503932B4607E0013BDBB29A42EBD172
:101C0000427B03999142E7D15A1E4FF00D0C0CFB19
:101C100002FC029A6245DFD94FF0000EBEF1040FBC
:101C20005FFA8EF204D800EB4E02B2F801200CE00D
:101C30000A2A95BF0EF1FF320EF1010200EB4202BB
:101C400000EB420294BFD28892880299614503D189
:101C5000002A18BF00259DE7FF2ABDD8D2B2A2F105
:101C600041011929D9F8081098BF203211F80C1039
:101C70000CF1010AA1F1410C98BFD2B2BCF1190FCD
:101C80009CBF2031C9B29142A6D1FBE00907A3D481
:101C90004DB1012B7FF45BAFFFF783FD039B8342C4
:101CA0007FF455AF0FE00B220699079309F0E2FA93
:101CB000079B00287FF46EAF99F80020D20702D569
:101CC0000122049266E71BF4006F00F0D1803EE72A
:101CD0001BF4007F3FF43BAF0BF00303013B012BF0
:101CE0003FF635AF002C08BFD046BC4202D3049B60
:101CF000CBB91FE00021304600F0D4FA10B9737858
:101D00005BB124E70134E4B2EFE7B3681B79012B40
:101D1000EDD81034E4B2A742E9D9304600F07EF99C
:101D20000028F2D113E749463046FFF7AFFE0028FE
:101D30003FF40DAF4FEA4811304600F0D0FA0028CA
:101D40003FF405AF7D1EEDB22C464FF0000A4FF078
:101D50000F0841E00021304600F0A4FA07460028B1
:101D60003FF4F5AEB268AC4292F8243043F0010380
:101D700082F8243014BF224644F04002027080F8FA
:101D80000B8080F80CA009F10D000392FFF709FD0C
:101D9000039A787387F81AA087F81BA002F01F0235
:101DA0000D23013AD9F808E05A43002302999142E1
:101DB00015D91EF80210042B5FFA83FC03F1010011
:101DC00013D807EB4303A3F801100D2802F1010219
:101DD0000346EBD1013CE4B2002CBBD10EE014BFB2
:101DE0004FF0FF31002189B2E5E7BCF10A0F94BF43
:101DF00007EB430307EB40039980E6E7736921464D
:101E00003046C3F34F1A00F04DFA074600283FF45E
:101E10009EAE2022214609F062FA4B4653F80D2F60
:101E20003A605A687A601A893A819B7ABB7299F84B
:101E3000003003F018033B73184B1B682BB107F1FC
:101E40000E0107F11000984706E021233B74282378
:101E50007B740823BC73FB733B8A7B823B83FB89C7
:101E6000FB82B26892F8243043F0010382F82430F8
:101E700000955B4652463146059800F079FA09E034
:101E8000012777E60EF1010EBEF10D0F3FF482AE91
:101E9000D446C3E609B0BDE8F08F00BF14070020A8
:101EA00003F082BA03F080BA38B504460D462168C3
:101EB00051F80C2CA318D868854205D20B6820462F
:101EC000A15C98470135F2E70022DA6038BD03686B
:101ED00053F80C3C03445B6803F00703012B01D06B
:101EE000FFF7E2BF704770B50B4605460C461E1B58
:101EF00013F8012B002AFAD131462846FFF7E7FFF5
:101F0000013C14F8011F21B12B6828461B68984733
:101F1000F7E731462846BDE87040FFF7C5BF03F03C
:101F200043BA10B50C46017809B9002010BD11F074
:101F3000600104D02F2323700023637006E000F0BB
:101F4000ADF80028F1D0214600F0B7F8012010BD0F
:101F50001FB50C466946FFF7E4FF40B1684609F03B
:101F600049FF23680246DB6869462046984704B06B
:101F700010BD03F019BA10B5092801F1FF321BD9C1
:101F8000831003EB60039BB203EB13139BB203EBD1
:101F90001323C3F3CC039CB2DBB203EB8303A0EBAC
:101FA0004303DBB2092B82BF0A3BDBB2013430337F
:101FB000114613702046DFE700F1300301F8013CC1
:101FC000104610BD030C1BD0830803EB500303EB3A
:101FD000131303EB132303EB1343DB08DAB202EB17
:101FE0008202A0EB4200C0B2092884BF0A38C0B206
:101FF00000F1300088BF013301F8010D1846E1E718
:1020000080B2FFF7B8BF837800F1100243F00403F9
:1020100083700169806800F0A7BD00002DE9F041E0
:102020000378044603F0200303F0FF050BB10026FC
:102030002EE04269184B9A42F9D8FFF7E4FF0646B2
:102040000028F4D02169A06800F023FD0746A068AD
:1020500005223946243000F0F8FC80460028E6D0FE
:1020600029464FF4007209F03AF90125A3681A795C
:10207000AA4209D94246E919186801F063F8002814
:10208000D5D00135EDB2F1E7636903EB422363611B
:102090003046BDE8F08100BFFFFD1F0010B50446CB
:1020A00080680A462430A16900F0CFFC20B1A388E3
:1020B00003F00F0300EB431010BDF0B500242346DE
:1020C000451E08262E2715F8012F202A18D0082C87
:1020D00002BF5A1CCF54D3B22A7808BF1026A2F1EF
:1020E000410EBEF1190F06D890F80CE016EA0E0F5B
:1020F0001CBF2032D2B203F1010ECA545FFA8EF334
:1021000001340B2CDFD10022CA541846F0BD70B543
:10211000047805460E4684B92422214609F0DFF8EA
:10212000AE60F379102B03D0202B06D1402300E0C2
:10213000202301202B70A87070BD002070BD2DE9F8
:10214000F74F03780446894615464BB18278D1078C
:1021500006D50CE05A46216900F0A1FC00283DDAC2
:1021600063784FF0FF3043F00203637097E01A0783
:1021700003D5E36962699B1A07E09A0608D5A3684C
:102180001A896369C3EB42139BB29D4228BF1D4667
:102190002E464FF0000804F1100B002E35D02278A7
:1021A000636912F0200FC3F3080AA0684FEA5321B5
:1021B00002D0036A19441DE090F8058001EA08087E
:1021C000BAF1000F10D1B8F1000F0DD1002BC1D121
:1021D00053064CBF036A236A236105E004D12378C8
:1021E00013F0700F11D1BBE72169A06800F051FC1A
:1021F00008EB0001A068BAF1000F35D1B6F5007FF9
:1022000032D3C36A994202D12EE0A81B47E0B6F54B
:10221000806F1BD322784FEA562A970606D402799C
:10222000C8EB0202D2B2924528BF924699424FEAC9
:102230004A2707D2A06853464A46006800F040FF8C
:1022400060B98DE75344994221D3F3E74A460068C9
:1022500000F0EEFE002883D04FF400776369B944A4
:102260003B446361F61B98E70022243000F0EDFB4D
:1022700000283FF475AFCAF50077B74228BF37464C
:1022800000EB0A013A46484609F003F8E6E7243035
:10229000019100F0B3FB01990028CBD160E703B0B6
:1022A000BDE8F08F37B543690446C3F3431505B164
:1022B00069B901220DF107012046FFF740FF40B246
:1022C000012801D0002008E063691F3300E02033BB
:1022D000A0686361303000EB451003B030BD2DE9DC
:1022E000F0410E46017804460769002939D0456956
:1022F000B5423AD00EB9066131E00B0703D5C36988
:102300009E422ED807E0880605D5A3681B89B6EB48
:10231000431F26D823E0D4F808E06A1E9EF8063052
:1023200003F10900731EC240C3409A4200D84DB960
:102330004A064CBFDEF82020226A22611D4604F1C5
:1023400010080AE09B1AF9E742462169A06800F0EC
:10235000A6FB002805F1FF3503DD002DF4D16661F1
:1023600003E027610020BDE8F0810120BDE8F08195
:10237000F8B50F4604461546002124221E4608F0F3
:10238000AEFFB868A580A0603B6A05F00F0200F1BF
:1023900030015201E3601144CB7A1D074CD48318FD
:1023A00093F83B3003F017032370C97A11F0180F2C
:1023B00004BF43F0080323709DF81830E37006F063
:1023C0000303012B09D0022B05D0002B34D171055A
:1023D00032D4012302E0032300E00223A370A1789A
:1023E0008B0703D5237813F0110F25D14BB216F4C8
:1023F000005F06F0080114BF6FF07F070027194344
:102400003943A170C36A0244A361B2F84410B2F820
:102410004A30750543EA014104D581B100F0DFFB84
:1024200068B909E02162D36CE36173040CD5E169FA
:102430002046FFF754FF38B900202070F8BDA3787C
:1024400043F00403A370F0E70120F8BD2DE9F74342
:10245000037806460D46174653BB0B7813F0700FF2
:1024600026D04C6914F01F0422D1A0460021284632
:10247000D5F81490FFF716FFD0B10378C3B12E2B17
:1024800001D10024F2E7E52BFBD0C17A11F0080F4F
:1024900005D17CB1FFF785F9804509D10AE00F2904
:1024A000EFD15906E2D503F01F0490F80D80DDE767
:1024B000002007E000943B46C9F34F1229463046FE
:1024C000FFF756FF03B0BDE8F083000038B503788E
:1024D00004460BB9012038BD83785A0723D5012162
:1024E000FFF7DCFD054628B96378002043F00103BF
:1024F000637038BD0378E52BF6D023781B0744BF03
:10250000E369C361238C4383638C8382094B1B681B
:102510002BB100F11601183098472B8B6B82A378F2
:1025200023F00403A370A068FFF72EF90028DBD086
:10253000D0E700BF1407002010B50446FFF7C6FF20
:102540000023237010BDF0B51F4693B000238DF813
:1025500024308DF82530037806460C4601920BB1E5
:1025600000203DE00B7813F0700FF9D013782F2B7B
:1025700012D1019B1A782F2A02D101330193F8E777
:10258000A1681AB93046FFF7C2FD29E009A8FFF794
:10259000BEFD0028E4D009AC01AA03A90198FFF709
:1025A00027F90028DCD0019B1B789BB1002303AAEC
:1025B00021463046FFF7C0FA0028D1D0354609AC95
:1025C0000FCD0FC40FCD0FC42B6830462360FFF72B
:1025D000B3FFE0E73B4603AA21463046FFF7ACFADB
:1025E00013B0F0BD70B506460C46FFF76FFF054609
:1025F00008B900250EE000213046FFF74FFD002806
:10260000F7D0214600F1200350F8042B984241F8FE
:10261000042BF9D1284670BD2DE9F047037889468F
:1026200019070446904608D583789A0705D51B07F5
:102630000BD5E169FFF753FE38B963784FF0FF30EF
:1026400043F001036370BDE8F0876369DB4398459D
:10265000F3D846464FF0000A6369002E7FD0A06889
:10266000C3F30807427912EA53251CD1DFB9216967
:1026700071B104F1100200F012FA0028DDDB40F025
:102680008D802046FFF7BFFC002840F08780D4E70C
:10269000236A3BB92046FFF7B6FC0028CDD023695A
:1026A000236200E023612169A06800F0F2F9291893
:1026B00017B9B6F5007F21D2C7F50075B54228BF1E
:1026C000354637B96369E269934234BF0122052276
:1026D00000E00122A068243000F0B7F90028ACD057
:1026E00038442A4649462F4408F0D3FDB7F5007F09
:1026F0002FD1A068243000F081F916E0B6F5806F84
:10270000A06814D30279730A521BD2B2934228BF35
:102710001346C26A5D02914202D31A44914237D3F2
:10272000A7684A46386800F07FFD90B985E7C36A1C
:102730004A46994202BF4FF0FF3380F824A0C3629B
:10274000A368186800F0FEFC00283FF476AF4FF451
:1027500000756369A9442B446361761B7CE7E269D9
:10276000934201D9E36102E00F4B1B681BB1A378D0
:1027700043F00403A37094F90230002B02DB4046BF
:10278000BDE8F0872046FFF7A1FE0028F7D154E707
:102790004FF0FF3280F824A0C262C1E72169A0682F
:1027A00000F077F9014684E71407002002F0FCBD31
:1027B000632970B505460ED80A23B1FBF3F3C3EBCA
:1027C00043143031C3EB840401EB440403F13001C2
:1027D000E4B2C9B201E03F210C462B6828469B6851
:1027E00098472B6821462846BDE870409B681847EB
:1027F00070B505460C46084649B109F0FBFA2B684E
:10280000024621462846BDE87040DB68184770BD87
:1028100030B50D4685B0044604A90023681201F8BE
:10282000023D00F2BC70FFF7CDFB01462046FFF7EA
:10283000DFFF23682D219B6820469847C5F343118D
:102840002046FFF7B5FF23682D219B682046984757
:1028500005F01F012046FFF7ABFF05B030BD38B5CE
:1028600004460D46C90AFFF7A3FF23683A219B6877
:1028700020469847C5F345112046FFF799FF236886
:102880003A219B682046984705F01F012046BDE885
:1028900038404900FFF78CBF30B589B00C46694617
:1028A000FFF7A0FE054670B1BDF818102046FFF7EF
:1028B000AFFF236820219B6820469847BDF816107B
:1028C0002046FFF7CCFF284609B030BD1FB50023D6
:1028D0000C4604A901F8023DC069FFF773FB01A98A
:1028E0002023884202D900F8013DFAE72046FFF78D
:1028F0007FFF04B010BD2DE9F04399468BB0002353
:102900008DF804308DF805300378064613F0700F0B
:102910000C46154601D1002069E041780029FAD122
:10292000FFF7DDFC05F00207FFB20022314601A8E7
:10293000FFF78CFD00284AD09DF80430980705D594
:10294000E90703D401A8FFF7F7FDEEE74FF0000811
:10295000C14507D0236820219B682046984708F18D
:102960000108F5E747B1214601A8FFF795FF236865
:1029700020219B68204698476A0708D5214601A870
:10298000FFF7A4FF236820219B6820469847214633
:1029900001A8FFF719F89DF8043013F0700F04D068
:1029A00023682F219B682046984723680D219B6848
:1029B0002046984723680A219B68204698472B07A2
:1029C000C0D59DF8043013F0700F05D1BAE77078C8
:1029D000B0FA80F040090AE009F10203DBB22A46AE
:1029E000214601A8FFF787FF0028ABD193E70BB082
:1029F000BDE8F08302F0D8BC02F0D6BC70B5037815
:102A00000446DA071ED5436800F10C068168324699
:102A1000186800F097FB054608B9002513E02378F5
:102A20009B0704D4237823F0010323700BE0636831
:102A3000A068196932460144186800F083FB002839
:102A4000F0D1EAE70125284670BD70B583680446D9
:102A50008B420E46154614D0FFF7D0FF08B9002070
:102A600070BD6B0703D500232370A66009E063687F
:102A700004F10C023146186800F0DAFA0028F2D1AD
:102A8000EDE72046237805F003051D4300F80C5BB5
:102A900070BD837902394069994008447047012923
:102AA00070B505460C46164602D84FF0FF3070BD93
:102AB000C3699942F9D8C379202B10D181690222C8
:102AC00001EBD41100F50C70FFF7BFFF0028ECD02C
:102AD00004F07F0450F8243023F070430FE0102BF3
:102AE000E3D18369C1F307210222194400F50C7078
:102AF000FFF7ABFF0028D8D0E4B230F81430EA6911
:102B000093429ABF33600120002070BD012938B57F
:102B10000C46154601D8002038BDC3699942FAD841
:102B2000C379202B0ED18169032201EBD41100F56A
:102B30000C70FFF78AFF0028EDD004F07F0440F806
:102B400024500FE0102BE6D18369C1F30721032243
:102B5000194400F50C70FFF778FF0028DBD0E4B2D1
:102B600020F81450012038BD2DE9F341C468054612
:102B70008C420E46904607D20C460027EB69013482
:102B80009C4203D9CFB9EC680127F7E7A64214D0DD
:102B900001AA21462846FFF782FF00280DDBEDD071
:102BA000019B002BEAD107B1EC606FF07042214627
:102BB0002846FFF7ABFF074608B900270BE016B918
:102BC000C8F8004007E0224631462846FFF79EFF3E
:102BD0000028F5D1F1E7384602B0BDE8F08173B5C1
:102BE00005460C4601AA21462846FFF758FF061E57
:102BF00001DA00200FE0002221462846FFF786FF79
:102C00000028F6D0EB689C429CBF04F1FF34EC60D6
:102C1000019C002EE6D102B070BD70B504460123C0
:102C20000022C3604FF0FF33C2710D46A06280F8EE
:102C30002420C362C4F8340280F83022C0F838324D
:102C4000A1B104295DD811462430FFF7FEFE00280B
:102C500057D000EB051393F8AE315B0651D11B350D
:102C600000EB0515D5F80650002D4AD00022294664
:102C700004F12400FFF7E9FE002842D0B0F80B3041
:102C8000B3F5007F3DD1037C022B3AD1C389002BE1
:102C900037D0417B09264B1E63710023A37121713C
:102CA00001238B4207D0013E2BD0A2795B00013279
:102CB000DBB2A271F5E7C28A02B9426A2261C68913
:102CC0002E44A661B0F8113006EB42012381216247
:102CD000B0F81120520102F2FF1201EB6222626190
:102CE000B0F8133003B9036AAD1A2B44A57923FA5F
:102CF00005F56B1CE36140F6F4739D4203D80C2389
:102D0000E371002070BD4FF6F4739D4289BFC36A22
:102D1000102323622023E371012070BD02F044BB25
:102D200002F042BB02F040BB70B50E46154602F001
:102D3000DBFB0C4C2368C01A0B4B984208D902F0FD
:102D4000DBFB0A4B186002F05DFE02F0CDFB206059
:102D500002F0D2FB80B2801BA842D4BF0020012029
:102D600070BD00BF18070020A0860100DC0E002007
:102D700038B5057A04464DB9406800F07DFA6368BD
:102D80002946187D06F045FC0123237238BD10B595
:102D9000037A04466BB143680121187D06F039FCC3
:102DA000FF21606800F09AFA606800F079FA002369
:102DB000237210BDF8B504460D46164602F09CFB82
:102DC00087B2606800F06FFAFF28607209D14FF493
:102DD0007A7239462046FFF7A7FF0028F1D0552325
:102DE0000BE0FE2801D0502307E0324629466068F8
:102DF00000F05EFA607230B1602320462370FFF766
:102E0000C6FF0020F8BD606800F04DFA606800F071
:102E10004AFA0120F8BD70B504460E4602F06CFB7C
:102E200085B2324629462046FFF77EFF30B96068FA
:102E300000F039FAFF28F4D1012070BD002070BDE8
:102E4000F7B5037A04460D4601920BB9FFF790FFE0
:102E500025B14FF496712046FFF7DDFF45F04001A4
:102E6000606800F03BFA0DF107060DF1030716F854
:102E70000119606800F032FABE42F8D1002D0CBF93
:102E800095218721606800F029FA606800F00BFA4C
:102E90000B25606800F007FA0306607203D5013D58
:102EA00015F0FF05F5D103B0F0BD70B504460D4631
:102EB000164637210022FFF7C3FF32462946204637
:102EC000BDE87040FFF7BCBF2DE9F0410025057259
:102ED000057085724160044690461E4602F00CFB68
:102EE00041460746606800F0CBF963684F4A4FF0EF
:102EF00001081D72DA605D7483F810802046FFF7C8
:102F000037FF63684146187D06F083FB0A25FF21E1
:102F10006068013D00F0E2F915F0FF05F7D1636844
:102F20002946187D06F075FB0A2500221146204629
:102F3000FFF786FF0128804612D0013D15F0FF05FE
:102F400001D1202357E0FD21606800F0C7F94FF45C
:102F50000278606800F0A7F9B8F10108F9D1E4E758
:102F60004FF4D57208212046FFF76AFF052802D1E9
:102F700084F80A800FE00425606800F094F9013DB0
:102F800015F0FF056072F7D1AA2802D10223A372BF
:102F900001E025232FE0A37ABFB2022B0CBF4FF034
:102FA000804500252A4629212046FFF77EFF02465C
:102FB00048B14FF4FA6239462046FFF7B5FE0028C3
:102FC000F0D0432317E0A37A022B0ED02046FFF760
:102FD000DEFE6368B0683479317B727BD8601C7226
:102FE00019745A740120BDE8F0813A212046FFF798
:102FF00027FF38B1372320462370FFF7C8FE002093
:10300000BDE8F081606800F04EF900F0C000C02813
:1030100004BF0323A372606800F045F9606800F004
:1030200042F9606800F03FF9D0E700BF90D003009C
:1030300038B5837A1546032B18BF49020A46112179
:103040000446FFF7FDFE10B1302323700BE0294644
:103050004FF400722046FFF7ADFE054618B120463A
:10306000FFF795FE03E02046FFF791FE0025284676
:1030700038BD10B5837A0A46032B18BF4A021221C5
:103080000446FFF7DDFE30B1312320462370FFF701
:103090007EFE002010BD012010BD10B500220C21C5
:1030A0000446FFF7CDFE30B1282320462370FFF7FA
:1030B0006EFE002010BD2046FFF769FE012010BD06
:1030C000F8B5054616461F46FFF7D3FF98B1002412
:1030D000A3B29F4206EB442108D94FF40072284660
:1030E000FFF768FE01340028F2D104E02846BDE86D
:1030F000F840FFF7D2BF0020F8BD38B504461546AA
:10310000406800F0EBF84FF400722946606800F068
:10311000E9F8FF21606800F0E1F8FF21606800F045
:10312000DDF8606800F0BFF8607200F01F0005284D
:1031300006D0572320462370FFF729FE002038BD14
:10314000012038BD70B5837A1546032B18BF49029C
:103150000A4618210446FFF773FE064608B13223DB
:103160001DE02A46FE212046FFF7C7FFC0B14FF4FD
:10317000FA612046FFF74FFE054608B95A230EE0D4
:1031800032460D212046FFF75BFE38B9606800F03B
:103190008AF818B92046FFF7FAFD05E029232370C5
:1031A0002046FFF7F4FD0025284670BD38B50D46D2
:1031B0004FF4FA610446FFF72EFE10B95B2323702B
:1031C00005E02A46FC212046FFF797FF18B9204664
:1031D000FFF7DDFD002038BD10B5837A0A46032BCA
:1031E00018BF4A0219210446FFF72AFE30B13323E3
:1031F00020462370FFF7CBFD002010BD012010BD3D
:1032000038B54FF4FA610446FFF705FE054620B1D4
:10321000FD21606800F062F801E05623237020462B
:10322000FFF7B5FD284638BDF8B5054616461F46DA
:10323000FFF7D2FF70B10024BC4206EB44212846C0
:1032400004D0FFF7B3FF28B10134F5E7BDE8F8403B
:10325000FFF7D6BF2846FFF79AFD0020F8BD02F021
:10326000A3B802F0A1B802F09FB80000014B012200
:103270001A7070471C070020011D006802F0E6BDAF
:1032800010B504460175006802F0B5FD207D0121EE
:1032900006F0AEF9207D0121BDE8104006F0B9B975
:1032A000006802F0B8BDFF21006802F03EBE0000D9
:1032B00037B5084B00250093074C134600680A46B3
:1032C0002946257002F037FE2378002BFCD0002021
:1032D00003B030BD6D3208081C070020006802F002
:1032E00024BE000037B5074B00250093064C13465B
:1032F00000682A46257002F01EFE2378002BFCD0C1
:1033000003B030BD6D3208081C07002002F04CB835
:10331000F7B53C4C2368D9070CD42046FCF7D2FE05
:1033200040B1394B394A1B78204603F00103137032
:10333000FCF7CDFE364C23781A0661D42578324E40
:103340006DB275B9334B2A461968334801F0FEFF58
:1033500033782E4A03F001031370304B304A1B7848
:10336000D554304B304A18881C2343431268D11877
:10337000D3588A881B692D491A4223780D785BB28D
:1033800014BF01220022AB420DDC214B23491B78E4
:103390000978234FC9B217F801E05BB202FA03F3D0
:1033A0004EEA03037B543378DB0603D523785BB204
:1033B0009D4220DA23781E4A013312785BB2934291
:1033C00023701DDB114B154A1B7823B11378144A67
:1033D000FF21D15404E01378013303F03F0313704D
:1033E000FE2323700023009302224FF0FF33114984
:1033F00005F0CCFA04E0054B19784A401A70D9E779
:1034000003B0F0BD28070020810700202C07002012
:103410003C00002030000020D00700208C07002056
:103420002D07002044000020880700203B000020DA
:103430002C0000204534080810B5044601F07CFF3C
:10344000204610BD10B5094C23781B060DD5084B3E
:1034500008481968002201F079FF00232370064B09
:10346000BDE81040188805F0B9BA10BD3C00002036
:1034700034000020D0070020440000200EB400B526
:103480008CB00DAA52F8041B20238DE8060003928D
:1034900004930168002304AA1E20059302F0ECF9AE
:1034A0000CB05DF804EB03B0704700007FB53B2221
:1034B000428047F22F5282804FF6FF72C280254A27
:1034C000002303700372137053709370D3701371E1
:1034D00003780446002B3AD101231F4E1F4D037081
:1034E0001F4B6946132000930396029505F0A0FA3E
:1034F0006846FCF7BDFE1B4B69461A2000930396F5
:10350000029505F095FA6846FCF7B2FE164B69463F
:10351000212000930396029505F08AFA6846FCF78D
:10352000A7FE124B6946242000930396029505F0EE
:103530007FFA6846FCF79CFE0D4B694626200093F7
:103540000396029505F074FA6846FCF791FE204652
:1035500004B070BDEC08002011010808150108082E
:103560005150080879500808A1500808C9500808A7
:10357000F150080813B5114C0221208806F038F8E4
:103580000F4BFE221A700F4B1A68092A0AD90E48EF
:10359000C3889A4206D80D4B0D491B78009300232F
:1035A00001F094FE0023009320884FF0FF330222A5
:1035B000084905F0EBF902B010BD00BF440000203F
:1035C0003C00002030000020D007002039000020FF
:1035D000113308084534080838B5564C2368DB0712
:1035E0000CD42046FCF76EFD40B1534B534A1B7878
:1035F000204603F001031370FCF769FD504C23785B
:103600005BB20133C0F2948023784E4DFF2B15D16D
:103610004D4B002219684D4801F098FE4C4B1A881A
:103620001C2353434B4A1268D118D3588A885A83B3
:10363000414B424A1B7803F0010320E02378464ABD
:1036400013F0800F3DD1237811785BB28B4238DACA
:10365000297823785AB2414B5B5C134113F0010F78
:103660003C4A3B4B0DD019881C234B431268D118A0
:10367000D3588A881A83314A137883F00103137070
:1036800007E019881C234B431268D118D3588A8845
:103690005A83334B2A781B789A420DD1FE2323702C
:1036A000304B1B78002B43D02F4B186800283FD09D
:1036B000BDE83840FFF75EBF237801335BB223706B
:1036C00038BD1D4B1B7823B1237811785BB28B4238
:1036D00011D0237812785BB29A42244A1ADC184B34
:1036E00011781B785BB28B4214DA194B1A881C23B1
:1036F0005343184A08E0114B164A1978144B002915
:10370000BFD019881C234B431268D118D3588A881C
:103710001A83BEE7237812785BB29342B9DB2B7829
:10372000FE22013303F03F032B70054B1A70B0E704
:1037300038BD00BF2007002081070020240700209B
:103740003800002080070020300000207007002093
:1037500040000020880700203B0000208D0700204B
:10376000E00700206D070020840700202C000020C7
:1037700013B5114C0121208805F03AFF22881C2343
:1037800053430E4A1268D118D3588A881A830C4BB7
:10379000FE221A700B4B1A68092A0AD90A48C388F4
:1037A0009A4206D8094B0A491B780093002301F07E
:1037B0008DFD02B010BD00BF400000208807002032
:1037C0003800002030000020700700203A00002060
:1037D000D935080812F0100F38B50546234B01D033
:1037E000092003E090064CBF0720082018701B78C2
:1037F00012F0010F1E4814BF0233013312F00C0403
:1038000003701C4B09D012F0080F14BF11221022B4
:103810001A7003780133037000E01C70164A00240C
:103820000C2000FB04F39B58A3B18B4210D804D0AA
:103830000A4612481249FFF721FE0F4A0C2303FBE8
:103840000424104B62681A60A2680F4B1A6001E0F2
:103850000134E6E70D4B1B7813B92846FFF788FFC4
:103860002846BDE83840FFF785BE00BF3B0000207A
:103870002C0000208107002004E6080838090020F9
:10388000DCE5080834000020300000206D0700202F
:103890000022FFF79FBF000070B501F085FD0C4CC2
:1038A0000C4B0D4E18600D4D2046FFF7FFFD2046D6
:1038B0000B4C3246294605F0ABFF2046FFF7F6FDDC
:1038C000324629462046BDE8704005F0A1BF00BF42
:1038D000D007002088070020440100203934080860
:1038E0007007002001F060BD0175704738B50B4BC3
:1038F0008469054603607CB16368013B63605BB922
:10390000236820469B689847A368013BA3601BB9C6
:1039100023682046DB689847284638BDC0ED080874
:1039200010B50446FFF7E2FF20461C2105F07EFF9C
:10393000204610BD30B5064D836005600025057535
:1039400041F28835039B85614160C360026130BDEF
:10395000ACE708082DE9F0410D461746064604F08D
:10396000A9FF1C4902F011FF00241B4802F0E8FCEB
:1039700068BB052C01D1BDE8F081337DC3B104F0F3
:1039800099FF164902F0EAFE04F094FF294602F07E
:10399000E5FE04F08FFF124902F0E0FE04F08AFF1A
:1039A00080460A22214602F0FAFE404602F0E1FE7D
:1039B000094802F043FC0023BAB22946064802F047
:1039C00087FD4FF47A7004F06DF80134CDE7BDE85F
:1039D000F08100BFA0E60808E4070020B8E6080868
:1039E000CEE6080870B5054600240D4802F0EAFB53
:1039F000064610B9AB699C4201DB012070BD012075
:103A000004F050F8AB6901349C42EEDB287D30B104
:103A100004F050FF034902F0B8FE304670BD70BD9F
:103A2000E4070020E2E608082DE9F843037D064696
:103A3000884615464BB104F03DFF214902F0A5FE32
:103A400004F038FF1F4902F0A0FE40F2BB29002419
:103A50001D4802F0B7FB78B11B4802F068FB337DCC
:103A6000C7B22BB104F026FF036839469B6898471C
:103A70002F5501344C45EBD1337D23B104F01AFFAF
:103A8000124902F082FE00232B55114B984508D1B4
:103A90001049284608F0F1F978B14FF07E50BDE8A2
:103AA000F8837C21284607F04BFC30B1013007F049
:103AB000D3FA06F06DFDBDE8F8830748BDE8F8834A
:103AC00029E7080815E70808E407002028E70808A0
:103AD00034E7080839E708085F42A2CD70B504460C
:103AE00000230E461546416842F23432454802F042
:103AF000EFFC204642F234326168FFF72BFF414869
:103B000002F055FC002874D0A1683E4802F026FE61
:103B10003D493C4802F022FEE1683A4802F01EFEB0
:103B20003A49384802F01AFE3146364802F016FE8D
:103B30003749344802F012FE2946324802F00EFEA0
:103B40003449304802F00AFE237DB3B304F0B2FEDC
:103B5000314902F01AFE04F0ADFE304902F015FEC4
:103B600004F0A8FEA16802F0F9FD04F0A3FE2649C6
:103B700002F0F4FD04F09EFEE16802F0EFFD04F0B7
:103B800099FE224902F0EAFD04F094FE314602F06B
:103B9000E5FD04F08FFE1E4902F0E0FD04F08AFE10
:103BA000294602F0DBFD04F085FE1A4902F0D6FD3D
:103BB00004F080FE1A4902F0E8FD2046FFF712FFEC
:103BC00020B9104802F03AFB164870BD4FF42F7030
:103BD00001F048FF1449024605462046FFF724FF3E
:103BE0000446084802F02AFB284601F043FF20461D
:103BF00070BD237D002BE4D004F05CFE0B4902F085
:103C0000C4FDDEE7E40700203CE708083FE70808BA
:103C100098E80808D6E8080857E7080841E70808C0
:103C200056E708085F42A2CD5CE708085FE708088E
:103C300070B50446416842F234321D461E480023E6
:103C400002F046FC204642F234326168FFF782FE01
:103C5000194802F0ACFB20B32946174802F07EFD5C
:103C60002046FFF7BFFE054620B9134802F0E6FAEA
:103C700000251FE0642001F0F5FE104902460646CB
:103C80002046FFF7D1FE0446304601F0F3FE0C4912
:103C9000204606F06FFF0028E7D1074802F0CEFA71
:103CA00008E0237D002BE0D004F004FE054902F07B
:103CB0006CFDDAE7284670BDE407002034E7080809
:103CC0005F42A2CD85E7080810B5064C01F06CFBF9
:103CD000204602F0DBFB2046BDE81040024A0349C3
:103CE00005F096BDE407002044010020ED380808E7
:103CF00010B50446006808B1FCF7D7F9E06801F098
:103D0000B9FE6068042105F091FD204610BD000059
:103D100070B50446012094F9105060741420454396
:103D2000E668715194F91010E56800FB01518A6052
:103D300094F91020E16800FB0212536094F91030EE
:103D4000E26800FB0323049ADA6094F91030E26819
:103D500000FB0320059B0361237C01335BB20F2B27
:103D6000237408DDA37C23B104F0A4FD024902F012
:103D70000CFD0F23237470BDB8E7080870B5064624
:103D80000C4684B1E1683046FFF7F8FFE369A568A7
:103D900023B104F114010322084698472046FCF79A
:103DA00082F92C46EDE770BDF0B58DB0044601A850
:103DB0000D4617461E4601F035FE03980130FCF70C
:103DC00070F90199206007F0DDFA2A46334639463A
:103DD000E67405A800F068FD4FF4967001F042FE0D
:103DE000E06005A800F070FC00236060237408996F
:103DF00006A8A560FFF7C2FF01A802F0ABFB0DB05B
:103E0000F0BD38B50446002505744574FFF7CCFFB6
:103E1000204638BD024B00221A7001F0C5BA00BF1F
:103E2000000800202DE9F0410446782023721F4647
:103E30000D46164601F016FE237A6060042B4FF003
:103E400014000CD0FCF72BF9804620B13B463246DB
:103E50002946FFF7D6FFC4F80080BDE8F081FCF7E3
:103E60001EF9074620B1012332462946FFF7C9FF54
:103E70002760BDE8F081000010B5044600234372BE
:103E800083721346024AFFF7CDFF204610BD00BFE4
:103E9000EBE8080838B50446406801F0EBFD2568FA
:103EA00035B12846FFF724FF1421284605F0BEFC53
:103EB000204638BD70B5067A042E04D0BDE87040A7
:103EC0000068FFF725BF04F0F5FCBDE8704001492C
:103ED00002F05BBC06E9080807B5002301930093D4
:103EE000FFF7E8FF03B05DF804FB01F05DBA017570
:103EF0007047000070B50446142001F0B3FD06467B
:103F0000142001F0AFFD0546204607F073FF22465E
:103F100000230238984217DD12F8011B0D2911D138
:103F200011780A290ED151780D290BD191780A29DF
:103F300008D1191D14222144304607F078FF0023D0
:103F4000337501E00133E5E70A21304607F0F8F95F
:103F50000446E8B10A21013007F0F2F9C0B1214668
:103F6000284607F00FFA284607F044FF00232844AC
:103F700000F8013C284607F06FF806F009FB0446FC
:103F8000284601F077FD304601F074FD204670BDF3
:103F9000004870BD5F42A2CD30B5074D836005601B
:103FA0000025057541F28835039B85610525057758
:103FB0004160C360026130BD30EB08082DE9F84371
:103FC00005460F46904600241D48E6B202F0EFF980
:103FD00098BB2B7FB34201D8BDE8F8832B7DC3B1DA
:103FE00004F068FC174902F0B9FB04F063FC3946A1
:103FF00002F0B4FB04F05EFC134902F0AFFB04F0E6
:1040000059FC81460A22314602F0C9FB484602F0BB
:10401000B0FB00231FFA88F23946094802F058FA2B
:104020002B7D23B104F046FC084902F0AEFB4FF4AF
:104030007A7003F037FD0134C6E7BDE8F88300BFAE
:1040400004080020B8E60808CEE608083CEB08089B
:1040500070B54D1E06462B460C4601F52F72002109
:1040600003F8011F9342FBD1337D4BB104F022FCD6
:10407000134902F08AFB04F01DFC124902F085FB93
:1040800004F2BA24104802F09DF840B9337DB3B170
:1040900004F010FCBDE870400C4902F076BB0A4801
:1040A00002F045F805F8010F337D2BB104F002FC56
:1040B000036829789B689847A542E3D1E6E770BD7D
:1040C00029E7080815E708080408002028E7080879
:1040D00070B5054600240D4802F074F8064610B984
:1040E000AB699C4201DB012070BD012003F0DAFCCA
:1040F000AB6901349C42EEDB287D30B104F0DAFB81
:10410000034902F042FB304670BD70BD0408002038
:10411000E2E60808F8B50F460269416804461E4603
:10412000FFF74CFF804802F042F90546002800F0F6
:10413000EC807E497C4802F011FB39467A4802F057
:104140000DFB7B49784802F009FB7A49764802F07A
:1041500005FB6168744802F001FB7749724802F080
:10416000FDFA7649704802F0F9FAA1686E4802F04B
:10417000F5FA71496C4802F0F1FA71496A4802F0A7
:10418000EDFAE168684802F0E9FA6B49664802F026
:10419000E5FA6C49644802F0E1FA6B49624802F0C2
:1041A000DDFA304607F026FE054668495E4802F013
:1041B000D5FA002D05DA2D215B4802F0D3FA6942C9
:1041C00000E029460A22584802F0E9FA60495648B8
:1041D00002F0C4FA3146544802F0C0FA5649524837
:1041E00002F0BCFA504801F064FF237D002B71D02F
:1041F00004F060FB574902F0C8FA04F05BFB4B493E
:1042000002F0ACFA04F056FB394602F0A7FA04F0CB
:1042100051FB474902F0A2FA04F04CFB454902F079
:104220009DFA04F047FB616802F098FA04F042FB43
:10423000414902F093FA04F03DFB404902F08EFA46
:1042400004F038FBA16802F089FA04F033FB3A4924
:1042500002F084FA04F02EFB394902F07FFA04F0F0
:1042600029FBE16802F07AFA04F024FB324902F0FB
:1042700075FA04F01FFB334902F070FA04F01AFBE0
:10428000314902F06BFA04F015FB304902F066FA8E
:1042900004F010FB002D074603DA2D2102F062FA2C
:1042A0006D420A222946384602F079FA04F002FBF0
:1042B000274902F053FA04F0FDFA314602F04EFAB3
:1042C00004F0F8FA1C4902F049FA04F0F3FA224922
:1042D00002F05BFA2046FFF7FBFE237D0BB90124B9
:1042E0001DE004F0E7FA1D4902F04FFA0E4801F014
:1042F00069FF0028F3D00C4801F019FF044604F0D0
:10430000D9FAE1B202F02EFAF0E7237D33B104F0DE
:10431000D1FA134902F039FA2C4600E01C46024853
:1043200001F08CFF2046F8BD040800204DEB080882
:1043300065EB080871EB080895EC080878EB0808AD
:1043400085EB080894EB0808A8EB0808C9EB0808F7
:1043500093EC0808DAEB0808F6EB080814EC0808F8
:1043600030EC080870B5044600230E461546416837
:104370005022654802F0ACF8204650226168FFF7F1
:104380001DFE614802F013F8002800F0B2805F497A
:104390005D4802F0E3F931465B4802F0DFF95C4921
:1043A000594802F0DBF92946574802F0D7F9594934
:1043B000554802F0D3F95849534802F0CFF957490C
:1043C000514802F0CBF90A2250214F4802F0E7F998
:1043D00053494D4802F0C2F952494B4802F0BEF928
:1043E000A168494802F0BAF94D49474802F0B6F9C8
:1043F0004D49454802F0B2F9E168434802F0AEF990
:104400004749414802F0AAF948493F4802F0A6F955
:10441000237D002B50D004F04DFA3C4902F09EF968
:1044200004F048FA314602F099F904F043FA3849A9
:1044300002F094F904F03EFA294602F08FF904F0F4
:1044400039FA344902F08AF904F034FA324902F0B8
:1044500085F904F02FFA314902F080F904F02AFAC4
:104460000A22502102F09BF904F024FA2C4902F0B0
:1044700075F904F01FFA2B4902F070F904F01AFAEA
:10448000A16802F06BF904F015FA254902F066F90B
:1044900004F010FA244902F061F904F00BFAE16823
:1044A00002F05CF904F006FA1D4902F057F904F035
:1044B00001FA1E4902F052F92046FFF709FE20B921
:1044C000114801F0BBFE1A4C1CE04FF42F7001F0B4
:1044D000C9FA054601462046FFF7BAFD2846FFF710
:1044E00009FD0446084801F0A9FE284601F0C2FA79
:1044F00008E0237D002BE3D004F0DCF90D4902F045
:1045000044F9DDE7204670BD040800205AEC080895
:104510006FEC080871EC080865EB080871EB0808F7
:1045200095EC080878EB080885EB080875EC080896
:104530005F42A2CD98EC080810B5064C00F034FF9D
:10454000204601F0A3FF2046BDE81040024A03497F
:1045500005F05EB90408002044010020ED38080889
:1045600003681847012A02D0022A02D004E0016041
:1045700002E00B6800B103600020704713B51C20F7
:10458000FBF78DFD044648B1064B07491B6842F214
:10459000343200930968054BFFF7CCF9204602B08E
:1045A00010BD00BF580800205C0800209AE80808E9
:1045B00013B52020FBF773FD044640B1054B0649B7
:1045C0001B68502200930968044BFFF7E5FC204666
:1045D00002B010BD580800205C0800209AE80808C6
:1045E00013B51C20FBF75BFD044648B1064B074999
:1045F0001B6842F2343200930968054B00F0E2F97F
:10460000204602B010BD00BF580800205C08002002
:104610009AE8080813B51420FBF741FD044640B1A1
:10462000054B06491B68009300231A46096800F0F1
:1046300071FA204602B010BD580800205C08002026
:1046400010B50446054B03606433036103F0D2FAEE
:10465000204603F0B3FB204610BD00BFA0EF0808C2
:1046600010B50446FFF7ECFF20463C2105F0DEF8CC
:10467000204610BD10B5002386B00446049321B136
:104680000F4B029105930F4B049302AB93E8030089
:104690008DE8030094E8030083E803009DE803002D
:1046A000049A84E80300A168A260059A0491E16875
:1046B0001846E2600591FBF7DBFD204606B010BD11
:1046C000614508086545080800F108010B4670B50A
:1046D000C2684AB10478157CA5423ABFD4681A462C
:1046E000946813462246F4E7994204D000781A7C75
:1046F000904238BF0B46DA690AB905F063F91A6AC5
:1047000003F11400BDE87040104770B504468B6893
:1047100016460D1D012253B130781A7C1D46904279
:1047200035BF9868D868012200220346F3E732B10A
:10473000CA6895420AD0284605F0DFF800E028460E
:104740003378027C9A424FF0000302D284E82800BA
:1047500001E084E80900204670BD2DE9F7431F46BB
:10476000064624200C46FBF79AFC3B6810F1100823
:1047700018BF1B7806F104071EBF03740023C36132
:10478000A742054608D17369002B5CD03169037CD0
:104790000A7C9A423AD356E090F81090237C9945CF
:1047A00017D2F3682046A34211D005F0A6F8037C87
:1047B0004B4505D2C368002B14BF2046002406E0F9
:1047C000684642463146FFF7A0FF009C019801462B
:1047D0001AE02FD93369A34213D0204605F07AF8A6
:1047E000037C4B4505D9E368002B14BF0446002029
:1047F00008E0684642463146FFF787FF9DE8110012
:1048000000E0002021460446A1B144B98F4206D001
:10481000087C2B7C83422CBF0020012000E001207B
:104820003B460A46294605F06AF873692846013373
:10483000736110E005F11400FBF71AFD2846FBF741
:1048400032FC204607E0314642466846FFF75DFFEE
:10485000009C0199D8E703B0BDE8F0837FB5041D43
:104860000A46214683684BB115781E7CAE423ABF9A
:10487000DD680B469D6819462B46F4E78C4203D051
:1048800014780B7C9C4208D204AB43F8042D02AA96
:104890000092044AFFF761FF014601F1140004B0E1
:1048A00070BD00BFBEEC08082DE9F74304461D4665
:1048B0008946904600211022083006F010FD0123A1
:1048C000257002AD04F1080205F8013D261D002700
:1048D000226162612946A7613046FFF7BFFF154993
:1048E000FFF7C8FE294630468DF80770FFF7B6FF80
:1048F0001149FFF7BFFE0223294630468DF80730E5
:10490000FFF7ACFF0D49FFF7B5FE032329463046FC
:104910008DF80730FFF7A2FF0949FFF7ABFE2046ED
:10492000084BC3F80090084BC3F8008003B0BDE803
:10493000F08300BF7D450808B1450808E145080837
:10494000154608085C0800205808002070B5104D76
:1049500000F02AFD0F4C104E284601F097FD284626
:104960000E4D2246314604F053FF284601F08EFDDD
:1049700028460B4D2246314604F04AFF284603F0F4
:10498000FFF922462846BDE87040064904F040BFC2
:104990003C08002044010020ED38080820080020D1
:1049A000600800204146080808B500F0FDFCBDE89D
:1049B000084000F0A1BD0000004870475F42A2CD52
:1049C0000175704730B5064D83600560002505759B
:1049D00041F28835039B85614160C360026130BD4F
:1049E00074ED0808F0B54F6885B0002604AC0546A4
:1049F000384644F8046D07F0FDF90A4B009681B281
:104A00005B682246384600F0DFFE20B1314628467A
:104A100003F0AEFE03E02146284603F0A1FE28463F
:104A200005B0F0BD840D002030B587B001460446C6
:104A300002A81D46FFF7D6FF02A803F09FFE80B92B
:104A4000237D23B103F036FF214901F09EFEF323BD
:104A5000009337223D23A92104A803F09FFE059B64
:104A60000393002240F2BD211A4803F0B9F9002255
:104A700042F23431174803F095F8174B42F23432C2
:104A80000493039B04A91348059303F0C3F968B189
:104A900065B1284607F0AEF9294602460D4803F0F5
:104AA000DCF818B10B4803F02BF858B9237D23B17B
:104AB00003F000FF094901F068FE064803F09AF888
:104AC000002003E0034803F095F8012007B030BD53
:104AD000BFEC08089C0800202CF008084BED0808E3
:104AE00010B5064C00F060FC204603F049F9204662
:104AF000BDE81040024A034904F08ABE9C08002029
:104B00004401002041460808004870475F42A2CD9A
:104B10000174704710B5044C8360029B046000244C
:104B200004744160C36010BD88ED080870B5064686
:104B300000200C4600F0D8FE08B9002070BD002C03
:104B400003DD00F0D9FC054600E0002573783BB991
:104B5000002C07DD00F0D0FC401BA04202D3ECE7A4
:104B6000012070BD00F04EFFF0E730B585B01A4669
:104B7000089B02A81B788DF800303C2303F044FC0E
:104B8000029C00212046FFF7D1FF6378BFF35F8FBF
:104B900033B100212046FFF7C9FF2378012B13D042
:104BA0000025039C94B16368013B636073B923687B
:104BB00020469B689847A368013BA36033B92368EC
:104BC0002046DB68984701E0257BEAE7284605B0E8
:104BD00030BD00F0E9BB704770B5064614460D467F
:104BE00004F0CAFD317804F0CEF804F0C5FD036886
:104BF00029469B68984704F0BFFD036821469B68DF
:104C0000984704F0B9FDBDE8704004F0C7B838B566
:104C100004460D4604F0B0FD217804F0B4F804F029
:104C2000ABFD036829469B68984704F0A5FD04F096
:104C3000B5F804F0A1FD2178012204F0A1F804F0F8
:104C40009BFD03685B699847044604F095FD04F0FA
:104C5000A5F8E0B238BD38B504460D4604F08CFD29
:104C6000217804F090F804F087FD036829469B68DA
:104C7000984704F081FD04F091F804F07DFD21785F
:104C8000022204F07DF804F077FD03685B69984721
:104C9000054604F071FD03685B699847044604F01B
:104CA0006BFD04F07BF844EA052080B238BD08B5FE
:104CB000FFF7D1FF40BA80B208BD38B5882104465D
:104CC000FFF7F5FF8A21A0812046FFF7F0FF8C2136
:104CD000E0812046FFF7EBFF8E2120822046FFF780
:104CE000E6FF902160822046FFF7E1FF9221A0823B
:104CF0002046FFF7DCFF9421E0822046FFF7D7FF34
:104D0000962120832046FFF7D2FF9821608320461A
:104D1000FFF7CDFF9A21A0832046FFF7C8FF9C2113
:104D2000E0832046FFF7C3FF9E2120842046FFF743
:104D3000BEFFA12160842046FFF769FFE12184F8CE
:104D400024002046FFF7B3FFE321E0842046FFF76D
:104D50005EFFE42184F828002046FFF758FFE52194
:104D600005462046FFF753FF00F00F0040EA05100C
:104D70006085E6212046FFF74AFFE52105462046EB
:104D8000FFF745FF001140EA0510A085E721204606
:104D9000FFF73DFF84F82E0038BD10B504460170C2
:104DA00004F0EAFC03F0B8FFD0212046FFF72FFF04
:104DB00060280ED12046FFF780FF20460322F22113
:104DC000FFF70AFF20463F22F421FFF705FF0120ED
:104DD00010BD002010BD000038B5FA210446FFF7D1
:104DE0003AFFFC2105022046FFF711FFA289284364
:104DF000C2EB20235B435200C2EBE012B4F90E0079
:104E00001B135043B4F9102053439B1303EBE020D2
:104E1000A06000EB80008030001205F0C3FC024966
:104E200005F0C8FD38BD00BF0000C8422DE9F84FAD
:104E3000F7210646FFF70FFFF92107463046FFF737
:104E4000E6FEB468B6F91420E517B4F5FA3445F176
:104E5000FF35A4FB048904FB05F302FB05F109EB14
:104E60004309D31704FB0311A2FB04230B441903CA
:104E700041EA125186461003B6F9162002FB09FCDE
:104E8000D31708FB03CCA2FB082363444FEA122A82
:104E90004AEA036A1AEB000A728A4FEA232B4BEBA9
:104EA000010B1AF100004BF50041A0FB02AB02FB25
:104EB00001BB4FEA6B024FEAEB7352EA030100F0C9
:104EC0008280B6F91CA04EEA07270AFB09F14FEAD7
:104ED000EA7B08FB0B11AAFB0889B6F91AA08944E2
:104EE0000AFB05F14FEAEA7B04FB0B11AAFB044520
:104EF0000D444FEA454B4FEA444A3F111AEB080A6A
:104F0000C7F580174BEAD43B4BEB090B4FEAE77927
:104F10004FEAC97545EA5705FC0740F63547B6F92B
:104F200018004FF0000818EB0A084FEAC00949EBD7
:104F30000B09B4EB0804A4FB070165EB090507FBAB
:104F4000051105F085FEB6F922204C1302FB04F78B
:104F5000450B45EAC145D31705FB0377A2FB0523A3
:104F600054433B4405FB0344A2FB05232344540E56
:104F700044EAC314B6F9202024184FEA63654D4172
:104F80005143D31700FB0313A2FB00011944C20CC9
:104F900042EA41321219B6F91E404FEAE1436B4131
:104FA000100AE517220140EA036019122B0143EAB7
:104FB00014738018594105F00BFC4FF06E5105F049
:104FC00045FCBDE8F88F0020BDE8F88F10B5044619
:104FD000FD21FFF740FEB4F92A30A268B4F92C1085
:104FE0001B05A2F59632C3EB803002FB110000F5E1
:104FF0008043D81394F8283094F92E1053434A4331
:10500000DB12921203F500435343B4F926209B129E
:1050100003F50013534303F500539B134343D81385
:10502000404394F82420C0115043A3EB201020EA01
:10503000E070B0F1C85FA8BF4FF0C850001305F092
:10504000B1FB4FF06A5105F001FC10BD00F0ACB9A6
:1050500010B50121064804F073FA40B1012104485B
:1050600004F079FABDE81040024B1B68184710BDE8
:1050700000040040D808002010B50121064804F0C3
:105080005FFA40B10121044804F065FABDE8104020
:10509000024B5B68184710BD00080040D80800208C
:1050A00010B50121064804F04BFA40B10121044833
:1050B00004F051FABDE81040024B9B68184710BD40
:1050C000000C0040D808002010B50121064804F06B
:1050D00037FA40B10121044804F03DFABDE8104020
:1050E000024BDB68184710BD00100040D8080020B4
:1050F00010B50121064804F023FA40B1012104480B
:1051000004F029FABDE81040024B1B69184710BD96
:1051100000140040D8080020F0B5437A85B0054659
:105120000F461646042B30D8DFE803F0030C151E9B
:1051300027000121022004F0DFF81D238DF8003044
:10514000294C22E00121042004F0D6F81E238DF81A
:105150000030264C19E00121082004F0CDF832235C
:105160008DF80030224C10E00121102004F0C4F82A
:1051700036238DF800301F4C07E00121202004F079
:10518000BBF81D4C37238DF800301EB1012E01D124
:10519000AE8800E06E886A7AE968184B012543F80A
:1051A000221068460A238DF801308DF802508DF8E0
:1051B000035004F069F8002301A92046ADF8063039
:1051C000ADF80C308DF80E30ADF80460029704F0A5
:1051D0006DF92A462946204604F0CAF92946204698
:1051E00004F0A2F905B0F0BD000400400008004042
:1051F000000C00400010004000140040D8080020BF
:10520000042BF8B506460F4696461C460E4D11D99E
:1052100000242A5DE3B24AB97372304672463946B9
:10522000FFF77AFF084B01201855F8BD0134052C13
:10523000EFD107E0EB5C2BB94472FFF76DFF012063
:105240002855F8BD0020F8BDEC08002073B5437A5E
:105250000646042B1CD8DFE803F003080D121700E4
:105260001D238DF80430134C12E01E238DF80430FA
:10527000114C0DE032238DF80430104C08E0362339
:105280008DF804300E4C03E037230E4C8DF80430BB
:105290000021204604F048F9002501A88DF80750A8
:1052A00003F0F2FF204604F04BF8737A064AD55417
:1052B00002B070BD0004004000080040000C004037
:1052C0000010004000140040EC0800202DE9F041DF
:1052D0001F46037A0446884616469DF818501BB1AF
:1052E000FFF7B4FF00232372042DC4F80C8010D8FC
:1052F0002B463A4631462046FFF782FF20B1012374
:1053000003E00135052D06D100232372207ABDE884
:10531000F081084B0025E95CEAB20029F1D1627204
:1053200031463A462046FFF7F7FE024A012353551D
:10533000EBE700BFEC080020037A10B504460BB180
:10534000FFF784FF0023237210BD000010B5447ADC
:10535000042C0DD8DFE804F0030507090B000C4B03
:1053600006E00C4B04E00C4B02E00C4B00E00C4B55
:105370001AB1012A01D1828800E04288D96292B232
:1053800001211A8599821846BDE8104004F0E3B85F
:105390000004004000080040000C004000100040E5
:1053A0000014004000F000B808B5024B1B681B68F1
:1053B000019308BDB001040808B5024B1B685B6887
:1053C000019308BDB001040808B5024B1B689B6837
:1053D000019308BDB001040808B5024B1B68DB68E7
:1053E000019308BDB001040808B5024B1B681B6996
:1053F000019308BDB001040808B5024B1B689B6906
:10540000019308BDB001040808B5024B1B68DB69B5
:10541000019308BDB001040808B5024B1B681B6B63
:10542000019308BDB001040808B5024B1B681B6C52
:10543000019308BDB001040808B5024B1B681B6846
:10544000019308BDB401040808B5024B1B685B69F1
:10545000019308BDB401040808B5024B1B68DB6961
:10546000019308BDB401040808B5024B1B681B6A10
:10547000019308BDB401040808B5024B1B685B6AC0
:10548000019308BDB401040808B5024B1B689B6A70
:10549000019308BDB401040808B5024B1B689B6B5F
:1054A000019308BDB401040808B5024B1B68DB6B0F
:1054B000019308BDB401040808B5024B1B685B6882
:1054C000019308BD9C01040808B5024B1B689B684A
:1054D000019308BD9C01040808B5024B1B68DB68FA
:1054E000019308BD9C01040808B5024B1B681B69A9
:1054F000019308BD9C01040808B5024B1B685B6959
:10550000019308BD9C01040808B5024B1B68DB69C8
:10551000019308BD9C01040808B5024B1B689B6DF4
:10552000019308BD9C01040808B5024B1B689B6EE3
:10553000019308BDB801040808B5024B1B685B68FD
:10554000019308BDD001040808B5024B1B685B69D4
:10555000019308BDD001040808B5024B1B685B6CC1
:10556000019308BDD001040808B5024B1B689B6C71
:10557000019308BDD001040808B5024B1B68DB6C21
:10558000019308BDD001040808B5024B1B685B6D90
:10559000019308BDD001040808B5024B1B68DB6EFF
:1055A000019308BDD001040808B5024B1B689B6934
:1055B000019308BDC401040808B5024B1B681B6AAF
:1055C000019308BDC401040808B5024B1B685B6A5F
:1055D000019308BDC401040808B5024B1B689B6A0F
:1055E000019308BDC401040808B5024B1B68DB6ABF
:1055F000019308BDC401040808B5024B1B681B6B6E
:10560000019308BDC401040808B5024B1B685B6B1D
:10561000019308BDC401040808B5024B1B689B6BCD
:10562000019308BDC401040808B5024B1B681B6C3C
:10563000019308BDC401040808B5024B1B68DB6C6C
:10564000019308BDC401040808B5024B1B68DB6860
:10565000019308BDAC01040808B5024B1B689B69A7
:10566000019308BDAC01040808B5024B1B68DB6957
:10567000019308BDAC01040808B5024B1B681B6A06
:10568000019308BDAC01040808B5024B1B685B6AB6
:10569000019308BDAC01040808B5024B1B689B6A66
:1056A000019308BDAC01040808B5024B1B68DB6A16
:1056B000019308BDAC01040808B5024B1B681B6BC5
:1056C000019308BDAC01040808B5024B1B685B6B75
:1056D000019308BDAC01040808B5024B1B681B6CA4
:1056E000019308BDAC01040808B5024B1B689B6C14
:1056F000019308BDAC01040808B5024B1B68DB6CC4
:10570000019308BDAC01040808B5024B1B681B6D72
:10571000019308BDAC01040808B5024B1B681B6867
:10572000019308BD2400060808B5024B1B685B689E
:10573000019308BD2400060808B5024B1B689B684E
:10574000019308BD2400060808B5024B1B68DB68FE
:10575000019308BD2400060808B5024B1B681B69AD
:10576000019308BD2400060808B5024B1B685B695D
:10577000019308BD2400060808B5024B1B68DB69CD
:10578000019308BD2400060808B5024B1B681B6A7C
:10579000019308BD2400060808B5024B1B681B6B6B
:1057A000019308BD2400060808B5024B1B685B6C1A
:1057B000019308BD2400060808B5024B1B689B6BCB
:1057C000019308BD2000060808B5024B1B68DB6B7F
:1057D000019308BD2000060808B5024B1B681B6832
:1057E000019308BD1C00060808B5024B1B685B68E6
:1057F000019308BD1C00060808B5024B1B689B6896
:10580000019308BD1C00060808B5024B1B681B6904
:10581000019308BD1C00060808B5024B1B685B69B4
:10582000019308BD1C00060808B5024B1B689B6964
:10583000019308BD1C00060808B5024B1B68DB6914
:10584000019308BD1C00060808B5024B1B681B6AC3
:10585000019308BD1C00060808B5024B1B685B6B72
:10586000019308BDA001020808B5024B1B681B6D1F
:10587000019308BDA001020808B5024B1B685B6DCF
:10588000019308BDA001020808B5024B1B68DB6E3E
:10589000019308BDA001020808B5024B1B681B6FED
:1058A000019308BDA001020808B5024B1B681B68E4
:1058B000019308BDA401040808B5024B1B685B688E
:1058C000019308BDA401040808B5024B1B685B697D
:1058D000019308BDA401040808B5024B1B689B692D
:1058E000019308BDA401040808B5024B1B68DB6CDA
:1058F000019308BDA401040808B5024B1B685B6D49
:10590000019308BDA401040808B5024B1B689B6DF8
:10591000019308BDA401040808B5034B1B68D3F824
:105920009030019308BD0000A401040808B5034BA2
:105930001B68D3F89C30019308BD0000A401040843
:1059400008B5034B1B68D3F8B030019308BD0000C5
:10595000A401040808B5024B1B685B68019308BDED
:10596000C801040808B5024B1B689B68019308BD79
:10597000C801040808B5024B1B68DB68019308BD29
:10598000C801040808B5024B1B681B69019308BDD8
:10599000C801040808B5024B1B685B69019308BD88
:1059A000C801040808B5024B1B689B69019308BD38
:1059B000C801040808B5024B1B68DB69019308BDE8
:1059C000C801040808B5024B1B681B6A019308BD97
:1059D000C801040808B5024B1B681B6B019308BD86
:1059E000C801040808B5024B1B685B6B019308BD36
:1059F000C801040808B5024B1B685B68019308BD29
:105A0000CC01040808B5024B1B689B68019308BDD4
:105A1000CC01040808B5024B1B685B69019308BD03
:105A2000CC01040808B5024B1B68DB69019308BD73
:105A3000CC01040808B5024B1B681B6A019308BD22
:105A4000CC01040808B5024B1B681B6B019308BD11
:105A5000CC01040808B5024B1B68DB6B019308BD41
:105A6000CC01040808B5024B1B681B68019308BDF4
:105A7000A001040808B5024B1B685B68019308BDD0
:105A8000A001040808B5024B1B689B68019308BD80
:105A9000A001040808B5024B1B68DB68019308BD30
:105AA000A001040808B5024B1B681B69019308BDDF
:105AB000A001040808B5024B1B689B69019308BD4F
:105AC000A001040808B5024B1B68DB69019308BDFF
:105AD000A001040808B5024B1B681B6A019308BDAE
