:020000040808EA
:1000000000000808F4E40808000006000A000501E2
:080010000402E80500000000F5
:040018005CCC0808AC
:1000200009480A4908B5884205D0094A824202D0E7
:10003000121A09F04EFF0748074A0021121A09F068
:1000400053FF064808BD00BF000000208CE30808ED
:100050004001002040010020B8100020B81000200E
:1000600070B507F015F8074B074C1E46E41AA408B4
:100070000025A54204D056F8253098470135F8E709
:1000800070BD00BFDCE2080880E3080801F02AB96F
:1000900008B500F085FCBDE8084006F0BBBF05F0E0
:1000A00033BC05F031BC05F037BC05F035BC007839
:1000B000B0FA80F04009704701230370704703686D
:1000C0001847012A02D0022A02D004E0016002E0AF
:1000D0000B6800B1036000207047704710B5012322
:1000E0000374836804460BB1C06806E0006828B159
:1000F00083680BB908F086FAC368984701236374D4
:100100000020BDE8104005F0B3B910B504462C211D
:1001100008F0ACF9204610BD083002F01DB900000F
:100120007FB5024613790846956833B13DB90C494D
:1001300004B0BDE8704006F053BA0A4B00E00A4B29
:10014000167B0A4C0A49527B012E08BF21460292B7
:1001500001910095074A002106F082FA04B070BDB3
:10016000A5CC080853D8080894CC08089DCC0808EA
:10017000A1CC0808BBCC080805F089BE10B5044620
:10018000806808B105F05CF9204610BD10B5044642
:10019000006808B105F0C0FB204610BD07B502ABF2
:1001A00003F8011D01221946083002F0D5F803B00A
:1001B0005DF804FB00221146406805F02DBB10B528
:1001C0008368044613B1032201469847204610BDB8
:1001D00008B505F0F5F8014B186008BDB00E002019
:1001E00070B51D4686B000230446049322B1274B08
:1001F00002920593264B04930023E360049B216045
:100200003BB1022202A9201D9847059B2361049B54
:10021000E3602049142008F02DF930B10023037465
:10022000036043608360C36043746061A0B11A4B94
:100230000922836063691949DC606069184B8DE8A5
:100240002100043005F0E4F830B963691B7CA3B9E0
:10025000012005F0A5F8F8E765690023636165B141
:100260002E6836B13046FFF7AAFF1021304608F05D
:10027000FDF81421284608F0F9F8FFF7A9FF02A8B5
:10028000FFF79DFF204606B070BD00BFBF00080805
:10029000C30008089CDC08082D830808D9CC08088E
:1002A000DD00080800B58BB000230A46014601A80E
:1002B0008DF804308DF8053001F0FFFF0BB05DF8CC
:1002C00004FB000013460A460149096801F0F5BF26
:1002D0004007002030B51D4B85B00093137900F521
:1002E0008C658DF80430936804460293137B8DF877
:1002F0000C30537B0A468DF80D3000F26C416B4692
:10030000284602F06FFBF0B1256004F23C45284618
:1003100001F0CCFF0121204602F00DFA014668B140
:100320002146284601F0EDFD68B194F83C3413F005
:10033000700316BF064B18461D6005E0204602F00C
:10034000FAF90028ECD1002005B030BD78CC0808BF
:100350004007002010B5084C0121208807F079FFE4
:10036000142006F0D9FA2088002107F072FFBDE8BA
:100370001040052006F0D0BA2800002038B50A4DFC
:1003800002240121288807F064FF4FF4FA6006F088
:10039000C3FA0021288807F05CFF4FF4FA6006F0EA
:1003A000BBFA013CEDD138BD2800002070B5104EDD
:1003B0000A240121308807F04CFF962006F0ACFAA1
:1003C0000021308807F045FF962006F0A5FA013C91
:1003D000074DEED10121288807F03BFF40F226208F
:1003E00006F09AFA21462888BDE8704007F031BF30
:1003F0002800002038B5114C0121208807F029FF82
:100400004FF4FA7006F088FA0021208807F021FFE7
:100410004FF47A7006F080FA04250121208807F055
:1004200018FF322006F078FA0021208807F011FF2B
:10043000322006F071FA013DEFD138BD28000020CE
:1004400037B51D49054609F0DDF930B31B4928468B
:1004500009F0D8F91A490028284614BF4FF49674B9
:100460004FF4167409F0CEF916490028284618BF33
:10047000782409F0C7F914490028284618BF5A24DF
:1004800009F0C0F911490028284618BF3C2409F09A
:10049000B9F9002818BF1E240BE0FFF76FFF0C4BC3
:1004A0000C4C1A680C4B62431B680121684605F02E
:1004B000F1FC204603B030BD000048410000C841B7
:1004C0000000484200008242000096420000A04224
:1004D0002C00002080970600EC060020F8B58B0069
:1004E0000A3323F0070300AFADEB030D6B464A1E42
:1004F0000024E5B2A94204F1010401DC002410E06B
:1005000050F8256043F82560F3E7066850F804EFDB
:100510000135764502DD40F804EC06606545F4DB04
:100520000134944204DA18460025C4EB020CF5E7C6
:1005300011F0010F4FF0020401BF91FBF4F103EB46
:10054000810253F8210052F8043C13BF92FBF4F2ED
:10055000C01890FBF4F053F82200BD46F8BD00002F
:10056000F0B5434DD1B00024288807F08BFE4DF83C
:1005700024000134322006F0CFF9282CF4D10021D8
:100580005DF8213028A840F8213001312829F7D121
:10059000FFF7A4FF08F026FF364908F077FF364939
:1005A00009F028F808F0DEFA29A3D3E9002304466D
:1005B0000D4608F02BFB22462B4608F027FB22466F
:1005C0002B4608F023FB24A3D3E9002306460F465D
:1005D0002046294608F01AFB22462B4608F016FB57
:1005E00002460B463046394608F05EF91CA3D3E9B3
:1005F000002306460F462046294608F007FB024620
:100600000B463046394608F04FF91C4B0446186833
:100610000D4608F0A7FA0022194B08F043F912A37F
:10062000D3E9002308F0F2FA0022164B08F03CF957
:1006300008F0CEFD08F096FA02460B462046294601
:1006400008F00EFC08F0C4FD51B0F0BDAFF300801F
:10065000F6285C8FC2D53240A69BC420B0D2384069
:10066000643BDF4F8D818340DBF97E6ABC74933F2E
:10067000100000203333534000F07F452400002059
:10068000000039400000F03F30B5114DD1B00024DA
:10069000288807F0F7FD4DF824000134322006F0D9
:1006A0003BF9282CF4D100215DF8213028A840F82E
:1006B000213001312829F7D1FFF710FF08F092FE11
:1006C000044908F0E3FE044908F094FF51B030BD3E
:1006D000100000203333534000F07F4570B50646CC
:1006E00004F06EFE4FF47A73B0FBF3F51C4604F091
:1006F00067FEB0FBF4F0401BB04204D2FFF768FD88
:1007000005F0CAF8F3E770BD10B5054C0549204661
:1007100005F06DFF2046BDE8104005F06CBF00BF3E
:10072000F0060020E0CC0808F0B5534A8DB0534BDA
:100730000A92012208938DF82C20002308AA0C218C
:100740004F488DF824308DF82D30FFF7C3FD08B9E0
:100750004C4900E04C494D4809F00EFC4C4805F06E
:10076000D7FF06F0A7F84B4E80B34B4908A805F019
:100770007AFE08A9304605F0C0FE08A805F02CFE58
:1007800000240A270921434805F006FF642394FB4F
:10079000F3F3303303700A213E4805F0FDFE94FB6D
:1007A000F7F505F1300303700B213A4805F0F4FE2C
:1007B00007FB15453035057031683848FFF772FD85
:1007C00068B30134B4F57A7FDCD128E03449684657
:1007D00005F088FE3349684605F0BAFE044606F087
:1007E0008AF8314B0246314904A806F031F804A9D1
:1007F000204605F0A1FE2E4905F0AAFE014608A8F4
:1008000005F070FE08A9304605F077FE08A805F04F
:10081000E3FD04A805F0E0FD684605F0DDFD07F006
:1008200023F81C4C0546214608A805F05BFE21492B
:1008300008A805F08DFE0168284605F0E8FE08A826
:1008400005F0CAFD07F010F8104905F0E0FE316828
:100850001248FFF727FD28B1092221681648FFF743
:1008600031FD07E040F6012221681348FFF72AFD19
:10087000FFF74AFF0DB0F0BD80C3C90178CC08086E
:100880006001002018CD08081CCD08083A07002098
:100890000000C0C0E405002021CD08089C05002010
:1008A000CC06002032CD080834CD080844090020C9
:1008B0002DCD08083ACD0808F806002030B585B0DF
:1008C000054606F018F80E4B0E4C02461B686846AB
:1008D0000D4905F0BDFF0099204605F081FE6846F0
:1008E00005F07AFD4FF4FA7006F016F82946204616
:1008F00005F076FE204605F07EFE05B030BD00BF57
:100900004C000020F00600204409002038B504689F
:1009100005467CB16368013B63605BB92368204690
:100920009B689847A368013BA3601BB923682046D6
:10093000DB689847284638BD1FB5124801F080FC97
:1009400060B9114B02A81B78104A8DF8003010498D
:100950003C2306F037FD03A8FFF7D8FF094801F054
:100960006FFC084801F0A2FC0A4A0B490B4804F04E
:10097000E3FF06F079FF094905F049FE05B05DF88F
:1009800004FB00BFF8060020DC06002044CD080868
:1009900050CD08083A07002054CD08081C07002055
:1009A0002DE9F04FF1B0002118A806F07BFA18A845
:1009B00006F0B8FA044618A806F0CAFA21461090C4
:1009C000FFF73EFDB44BDFF8E4A21860B34B4FF0E5
:1009D0000209188807F056FC08F004FD00210646BD
:1009E000182007F036FCC82005F096FFAC4804F04C
:1009F0005FF9CAF80000AA4804F054FADFF8C4828C
:100A0000A84FC8F80000A64804F07CF9A64908F0F1
:100A1000F1FD3860C82005F07FFFB9F10109A34D51
:100A2000E4D1D7F800904946484608F0F5FE002882
:100A300040F060824FF07E51484608F0C5FE002825
:100A400040F05882DFF8C4A24FF00209984804F041
:100A50002FF9CAF80000964804F054F9924908F0BA
:100A6000C9FDDFF85482C8F80000C82005F054FF23
:100A7000B9F10109EAD13968084608F0CDFE00282D
:100A800040F03E824FF07E51D8F8000008F09CFE06
:100A9000002840F03582286808F064F878A3D3E98C
:100AA000002307F0FFFE08F093FBDFF86082286068
:100AB000D8F8000008F056F873A3D3E9002307F034
:100AC000F1FE08F085FBC8F80000FFF749FD794901
:100AD00008F0DCFC8146FFF7D7FD002182460320A9
:100AE00007F0B7FB0021192007F0B3FBDFF8B4B122
:100AF000714BDBF80010186808F0BEFB08F032F804
:100B000063A3D3E9002308F081F808F061FB0746EE
:100B100032466A496A4803F049F96A4B6A491A68D9
:100B2000674803F043F92A686849654803F03EF9CD
:100B3000DBF800206649624803F038F9D8F8002055
:100B400064495F4803F032F95B4B63491A685C48BB
:100B500003F02CF93A466149594803F027F9224637
:100B60005F49574803F022F9109A5E49544803F050
:100B70001DF94A465C49524803F018F952465B4950
:100B80004F4803F013F9484607F0ECFFCDE9120196
:100B9000504607F0E7FF824630468B4607F0E2FFFB
:100BA000CDE91401384607F0DDFF064610980F46E0
:100BB00007F0D8FFCDE91001204607F0D3FF034628
:100BC0000C46CDE90A67CDE90E34DDE91034CDE9F4
:100BD00006ABCDE90C34DDE91434CDE90834DDE9A8
:100BE0001234CDE90434CDE91601D8F8000007F03D
:100BF000B9FFCDE90201286807F0B4FF3C4ACDE90E
:100C000000014FF4807130A804F0AEFE30A8FFF769
:100C100055FEC82005F080FEFFF78EFEC82005F0C7
:100C20007BFE4FF41641334800F07AFD18B106F010
:100C30001BFE314902E006F017FE304905F0E7FCE3
:100C40002C4800F011FD044618B906F00DFE2C49A1
:100C500002E006F009FE214605F0C2FC06F004FEA3
:100C6000284905F0D4FC4FF47A7005F055FE214870
:100C700000F076FD00284BD106F0F6FD22494AE04F
:100C80009A9999999999E93F333333333333E33F51
:100C9000C4CE143AAFB1D93F1C000020140000208C
:100CA000F8050020000000200000C84220000020BD
:100CB000280600200000A03F0400002068CD08089E
:100CC000E00600200C0000206DCD080878CD080853
:100CD00083CD080890CD08089BCD0808A3CD08084F
:100CE000ACCD0808B2CD0808B6CD0808BECD0808BE
:100CF000C6CD08085806002007CE080815CE0808FB
:100D000026CE08083CCE08084ECE08082400002055
:100D100006F0AAFD9A4905F07AFC05F0CBFDA8B3D0
:100D2000984926A805F09FFB26A9974805F0E5FB02
:100D300026A805F051FBDFF8508200240A2509217E
:100D4000914805F029FC642394FBF3F330330370DE
:100D50000A218D4805F020FC94FBF5F909F13003D8
:100D600003700B21884805F017FC05FB194909F1B0
:100D7000300980F80090D8F800108448FFF792FA04
:100D800068B30134B4F57A7FD9D128E080491AA834
:100D900005F0A8FB7F491AA805F0DAFB044605F028
:100DA000AAFD7D4B02467D491EA805F051FD1EA9F6
:100DB000204605F0C1FB7A4905F0CAFB014626A88A
:100DC00005F090FB26A9704805F097FB26A805F0D2
:100DD00003FB1EA805F000FB1AA805F0FDFA6A4CFB
:100DE00044F2022221686F48FFF76CFA6E4800F067
:100DF000BCFC85B206F038FD0A22294605F011FC3C
:100E000006F032FD694905F0EBFB06F02DFD216887
:100E100005F0FDFB04F0D4FA01210446082007F098
:100E200007FA4FF00009EDB1A846402DA8BF4FF0DA
:100E300040085FFA88F15C4800F0B3FC09F1010951
:100E4000014642465A485FFA89F9FFF765F9B9F158
:100E50003F0F03D9FFF77EFA4FF00009C8EB0505F5
:100E6000ADB2E0E74F4801F021FA04F0A9FA041B03
:100E700006F0FAFC002C054603DA2D2105F0B4FB40
:100E800064420A222146284605F0CBFB06F0ECFC22
:100E9000484905F0BCFB484800231A4619464068FB
:100EA00004F0A2FC4FF4FA7005F036FD434B4FF00E
:100EB0000009186807F044FE0022414B07F0A6FE27
:100EC00008F066F90446002004F092FA80460025F6
:100ED000002004F08DFAB0EB080261EB0903AB428D
:100EE00008BFA24212D23448FFF764F970B904F087
:100EF000D3FCEDE7334BC8F800302B603B60A1E535
:100F0000304B314AC8F800301360C4E52A48FFF777
:100F100051F980B9FFF74AFA4FF4FA7005F0FCFC7A
:100F2000FFF744FA06F0A0FC284905F070FB4FF4E7
:100F3000FA7005F0F1FC214B4FF00009186807F03A
:100F4000FFFD0022224B07F061FE08F021F9044664
:100F5000002004F04DFA80460025002004F048FAF5
:100F6000B0EB080261EB0903AB4208BFA24231D2E9
:100F70001148FFF71FF968BB04F08EFCEDE700BFD6
:100F80005ECE08086DCE0808E40500209C05002010
:100F9000CC06002032CD08087ECE08084409002087
:100FA00079CE0808F8060020580600208DCE0808E3
:100FB000F00600209BCE0808580D002008000020F5
:100FC0000000F83F3333C6C224000020A7CE080833
:100FD0000000E03F9248FFF7EDF828BB914CFFF787
:100FE000E5F94FF4FA7005F097FCFFF7DFF9226896
:100FF0008D498E4804F0A0FC06F036FC8C4905F0C3
:10100000EFFA06F031FC894905F001FB4FF4FA7064
:1010100005F082FC874B21681A68874B4A431B689E
:10102000012126A804F036FF844C06F01DFC8449FB
:1010300005F0EDFA04F038FCFFF7CAF82378814A8E
:1010400081498DF8003026A83C2306F0BBF927A87B
:10105000FFF75CFC06F008FC7A4905F0D8FA704905
:1010600026A806F039FD299808F0BCF97749024610
:10107000774802F09BFE289808F0B4F975490246BB
:10108000734802F093FE744A7148114602F097FECD
:101090000520FFF723FBFFF7ADF9CDE90A67DFF87D
:1010A000F0816E4DD8F8000007F05CFD6C4B00221B
:1010B000CDE90801CDE9042355A3D3E9002369490B
:1010C000CDE9022354A3D3E90023CDE906ABCDE952
:1010D00000235648644A04F02FFC2378534A8DF8C5
:1010E000003029683C231EA806F06CF91FA8FFF702
:1010F0000DFC4FF4FA7005F00FFCDDE91623CDE985
:101100000A67CDE90E23DDE91023CDE906ABCDE971
:101110000C23DDE91423CDE90823DDE91223CDE911
:101120000423D8F8000007F01DFDCDE902014F4B64
:101130004F4E186807F016FD4E4ACDE900014FF4F6
:10114000807130A804F010FC237830AA4A498DF849
:1011500000301EA83C2306F035F91FA8FFF7D6FB88
:101160004FF4FA7005F0D8FB06F07EFB434905F01A
:101170004EFA326842492D4804F0DEFB23782B4AB0
:101180008DF8003029683C231EA806F01BF91FA823
:10119000FFF7BCFB3068FFF7A1FA04F011F906462F
:1011A00004F00EF9801BB0F57A7F04D2FFF710F837
:1011B00004F072FBF4E71B4E324932681B4804F01E
:1011C000BBFB2A68304B31491EA804F0B5FB2378DD
:1011D0001EA9164A8DF800301AA83C2306F0F2F832
:1011E0001BA8FFF793FB0220FFF778FA114B316839
:1011F0001A68114B4A431B6801211AA804F04AFEE1
:1012000018A805F05EFE71B0BDE8F08FAFF3008066
:10121000333333333333E3BF9A9999999999E9BFBB
:10122000580D00201C000020D6CE08081C07002006
:1012300009CF08082C000020EC060020DC06002066
:1012400028CF080847CF080851CF08085ACF080808
:10125000E006002063CF08086DCF0808CC06002008
:101260000000F43F79CF08083A0700202000002052
:1012700018000020EACF080828D6080874D008080B
:1012800087D00808ABD00808C0D00808D1D008081B
:10129000240000201FB50E4905F06CF90D4B80B1FC
:1012A00078221A600C4B0D4A1B780D498DF80030DE
:1012B00002A83C2306F086F803A8FFF727FB0120CD
:1012C00003E005221A604FF0FF3005B05DF804FB23
:1012D000DBD0080818000020DC060020E0D0080859
:1012E000EDD0080810B588B006F0BEFA4FF41651DC
:1012F00006F0A0FA1820FEF7D2FE044628B14FF4FB
:10130000C063394A3949FEF76BFF394B01211C6034
:10131000384B188806F08CFF0121032006F088FF67
:101320000121032006F095FF0121182006F080FF1F
:101330000121182006F08DFF0121192006F078FF09
:101340000121192006F085FF4FF4FA7005F0E4FA48
:10135000002105A804F037FB0022114602920192F9
:101360000092012305A804F023FC41F2E82105A81E
:1013700004F094FB41F2700105A804F04CFC7721C5
:101380001D4803F076FC60B91C4B06A81B781C4A6C
:101390008DF800301B493C2306F014F807A8FFF72E
:1013A000B5FA7621184803F064FC60B9134B06A81F
:1013B0001B78134A8DF8003012493C2306F002F8DE
:1013C00007A8FFF7A3FAFFF7AFF9104A1049114831
:1013D00005F0E8FE06F048FA0F4905F018F905A8EF
:1013E00004F000FB08B010BD79010808C02709000F
:1013F000F405002028000020F8050020DC0600206D
:10140000F6D008080AD108082806002012D10808DA
:10141000951208087971080818D108083F4B70B573
:1014200000241C603E4B01251D7003F029FF3D493F
:101430003D4805F018F83D4E3D4A3E493A4807F010
:1014400007F83D4B6422316883F860243B4A83F8F7
:1014500074540D40DC7183F83C4483F83D4483F8B8
:101460006A44C3F8784483F87C4483F87D44C3F825
:1014700070241C460FD13046FEF719FE58B129469C
:101480002F4804F0FBFB3046FEF716FE284A2D4994
:101490002B4806F0DDFF2A4B2B48C4F86C3400249F
:1014A0002A4B234A2A49047244724460036006F0BE
:1014B000CFFF06F0C5FB0146264800F068F8264835
:1014C00003F0F5FA254803F0F2FA4FF6FF73244DC6
:1014D00002206B812C60AC80AC712C8104F038F957
:1014E000134A2049284606F0B3FF2146012004F0A4
:1014F00047F91D491D4804F0B6FF0D4A0D491B4828
:1015000006F0A6FF01221A491A4802F01FFCBDE8A6
:101510007040074A1849174806F09ABFEC060020A9
:10152000DC06002053D80808E40500204401002010
:1015300040010020D96308086001002078CC080829
:10154000480100207D010808F006002084CC08082E
:10155000DB00080858060020F805002028060020B7
:10156000540100208D0108086DCF0808CC0600202A
:1015700025D10808E0060020693D08080023C3665D
:101580000367A0F8683080F866300370704708B5CC
:10159000FFF7F4FF016708BD2DE9F0410646C06E74
:1015A00088461746541E5D1EB8B1036856219B68D5
:1015B0009847F06E317803683D449B689847F06E19
:1015C000414603689B689847A5421FD0F06E14F807
:1015D000011F03689B689847F6E7306F5621036840
:1015E0003D449B689847306F317803689B68984703
:1015F000306F414603689B689847AC4206D0306F15
:1016000014F8011F03689B689847F6E7BDE8F0816E
:10161000F8B505460E461746002480F86640BC42E1
:1016200095F866001FD0B0421DD0E86E00B9286F53
:1016300003681B699847002805DC0120013405F088
:101640006BF9E4B2EBE795F86640E86E631C85F849
:10165000663000B9286F03685B6998472B19C0B2E0
:1016600058700024DBE7F8BD13B5044602AA012335
:1016700002F8043D1121FFF78FFFC82264212046A4
:10168000FFF7C6FF28B194F86630002223445A7051
:10169000601C02B010BD4378762B0BD182780378A2
:1016A0009A4207D1C3788B4204D10079B0FA80F016
:1016B00040097047002070472DE9F04198469DF899
:1016C0001C3004460D4617469DF818601BB10A22CF
:1016D0006421FFF79DFF43463A4629462046FFF71F
:1016E0005BFFC82231462046FFF792FF864205D1B4
:1016F00029462046BDE8F041FFF7CDBF0020BDE8F8
:10170000F0811FB5002304AA02F8043D052101233E
:101710008DE80A002621FFF7CFFF05B05DF804FB36
:1017200010B50446C06E10B101F040FE02E0206F1B
:1017300006F080FA2046BDE81040FFF7E2BF1FB573
:1017400001238DF80C30019305238DF80D100093C3
:1017500003AA02233621FFF7AFFF05B05DF804FBB3
:101760000021A0F86810FFF7EABF1FB5012300228F
:101770008DF80C30019309238DF80D20009303AAF6
:10178000022334210446FFF797FF40B1E388207A13
:101790005BBA9BB240EA0320637A43EA002004B0BC
:1017A00010BD70B504460D4686B00D22002102A87A
:1017B00008F09AFB0C238DF80830B4F868300A263C
:1017C0001A128DF80D208DF80E30052200238DE8B9
:1017D0000C0032210D2302AA20468DF80A608DF8F4
:1017E00014608DF81250FFF767FF08B900200DE074
:1017F000691D3246C9B22046FFF70AFF0028F5D01E
:10180000B4F86810601C2944A4F8681006B070BDD4
:1018100003F036BD03F034BD03F032BD10B504460D
:10182000243000F079FE28B104F50C70BDE81040BA
:1018300000F072BE10BD411E00F10A0200204308F4
:1018400043EAC01011F8013F18448A4200F0FF003B
:10185000F5D170472DE9F0470378441C202B01D1C6
:101860002046F9E70546704F88602C1A2E4615F879
:10187000013B0BB32F2B01D1031917E05C2B02D1D5
:101880000020BDE8F087A3F12204E4B21D2C03D8A8
:1018900027FA04F4E407F3D403F0BF043C2CEFD0A0
:1018A000203B5E2BE1D9EBE72F2D05D11E4613F827
:1018B000015B202DF8D1F9E7166003199842C0EBBF
:1018C000030809D013F8012D2E2AF7D0202AF5D0CD
:1018D000B8F1FF0FD4DC01E04FF00008C1F804803C
:1018E00001F10C0301F11702202403F8014F934288
:1018F000FBD103461A1A13F8014B2E2CFAD0202CD8
:10190000F8D0B2FA82F408F1FF366409731C07D1EB
:1019100000274FF0070E3D46BA464FF0080909E090
:10192000835D2E2BF4D0013EF0E7835C202B04D1A5
:10193000002401324245F8DB4BE02E2B02D1B242AB
:10194000F6D103E0222B17D07C2B15D0A3F12A0C63
:10195000BCF1050F01D82D2B0ED1A3F13A0CBCF12F
:10196000050F09D9A3F15B0CBCF1020F04D9A3F157
:10197000210CBCF15D0F02D9B2420ED149E0B24256
:1019800047D0754521D8A3F1610CBCF1190F08D8D7
:10199000203BDBB249EA07070AE0754515D8002469
:1019A0005F23A3F1410CBCF1190F98BF49EA0A0A61
:1019B00005F1010C5FFA8CFC0D44BCF1060F6B7352
:1019C00001D881F80CC06546B3E7BEF10A0F17D104
:1019D00000244B7B202B3FF453AF3CB11AEA070F96
:1019E00018BF02270F700120BDE8F0870B7B012094
:1019F000087019447E234B7331238B73BDE8F08745
:101A0000B242E5DC32464FF00A0E08254FF01009CD
:101A10008EE7BEF10A0FDBD032464FF00A0E0825E2
:101A20004FF0100985E700BF010100312DE9F843AF
:101A300006460D4691F80C9002247E2701F10D0810
:101A40006968AA6863189BB21144914206D012F8E3
:101A5000010B03EB431343409BB2F6E7B9F1030FCD
:101A600028BF4FF0030909F10402D2B203F00F01BD
:101A7000A818013A0929D2B294BF303137319145C3
:101A800041734FEA1313F1D305EB09035F73002190
:101A9000304600F01EFB0121304600F0FDFA014601
:101AA00028B97078B0FA80F04009BDE8F88303786F
:101AB0004BB1C37A1B07EED40B22404608F0FAF96B
:101AC0000028E8D102E00120BDE8F8830134A4B287
:101AD000642CB5D1BDE8F8832DE9F04F9B460B7817
:101AE00089B013F0700F05900E46914601D1002089
:101AF000A0E1059B1B78002BF9D153680293137862
:101B00009B0700F08D81029B0D270C33B3FBF7F789
:101B10000137FFB24FF000080021304600F0D9FA3B
:101B200044464346454609F10D02CDF80C80CDF8F8
:101B3000108006927269012130460793C2F34F1A52
:101B400000F0AAFA079B20B97378002B00F0908070
:101B5000CDE70278E52A00D042B9002C08BFD04674
:101B6000BC423CBF0134E4B222B981E0BC4238BF80
:101B7000002403E0E52A01D10025DBE72E2AFBD073
:101B8000C17A0F2952D13DB95106D3D5437B02F01A
:101B90001F0503932B4607E0013BDBB29A42EBD1D2
:101BA000427B03999142E7D15A1E4FF00D0C0CFB7A
:101BB00002FC029A6245DFD94FF0000EBEF1040F1D
:101BC0005FFA8EF204D800EB4E02B2F801200CE06E
:101BD0000A2A95BF0EF1FF320EF1010200EB42021C
:101BE00000EB420294BFD28892880299614503D1EA
:101BF000002A18BF00259DE7FF2ABDD8D2B2A2F166
:101C000041011929D9F8081098BF203211F80C1099
:101C10000CF1010AA1F1410C98BFD2B2BCF1190F2D
:101C20009CBF2031C9B29142A6D1FBE00907A3D4E1
:101C30004DB1012B7FF45BAFFFF7FDFD039B8342AA
:101C40007FF455AF0FE00B220699079308F032F9A5
:101C5000079B00287FF46EAF99F80020D20702D5C9
:101C60000122049266E71BF4006F00F0D1803EE78A
:101C70001BF4007F3FF43BAF0BF00303013B012B50
:101C80003FF635AF002C08BFD046BC4202D3049BC0
:101C9000CBB91FE00021304600F0FEF910B973788F
:101CA0005BB124E70134E4B2EFE7B3681B79012BA1
:101CB000EDD81034E4B2A742E9D9304600F0D2F8AA
:101CC0000028F2D113E749463046FFF7AFFE00285F
:101CD0003FF40DAF4FEA4811304600F0FAF9002802
:101CE0003FF405AF7D1EEDB22C464FF0000A4FF0D9
:101CF0000F0841E00021304600F0CEF907460028E9
:101D00003FF4F5AEB268AC4292F8243043F00103E0
:101D100082F8243014BF224644F04002027080F85A
:101D20000B8080F80CA009F10D000392FFF783FDF2
:101D3000039A787387F81AA087F81BA002F01F0295
:101D40000D23013AD9F808E05A4300230299914241
:101D500015D91EF80210042B5FFA83FC03F1010071
:101D600013D807EB4303A3F801100D2802F1010279
:101D70000346EBD1013CE4B2002CBBD10EE014BF12
:101D80004FF0FF31002189B2E5E7BCF10A0F94BFA3
:101D900007EB430307EB40039980E6E773692146AD
:101DA0003046C3F34F1A00F077F9074600283FF496
:101DB0009EAE2022214608F097F84B4653F80D2F8F
:101DC0003A605A687A601A893A819B7ABB7299F8AC
:101DD000003003F018033B73184B1B682BB107F15D
:101DE0000E0107F11000984706E021233B742823D9
:101DF0007B740823BC73FB733B8A7B823B83FB8928
:101E0000FB82B26892F8243043F0010382F8243058
:101E100000955B4652463146059800F0A3F909E06B
:101E2000012777E60EF1010EBEF10D0F3FF482AEF1
:101E3000D446C3E609B0BDE8F08F00BF44070020D8
:101E400003F01EBA03F01CBA03F01ABA03F018BA72
:101E5000837800F1100243F0040383700169806805
:101E600000F010BC2DE9F0410378044603F0200394
:101E700003F0FF050BB100262EE04269184B9A4291
:101E8000F9D8FFF7E5FF06460028F4D02169A068DD
:101E900000F08DFB0746A06805223946243000F08B
:101EA00062FB80460028E6D029464FF4007208F015
:101EB0001BF80125A3681A79AA4209D94246E919F3
:101EC000186800F0CDFE0028D5D00135EDB2F1E75D
:101ED000636903EB422363613046BDE8F08100BFD4
:101EE000FFFD1F0010B5044680680A462430A16932
:101EF00000F039FB20B1A38803F00F0300EB43107F
:101F000010BD70B5047805460E4684B924222146DA
:101F100007F0EAFFAE60F379102B03D0202B06D137
:101F2000402300E0202301202B70A87070BD00200A
:101F300070BD2DE9F74F03780446894615464BB12D
:101F40008278D10706D50CE05A46216900F035FBAE
:101F500000283DDA63784FF0FF3043F002036370EE
:101F600097E01A0703D5E36962699B1A07E09A06AE
:101F700008D5A3681A896369C3EB42139BB29D42DB
:101F800028BF1D462E464FF0000804F1100B002E0E
:101F900035D02278636912F0200FC3F3080AA068D5
:101FA0004FEA532102D0036A19441DE090F80580DE
:101FB00001EA0808BAF1000F10D1B8F1000F0DD1F5
:101FC000002BC1D153064CBF036A236A236105E08D
:101FD00004D1237813F0700F11D1BBE72169A068F9
:101FE00000F0E5FA08EB0001A068BAF1000F35D166
:101FF000B6F5007F32D3C36A994202D12EE0A81B06
:1020000047E0B6F5806F1BD322784FEA562A970631
:1020100006D40279C8EB0202D2B2924528BF92469A
:1020200099424FEA4A2707D2A06853464A460068B9
:1020300000F0D4FD60B98DE75344994221D3F3E712
:102040004A46006800F082FD002883D04FF40077F4
:102050006369B9443B446361F61B98E7002224306E
:1020600000F081FA00283FF475AFCAF50077B74257
:1020700028BF374600EB0A013A46484607F029FFD9
:10208000E6E72430019100F047FA01990028CBD10E
:1020900060E703B0BDE8F08F37B543690446C3F38A
:1020A000431505B169B901220DF107012046FFF77B
:1020B00040FF40B2012801D0002008E063691F33CF
:1020C00000E02033A0686361303000EB451003B0BE
:1020D00030BD2DE9F0410E4601780446076900291C
:1020E00039D04569B5423AD00EB9066131E00B07E7
:1020F00003D5C3699E422ED807E0880605D5A3689C
:102100001B89B6EB431F26D823E0D4F808E06A1EEB
:102110009EF8063003F10900731EC240C3409A4284
:1021200000D84DB94A064CBFDEF82020226A226151
:102130001D4604F110080AE09B1AF9E7424621699E
:10214000A06800F03AFA002805F1FF3503DD002D04
:10215000F4D1666103E027610020BDE8F081012031
:10216000BDE8F081F8B50F4604461546002124224B
:102170001E4607F0B9FEB868A580A0603B6A05F06E
:102180000F0200F130015201E3601144CB7A1D07C8
:102190004CD4831893F83B3003F017032370C97AAB
:1021A00011F0180F04BF43F0080323709DF8183096
:1021B000E37006F00303012B09D0022B05D0002B9E
:1021C00034D1710532D4012302E0032300E002235D
:1021D000A370A1788B0703D5237813F0110F25D1B5
:1021E0004BB216F4005F06F0080114BF6FF07F07D2
:1021F000002719433943A170C36A0244A361B2F8AE
:102200004410B2F84A30750543EA014104D581B162
:1022100000F073FA68B909E02162D36CE3617304DA
:102220000CD5E1692046FFF754FF38B90020207033
:10223000F8BDA37843F00403A370F0E70120F8BDD4
:1022400038B5037804460BB9012038BD83785A07A6
:1022500023D50121FFF746FE054628B96378002003
:1022600043F00103637038BD0378E52BF6D0237883
:102270001B0744BFE369C361238C4383638C838260
:10228000094B1B682BB100F11601183098472B8BB6
:102290006B82A37823F00403A370A068FFF7BEFA53
:1022A0000028DBD0D0E700BF4407002010B504466B
:1022B000FFF7C6FF0023237010BDF0B51F4693B093
:1022C00000238DF824308DF82530037806460C461F
:1022D00001920BB100203DE00B7813F0700FF9D0A4
:1022E00013782F2B12D1019B1A782F2A02D1013398
:1022F0000193F8E7A1681AB93046FFF702FE29E01A
:1023000009A8FFF7FEFD0028E4D009AC01AA03A943
:102310000198FFF79FFA0028DCD0019B1B789BB146
:10232000002303AA21463046FFF7D6FB0028D1D070
:10233000354609AC0FCD0FC40FCD0FC42B68304606
:102340002360FFF7B3FFE0E73B4603AA2146304690
:10235000FFF7C2FB13B0F0BD2DE9F04703788946C3
:1023600019070446904608D583789A0705D51B07B8
:102370000BD5E169FFF7ADFE38B963784FF0FF3058
:1023800043F001036370BDE8F0876369DB43984560
:10239000F3D846464FF0000A6369002E7FD0A0684C
:1023A000C3F30807427912EA53251CD1DFB921692A
:1023B00071B104F1100200F000F90028DDDB40F0FB
:1023C0008D802046FFF744FD002840F08780D4E749
:1023D000236A3BB92046FFF73BFD0028CDD0236997
:1023E000236200E023612169A06800F0E0F8291869
:1023F00017B9B6F5007F21D2C7F50075B54228BFE1
:10240000354637B96369E269934234BF0122052238
:1024100000E00122A068243000F0A5F80028ACD02C
:1024200038442A4649462F4407F053FDB7F5007F4C
:102430002FD1A068243000F06FF816E0B6F5806F59
:10244000A06814D30279730A521BD2B2934228BFF8
:102450001346C26A5D02914202D31A44914237D3B5
:10246000A7684A46386800F06DFC90B985E7C36AF2
:102470004A46994202BF4FF0FF3380F824A0C3625E
:10248000A368186800F0ECFB00283FF476AF4FF427
:1024900000756369A9442B446361761B7CE7E2699C
:1024A000934201D9E36102E00F4B1B681BB1A37893
:1024B00043F00403A37094F90230002B02DB404682
:1024C000BDE8F0872046FFF7BBFE0028F7D154E7B0
:1024D0004FF0FF3280F824A0C262C1E72169A068F2
:1024E00000F065F8014684E74407002002F0C8BE0A
:1024F00070B505460C46084649B108F075FA2B68D8
:10250000024621462846BDE87040DB68184770BD8A
:1025100002F0B6BE02F0B4BE70B503780446DA0726
:102520001ED5436800F10C0681683246186800F039
:1025300097FB054608B9002513E023789B0704D4D0
:10254000237823F0010323700BE06368A068196906
:1025500032460144186800F083FB0028F0D1EAE716
:102560000125284670BD70B5836804468B420E462F
:10257000154614D0FFF7D0FF08B9002070BD6B07D7
:1025800003D500232370A66009E0636804F10C0200
:102590003146186800F0DAFA0028F2D1EDE720465B
:1025A000237805F003051D4300F80C5B70BD8379AB
:1025B00002394069994008447047012970B50546C1
:1025C0000C46164602D84FF0FF3070BDC3699942E1
:1025D000F9D8C379202B10D18169022201EBD411E3
:1025E00000F50C70FFF7BFFF0028ECD004F07F046B
:1025F00050F8243023F070430FE0102BE3D18369AF
:10260000C1F307210222194400F50C70FFF7ABFF5C
:102610000028D8D0E4B230F81430EA6993429ABF67
:1026200033600120002070BD012938B50C461546E5
:1026300001D8002038BDC3699942FAD8C379202B4C
:102640000ED18169032201EBD41100F50C70FFF764
:102650008AFF0028EDD004F07F0440F824500FE0FA
:10266000102BE6D18369C1F307210322194400F539
:102670000C70FFF778FF0028DBD0E4B220F814508C
:10268000012038BD2DE9F341C46805468C420E4651
:10269000904607D20C460027EB6901349C4203D9CF
:1026A000CFB9EC680127F7E7A64214D001AA21466A
:1026B0002846FFF782FF00280DDBEDD0019B002BA1
:1026C000EAD107B1EC606FF0704221462846FFF76F
:1026D000ABFF074608B900270BE016B9C8F8004061
:1026E00007E0224631462846FFF79EFF0028F5D135
:1026F000F1E7384602B0BDE8F08173B505460C46F7
:1027000001AA21462846FFF758FF061E01DA0020DD
:102710000FE0002221462846FFF786FF0028F6D06A
:10272000EB689C429CBF04F1FF34EC60019C002EDE
:10273000E6D102B070BD70B5044601230022C3602B
:102740004FF0FF33C2710D46A06280F82420C362AF
:10275000C4F8340280F83022C0F83832A1B104291C
:102760005DD811462430FFF7FEFE002857D000EB5D
:10277000051393F8AE315B0651D11B3500EB0515FF
:10278000D5F80650002D4AD00022294604F1240035
:10279000FFF7E9FE002842D0B0F80B30B3F5007F18
:1027A0003DD1037C022B3AD1C389002B37D0417B2A
:1027B00009264B1E63710023A371217101238B42F3
:1027C00007D0013E2BD0A2795B000132DBB2A271AF
:1027D000F5E7C28A02B9426A2261C6892E44A6611F
:1027E000B0F8113006EB420123812162B0F81120CC
:1027F000520102F2FF1201EB62226261B0F8133063
:1028000003B9036AAD1A2B44A57923FA05F56B1CAD
:10281000E36140F6F4739D4203D80C23E37100207A
:1028200070BD4FF6F4739D4289BFC36A10232362C3
:102830002023E371012070BD02F022BD02F020BD13
:1028400002F01EBD70B50E46154602F0B1FD0C4CEF
:102850002368C01A0B4B984208D902F0B1FD0A4B0D
:10286000186003F019F802F0A3FD206002F0A8FD43
:1028700080B2801BA842D4BF0020012070BD00BFE1
:1028800048070020A0860100B00E002038B5057A68
:1028900004464DB9406800F07DFA63682946187D0A
:1028A00005F0D7FC0123237238BD10B5037A044626
:1028B0006BB143680121187D05F0CBFCFF216068F6
:1028C00000F09AFA606800F079FA0023237210BDD4
:1028D000F8B504460D46164602F072FD87B26068F0
:1028E00000F06FFAFF28607209D14FF47A7239460E
:1028F0002046FFF7A7FF0028F1D055230BE0FE2864
:1029000001D0502307E032462946606800F05EFAA5
:10291000607230B1602320462370FFF7C6FF0020AD
:10292000F8BD606800F04DFA606800F04AFA0120D6
:10293000F8BD70B504460E4602F042FD85B232463F
:1029400029462046FFF77EFF30B9606800F039FA6B
:10295000FF28F4D1012070BD002070BDF7B5037AC7
:1029600004460D4601920BB9FFF790FF25B14FF4D5
:1029700096712046FFF7DDFF45F04001606800F0EA
:102980003BFA0DF107060DF1030716F8011960680F
:1029900000F032FABE42F8D1002D0CBF95218721FC
:1029A000606800F029FA606800F00BFA0B25606897
:1029B00000F007FA0306607203D5013D15F0FF052C
:1029C000F5D103B0F0BD70B504460D46164637216B
:1029D0000022FFF7C3FF324629462046BDE870407B
:1029E000FFF7BCBF2DE9F041002505720570857227
:1029F0004160044690461E4602F0E2FC414607460E
:102A0000606800F0CBF963684F4A4FF001081D720F
:102A1000DA605D7483F810802046FFF737FF636843
:102A20004146187D05F015FC0A25FF216068013D2F
:102A300000F0E2F915F0FF05F7D163682946187D2B
:102A400005F007FC0A25002211462046FFF786FF05
:102A50000128804612D0013D15F0FF0501D1202349
:102A600057E0FD21606800F0C7F94FF40278606814
:102A700000F0A7F9B8F10108F9D1E4E74FF4D572F5
:102A800008212046FFF76AFF052802D184F80A8052
:102A90000FE00425606800F094F9013D15F0FF0592
:102AA0006072F7D1AA2802D10223A37201E0252384
:102AB0002FE0A37ABFB2022B0CBF4FF08045002558
:102AC0002A4629212046FFF77EFF024648B14FF4EF
:102AD000FA6239462046FFF7B5FE0028F0D04323BE
:102AE00017E0A37A022B0ED02046FFF7DEFE6368C4
:102AF000B0683479317B727BD8601C7219745A7457
:102B00000120BDE8F0813A212046FFF727FF38B1C8
:102B1000372320462370FFF7C8FE0020BDE8F08170
:102B2000606800F04EF900F0C000C02804BF032325
:102B3000A372606800F045F9606800F042F96068CF
:102B400000F03FF9D0E700BF90D0030038B5837A9A
:102B50001546032B18BF49020A4611210446FFF708
:102B6000FDFE10B1302323700BE029464FF40072B4
:102B70002046FFF7ADFE054618B12046FFF795FE4B
:102B800003E02046FFF791FE0025284638BD10B52A
:102B9000837A0A46032B18BF4A0212210446FFF724
:102BA000DDFE30B1312320462370FFF77EFE00208A
:102BB00010BD012010BD10B500220C210446FFF706
:102BC000CDFE30B1282320462370FFF76EFE002093
:102BD00010BD2046FFF769FE012010BDF8B505467F
:102BE00016461F46FFF7D3FF98B10024A3B29F42B9
:102BF00006EB442108D94FF400722846FFF768FE1F
:102C000001340028F2D104E02846BDE8F840FFF77F
:102C1000D2BF0020F8BD38B504461546406800F024
:102C2000EBF84FF400722946606800F0E9F8FF21E4
:102C3000606800F0E1F8FF21606800F0DDF860688E
:102C400000F0BFF8607200F01F00052806D057237F
:102C500020462370FFF729FE002038BD012038BD33
:102C600070B5837A1546032B18BF49020A4618210E
:102C70000446FFF773FE064608B132231DE02A46DC
:102C8000FE212046FFF7C7FFC0B14FF4FA6120468E
:102C9000FFF74FFE054608B95A230EE032460D21D4
:102CA0002046FFF75BFE38B9606800F08AF818B973
:102CB0002046FFF7FAFD05E0292323702046FFF7A1
:102CC000F4FD0025284670BD38B50D464FF4FA6175
:102CD0000446FFF72EFE10B95B23237005E02A4659
:102CE000FC212046FFF797FF18B92046FFF7DDFDCE
:102CF000002038BD10B5837A0A46032B18BF4A025C
:102D000019210446FFF72AFE30B1332320462370F1
:102D1000FFF7CBFD002010BD012010BD38B54FF4EA
:102D2000FA610446FFF705FE054620B1FD21606803
:102D300000F062F801E0562323702046FFF7B5FD4E
:102D4000284638BDF8B5054616461F46FFF7D2FFA0
:102D500070B10024BC4206EB4421284604D0FFF7A2
:102D6000B3FF28B10134F5E7BDE8F840FFF7D6BF5F
:102D70002846FFF79AFD0020F8BD02F081BA02F064
:102D80007FBA02F07DBA0000014B01221A70704731
:102D90004C070020011D006802F0AABF10B50446D0
:102DA0000175006802F079FF207D012105F040FAED
:102DB000207D0121BDE8104005F04BBA006802F00B
:102DC0007CBFFF21006803F002B8000037B5084B54
:102DD00000250093074C134600680A4629462570D3
:102DE00002F0FBFF2378002BFCD0002003B030BDA5
:102DF000892D08084C070020006802F0E8BF000099
:102E000037B5074B00250093064C134600682A4649
:102E1000257002F0E2FF2378002BFCD003B030BD18
:102E2000892D08084C07002002F02ABAF7B53C4C5F
:102E30002368D9070CD42046FDF739F940B1394B46
:102E4000394A1B78204603F001031370FDF734F96B
:102E5000364C23781A0661D42578324E6DB275B996
:102E6000334B2A461968334802F0DCF933782E4A8E
:102E700003F001031370304B304A1B78D554304BAC
:102E8000304A18881C2343431268D118D3588A88C3
:102E90001B692D491A4223780D785BB214BF0122B9
:102EA0000022AB420DDC214B23491B780978234FCC
:102EB000C9B217F801E05BB202FA03F34EEA03036A
:102EC0007B543378DB0603D523785BB29D4220DA4E
:102ED00023781E4A013312785BB2934223701DDBC4
:102EE000114B154A1B7823B11378144AFF21D15492
:102EF00004E01378013303F03F031370FE232370C3
:102F00000023009302224FF0FF33114904F018FD13
:102F100004E0054B19784A401A70D9E703B0F0BDB8
:102F200058070020B10700205C0700204000002067
:102F30003400002000080020BC0700205D070020AE
:102F400048000020B80700203F000020300000208B
:102F5000612F080810B5044602F05AF9204610BD4A
:102F600010B5094C23781B060DD5084B0848196885
:102F7000002202F057F900232370064BBDE81040F1
:102F8000188804F005BD10BD400000203800002066
:102F900000080020480000200EB400B58CB00DAA37
:102FA00052F8041B20238DE8060003920493016865
:102FB000002304AA1E20059302F0BAFB0CB05DF8B2
:102FC00004EB03B0704700007FB53B22428047F21C
:102FD0002F5282804FF6FF72C280254A0023037071
:102FE0000372137053709370D37013710378044697
:102FF000002B3AD101231F4E1F4D03701F4B694612
:10300000132000930396029504F0ECFC6846FDF74C
:10301000D6F81B4B69461A2000930396029504F0DC
:10302000E1FC6846FDF7CBF8164B6946212000937A
:103030000396029504F0D6FC6846FDF7C0F8124BE3
:103040006946242000930396029504F0CBFC684661
:10305000FDF7B5F80D4B69462620009303960295BF
:1030600004F0C0FC6846FDF7AAF8204604B070BD25
:103070001C090020BF000808C3000808294F0808E1
:10308000514F0808794F0808A14F0808C94F080890
:1030900013B5114C0221208805F0CAF80F4BFE220F
:1030A0001A700F4B1A68092A0AD90E48C3889A4227
:1030B00006D80D4B0D491B780093002302F072F8DF
:1030C0000023009320884FF0FF330222084904F0C8
:1030D00037FC02B010BD00BF4800002040000020B7
:1030E00034000020000800203D0000202D2E08089C
:1030F000612F080838B5564C2368DB070CD42046EE
:10310000FCF7D5FF40B1534B534A1B78204603F0E0
:1031100001031370FCF7D0FF504C23785BB20133EE
:10312000C0F2948023784E4DFF2B15D14D4B0022D9
:1031300019684D4802F076F84C4B1A881C2353430B
:103140004B4A1268D118D3588A885A83414B424A55
:103150001B7803F0010320E02378464A13F0800F28
:103160003DD1237811785BB28B4238DA2978237805
:103170005AB2414B5B5C134113F0010F3C4A3B4B8D
:103180000DD019881C234B431268D118D3588A8854
:103190001A83314A137883F00103137007E019880A
:1031A0001C234B431268D118D3588A885A83334B57
:1031B0002A781B789A420DD1FE232370304B1B785E
:1031C000002B43D02F4B186800283FD0BDE8384073
:1031D000FFF75EBF237801335BB2237038BD1D4B10
:1031E0001B7823B1237811785BB28B4211D02378FE
:1031F00012785BB29A42244A1ADC184B11781B7879
:103200005BB28B4214DA194B1A881C235343184AB9
:1032100008E0114B164A1978144B0029BFD01988C1
:103220001C234B431268D118D3588A881A83BEE7EF
:10323000237812785BB29342B9DB2B78FE220133FC
:1032400003F03F032B70054B1A70B0E738BD00BF89
:1032500050070020B1070020540700203C00002048
:10326000B007002034000020A00700204400002008
:10327000B80700203F000020BD07002010080020F4
:103280009D070020B40700203000002013B5114C2A
:103290000121208804F0CCFF22881C2353430E4ACE
:1032A0001268D118D3588A881A830C4BFE221A70E0
:1032B0000B4B1A68092A0AD90A48C3889A4206D8C9
:1032C000094B0A491B780093002301F06BFF02B001
:1032D00010BD00BF44000020B80700203C000020C3
:1032E00034000020A00700203E000020F530080830
:1032F00012F0100F38B50546234B01D0092003E02A
:1033000090064CBF0720082018701B7812F0010FA0
:103310001E4814BF0233013312F00C0403701C4B1F
:1033200009D012F0080F14BF112210221A7003786E
:103330000133037000E01C70164A00240C2000FBCF
:1033400004F39B58A3B18B4210D804D00A4612480C
:103350001249FFF721FE0F4A0C2303FB0424104BF4
:1033600062681A60A2680F4B1A6001E00134E6E758
:103370000D4B1B7813B92846FFF788FF2846BDE898
:103380003840FFF785BE00BF3F000020300000201E
:10339000B1070020C0D108083409002098D10808DE
:1033A00038000020340000209D0700200022FFF795
:1033B0009FBF000070B501F063FF0C4C0C4B0D4E2D
:1033C00018600D4D2046FFF7FFFD20460B4C32469E
:1033D000294605F03DF82046FFF7F6FD324629461E
:1033E0002046BDE8704005F033B800BF000800205B
:1033F000B807002040010020552F0808A007002032
:1034000001F03EBF0175704738B50B4B8469054626
:1034100003607CB16368013B63605BB9236820464D
:103420009B689847A368013BA3601BB923682046AB
:10343000DB689847284638BD7CD9080810B5044693
:10344000FFF7E2FF20461C2105F010F8204610BDD2
:1034500030B5064D836005600025057541F288355D
:10346000039B85614160C360026130BD68D3080879
:103470002DE9F0410D461746064604F0F5F91C49C2
:1034800003F0C5F800241B4802F0ACFE68BB052C15
:1034900001D1BDE8F081337DC3B104F0E5F91649EF
:1034A00003F09EF804F0E0F9294603F099F804F0DF
:1034B000DBF9124903F094F804F0D6F980460A22A9
:1034C000214603F0AEF8404603F095F8094802F0B3
:1034D00007FE0023BAB22946064802F04BFF4FF41C
:1034E0007A7003F019FA0134CDE7BDE8F08100BF2E
:1034F0005CD208081408002074D208088AD2080890
:1035000070B5054600240D4802F0AEFD064610B920
:10351000AB699C4201DB012070BD012003F0FCF986
:10352000AB6901349C42EEDB287D30B104F09CF99C
:10353000034903F06CF8304670BD70BD14080020DC
:103540009ED208082DE9F843037D064688461546B5
:103550004BB104F089F9214903F059F804F084F9DA
:103560001F4903F054F840F2BB2900241D4802F023
:103570007BFD78B11B4802F02CFD337DC7B22BB127
:1035800004F072F9036839469B6898472F55013457
:103590004C45EBD1337D23B104F066F9124903F0B9
:1035A00036F800232B55114B984508D11049284671
:1035B00007F04AFA78B14FF07E50BDE8F8837C21DD
:1035C000284606F0C1FC30B1013006F065FB05F07D
:1035D000FFFDBDE8F8830748BDE8F883E5D2080899
:1035E000D1D2080814080020E4D20808F0D2080854
:1035F000F5D208085F42A2CD70B5044600230E46FE
:103600001546416842F23432454802F0B3FE204686
:1036100042F234326168FFF72BFF414802F019FE95
:10362000002874D0A1683E4802F0DAFF3D493C48CA
:1036300002F0D6FFE1683A4802F0D2FF3A49384832
:1036400002F0CEFF3146364802F0CAFF374934480F
:1036500002F0C6FF2946324802F0C2FF3449304822
:1036600002F0BEFF237DB3B304F0FEF8314902F04F
:10367000CEFF04F0F9F8304902F0C9FF04F0F4F885
:10368000A16802F0ADFF04F0EFF8264902F0A8FFB0
:1036900004F0EAF8E16802F0A3FF04F0E5F822493B
:1036A00002F09EFF04F0E0F8314602F099FF04F0CA
:1036B000DBF81E4902F094FF04F0D6F8294602F028
:1036C0008FFF04F0D1F81A4902F08AFF04F0CCF819
:1036D0001A4902F09CFF2046FFF712FF20B910485C
:1036E00002F0FEFC164870BD4FF42F7002F00CF98A
:1036F0001449024605462046FFF724FF04460848C1
:1037000002F0EEFC284602F007F9204670BD237D4A
:10371000002BE4D004F0A8F80B4902F078FFDEE7B4
:1037200014080020F8D20808FBD2080854D408086E
:1037300092D4080813D30808FDD2080812D3080849
:103740005F42A2CD18D308081BD3080870B5044601
:10375000416842F234321D461E48002302F00AFE40
:10376000204642F234326168FFF782FE194802F0C7
:1037700070FD20B32946174802F032FF2046FFF7BC
:10378000BFFE054620B9134802F0AAFC00251FE041
:10379000642002F0B9F81049024606462046FFF7B9
:1037A000D1FE0446304602F0B7F80C49204606F038
:1037B00001F80028E7D1074802F092FC08E0237DD9
:1037C000002BE0D004F050F8054902F020FFDAE7C2
:1037D000284670BD14080020F0D208085F42A2CD30
:1037E00041D3080810B5064C01F04AFD204602F00E
:1037F0009FFD2046BDE81040024A034904F028BE60
:1038000014080020400100200934080810B50446BF
:10381000006808B1FCF749FCE06802F07DF86068D8
:10382000042104F023FE204610BD000070B50446BC
:10383000012094F91050607414204543E6687151DA
:1038400094F91010E56800FB01518A6094F910208A
:10385000E16800FB0212536094F91030E26800FB4B
:103860000323049ADA6094F91030E26800FB032025
:10387000059B0361237C01335BB20F2B237408DDAE
:10388000A37C23B103F0F0FF024902F0C0FE0F2336
:10389000237470BD74D3080830B5104687B00C4649
:1038A00005F060F901AD02460B462846094902F0D1
:1038B00043F800221346A95C202905D0E1540133C6
:1038C000DBB209B9E15402E00132142AF3D107B0A6
:1038D00030BD00BFF7D308082DE9F0410C4688B091
:1038E00005464749204606F047FB002795F910306A
:1038F0009F4266DA14267E43EB680DF10C083344D0
:103900009A6841462846FFF7C7FFEB68CDF800806C
:103910009B5922463B49204602F00EF8EB6833449F
:10392000DB686BB322463849204602F005F8EB68A5
:1039300033441B69FBB10A2093FBF0F1642293FB33
:10394000F2F291FBF0FC92FBF0FE00FB1C1C00FB72
:10395000113100FB1E22C9B200915FFA8CF3D2B282
:103960002A4902A801F0E8FF02AB22462849204676
:1039700001F0E2FF04E022462649204601F0DCFF88
:10398000EB681E44736823B122462349204601F0A8
:10399000D3FF22462149204601F0CEFF013795F999
:1039A0001030FFB29F42224604DA1D49204601F042
:1039B000C3FF9BE71949204601F0BEFF00232B748B
:1039C00094E7AB7CC3B103F04FFF164902F01FFE32
:1039D00003F04AFF144902F01AFE03F045FF2146A6
:1039E00002F015FE03F040FF0E4902F010FE03F056
:1039F0003BFF0E4902F00BFE08B0BDE8F08100BFAE
:103A0000FCD30808FED3080811D4080824D40808F9
:103A10002BD4080830D4080836D4080845D4080840
:103A200049D40808E5D208084DD4080853D8080836
:103A30002DE9F0410C4605461F46164688B04D4913
:103A4000204606F099FAAB684B4A4C49204601F0F3
:103A500073FF0097334622464949204601F06CFF28
:103A600022464849204601F067FF002795F91030AB
:103A70009F4260DA14267E43EB680DF10C08334454
:103A80009A6841462846FFF707FFEB68CDF80080AB
:103A90009B5922463A49204601F04EFFEB683344D9
:103AA0005B6823B122463849204601F045FFEB68A8
:103AB0003344DB6863B322463449204601F03CFFBF
:103AC000EB681E443669F6B10A2096FBF0F16422D9
:103AD00096FBF2F291FBF0F392FBF0FE00FB131366
:103AE00000FB116100FB1E22C9B20091DBB2D2B211
:103AF000274902A801F020FF02AB224625492046B3
:103B000001F01AFF04E022462349204601F014FF89
:103B1000013795F91030FFB29F42224604DA1F495F
:103B2000204601F009FFA1E71D49204601F004FFEE
:103B300000232B749AE7AB7CC3B103F095FE1949BF
:103B400002F065FD03F090FE174902F060FD03F0FE
:103B50008BFE214602F05BFD03F086FE114902F068
:103B600056FD03F081FE034902F051FD08B0BDE8A7
:103B7000F08100BF53D8080856D408086AD4080852
:103B800076D408087ED4080883D4080889D40808A5
:103B900024D408082BD4080830D4080849D40808CD
:103BA00090D40808E5D208084DD408082DE9F74359
:103BB00004464FF42F701F460E46904601F0A4FEB7
:103BC000E37C0546013B012B06D8014643463246BD
:103BD0002046FFF72DFF03E001462046FFF77CFE5D
:103BE000A37C23B103F040FE0D4902F010FD606894
:103BF0003146036800974246D3F800902B46C847E9
:103C00000646284601F088FE0121384604F02EFCC5
:103C1000002306B163743046237403B0BDE8F0831B
:103C200097D4080870B5044601200D461646FCF7E7
:103C300036FA034610B1054A127802703246294618
:103C40002046BDE87040FFF7B1BF00BF300800203C
:103C500070B506460C4684B1E1683046FFF7F8FFC0
:103C6000E369A56823B104F11401032208469847CB
:103C70002046FCF718FA2C46EDE770BDF0B58DB084
:103C8000044601A80D4617461E4601F01DFE039886
:103C90000130FCF706FA0199206006F06DF92A461A
:103CA00033463946E67405A800F06AFD4FF4967075
:103CB00001F02AFEE06005A800F072FC00236060BD
:103CC0002374089906A8A560FFF7C2FF01A802F0B7
:103CD00083FB0DB0F0BD38B504460025057445746E
:103CE000FFF7CCFF204638BD024B00221A7001F0CE
:103CF000C7BA00BF300800202DE9F0410446782003
:103D000023721F460D46164601F0FEFD237A6060C1
:103D1000042B4FF014000CD0FCF7C1F9804620B101
:103D20003B4632462946FFF7D6FFC4F80080BDE87F
:103D3000F081FCF7B4F9074620B101233246294649
:103D4000FFF7C9FF2760BDE8F081000010B5044609
:103D50000023437283721346024AFFF7CDFF2046C9
:103D600010BD00BFA7D4080838B50446406801F06C
:103D7000D3FD256835B12846FFF748FD14212846B4
:103D800004F074FB204638BD70B5067A042E04D0CA
:103D9000BDE870400068FFF749BD03F065FDBDE870
:103DA0007040014902F033BCC2D4080807B50023B3
:103DB00001930093FFF7E8FF03B05DF804FB006890
:103DC000FFF730BF01F05CBA0175704770B504466B
:103DD000142001F099FD0646142001F095FD0546DA
:103DE000204606F001FE224600230238984217DDE5
:103DF00012F8011B0D2911D111780A290ED1517821
:103E00000D290BD191780A2908D1191D14222144BA
:103E1000304606F006FE0023337501E00133E5E786
:103E20000A21304606F090F80446E8B10A21013034
:103E300006F08AF8C0B12146284606F09DF82846CB
:103E400006F0D2FD0023284400F8013C284605F086
:103E500023FF05F0BDF90446284601F05DFD30461C
:103E600001F05AFD204670BD004870BD5F42A2CDF2
:103E700030B5074D836005600025057541F2883532
:103E8000039B8561052505774160C360026130BDF4
:103E9000ECD608082DE9F84305460F469046002465
:103EA0001D48E6B202F0D5F998BB2B7FB34201D88A
:103EB000BDE8F8832B7DC3B103F0D6FC174902F0AF
:103EC0008FFB03F0D1FC394602F08AFB03F0CCFCF7
:103ED000134902F085FB03F0C7FC81460A223146F4
:103EE00002F09FFB484602F086FB00231FFA88F28F
:103EF0003946094802F03EFA2B7D23B103F0B4FCA9
:103F0000084902F084FB4FF47A7002F005FD013499
:103F1000C6E7BDE8F88300BF3408002074D2080863
:103F20008AD20808F8D6080870B54D1E06462B46FA
:103F30000C4601F52F72002103F8011F9342FBD1BB
:103F4000337D4BB103F090FC134902F060FB03F0AA
:103F50008BFC124902F05BFB04F2BA24104802F019
:103F600083F840B9337DB3B103F07EFCBDE8704007
:103F70000C4902F04CBB0A4802F02BF805F8010F7F
:103F8000337D2BB103F070FC036829789B68984758
:103F9000A542E3D1E6E770BDE5D20808D1D2080812
:103FA00034080020E4D2080870B5054600240D4806
:103FB00002F05AF8064610B9AB699C4201DB0120B9
:103FC00070BD012002F0A8FCAB6901349C42EEDB1D
:103FD000287D30B103F048FC034902F018FB30465D
:103FE00070BD70BD340800209ED20808F8B50F4699
:103FF0000269416804461E46FFF74CFF804802F004
:1040000028F90546002800F0EC807E497C4802F043
:10401000E7FA39467A4802F0E3FA7B49784802F039
:10402000DFFA7A49764802F0DBFA6168744802F0F8
:10403000D7FA7749724802F0D3FA7649704802F00D
:10404000CFFAA1686E4802F0CBFA71496C4802F0D1
:10405000C7FA71496A4802F0C3FAE168684802F099
:10406000BFFA6B49664802F0BBFA6C49644802F03B
:10407000B7FA6B49624802F0B3FA304606F0B4FC76
:10408000054668495E4802F0ABFA002D05DA2D219D
:104090005B4802F0A9FA694200E029460A22584822
:1040A00002F0BFFA6049564802F09AFA3146544885
:1040B00002F096FA5649524802F092FA504801F03E
:1040C0004AFF237D002B71D003F0CEFB574902F04D
:1040D0009EFA03F0C9FB4B4902F082FA03F0C4FBDD
:1040E000394602F07DFA03F0BFFB474902F078FA47
:1040F00003F0BAFB454902F073FA03F0B5FB6168BF
:1041000002F06EFA03F0B0FB414902F069FA03F0E5
:10411000ABFB404902F064FA03F0A6FBA16802F091
:104120005FFA03F0A1FB3A4902F05AFA03F09CFB54
:10413000394902F055FA03F097FBE16802F050FAB2
:1041400003F092FB324902F04BFA03F08DFB334946
:1041500002F046FA03F088FB314902F041FA03F01D
:1041600083FB304902F03CFA03F07EFB002D07464A
:1041700003DA2D2102F038FA6D420A222946384628
:1041800002F04FFA03F070FB274902F029FA03F01E
:104190006BFB314602F024FA03F066FB1C4902F087
:1041A0001FFA03F061FB224902F031FA2046FFF7C3
:1041B000FBFE237D0BB901241DE003F055FB1D49D7
:1041C00002F025FA0E4801F04FFF0028F3D00C480A
:1041D00001F0FFFE044603F047FBE1B202F004FAEF
:1041E000F0E7237D33B103F03FFB134902F00FFAF0
:1041F0002C4600E01C46024801F072FF2046F8BD44
:104200003408002009D7080821D708082DD7080846
:1042100051D8080834D7080841D7080850D70808EB
:1042200064D7080885D708084FD8080896D7080823
:10423000B2D70808D0D70808ECD7080870B50446EC
:1042400000230E46154641685022654802F092F858
:10425000204650226168FFF71DFE614801F0F9FF1A
:10426000002800F0B2805F495D4802F0B9F931469C
:104270005B4802F0B5F95C49594802F0B1F92946AA
:10428000574802F0ADF95949554802F0A9F9584983
:10429000534802F0A5F95749514802F0A1F90A2202
:1042A00050214F4802F0BDF953494D4802F098F9AA
:1042B00052494B4802F094F9A168494802F090F93C
:1042C0004D49474802F08CF94D49454802F088F9BC
:1042D000E168434802F084F94749414802F080F917
:1042E00048493F4802F07CF9237D002B50D003F071
:1042F000BBFA3C4902F074F903F0B6FA314602F019
:104300006FF903F0B1FA384902F06AF903F0ACFA38
:10431000294602F065F903F0A7FA344902F060F982
:1043200003F0A2FA324902F05BF903F09DFA314939
:1043300002F056F903F098FA0A22502102F071F9BE
:1043400003F092FA2C4902F04BF903F08DFA2B4955
:1043500002F046F903F088FAA16802F041F903F08F
:1043600083FA254902F03CF903F07EFA244902F071
:1043700037F903F079FAE16802F032F903F074FAE0
:104380001D4902F02DF903F06FFA1E4902F028F9D9
:104390002046FFF709FE20B9114801F0A1FE1A4C92
:1043A0001CE04FF42F7001F0AFFA0546014620469D
:1043B000FFF7BAFD2846FFF709FD0446084801F05B
:1043C0008FFE284601F0A8FA08E0237D002BE3D0F9
:1043D00003F04AFA0D4902F01AF9DDE7204670BDF4
:1043E0003408002016D808082BD808082DD808084B
:1043F00021D708082DD7080851D8080834D708084D
:1044000041D7080831D808085F42A2CD54D808081F
:1044100010B5064C00F034FF204601F089FF20461D
:10442000BDE81040024A034904F012B834080020E5
:10443000400100200934080803681847012A02D007
:10444000022A02D004E0016002E00B6800B10360C0
:104450000020704713B51C20FBF721FE044648B12D
:10446000064B07491B6842F2343200930968054B3A
:10447000FEF7EEFF204602B010BD00BF8808002006
:104480008C08002056D4080813B52020FBF707FE3F
:10449000044640B1054B06491B6850220093096849
:1044A000044BFFF7E5FC204602B010BD8808002051
:1044B0008C08002056D4080813B51C20FBF7EFFD2C
:1044C000044648B1064B07491B6842F23432009358
:1044D0000968054B00F0E2F9204602B010BD00BFAC
:1044E000880800208C08002056D4080813B5142032
:1044F000FBF7D5FD044640B1054B06491B68009308
:1045000000231A46096800F071FA204602B010BD77
:10451000880800208C08002010B50446054B036075
:104520006433036102F0A0FA204602F081FB2046CA
:1045300010BD00BFE0DA080810B50446FFF7ECFF35
:1045400020463C2103F092FF204610BD10B5002309
:1045500086B00446049321B10F4B029105930F4B93
:10456000049302AB93E803008DE8030094E8030092
:1045700083E803009DE80300049A84E80300A1682F
:10458000A260059A0491E1681846E2600591FBF784
:1045900016FE204606B010BD394408083D44080800
:1045A00000F108010B4670B5C2684AB10478157C69
:1045B000A5423ABFD4681A46946813462246F4E7E7
:1045C000994204D000781A7C904238BF0B46DA69D1
:1045D0000AB904F017F81A6A03F11400BDE8704034
:1045E000104770B504468B6816460D1D012253B165
:1045F00030781A7C1D46904235BF9868D8680122F1
:1046000000220346F3E732B1CA6895420AD0284631
:1046100003F093FF00E028463378027C9A424FF083
:10462000000302D284E8280001E084E80900204663
:1046300070BD2DE9F7431F46064624200C46FBF7C4
:104640002EFD3B6810F1100818BF1B7806F1040717
:104650001EBF03740023C361A742054608D17369D6
:10466000002B5CD03169037C0A7C9A423AD356E035
:1046700090F81090237C994517D2F3682046A34206
:1046800011D003F05AFF037C4B4505D2C368002BC1
:1046900014BF2046002406E0684642463146FFF734
:1046A000A0FF009C019801461AE02FD93369A3426C
:1046B00013D0204603F02EFF037C4B4505D9E36859
:1046C000002B14BF0446002008E0684642463146ED
:1046D000FFF787FF9DE8110000E000202146044617
:1046E000A1B144B98F4206D0087C2B7C83422CBFF9
:1046F0000020012000E001203B460A46294603F045
:104700001EFF736928460133736110E005F1140040
:10471000FBF755FD2846FBF7C6FC204607E031466F
:1047200042466846FFF75DFF009C0199D8E703B059
:10473000BDE8F0837FB5041D0A46214683684BB16E
:1047400015781E7CAE423ABFDD680B469D6819465F
:104750002B46F4E78C4203D014780B7C9C4208D2A1
:1047600004AB43F8042D02AA0092044AFFF761FF4C
:10477000014601F1140004B070BD00BF7AD80808EA
:104780002DE9F74304461D46894690460021102234
:10479000083005F0A9FB0123257002AD04F10802E1
:1047A00005F8013D261D0027226162612946A761A7
:1047B0003046FFF7BFFF1549FFF7C8FE29463046D0
:1047C0008DF80770FFF7B6FF1149FFF7BFFE022310
:1047D000294630468DF80730FFF7ACFF0D49FFF74B
:1047E000B5FE0323294630468DF80730FFF7A2FFB8
:1047F0000949FFF7ABFE2046084BC3F80090084B71
:10480000C3F8008003B0BDE8F08300BF554408083A
:1048100089440808B9440808ED4408088C080020B9
:104820008808002070B5104D00F02AFD0F4C104E86
:10483000284601F07DFD28460E4D2246314603F004
:1048400007FE284601F074FD28460B4D22463146EE
:1048500003F0FEFD284602F0CDF922462846BDE8C9
:104860007040064903F0F4BD6C08002040010020B0
:10487000093408085008002090080020194508084D
:1048800008B500F0FDFCBDE8084000F099BD00004F
:10489000004870475F42A2CD0175704730B5064DA4
:1048A000836005600025057541F28835039B8561AD
:1048B0004160C360026130BD30D90808F0B54F686F
:1048C00085B0002604AC0546384644F8046D06F071
:1048D0008BF80A4B009681B25B682246384600F09E
:1048E000D7FE20B13146284602F020FF03E02146E2
:1048F000284602F013FF284605B0F0BD580D0020F1
:1049000030B587B00146044602A81D46FFF7D6FF22
:1049100002A802F011FF80B9237D23B102F0A4FFA9
:10492000214901F074FEF323009337223D23A9218E
:1049300004A802F011FF059B0393002240F2BD2161
:104940001A4802F087F9002242F23431174802F087
:1049500063F8174B42F234320493039B04A91348C3
:10496000059302F091F968B165B1284606F03CF86C
:10497000294602460D4802F0AAF818B10B4801F08A
:10498000F9FF58B9237D23B102F06EFF094901F008
:104990003EFE064802F068F8002003E0034802F0FB
:1049A00063F8012007B030BD7BD80808CC08002090
:1049B000A0DB080807D9080810B5064C00F060FC19
:1049C000204602F017F92046BDE81040024A03498C
:1049D00003F03EBDCC080020400100201945080826
:1049E000004870475F42A2CD0174704710B5044C77
:1049F0008360029B0460002404744160C36010BDA6
:104A000044D9080870B5064600200C4600F0C0FEE8
:104A100008B9002070BD002C03DD00F0D1FC054674
:104A200000E0002573783BB9002C07DD00F0C8FCDE
:104A3000401BA04202D3ECE7012070BD00F02CFF28
:104A4000F0E730B585B01A46089B02A81B788DF8B0
:104A500000303C2302F0B6FC029C00212046FFF708
:104A6000D1FF6378BFF35F8F33B100212046FFF79A
:104A7000C9FF2378012B13D00025039C94B16368F0
:104A8000013B636073B9236820469B689847A3681D
:104A9000013BA36033B923682046DB68984701E0F7
:104AA000257BEAE7284605B030BD00F0E9BB70473A
:104AB00070B5064614460D4603F07EFC317803F0CF
:104AC0006EF903F079FC036829469B68984703F068
:104AD00073FC036821469B68984703F06DFCBDE8B2
:104AE000704003F067B938B504460D4603F064FC26
:104AF000217803F054F903F05FFC036829469B68B2
:104B0000984703F059FC03F055F903F055FC217860
:104B1000012203F041F903F04FFC03685B699847F9
:104B2000044603F049FC03F045F9E0B238BD38B55E
:104B300004460D4603F040FC217803F030F903F001
:104B40003BFC036829469B68984703F035FC03F05B
:104B500031F903F031FC2178022203F01DF903F052
:104B60002BFC03685B699847054603F025FC036846
:104B70005B699847044603F01FFC03F01BF944EA05
:104B8000052080B238BD08B5FFF7D1FF40BA80B22A
:104B900008BD38B588210446FFF7F5FF8A21A081BA
:104BA0002046FFF7F0FF8C21E0812046FFF7EBFF66
:104BB0008E2120822046FFF7E6FF9021608220466A
:104BC000FFF7E1FF9221A0822046FFF7DCFF94214E
:104BD000E0822046FFF7D7FF962120832046FFF78B
:104BE000D2FF982160832046FFF7CDFF9A21A08352
:104BF0002046FFF7C8FF9C21E0832046FFF7C3FF54
:104C00009E2120842046FFF7BEFFA121608420461C
:104C1000FFF769FFE12184F824002046FFF7B3FF86
:104C2000E321E0842046FFF75EFFE42184F82800BA
:104C30002046FFF758FFE52105462046FFF753FFC2
:104C400000F00F0040EA05106085E6212046FFF7DE
:104C50004AFFE52105462046FFF745FF001140EADF
:104C60000510A085E7212046FFF73DFF84F82E00C0
:104C700038BD10B50446017003F09EFB03F058F8F0
:104C8000D0212046FFF72FFF60280ED12046FFF7E6
:104C900080FF20460322F221FFF70AFF20463F2231
:104CA000F421FFF705FF012010BD002010BD00001A
:104CB00038B5FA210446FFF73AFFFC2105022046E9
:104CC000FFF711FFA2892843C2EB20235B43520068
:104CD000C2EBE012B4F90E001B135043B4F91020DC
:104CE00053439B1303EBE020A06000EB8000803077
:104CF000001204F077FB024904F07CFC38BD00BFD1
:104D00000000C8422DE9F84FF7210646FFF70FFFD4
:104D1000F92107463046FFF7E6FEB468B6F91420DD
:104D2000E517B4F5FA3445F1FF35A4FB048904FB1B
:104D300005F302FB05F109EB4309D31704FB03114B
:104D4000A2FB04230B44190341EA125186461003C7
:104D5000B6F9162002FB09FCD31708FB03CCA2FB13
:104D6000082363444FEA122A4AEA036A1AEB000A4C
:104D7000728A4FEA232B4BEB010B1AF100004BF523
:104D80000041A0FB02AB02FB01BB4FEA6B024FEA02
:104D9000EB7352EA030100F08280B6F91CA04EEAE0
:104DA00007270AFB09F14FEAEA7B08FB0B11AAFB74
:104DB0000889B6F91AA089440AFB05F14FEAEA7B93
:104DC00004FB0B11AAFB04450D444FEA454B4FEA87
:104DD000444A3F111AEB080AC7F580174BEAD43B47
:104DE0004BEB090B4FEAE7794FEAC97545EA5705DE
:104DF000FC0740F63547B6F918004FF0000818EBED
:104E00000A084FEAC00949EB0B09B4EB0804A4FBFC
:104E1000070165EB090507FB051104F039FDB6F93B
:104E200022204C1302FB04F7450B45EAC145D3177A
:104E300005FB0377A2FB052354433B4405FB0344D6
:104E4000A2FB05232344540E44EAC314B6F92020E0
:104E500024184FEA63654D415143D31700FB0313F8
:104E6000A2FB00011944C20C42EA41321219B6F900
:104E70001E404FEAE1436B41100AE517220140EA68
:104E8000036019122B0143EA14738018594104F08E
:104E9000BFFA4FF06E5104F0F9FABDE8F88F002028
:104EA000BDE8F88F10B50446FD21FFF740FEB4F9C8
:104EB0002A30A268B4F92C101B05A2F59632C3EB78
:104EC000803002FB110000F58043D81394F828309D
:104ED00094F92E1053434A43DB12921203F5004318
:104EE0005343B4F926209B1203F50013534303F5F3
:104EF00000539B134343D813404394F82420C0111C
:104F00005043A3EB201020EAE070B0F1C85FA8BFC7
:104F10004FF0C850001304F065FA4FF06A5104F0E6
:104F2000B5FA10BD00F0ACB910B50121064803F088
:104F300027F940B10121044803F02DF9BDE81040E4
:104F4000024B1B68184710BD0004004008090020F0
:104F500010B50121064803F013F940B101210448BE
:104F600003F019F9BDE81040024B5B68184710BD0B
:104F7000000800400809002010B50121064803F090
:104F8000FFF840B10121044803F005F9BDE81040E5
:104F9000024B9B68184710BD000C00400809002018
:104FA00010B50121064803F0EBF840B10121044897
:104FB00003F0F1F8BDE81040024BDB68184710BD64
:104FC000001000400809002010B50121064803F038
:104FD000D7F840B10121044803F0DDF8BDE81040E6
:104FE000024B1B69184710BD00140040080900203F
:104FF000F0B5437A85B005460F461646042B30D8E7
:10500000DFE803F0030C151E27000121022002F047
:1050100093FF1D238DF80030294C22E0012104204C
:1050200002F08AFF1E238DF80030264C19E0012182
:10503000082002F081FF32238DF80030224C10E06E
:105040000121102002F078FF36238DF800301F4C2C
:1050500007E00121202002F06FFF1D4C37238DF85F
:1050600000301EB1012E01D1AE8800E06E886A7A50
:10507000E968184B012543F8221068460A238DF889
:1050800001308DF802508DF8035002F01DFF00230F
:1050900001A92046ADF80630ADF80C308DF80E3081
:1050A000ADF80460029703F021F82A46294620460D
:1050B00003F07EF82946204603F056F805B0F0BD0F
:1050C0000004004000080040000C004000100040B8
:1050D0000014004008090020042BF8B506460F46CE
:1050E00096461C460E4D11D900242A5DE3B24AB9FA
:1050F0007372304672463946FFF77AFF084B01203B
:105100001855F8BD0134052CEFD107E0EB5C2BB945
:105110004472FFF76DFF01202855F8BD0020F8BD4F
:105120001C09002073B5437A0646042B1CD8DFE81F
:1051300003F003080D1217001D238DF80430134CE3
:1051400012E01E238DF80430114C0DE032238DF84F
:105150000430104C08E036238DF804300E4C03E088
:1051600037230E4C8DF804300021204602F0FCFF5E
:10517000002501A88DF8075002F0A6FE204602F097
:10518000FFFE737A064AD55402B070BD0004004099
:1051900000080040000C00400010004000140040D7
:1051A0001C0900202DE9F0411F46037A0446884679
:1051B00016469DF818501BB1FFF7B4FF0023237269
:1051C000042DC4F80C8010D82B463A4631462046B0
:1051D000FFF782FF20B1012303E00135052D06D141
:1051E00000232372207ABDE8F081084B0025E95C9A
:1051F000EAB20029F1D1627231463A462046FFF701
:10520000F7FE024A01235355EBE700BF1C090020BB
:10521000037A10B504460BB1FFF784FF0023237215
:1052200010BD000010B5447A042C0DD8DFE804F05E
:10523000030507090B000C4B06E00C4B04E00C4B7C
:1052400002E00C4B00E00C4B1AB1012A01D182881C
:1052500000E04288D96292B201211A8599821846EB
:10526000BDE8104002F097BF000400400008004075
:10527000000C0040001000400014004000F000B896
:1052800008B5024B1B681B68019308BDB0010408F8
:1052900008B5024B1B685B68019308BDB0010408A8
:1052A00008B5024B1B689B68019308BDB001040858
:1052B00008B5024B1B68DB68019308BDB001040808
:1052C00008B5024B1B681B69019308BDB0010408B7
:1052D00008B5024B1B689B69019308BDB001040827
:1052E00008B5024B1B68DB69019308BDB0010408D7
:1052F00008B5024B1B681B6B019308BDB001040885
:1053000008B5024B1B681B6C019308BDB001040873
:1053100008B5024B1B681B68019308BDB401040863
:1053200008B5024B1B685B69019308BDB401040812
:1053300008B5024B1B68DB69019308BDB401040882
:1053400008B5024B1B681B6A019308BDB401040831
:1053500008B5024B1B685B6A019308BDB4010408E1
:1053600008B5024B1B689B6A019308BDB401040891
:1053700008B5024B1B689B6B019308BDB401040880
:1053800008B5024B1B68DB6B019308BDB401040830
:1053900008B5024B1B685B68019308BD9C010408BB
:1053A00008B5024B1B689B68019308BD9C0104086B
:1053B00008B5024B1B681B69019308BD9C010408DA
:1053C00008B5024B1B685B69019308BD9C0104088A
:1053D00008B5024B1B68DB69019308BD9C010408FA
:1053E00008B5024B1B689B6D019308BD9C01040826
:1053F00008B5024B1B68DB6D019308BD9C010408D6
:1054000008B5024B1B689B6E019308BDB8010408E8
:1054100008B5024B1B685B68019308BDD001040806
:1054200008B5024B1B685B69019308BDD0010408F5
:1054300008B5024B1B685B6C019308BDD0010408E2
:1054400008B5024B1B689B6C019308BDD001040892
:1054500008B5024B1B68DB6C019308BDD001040842
:1054600008B5024B1B685B6D019308BDD0010408B1
:1054700008B5024B1B68DB6E019308BDD001040820
:1054800008B5024B1B689B69019308BDC401040861
:1054900008B5024B1B685B6A019308BDC401040890
:1054A00008B5024B1B689B6A019308BDC401040840
:1054B00008B5024B1B68DB6A019308BDC4010408F0
:1054C00008B5024B1B681B6B019308BDC40104089F
:1054D00008B5024B1B685B6B019308BDC40104084F
:1054E00008B5024B1B689B6B019308BDC4010408FF
:1054F00008B5024B1B681B6C019308BDC40104086E
:1055000008B5024B1B68DB6C019308BDC40104089D
:1055100008B5024B1B68DB68019308BDAC010408A9
:1055200008B5024B1B689B69019308BDAC010408D8
:1055300008B5024B1B68DB69019308BDAC01040888
:1055400008B5024B1B681B6A019308BDAC01040837
:1055500008B5024B1B685B6A019308BDAC010408E7
:1055600008B5024B1B689B6A019308BDAC01040897
:1055700008B5024B1B68DB6A019308BDAC01040847
:1055800008B5024B1B681B6B019308BDAC010408F6
:1055900008B5024B1B685B6B019308BDAC010408A6
:1055A00008B5024B1B681B6C019308BDAC010408D5
:1055B00008B5024B1B689B6C019308BDAC01040845
:1055C00008B5024B1B68DB6C019308BDAC010408F5
:1055D00008B5024B1B681B6D019308BDAC010408A4
:1055E00008B5024B1B681B68019308BD2400060820
:1055F00008B5024B1B685B68019308BD24000608D0
:1056000008B5024B1B689B68019308BD240006087F
:1056100008B5024B1B68DB68019308BD240006082F
:1056200008B5024B1B681B69019308BD24000608DE
:1056300008B5024B1B685B69019308BD240006088E
:1056400008B5024B1B68DB69019308BD24000608FE
:1056500008B5024B1B681B6A019308BD24000608AD
:1056600008B5024B1B681B6B019308BD240006089C
:1056700008B5024B1B685B6C019308BD240006084B
:1056800008B5024B1B689B6B019308BD2000060800
:1056900008B5024B1B68DB6B019308BD20000608B0
:1056A00008B5024B1B685B6C019308BD200006081F
:1056B00008B5024B1B681B68019308BD1C00060857
:1056C00008B5024B1B685B68019308BD1C00060807
:1056D00008B5024B1B681B69019308BD1C00060836
:1056E00008B5024B1B685B69019308BD1C000608E6
:1056F00008B5024B1B689B69019308BD1C00060896
:1057000008B5024B1B68DB69019308BD1C00060845
:1057100008B5024B1B681B6A019308BD1C000608F4
:1057200008B5024B1B681B6D019308BDA001020860
:1057300008B5024B1B685B6D019308BDA001020810
:1057400008B5024B1B681B68019308BDA40104083F
:1057500008B5024B1B685B68019308BDA4010408EF
:1057600008B5024B1B685B69019308BDA4010408DE
:1057700008B5024B1B689B69019308BDA40104088E
:1057800008B5024B1B68DB6A019308BDA40104083D
:1057900008B5024B1B68DB6C019308BDA40104082B
:1057A00008B5024B1B685B6D019308BDA40104089A
:1057B00008B5024B1B689B6D019308BDA40104084A
:1057C00008B5034B1B68D3F89030019308BD000067
:1057D000A401040808B5034B1B68D3F89C3001935F
:1057E00008BD0000A401040808B5024B1B685B68F3
:1057F000019308BDC801040808B5024B1B689B68EB
:10580000019308BDC801040808B5024B1B68DB689A
:10581000019308BDC801040808B5024B1B681B6949
:10582000019308BDC801040808B5024B1B685B69F9
:10583000019308BDC801040808B5024B1B689B69A9
:10584000019308BDC801040808B5024B1B68DB6959
:10585000019308BDC801040808B5024B1B681B6A08
:10586000019308BDC801040808B5024B1B681B6BF7
:10587000019308BDC801040808B5024B1B685B6BA7
:10588000019308BDC801040808B5024B1B685B689A
:10589000019308BDCC01040808B5024B1B689B6846
:1058A000019308BDCC01040808B5024B1B68DB68F6
:1058B000019308BDCC01040808B5024B1B685B6965
:1058C000019308BDCC01040808B5024B1B68DB69D5
:1058D000019308BDCC01040808B5024B1B681B6A84
:1058E000019308BDCC01040808B5024B1B681B6B73
:1058F000019308BDCC01040808B5024B1B68DB6BA3
:10590000019308BDCC01040808B5024B1B681B6855
:10591000019308BDA001040808B5024B1B685B6831
:10592000019308BDA001040808B5024B1B689B68E1
:10593000019308BDA001040808B5024B1B68DB6891
:10594000019308BDA001040808B5024B1B681B6940
:10595000019308BDA001040808B5024B1B689B69B0
:10596000019308BDA001040808B5024B1B68DB6960
:10597000019308BDA001040808B5024B1B681B6A0F
:10598000019308BDA001040808B5024B1B685B6ABF
:10599000019308BDA001040808B5024B1B68DB6A2F
:1059A000019308BDA001040808B5024B1B681B6BDE
:1059B000019308BDA001040808B502F023FDBDE86D
:1059C000084002F0FEB910B50446017009B1FFF7B6
:1059D000F3FF204610BD08B502F014FDBDE80840F5
:1059E00002F0F8B910B5037804460BB1FFF7F3FFE6
:1059F000204610BD10B504460068FFF7ECFF2046B6
:105A000010BD37B502AC0D4644F8040DFFF7D4FFC6
:105A100002F0F8FC6B2102F0C6F902F0F3FC036817
:105A200029469B68984702F0EDFC012102F0BEF97F
:105A300002F0E8FC01231A466B2102F09BF902F008
:105A4000E1FC03685B69984705462046FFF7D2FFF3
:105A5000E8B203B030BD73B502AC15460E4644F84B
:105A6000040DFFF7A9FF02F0CDFC6B2102F09BF9BA
:105A700002F0C8FC036831469B68984702F0C2FCFC
:105A8000036829469B68984702F0BCFC012102F09C
:105A90008DF92046FFF7AEFF02B070BD37B5044662
:105AA0000D460190FFF788FF00212046FFF7A9FF70
:105AB00041F258139D4200F087025BD020D841F29A
:105AC00018039D424DD00CD840F678739D4242D0C9
:105AD00040F6C8739D4241D040F628739D4260D184
